{
	"src/RPSToken.sol": {
		"RPSToken": {
			"abi": [
				{
					"inputs": [],
					"stateMutability": "nonpayable",
					"type": "constructor"
				},
				{
					"inputs": [
						{
							"internalType": "address",
							"name": "_owner",
							"type": "address"
						},
						{
							"internalType": "address",
							"name": "_spender",
							"type": "address"
						},
						{
							"internalType": "uint256",
							"name": "_value",
							"type": "uint256"
						}
					],
					"name": "approve",
					"outputs": [
						{
							"internalType": "bool",
							"name": "",
							"type": "bool"
						}
					],
					"stateMutability": "nonpayable",
					"type": "function"
				},
				{
					"inputs": [
						{
							"internalType": "address",
							"name": "account",
							"type": "address"
						}
					],
					"name": "balanceOf",
					"outputs": [
						{
							"internalType": "uint256",
							"name": "",
							"type": "uint256"
						}
					],
					"stateMutability": "view",
					"type": "function"
				},
				{
					"inputs": [
						{
							"internalType": "address",
							"name": "_owner",
							"type": "address"
						},
						{
							"internalType": "address",
							"name": "_spender",
							"type": "address"
						}
					],
					"name": "checkAllowance",
					"outputs": [
						{
							"internalType": "uint256",
							"name": "",
							"type": "uint256"
						}
					],
					"stateMutability": "view",
					"type": "function"
				},
				{
					"inputs": [],
					"name": "currentSupply",
					"outputs": [
						{
							"internalType": "uint256",
							"name": "",
							"type": "uint256"
						}
					],
					"stateMutability": "view",
					"type": "function"
				},
				{
					"inputs": [],
					"name": "stopMinting",
					"outputs": [
						{
							"internalType": "bool",
							"name": "",
							"type": "bool"
						}
					],
					"stateMutability": "nonpayable",
					"type": "function"
				},
				{
					"inputs": [],
					"name": "supplyLimit",
					"outputs": [
						{
							"internalType": "uint256",
							"name": "",
							"type": "uint256"
						}
					],
					"stateMutability": "view",
					"type": "function"
				},
				{
					"inputs": [],
					"name": "topUp",
					"outputs": [],
					"stateMutability": "payable",
					"type": "function"
				},
				{
					"inputs": [
						{
							"internalType": "address",
							"name": "_to",
							"type": "address"
						},
						{
							"internalType": "uint256",
							"name": "_value",
							"type": "uint256"
						}
					],
					"name": "transfer",
					"outputs": [],
					"stateMutability": "nonpayable",
					"type": "function"
				},
				{
					"inputs": [
						{
							"internalType": "address",
							"name": "_from",
							"type": "address"
						},
						{
							"internalType": "address",
							"name": "_spender",
							"type": "address"
						},
						{
							"internalType": "address",
							"name": "_to",
							"type": "address"
						},
						{
							"internalType": "uint256",
							"name": "value",
							"type": "uint256"
						}
					],
					"name": "transferFrom",
					"outputs": [],
					"stateMutability": "nonpayable",
					"type": "function"
				}
			],
			"devdoc": {
				"kind": "dev",
				"methods": {},
				"version": 1
			},
			"evm": {
				"assembly": "    /* \"src/RPSToken.sol\":82:1569  contract RPSToken {... */\n  mstore(0x40, 0x80)\n    /* \"src/RPSToken.sol\":184:299  constructor() {... */\n  callvalue\n  dup1\n  iszero\n  tag_1\n  jumpi\n  0x00\n  dup1\n  revert\ntag_1:\n  pop\n    /* \"src/RPSToken.sol\":224:235  new ERC20() */\n  mload(0x40)\n  tag_4\n  swap1\n  tag_5\n  jump\t// in\ntag_4:\n  mload(0x40)\n  dup1\n  swap2\n  sub\n  swap1\n  0x00\n  create\n  dup1\n  iszero\n  dup1\n  iszero\n  tag_6\n  jumpi\n  returndatasize\n  0x00\n  dup1\n  returndatacopy\n  revert(0x00, returndatasize)\ntag_6:\n  pop\n    /* \"src/RPSToken.sol\":208:221  erc20Contract */\n  0x00\n  dup1\n    /* \"src/RPSToken.sol\":208:235  erc20Contract = new ERC20() */\n  0x0100\n  exp\n  dup2\n  sload\n  dup2\n  0xffffffffffffffffffffffffffffffffffffffff\n  mul\n  not\n  and\n  swap1\n  dup4\n  0xffffffffffffffffffffffffffffffffffffffff\n  and\n  mul\n  or\n  swap1\n  sstore\n  pop\n    /* \"src/RPSToken.sol\":259:264  10000 */\n  0x2710\n    /* \"src/RPSToken.sol\":245:256  supplyLimit */\n  0x01\n    /* \"src/RPSToken.sol\":245:264  supplyLimit = 10000 */\n  dup2\n  swap1\n  sstore\n  pop\n    /* \"src/RPSToken.sol\":282:292  msg.sender */\n  caller\n    /* \"src/RPSToken.sol\":274:279  owner */\n  0x02\n  0x00\n    /* \"src/RPSToken.sol\":274:292  owner = msg.sender */\n  0x0100\n  exp\n  dup2\n  sload\n  dup2\n  0xffffffffffffffffffffffffffffffffffffffff\n  mul\n  not\n  and\n  swap1\n  dup4\n  0xffffffffffffffffffffffffffffffffffffffff\n  and\n  mul\n  or\n  swap1\n  sstore\n  pop\n    /* \"src/RPSToken.sol\":82:1569  contract RPSToken {... */\n  jump(tag_7)\ntag_5:\n  dataSize(sub_1)\n  dup1\n  dataOffset(sub_1)\n  dup4\n  codecopy\n  add\n  swap1\n  jump\t// out\ntag_7:\n  dataSize(sub_0)\n  dup1\n  dataOffset(sub_0)\n  0x00\n  codecopy\n  0x00\n  return\nstop\n\nsub_0: assembly {\n        /* \"src/RPSToken.sol\":82:1569  contract RPSToken {... */\n      mstore(0x40, 0x80)\n      jumpi(tag_1, lt(calldatasize, 0x04))\n      shr(0xe0, calldataload(0x00))\n      dup1\n      0x771282f6\n      gt\n      tag_11\n      jumpi\n      dup1\n      0x771282f6\n      eq\n      tag_6\n      jumpi\n      dup1\n      0x8b099b23\n      eq\n      tag_7\n      jumpi\n      dup1\n      0xa9059cbb\n      eq\n      tag_8\n      jumpi\n      dup1\n      0xdc29f1de\n      eq\n      tag_9\n      jumpi\n      dup1\n      0xe1f21c67\n      eq\n      tag_10\n      jumpi\n      jump(tag_1)\n    tag_11:\n      dup1\n      0x15dacbea\n      eq\n      tag_2\n      jumpi\n      dup1\n      0x19d1997a\n      eq\n      tag_3\n      jumpi\n      dup1\n      0x3e3e0b12\n      eq\n      tag_4\n      jumpi\n      dup1\n      0x70a08231\n      eq\n      tag_5\n      jumpi\n    tag_1:\n      0x00\n      dup1\n      revert\n        /* \"src/RPSToken.sol\":971:1135  function transferFrom(address _from, address _spender, address _to, uint256 value) public {... */\n    tag_2:\n      callvalue\n      dup1\n      iszero\n      tag_12\n      jumpi\n      0x00\n      dup1\n      revert\n    tag_12:\n      pop\n      tag_13\n      0x04\n      dup1\n      calldatasize\n      sub\n      dup2\n      add\n      swap1\n      tag_14\n      swap2\n      swap1\n      tag_15\n      jump\t// in\n    tag_14:\n      tag_16\n      jump\t// in\n    tag_13:\n      stop\n        /* \"src/RPSToken.sol\":132:158  uint256 public supplyLimit */\n    tag_3:\n      callvalue\n      dup1\n      iszero\n      tag_17\n      jumpi\n      0x00\n      dup1\n      revert\n    tag_17:\n      pop\n      tag_18\n      tag_19\n      jump\t// in\n    tag_18:\n      mload(0x40)\n      tag_20\n      swap2\n      swap1\n      tag_21\n      jump\t// in\n    tag_20:\n      mload(0x40)\n      dup1\n      swap2\n      sub\n      swap1\n      return\n        /* \"src/RPSToken.sol\":1468:1566  function stopMinting() public returns (bool) {... */\n    tag_4:\n      callvalue\n      dup1\n      iszero\n      tag_22\n      jumpi\n      0x00\n      dup1\n      revert\n    tag_22:\n      pop\n      tag_23\n      tag_24\n      jump\t// in\n    tag_23:\n      mload(0x40)\n      tag_25\n      swap2\n      swap1\n      tag_26\n      jump\t// in\n    tag_25:\n      mload(0x40)\n      dup1\n      swap2\n      sub\n      swap1\n      return\n        /* \"src/RPSToken.sol\":416:537  function balanceOf(address account) public view returns(uint256) {... */\n    tag_5:\n      callvalue\n      dup1\n      iszero\n      tag_27\n      jumpi\n      0x00\n      dup1\n      revert\n    tag_27:\n      pop\n      tag_28\n      0x04\n      dup1\n      calldatasize\n      sub\n      dup2\n      add\n      swap1\n      tag_29\n      swap2\n      swap1\n      tag_30\n      jump\t// in\n    tag_29:\n      tag_31\n      jump\t// in\n    tag_28:\n      mload(0x40)\n      tag_32\n      swap2\n      swap1\n      tag_21\n      jump\t// in\n    tag_32:\n      mload(0x40)\n      dup1\n      swap2\n      sub\n      swap1\n      return\n        /* \"src/RPSToken.sol\":305:410  function currentSupply() public view returns(uint256) {... */\n    tag_6:\n      callvalue\n      dup1\n      iszero\n      tag_33\n      jumpi\n      0x00\n      dup1\n      revert\n    tag_33:\n      pop\n      tag_34\n      tag_35\n      jump\t// in\n    tag_34:\n      mload(0x40)\n      tag_36\n      swap2\n      swap1\n      tag_21\n      jump\t// in\n    tag_36:\n      mload(0x40)\n      dup1\n      swap2\n      sub\n      swap1\n      return\n        /* \"src/RPSToken.sol\":1309:1462  function checkAllowance(address _owner, address _spender) public view returns (uint256) {... */\n    tag_7:\n      callvalue\n      dup1\n      iszero\n      tag_37\n      jumpi\n      0x00\n      dup1\n      revert\n    tag_37:\n      pop\n      tag_38\n      0x04\n      dup1\n      calldatasize\n      sub\n      dup2\n      add\n      swap1\n      tag_39\n      swap2\n      swap1\n      tag_40\n      jump\t// in\n    tag_39:\n      tag_41\n      jump\t// in\n    tag_38:\n      mload(0x40)\n      tag_42\n      swap2\n      swap1\n      tag_21\n      jump\t// in\n    tag_42:\n      mload(0x40)\n      dup1\n      swap2\n      sub\n      swap1\n      return\n        /* \"src/RPSToken.sol\":859:965  function transfer(address _to, uint256 _value) public {... */\n    tag_8:\n      callvalue\n      dup1\n      iszero\n      tag_43\n      jumpi\n      0x00\n      dup1\n      revert\n    tag_43:\n      pop\n      tag_44\n      0x04\n      dup1\n      calldatasize\n      sub\n      dup2\n      add\n      swap1\n      tag_45\n      swap2\n      swap1\n      tag_46\n      jump\t// in\n    tag_45:\n      tag_47\n      jump\t// in\n    tag_44:\n      stop\n        /* \"src/RPSToken.sol\":543:853  function topUp() public payable {... */\n    tag_9:\n      tag_48\n      tag_49\n      jump\t// in\n    tag_48:\n      stop\n        /* \"src/RPSToken.sol\":1141:1303  function approve(address _owner, address _spender, uint256 _value) public returns (bool) {... */\n    tag_10:\n      callvalue\n      dup1\n      iszero\n      tag_50\n      jumpi\n      0x00\n      dup1\n      revert\n    tag_50:\n      pop\n      tag_51\n      0x04\n      dup1\n      calldatasize\n      sub\n      dup2\n      add\n      swap1\n      tag_52\n      swap2\n      swap1\n      tag_53\n      jump\t// in\n    tag_52:\n      tag_54\n      jump\t// in\n    tag_51:\n      mload(0x40)\n      tag_55\n      swap2\n      swap1\n      tag_26\n      jump\t// in\n    tag_55:\n      mload(0x40)\n      dup1\n      swap2\n      sub\n      swap1\n      return\n        /* \"src/RPSToken.sol\":971:1135  function transferFrom(address _from, address _spender, address _to, uint256 value) public {... */\n    tag_16:\n        /* \"src/RPSToken.sol\":1071:1084  erc20Contract */\n      0x00\n      dup1\n      sload\n      swap1\n      0x0100\n      exp\n      swap1\n      div\n      0xffffffffffffffffffffffffffffffffffffffff\n      and\n        /* \"src/RPSToken.sol\":1071:1099  erc20Contract.DTtransferFrom */\n      0xffffffffffffffffffffffffffffffffffffffff\n      and\n      0xdb05ea05\n        /* \"src/RPSToken.sol\":1100:1105  _from */\n      dup6\n        /* \"src/RPSToken.sol\":1107:1115  _spender */\n      dup6\n        /* \"src/RPSToken.sol\":1117:1120  _to */\n      dup6\n        /* \"src/RPSToken.sol\":1122:1127  value */\n      dup6\n        /* \"src/RPSToken.sol\":1071:1128  erc20Contract.DTtransferFrom(_from, _spender, _to, value) */\n      mload(0x40)\n      dup6\n      0xffffffff\n      and\n      0xe0\n      shl\n      dup2\n      mstore\n      0x04\n      add\n      tag_57\n      swap5\n      swap4\n      swap3\n      swap2\n      swap1\n      tag_58\n      jump\t// in\n    tag_57:\n      0x20\n      mload(0x40)\n      dup1\n      dup4\n      sub\n      dup2\n      0x00\n      dup8\n      gas\n      call\n      iszero\n      dup1\n      iszero\n      tag_60\n      jumpi\n      returndatasize\n      0x00\n      dup1\n      returndatacopy\n      revert(0x00, returndatasize)\n    tag_60:\n      pop\n      pop\n      pop\n      pop\n      mload(0x40)\n      returndatasize\n      not(0x1f)\n      0x1f\n      dup3\n      add\n      and\n      dup3\n      add\n      dup1\n      0x40\n      mstore\n      pop\n      dup2\n      add\n      swap1\n      tag_61\n      swap2\n      swap1\n      tag_62\n      jump\t// in\n    tag_61:\n      pop\n        /* \"src/RPSToken.sol\":971:1135  function transferFrom(address _from, address _spender, address _to, uint256 value) public {... */\n      pop\n      pop\n      pop\n      pop\n      jump\t// out\n        /* \"src/RPSToken.sol\":132:158  uint256 public supplyLimit */\n    tag_19:\n      sload(0x01)\n      dup2\n      jump\t// out\n        /* \"src/RPSToken.sol\":1468:1566  function stopMinting() public returns (bool) {... */\n    tag_24:\n        /* \"src/RPSToken.sol\":1507:1511  bool */\n      0x00\n        /* \"src/RPSToken.sol\":1530:1543  erc20Contract */\n      dup1\n      0x00\n      swap1\n      sload\n      swap1\n      0x0100\n      exp\n      swap1\n      div\n      0xffffffffffffffffffffffffffffffffffffffff\n      and\n        /* \"src/RPSToken.sol\":1530:1557  erc20Contract.finishMinting */\n      0xffffffffffffffffffffffffffffffffffffffff\n      and\n      0x7d64bcb4\n        /* \"src/RPSToken.sol\":1530:1559  erc20Contract.finishMinting() */\n      mload(0x40)\n      dup2\n      0xffffffff\n      and\n      0xe0\n      shl\n      dup2\n      mstore\n      0x04\n      add\n      0x20\n      mload(0x40)\n      dup1\n      dup4\n      sub\n      dup2\n      0x00\n      dup8\n      gas\n      call\n      iszero\n      dup1\n      iszero\n      tag_65\n      jumpi\n      returndatasize\n      0x00\n      dup1\n      returndatacopy\n      revert(0x00, returndatasize)\n    tag_65:\n      pop\n      pop\n      pop\n      pop\n      mload(0x40)\n      returndatasize\n      not(0x1f)\n      0x1f\n      dup3\n      add\n      and\n      dup3\n      add\n      dup1\n      0x40\n      mstore\n      pop\n      dup2\n      add\n      swap1\n      tag_66\n      swap2\n      swap1\n      tag_62\n      jump\t// in\n    tag_66:\n        /* \"src/RPSToken.sol\":1523:1559  return erc20Contract.finishMinting() */\n      swap1\n      pop\n        /* \"src/RPSToken.sol\":1468:1566  function stopMinting() public returns (bool) {... */\n      swap1\n      jump\t// out\n        /* \"src/RPSToken.sol\":416:537  function balanceOf(address account) public view returns(uint256) {... */\n    tag_31:\n        /* \"src/RPSToken.sol\":472:479  uint256 */\n      0x00\n        /* \"src/RPSToken.sol\":498:511  erc20Contract */\n      dup1\n      0x00\n      swap1\n      sload\n      swap1\n      0x0100\n      exp\n      swap1\n      div\n      0xffffffffffffffffffffffffffffffffffffffff\n      and\n        /* \"src/RPSToken.sol\":498:521  erc20Contract.balanceOf */\n      0xffffffffffffffffffffffffffffffffffffffff\n      and\n      0x70a08231\n        /* \"src/RPSToken.sol\":522:529  account */\n      dup4\n        /* \"src/RPSToken.sol\":498:530  erc20Contract.balanceOf(account) */\n      mload(0x40)\n      dup3\n      0xffffffff\n      and\n      0xe0\n      shl\n      dup2\n      mstore\n      0x04\n      add\n      tag_68\n      swap2\n      swap1\n      tag_69\n      jump\t// in\n    tag_68:\n      0x20\n      mload(0x40)\n      dup1\n      dup4\n      sub\n      dup2\n      dup7\n      gas\n      staticcall\n      iszero\n      dup1\n      iszero\n      tag_71\n      jumpi\n      returndatasize\n      0x00\n      dup1\n      returndatacopy\n      revert(0x00, returndatasize)\n    tag_71:\n      pop\n      pop\n      pop\n      pop\n      mload(0x40)\n      returndatasize\n      not(0x1f)\n      0x1f\n      dup3\n      add\n      and\n      dup3\n      add\n      dup1\n      0x40\n      mstore\n      pop\n      dup2\n      add\n      swap1\n      tag_72\n      swap2\n      swap1\n      tag_73\n      jump\t// in\n    tag_72:\n        /* \"src/RPSToken.sol\":491:530  return erc20Contract.balanceOf(account) */\n      swap1\n      pop\n        /* \"src/RPSToken.sol\":416:537  function balanceOf(address account) public view returns(uint256) {... */\n      swap2\n      swap1\n      pop\n      jump\t// out\n        /* \"src/RPSToken.sol\":305:410  function currentSupply() public view returns(uint256) {... */\n    tag_35:\n        /* \"src/RPSToken.sol\":350:357  uint256 */\n      0x00\n        /* \"src/RPSToken.sol\":376:389  erc20Contract */\n      dup1\n      0x00\n      swap1\n      sload\n      swap1\n      0x0100\n      exp\n      swap1\n      div\n      0xffffffffffffffffffffffffffffffffffffffff\n      and\n        /* \"src/RPSToken.sol\":376:401  erc20Contract.totalSupply */\n      0xffffffffffffffffffffffffffffffffffffffff\n      and\n      0x18160ddd\n        /* \"src/RPSToken.sol\":376:403  erc20Contract.totalSupply() */\n      mload(0x40)\n      dup2\n      0xffffffff\n      and\n      0xe0\n      shl\n      dup2\n      mstore\n      0x04\n      add\n      0x20\n      mload(0x40)\n      dup1\n      dup4\n      sub\n      dup2\n      dup7\n      gas\n      staticcall\n      iszero\n      dup1\n      iszero\n      tag_76\n      jumpi\n      returndatasize\n      0x00\n      dup1\n      returndatacopy\n      revert(0x00, returndatasize)\n    tag_76:\n      pop\n      pop\n      pop\n      pop\n      mload(0x40)\n      returndatasize\n      not(0x1f)\n      0x1f\n      dup3\n      add\n      and\n      dup3\n      add\n      dup1\n      0x40\n      mstore\n      pop\n      dup2\n      add\n      swap1\n      tag_77\n      swap2\n      swap1\n      tag_73\n      jump\t// in\n    tag_77:\n        /* \"src/RPSToken.sol\":369:403  return erc20Contract.totalSupply() */\n      swap1\n      pop\n        /* \"src/RPSToken.sol\":305:410  function currentSupply() public view returns(uint256) {... */\n      swap1\n      jump\t// out\n        /* \"src/RPSToken.sol\":1309:1462  function checkAllowance(address _owner, address _spender) public view returns (uint256) {... */\n    tag_41:\n        /* \"src/RPSToken.sol\":1388:1395  uint256 */\n      0x00\n        /* \"src/RPSToken.sol\":1414:1427  erc20Contract */\n      dup1\n      0x00\n      swap1\n      sload\n      swap1\n      0x0100\n      exp\n      swap1\n      div\n      0xffffffffffffffffffffffffffffffffffffffff\n      and\n        /* \"src/RPSToken.sol\":1414:1437  erc20Contract.allowance */\n      0xffffffffffffffffffffffffffffffffffffffff\n      and\n      0xdd62ed3e\n        /* \"src/RPSToken.sol\":1438:1444  _owner */\n      dup5\n        /* \"src/RPSToken.sol\":1446:1454  _spender */\n      dup5\n        /* \"src/RPSToken.sol\":1414:1455  erc20Contract.allowance(_owner, _spender) */\n      mload(0x40)\n      dup4\n      0xffffffff\n      and\n      0xe0\n      shl\n      dup2\n      mstore\n      0x04\n      add\n      tag_79\n      swap3\n      swap2\n      swap1\n      tag_80\n      jump\t// in\n    tag_79:\n      0x20\n      mload(0x40)\n      dup1\n      dup4\n      sub\n      dup2\n      dup7\n      gas\n      staticcall\n      iszero\n      dup1\n      iszero\n      tag_82\n      jumpi\n      returndatasize\n      0x00\n      dup1\n      returndatacopy\n      revert(0x00, returndatasize)\n    tag_82:\n      pop\n      pop\n      pop\n      pop\n      mload(0x40)\n      returndatasize\n      not(0x1f)\n      0x1f\n      dup3\n      add\n      and\n      dup3\n      add\n      dup1\n      0x40\n      mstore\n      pop\n      dup2\n      add\n      swap1\n      tag_83\n      swap2\n      swap1\n      tag_73\n      jump\t// in\n    tag_83:\n        /* \"src/RPSToken.sol\":1407:1455  return erc20Contract.allowance(_owner, _spender) */\n      swap1\n      pop\n        /* \"src/RPSToken.sol\":1309:1462  function checkAllowance(address _owner, address _spender) public view returns (uint256) {... */\n      swap3\n      swap2\n      pop\n      pop\n      jump\t// out\n        /* \"src/RPSToken.sol\":859:965  function transfer(address _to, uint256 _value) public {... */\n    tag_47:\n        /* \"src/RPSToken.sol\":923:936  erc20Contract */\n      0x00\n      dup1\n      sload\n      swap1\n      0x0100\n      exp\n      swap1\n      div\n      0xffffffffffffffffffffffffffffffffffffffff\n      and\n        /* \"src/RPSToken.sol\":923:945  erc20Contract.transfer */\n      0xffffffffffffffffffffffffffffffffffffffff\n      and\n      0xa9059cbb\n        /* \"src/RPSToken.sol\":946:949  _to */\n      dup4\n        /* \"src/RPSToken.sol\":951:957  _value */\n      dup4\n        /* \"src/RPSToken.sol\":923:958  erc20Contract.transfer(_to, _value) */\n      mload(0x40)\n      dup4\n      0xffffffff\n      and\n      0xe0\n      shl\n      dup2\n      mstore\n      0x04\n      add\n      tag_85\n      swap3\n      swap2\n      swap1\n      tag_86\n      jump\t// in\n    tag_85:\n      0x20\n      mload(0x40)\n      dup1\n      dup4\n      sub\n      dup2\n      0x00\n      dup8\n      gas\n      call\n      iszero\n      dup1\n      iszero\n      tag_88\n      jumpi\n      returndatasize\n      0x00\n      dup1\n      returndatacopy\n      revert(0x00, returndatasize)\n    tag_88:\n      pop\n      pop\n      pop\n      pop\n      mload(0x40)\n      returndatasize\n      not(0x1f)\n      0x1f\n      dup3\n      add\n      and\n      dup3\n      add\n      dup1\n      0x40\n      mstore\n      pop\n      dup2\n      add\n      swap1\n      tag_89\n      swap2\n      swap1\n      tag_62\n      jump\t// in\n    tag_89:\n      pop\n        /* \"src/RPSToken.sol\":859:965  function transfer(address _to, uint256 _value) public {... */\n      pop\n      pop\n      jump\t// out\n        /* \"src/RPSToken.sol\":543:853  function topUp() public payable {... */\n    tag_49:\n        /* \"src/RPSToken.sol\":605:615  0.01 ether */\n      0x2386f26fc10000\n        /* \"src/RPSToken.sol\":593:602  msg.value */\n      callvalue\n        /* \"src/RPSToken.sol\":593:615  msg.value > 0.01 ether */\n      gt\n        /* \"src/RPSToken.sol\":585:664  require(msg.value > 0.01 ether, \"at least 0.01 ETH is needed to join the game\") */\n      tag_91\n      jumpi\n      mload(0x40)\n      0x08c379a000000000000000000000000000000000000000000000000000000000\n      dup2\n      mstore\n      0x04\n      add\n      tag_92\n      swap1\n      tag_93\n      jump\t// in\n    tag_92:\n      mload(0x40)\n      dup1\n      swap2\n      sub\n      swap1\n      revert\n    tag_91:\n        /* \"src/RPSToken.sol\":739:750  supplyLimit */\n      sload(0x01)\n        /* \"src/RPSToken.sol\":725:735  5 * 10**17 */\n      0x06f05b59d3b20000\n        /* \"src/RPSToken.sol\":712:721  msg.value */\n      callvalue\n        /* \"src/RPSToken.sol\":712:736  msg.value / (5 * 10**17) */\n      tag_94\n      swap2\n      swap1\n      tag_95\n      jump\t// in\n    tag_94:\n        /* \"src/RPSToken.sol\":682:695  erc20Contract */\n      0x00\n      dup1\n      sload\n      swap1\n      0x0100\n      exp\n      swap1\n      div\n      0xffffffffffffffffffffffffffffffffffffffff\n      and\n        /* \"src/RPSToken.sol\":682:707  erc20Contract.totalSupply */\n      0xffffffffffffffffffffffffffffffffffffffff\n      and\n      0x18160ddd\n        /* \"src/RPSToken.sol\":682:709  erc20Contract.totalSupply() */\n      mload(0x40)\n      dup2\n      0xffffffff\n      and\n      0xe0\n      shl\n      dup2\n      mstore\n      0x04\n      add\n      0x20\n      mload(0x40)\n      dup1\n      dup4\n      sub\n      dup2\n      dup7\n      gas\n      staticcall\n      iszero\n      dup1\n      iszero\n      tag_97\n      jumpi\n      returndatasize\n      0x00\n      dup1\n      returndatacopy\n      revert(0x00, returndatasize)\n    tag_97:\n      pop\n      pop\n      pop\n      pop\n      mload(0x40)\n      returndatasize\n      not(0x1f)\n      0x1f\n      dup3\n      add\n      and\n      dup3\n      add\n      dup1\n      0x40\n      mstore\n      pop\n      dup2\n      add\n      swap1\n      tag_98\n      swap2\n      swap1\n      tag_73\n      jump\t// in\n    tag_98:\n        /* \"src/RPSToken.sol\":682:736  erc20Contract.totalSupply() + msg.value / (5 * 10**17) */\n      tag_99\n      swap2\n      swap1\n      tag_100\n      jump\t// in\n    tag_99:\n        /* \"src/RPSToken.sol\":682:750  erc20Contract.totalSupply() + msg.value / (5 * 10**17) < supplyLimit */\n      lt\n        /* \"src/RPSToken.sol\":674:780  require(erc20Contract.totalSupply() + msg.value / (5 * 10**17) < supplyLimit, \"RPST supply is not enough\") */\n      tag_101\n      jumpi\n      mload(0x40)\n      0x08c379a000000000000000000000000000000000000000000000000000000000\n      dup2\n      mstore\n      0x04\n      add\n      tag_102\n      swap1\n      tag_103\n      jump\t// in\n    tag_102:\n      mload(0x40)\n      dup1\n      swap2\n      sub\n      swap1\n      revert\n    tag_101:\n        /* \"src/RPSToken.sol\":790:803  erc20Contract */\n      0x00\n      dup1\n      sload\n      swap1\n      0x0100\n      exp\n      swap1\n      div\n      0xffffffffffffffffffffffffffffffffffffffff\n      and\n        /* \"src/RPSToken.sol\":790:808  erc20Contract.mint */\n      0xffffffffffffffffffffffffffffffffffffffff\n      and\n      0x40c10f19\n        /* \"src/RPSToken.sol\":809:819  msg.sender */\n      caller\n        /* \"src/RPSToken.sol\":834:844  5 * 10**17 */\n      0x06f05b59d3b20000\n        /* \"src/RPSToken.sol\":821:830  msg.value */\n      callvalue\n        /* \"src/RPSToken.sol\":821:845  msg.value / (5 * 10**17) */\n      tag_104\n      swap2\n      swap1\n      tag_95\n      jump\t// in\n    tag_104:\n        /* \"src/RPSToken.sol\":790:846  erc20Contract.mint(msg.sender, msg.value / (5 * 10**17)) */\n      mload(0x40)\n      dup4\n      0xffffffff\n      and\n      0xe0\n      shl\n      dup2\n      mstore\n      0x04\n      add\n      tag_105\n      swap3\n      swap2\n      swap1\n      tag_86\n      jump\t// in\n    tag_105:\n      0x20\n      mload(0x40)\n      dup1\n      dup4\n      sub\n      dup2\n      0x00\n      dup8\n      gas\n      call\n      iszero\n      dup1\n      iszero\n      tag_107\n      jumpi\n      returndatasize\n      0x00\n      dup1\n      returndatacopy\n      revert(0x00, returndatasize)\n    tag_107:\n      pop\n      pop\n      pop\n      pop\n      mload(0x40)\n      returndatasize\n      not(0x1f)\n      0x1f\n      dup3\n      add\n      and\n      dup3\n      add\n      dup1\n      0x40\n      mstore\n      pop\n      dup2\n      add\n      swap1\n      tag_108\n      swap2\n      swap1\n      tag_62\n      jump\t// in\n    tag_108:\n      pop\n        /* \"src/RPSToken.sol\":543:853  function topUp() public payable {... */\n      jump\t// out\n        /* \"src/RPSToken.sol\":1141:1303  function approve(address _owner, address _spender, uint256 _value) public returns (bool) {... */\n    tag_54:\n        /* \"src/RPSToken.sol\":1224:1228  bool */\n      0x00\n        /* \"src/RPSToken.sol\":1247:1260  erc20Contract */\n      dup1\n      0x00\n      swap1\n      sload\n      swap1\n      0x0100\n      exp\n      swap1\n      div\n      0xffffffffffffffffffffffffffffffffffffffff\n      and\n        /* \"src/RPSToken.sol\":1247:1270  erc20Contract.DTapprove */\n      0xffffffffffffffffffffffffffffffffffffffff\n      and\n      0xf0cf209d\n        /* \"src/RPSToken.sol\":1271:1277  _owner */\n      dup6\n        /* \"src/RPSToken.sol\":1279:1287  _spender */\n      dup6\n        /* \"src/RPSToken.sol\":1289:1295  _value */\n      dup6\n        /* \"src/RPSToken.sol\":1247:1296  erc20Contract.DTapprove(_owner, _spender, _value) */\n      mload(0x40)\n      dup5\n      0xffffffff\n      and\n      0xe0\n      shl\n      dup2\n      mstore\n      0x04\n      add\n      tag_110\n      swap4\n      swap3\n      swap2\n      swap1\n      tag_111\n      jump\t// in\n    tag_110:\n      0x20\n      mload(0x40)\n      dup1\n      dup4\n      sub\n      dup2\n      0x00\n      dup8\n      gas\n      call\n      iszero\n      dup1\n      iszero\n      tag_113\n      jumpi\n      returndatasize\n      0x00\n      dup1\n      returndatacopy\n      revert(0x00, returndatasize)\n    tag_113:\n      pop\n      pop\n      pop\n      pop\n      mload(0x40)\n      returndatasize\n      not(0x1f)\n      0x1f\n      dup3\n      add\n      and\n      dup3\n      add\n      dup1\n      0x40\n      mstore\n      pop\n      dup2\n      add\n      swap1\n      tag_114\n      swap2\n      swap1\n      tag_62\n      jump\t// in\n    tag_114:\n        /* \"src/RPSToken.sol\":1240:1296  return erc20Contract.DTapprove(_owner, _spender, _value) */\n      swap1\n      pop\n        /* \"src/RPSToken.sol\":1141:1303  function approve(address _owner, address _spender, uint256 _value) public returns (bool) {... */\n      swap4\n      swap3\n      pop\n      pop\n      pop\n      jump\t// out\n        /* \"#utility.yul\":88:205   */\n    tag_116:\n        /* \"#utility.yul\":197:198   */\n      0x00\n        /* \"#utility.yul\":194:195   */\n      dup1\n        /* \"#utility.yul\":187:199   */\n      revert\n        /* \"#utility.yul\":334:460   */\n    tag_118:\n        /* \"#utility.yul\":371:378   */\n      0x00\n        /* \"#utility.yul\":411:453   */\n      0xffffffffffffffffffffffffffffffffffffffff\n        /* \"#utility.yul\":404:409   */\n      dup3\n        /* \"#utility.yul\":400:454   */\n      and\n        /* \"#utility.yul\":389:454   */\n      swap1\n      pop\n        /* \"#utility.yul\":334:460   */\n      swap2\n      swap1\n      pop\n      jump\t// out\n        /* \"#utility.yul\":466:562   */\n    tag_119:\n        /* \"#utility.yul\":503:510   */\n      0x00\n        /* \"#utility.yul\":532:556   */\n      tag_145\n        /* \"#utility.yul\":550:555   */\n      dup3\n        /* \"#utility.yul\":532:556   */\n      tag_118\n      jump\t// in\n    tag_145:\n        /* \"#utility.yul\":521:556   */\n      swap1\n      pop\n        /* \"#utility.yul\":466:562   */\n      swap2\n      swap1\n      pop\n      jump\t// out\n        /* \"#utility.yul\":568:690   */\n    tag_120:\n        /* \"#utility.yul\":641:665   */\n      tag_147\n        /* \"#utility.yul\":659:664   */\n      dup2\n        /* \"#utility.yul\":641:665   */\n      tag_119\n      jump\t// in\n    tag_147:\n        /* \"#utility.yul\":634:639   */\n      dup2\n        /* \"#utility.yul\":631:666   */\n      eq\n        /* \"#utility.yul\":621:684   */\n      tag_148\n      jumpi\n        /* \"#utility.yul\":680:681   */\n      0x00\n        /* \"#utility.yul\":677:678   */\n      dup1\n        /* \"#utility.yul\":670:682   */\n      revert\n        /* \"#utility.yul\":621:684   */\n    tag_148:\n        /* \"#utility.yul\":568:690   */\n      pop\n      jump\t// out\n        /* \"#utility.yul\":696:835   */\n    tag_121:\n        /* \"#utility.yul\":742:747   */\n      0x00\n        /* \"#utility.yul\":780:786   */\n      dup2\n        /* \"#utility.yul\":767:787   */\n      calldataload\n        /* \"#utility.yul\":758:787   */\n      swap1\n      pop\n        /* \"#utility.yul\":796:829   */\n      tag_150\n        /* \"#utility.yul\":823:828   */\n      dup2\n        /* \"#utility.yul\":796:829   */\n      tag_120\n      jump\t// in\n    tag_150:\n        /* \"#utility.yul\":696:835   */\n      swap3\n      swap2\n      pop\n      pop\n      jump\t// out\n        /* \"#utility.yul\":841:918   */\n    tag_122:\n        /* \"#utility.yul\":878:885   */\n      0x00\n        /* \"#utility.yul\":907:912   */\n      dup2\n        /* \"#utility.yul\":896:912   */\n      swap1\n      pop\n        /* \"#utility.yul\":841:918   */\n      swap2\n      swap1\n      pop\n      jump\t// out\n        /* \"#utility.yul\":924:1046   */\n    tag_123:\n        /* \"#utility.yul\":997:1021   */\n      tag_153\n        /* \"#utility.yul\":1015:1020   */\n      dup2\n        /* \"#utility.yul\":997:1021   */\n      tag_122\n      jump\t// in\n    tag_153:\n        /* \"#utility.yul\":990:995   */\n      dup2\n        /* \"#utility.yul\":987:1022   */\n      eq\n        /* \"#utility.yul\":977:1040   */\n      tag_154\n      jumpi\n        /* \"#utility.yul\":1036:1037   */\n      0x00\n        /* \"#utility.yul\":1033:1034   */\n      dup1\n        /* \"#utility.yul\":1026:1038   */\n      revert\n        /* \"#utility.yul\":977:1040   */\n    tag_154:\n        /* \"#utility.yul\":924:1046   */\n      pop\n      jump\t// out\n        /* \"#utility.yul\":1052:1191   */\n    tag_124:\n        /* \"#utility.yul\":1098:1103   */\n      0x00\n        /* \"#utility.yul\":1136:1142   */\n      dup2\n        /* \"#utility.yul\":1123:1143   */\n      calldataload\n        /* \"#utility.yul\":1114:1143   */\n      swap1\n      pop\n        /* \"#utility.yul\":1152:1185   */\n      tag_156\n        /* \"#utility.yul\":1179:1184   */\n      dup2\n        /* \"#utility.yul\":1152:1185   */\n      tag_123\n      jump\t// in\n    tag_156:\n        /* \"#utility.yul\":1052:1191   */\n      swap3\n      swap2\n      pop\n      pop\n      jump\t// out\n        /* \"#utility.yul\":1197:1962   */\n    tag_15:\n        /* \"#utility.yul\":1283:1289   */\n      0x00\n        /* \"#utility.yul\":1291:1297   */\n      dup1\n        /* \"#utility.yul\":1299:1305   */\n      0x00\n        /* \"#utility.yul\":1307:1313   */\n      dup1\n        /* \"#utility.yul\":1356:1359   */\n      0x80\n        /* \"#utility.yul\":1344:1353   */\n      dup6\n        /* \"#utility.yul\":1335:1342   */\n      dup8\n        /* \"#utility.yul\":1331:1354   */\n      sub\n        /* \"#utility.yul\":1327:1360   */\n      slt\n        /* \"#utility.yul\":1324:1444   */\n      iszero\n      tag_158\n      jumpi\n        /* \"#utility.yul\":1363:1442   */\n      tag_159\n      tag_116\n      jump\t// in\n    tag_159:\n        /* \"#utility.yul\":1324:1444   */\n    tag_158:\n        /* \"#utility.yul\":1483:1484   */\n      0x00\n        /* \"#utility.yul\":1508:1561   */\n      tag_160\n        /* \"#utility.yul\":1553:1560   */\n      dup8\n        /* \"#utility.yul\":1544:1550   */\n      dup3\n        /* \"#utility.yul\":1533:1542   */\n      dup9\n        /* \"#utility.yul\":1529:1551   */\n      add\n        /* \"#utility.yul\":1508:1561   */\n      tag_121\n      jump\t// in\n    tag_160:\n        /* \"#utility.yul\":1498:1561   */\n      swap5\n      pop\n        /* \"#utility.yul\":1454:1571   */\n      pop\n        /* \"#utility.yul\":1610:1612   */\n      0x20\n        /* \"#utility.yul\":1636:1689   */\n      tag_161\n        /* \"#utility.yul\":1681:1688   */\n      dup8\n        /* \"#utility.yul\":1672:1678   */\n      dup3\n        /* \"#utility.yul\":1661:1670   */\n      dup9\n        /* \"#utility.yul\":1657:1679   */\n      add\n        /* \"#utility.yul\":1636:1689   */\n      tag_121\n      jump\t// in\n    tag_161:\n        /* \"#utility.yul\":1626:1689   */\n      swap4\n      pop\n        /* \"#utility.yul\":1581:1699   */\n      pop\n        /* \"#utility.yul\":1738:1740   */\n      0x40\n        /* \"#utility.yul\":1764:1817   */\n      tag_162\n        /* \"#utility.yul\":1809:1816   */\n      dup8\n        /* \"#utility.yul\":1800:1806   */\n      dup3\n        /* \"#utility.yul\":1789:1798   */\n      dup9\n        /* \"#utility.yul\":1785:1807   */\n      add\n        /* \"#utility.yul\":1764:1817   */\n      tag_121\n      jump\t// in\n    tag_162:\n        /* \"#utility.yul\":1754:1817   */\n      swap3\n      pop\n        /* \"#utility.yul\":1709:1827   */\n      pop\n        /* \"#utility.yul\":1866:1868   */\n      0x60\n        /* \"#utility.yul\":1892:1945   */\n      tag_163\n        /* \"#utility.yul\":1937:1944   */\n      dup8\n        /* \"#utility.yul\":1928:1934   */\n      dup3\n        /* \"#utility.yul\":1917:1926   */\n      dup9\n        /* \"#utility.yul\":1913:1935   */\n      add\n        /* \"#utility.yul\":1892:1945   */\n      tag_124\n      jump\t// in\n    tag_163:\n        /* \"#utility.yul\":1882:1945   */\n      swap2\n      pop\n        /* \"#utility.yul\":1837:1955   */\n      pop\n        /* \"#utility.yul\":1197:1962   */\n      swap3\n      swap6\n      swap2\n      swap5\n      pop\n      swap3\n      pop\n      jump\t// out\n        /* \"#utility.yul\":1968:2086   */\n    tag_125:\n        /* \"#utility.yul\":2055:2079   */\n      tag_165\n        /* \"#utility.yul\":2073:2078   */\n      dup2\n        /* \"#utility.yul\":2055:2079   */\n      tag_122\n      jump\t// in\n    tag_165:\n        /* \"#utility.yul\":2050:2053   */\n      dup3\n        /* \"#utility.yul\":2043:2080   */\n      mstore\n        /* \"#utility.yul\":1968:2086   */\n      pop\n      pop\n      jump\t// out\n        /* \"#utility.yul\":2092:2314   */\n    tag_21:\n        /* \"#utility.yul\":2185:2189   */\n      0x00\n        /* \"#utility.yul\":2223:2225   */\n      0x20\n        /* \"#utility.yul\":2212:2221   */\n      dup3\n        /* \"#utility.yul\":2208:2226   */\n      add\n        /* \"#utility.yul\":2200:2226   */\n      swap1\n      pop\n        /* \"#utility.yul\":2236:2307   */\n      tag_167\n        /* \"#utility.yul\":2304:2305   */\n      0x00\n        /* \"#utility.yul\":2293:2302   */\n      dup4\n        /* \"#utility.yul\":2289:2306   */\n      add\n        /* \"#utility.yul\":2280:2286   */\n      dup5\n        /* \"#utility.yul\":2236:2307   */\n      tag_125\n      jump\t// in\n    tag_167:\n        /* \"#utility.yul\":2092:2314   */\n      swap3\n      swap2\n      pop\n      pop\n      jump\t// out\n        /* \"#utility.yul\":2320:2410   */\n    tag_126:\n        /* \"#utility.yul\":2354:2361   */\n      0x00\n        /* \"#utility.yul\":2397:2402   */\n      dup2\n        /* \"#utility.yul\":2390:2403   */\n      iszero\n        /* \"#utility.yul\":2383:2404   */\n      iszero\n        /* \"#utility.yul\":2372:2404   */\n      swap1\n      pop\n        /* \"#utility.yul\":2320:2410   */\n      swap2\n      swap1\n      pop\n      jump\t// out\n        /* \"#utility.yul\":2416:2525   */\n    tag_127:\n        /* \"#utility.yul\":2497:2518   */\n      tag_170\n        /* \"#utility.yul\":2512:2517   */\n      dup2\n        /* \"#utility.yul\":2497:2518   */\n      tag_126\n      jump\t// in\n    tag_170:\n        /* \"#utility.yul\":2492:2495   */\n      dup3\n        /* \"#utility.yul\":2485:2519   */\n      mstore\n        /* \"#utility.yul\":2416:2525   */\n      pop\n      pop\n      jump\t// out\n        /* \"#utility.yul\":2531:2741   */\n    tag_26:\n        /* \"#utility.yul\":2618:2622   */\n      0x00\n        /* \"#utility.yul\":2656:2658   */\n      0x20\n        /* \"#utility.yul\":2645:2654   */\n      dup3\n        /* \"#utility.yul\":2641:2659   */\n      add\n        /* \"#utility.yul\":2633:2659   */\n      swap1\n      pop\n        /* \"#utility.yul\":2669:2734   */\n      tag_172\n        /* \"#utility.yul\":2731:2732   */\n      0x00\n        /* \"#utility.yul\":2720:2729   */\n      dup4\n        /* \"#utility.yul\":2716:2733   */\n      add\n        /* \"#utility.yul\":2707:2713   */\n      dup5\n        /* \"#utility.yul\":2669:2734   */\n      tag_127\n      jump\t// in\n    tag_172:\n        /* \"#utility.yul\":2531:2741   */\n      swap3\n      swap2\n      pop\n      pop\n      jump\t// out\n        /* \"#utility.yul\":2747:3076   */\n    tag_30:\n        /* \"#utility.yul\":2806:2812   */\n      0x00\n        /* \"#utility.yul\":2855:2857   */\n      0x20\n        /* \"#utility.yul\":2843:2852   */\n      dup3\n        /* \"#utility.yul\":2834:2841   */\n      dup5\n        /* \"#utility.yul\":2830:2853   */\n      sub\n        /* \"#utility.yul\":2826:2858   */\n      slt\n        /* \"#utility.yul\":2823:2942   */\n      iszero\n      tag_174\n      jumpi\n        /* \"#utility.yul\":2861:2940   */\n      tag_175\n      tag_116\n      jump\t// in\n    tag_175:\n        /* \"#utility.yul\":2823:2942   */\n    tag_174:\n        /* \"#utility.yul\":2981:2982   */\n      0x00\n        /* \"#utility.yul\":3006:3059   */\n      tag_176\n        /* \"#utility.yul\":3051:3058   */\n      dup5\n        /* \"#utility.yul\":3042:3048   */\n      dup3\n        /* \"#utility.yul\":3031:3040   */\n      dup6\n        /* \"#utility.yul\":3027:3049   */\n      add\n        /* \"#utility.yul\":3006:3059   */\n      tag_121\n      jump\t// in\n    tag_176:\n        /* \"#utility.yul\":2996:3059   */\n      swap2\n      pop\n        /* \"#utility.yul\":2952:3069   */\n      pop\n        /* \"#utility.yul\":2747:3076   */\n      swap3\n      swap2\n      pop\n      pop\n      jump\t// out\n        /* \"#utility.yul\":3082:3556   */\n    tag_40:\n        /* \"#utility.yul\":3150:3156   */\n      0x00\n        /* \"#utility.yul\":3158:3164   */\n      dup1\n        /* \"#utility.yul\":3207:3209   */\n      0x40\n        /* \"#utility.yul\":3195:3204   */\n      dup4\n        /* \"#utility.yul\":3186:3193   */\n      dup6\n        /* \"#utility.yul\":3182:3205   */\n      sub\n        /* \"#utility.yul\":3178:3210   */\n      slt\n        /* \"#utility.yul\":3175:3294   */\n      iszero\n      tag_178\n      jumpi\n        /* \"#utility.yul\":3213:3292   */\n      tag_179\n      tag_116\n      jump\t// in\n    tag_179:\n        /* \"#utility.yul\":3175:3294   */\n    tag_178:\n        /* \"#utility.yul\":3333:3334   */\n      0x00\n        /* \"#utility.yul\":3358:3411   */\n      tag_180\n        /* \"#utility.yul\":3403:3410   */\n      dup6\n        /* \"#utility.yul\":3394:3400   */\n      dup3\n        /* \"#utility.yul\":3383:3392   */\n      dup7\n        /* \"#utility.yul\":3379:3401   */\n      add\n        /* \"#utility.yul\":3358:3411   */\n      tag_121\n      jump\t// in\n    tag_180:\n        /* \"#utility.yul\":3348:3411   */\n      swap3\n      pop\n        /* \"#utility.yul\":3304:3421   */\n      pop\n        /* \"#utility.yul\":3460:3462   */\n      0x20\n        /* \"#utility.yul\":3486:3539   */\n      tag_181\n        /* \"#utility.yul\":3531:3538   */\n      dup6\n        /* \"#utility.yul\":3522:3528   */\n      dup3\n        /* \"#utility.yul\":3511:3520   */\n      dup7\n        /* \"#utility.yul\":3507:3529   */\n      add\n        /* \"#utility.yul\":3486:3539   */\n      tag_121\n      jump\t// in\n    tag_181:\n        /* \"#utility.yul\":3476:3539   */\n      swap2\n      pop\n        /* \"#utility.yul\":3431:3549   */\n      pop\n        /* \"#utility.yul\":3082:3556   */\n      swap3\n      pop\n      swap3\n      swap1\n      pop\n      jump\t// out\n        /* \"#utility.yul\":3562:4036   */\n    tag_46:\n        /* \"#utility.yul\":3630:3636   */\n      0x00\n        /* \"#utility.yul\":3638:3644   */\n      dup1\n        /* \"#utility.yul\":3687:3689   */\n      0x40\n        /* \"#utility.yul\":3675:3684   */\n      dup4\n        /* \"#utility.yul\":3666:3673   */\n      dup6\n        /* \"#utility.yul\":3662:3685   */\n      sub\n        /* \"#utility.yul\":3658:3690   */\n      slt\n        /* \"#utility.yul\":3655:3774   */\n      iszero\n      tag_183\n      jumpi\n        /* \"#utility.yul\":3693:3772   */\n      tag_184\n      tag_116\n      jump\t// in\n    tag_184:\n        /* \"#utility.yul\":3655:3774   */\n    tag_183:\n        /* \"#utility.yul\":3813:3814   */\n      0x00\n        /* \"#utility.yul\":3838:3891   */\n      tag_185\n        /* \"#utility.yul\":3883:3890   */\n      dup6\n        /* \"#utility.yul\":3874:3880   */\n      dup3\n        /* \"#utility.yul\":3863:3872   */\n      dup7\n        /* \"#utility.yul\":3859:3881   */\n      add\n        /* \"#utility.yul\":3838:3891   */\n      tag_121\n      jump\t// in\n    tag_185:\n        /* \"#utility.yul\":3828:3891   */\n      swap3\n      pop\n        /* \"#utility.yul\":3784:3901   */\n      pop\n        /* \"#utility.yul\":3940:3942   */\n      0x20\n        /* \"#utility.yul\":3966:4019   */\n      tag_186\n        /* \"#utility.yul\":4011:4018   */\n      dup6\n        /* \"#utility.yul\":4002:4008   */\n      dup3\n        /* \"#utility.yul\":3991:4000   */\n      dup7\n        /* \"#utility.yul\":3987:4009   */\n      add\n        /* \"#utility.yul\":3966:4019   */\n      tag_124\n      jump\t// in\n    tag_186:\n        /* \"#utility.yul\":3956:4019   */\n      swap2\n      pop\n        /* \"#utility.yul\":3911:4029   */\n      pop\n        /* \"#utility.yul\":3562:4036   */\n      swap3\n      pop\n      swap3\n      swap1\n      pop\n      jump\t// out\n        /* \"#utility.yul\":4042:4661   */\n    tag_53:\n        /* \"#utility.yul\":4119:4125   */\n      0x00\n        /* \"#utility.yul\":4127:4133   */\n      dup1\n        /* \"#utility.yul\":4135:4141   */\n      0x00\n        /* \"#utility.yul\":4184:4186   */\n      0x60\n        /* \"#utility.yul\":4172:4181   */\n      dup5\n        /* \"#utility.yul\":4163:4170   */\n      dup7\n        /* \"#utility.yul\":4159:4182   */\n      sub\n        /* \"#utility.yul\":4155:4187   */\n      slt\n        /* \"#utility.yul\":4152:4271   */\n      iszero\n      tag_188\n      jumpi\n        /* \"#utility.yul\":4190:4269   */\n      tag_189\n      tag_116\n      jump\t// in\n    tag_189:\n        /* \"#utility.yul\":4152:4271   */\n    tag_188:\n        /* \"#utility.yul\":4310:4311   */\n      0x00\n        /* \"#utility.yul\":4335:4388   */\n      tag_190\n        /* \"#utility.yul\":4380:4387   */\n      dup7\n        /* \"#utility.yul\":4371:4377   */\n      dup3\n        /* \"#utility.yul\":4360:4369   */\n      dup8\n        /* \"#utility.yul\":4356:4378   */\n      add\n        /* \"#utility.yul\":4335:4388   */\n      tag_121\n      jump\t// in\n    tag_190:\n        /* \"#utility.yul\":4325:4388   */\n      swap4\n      pop\n        /* \"#utility.yul\":4281:4398   */\n      pop\n        /* \"#utility.yul\":4437:4439   */\n      0x20\n        /* \"#utility.yul\":4463:4516   */\n      tag_191\n        /* \"#utility.yul\":4508:4515   */\n      dup7\n        /* \"#utility.yul\":4499:4505   */\n      dup3\n        /* \"#utility.yul\":4488:4497   */\n      dup8\n        /* \"#utility.yul\":4484:4506   */\n      add\n        /* \"#utility.yul\":4463:4516   */\n      tag_121\n      jump\t// in\n    tag_191:\n        /* \"#utility.yul\":4453:4516   */\n      swap3\n      pop\n        /* \"#utility.yul\":4408:4526   */\n      pop\n        /* \"#utility.yul\":4565:4567   */\n      0x40\n        /* \"#utility.yul\":4591:4644   */\n      tag_192\n        /* \"#utility.yul\":4636:4643   */\n      dup7\n        /* \"#utility.yul\":4627:4633   */\n      dup3\n        /* \"#utility.yul\":4616:4625   */\n      dup8\n        /* \"#utility.yul\":4612:4634   */\n      add\n        /* \"#utility.yul\":4591:4644   */\n      tag_124\n      jump\t// in\n    tag_192:\n        /* \"#utility.yul\":4581:4644   */\n      swap2\n      pop\n        /* \"#utility.yul\":4536:4654   */\n      pop\n        /* \"#utility.yul\":4042:4661   */\n      swap3\n      pop\n      swap3\n      pop\n      swap3\n      jump\t// out\n        /* \"#utility.yul\":4667:4785   */\n    tag_128:\n        /* \"#utility.yul\":4754:4778   */\n      tag_194\n        /* \"#utility.yul\":4772:4777   */\n      dup2\n        /* \"#utility.yul\":4754:4778   */\n      tag_119\n      jump\t// in\n    tag_194:\n        /* \"#utility.yul\":4749:4752   */\n      dup3\n        /* \"#utility.yul\":4742:4779   */\n      mstore\n        /* \"#utility.yul\":4667:4785   */\n      pop\n      pop\n      jump\t// out\n        /* \"#utility.yul\":4791:5344   */\n    tag_58:\n        /* \"#utility.yul\":4968:4972   */\n      0x00\n        /* \"#utility.yul\":5006:5009   */\n      0x80\n        /* \"#utility.yul\":4995:5004   */\n      dup3\n        /* \"#utility.yul\":4991:5010   */\n      add\n        /* \"#utility.yul\":4983:5010   */\n      swap1\n      pop\n        /* \"#utility.yul\":5020:5091   */\n      tag_196\n        /* \"#utility.yul\":5088:5089   */\n      0x00\n        /* \"#utility.yul\":5077:5086   */\n      dup4\n        /* \"#utility.yul\":5073:5090   */\n      add\n        /* \"#utility.yul\":5064:5070   */\n      dup8\n        /* \"#utility.yul\":5020:5091   */\n      tag_128\n      jump\t// in\n    tag_196:\n        /* \"#utility.yul\":5101:5173   */\n      tag_197\n        /* \"#utility.yul\":5169:5171   */\n      0x20\n        /* \"#utility.yul\":5158:5167   */\n      dup4\n        /* \"#utility.yul\":5154:5172   */\n      add\n        /* \"#utility.yul\":5145:5151   */\n      dup7\n        /* \"#utility.yul\":5101:5173   */\n      tag_128\n      jump\t// in\n    tag_197:\n        /* \"#utility.yul\":5183:5255   */\n      tag_198\n        /* \"#utility.yul\":5251:5253   */\n      0x40\n        /* \"#utility.yul\":5240:5249   */\n      dup4\n        /* \"#utility.yul\":5236:5254   */\n      add\n        /* \"#utility.yul\":5227:5233   */\n      dup6\n        /* \"#utility.yul\":5183:5255   */\n      tag_128\n      jump\t// in\n    tag_198:\n        /* \"#utility.yul\":5265:5337   */\n      tag_199\n        /* \"#utility.yul\":5333:5335   */\n      0x60\n        /* \"#utility.yul\":5322:5331   */\n      dup4\n        /* \"#utility.yul\":5318:5336   */\n      add\n        /* \"#utility.yul\":5309:5315   */\n      dup5\n        /* \"#utility.yul\":5265:5337   */\n      tag_125\n      jump\t// in\n    tag_199:\n        /* \"#utility.yul\":4791:5344   */\n      swap6\n      swap5\n      pop\n      pop\n      pop\n      pop\n      pop\n      jump\t// out\n        /* \"#utility.yul\":5350:5466   */\n    tag_129:\n        /* \"#utility.yul\":5420:5441   */\n      tag_201\n        /* \"#utility.yul\":5435:5440   */\n      dup2\n        /* \"#utility.yul\":5420:5441   */\n      tag_126\n      jump\t// in\n    tag_201:\n        /* \"#utility.yul\":5413:5418   */\n      dup2\n        /* \"#utility.yul\":5410:5442   */\n      eq\n        /* \"#utility.yul\":5400:5460   */\n      tag_202\n      jumpi\n        /* \"#utility.yul\":5456:5457   */\n      0x00\n        /* \"#utility.yul\":5453:5454   */\n      dup1\n        /* \"#utility.yul\":5446:5458   */\n      revert\n        /* \"#utility.yul\":5400:5460   */\n    tag_202:\n        /* \"#utility.yul\":5350:5466   */\n      pop\n      jump\t// out\n        /* \"#utility.yul\":5472:5609   */\n    tag_130:\n        /* \"#utility.yul\":5526:5531   */\n      0x00\n        /* \"#utility.yul\":5557:5563   */\n      dup2\n        /* \"#utility.yul\":5551:5564   */\n      mload\n        /* \"#utility.yul\":5542:5564   */\n      swap1\n      pop\n        /* \"#utility.yul\":5573:5603   */\n      tag_204\n        /* \"#utility.yul\":5597:5602   */\n      dup2\n        /* \"#utility.yul\":5573:5603   */\n      tag_129\n      jump\t// in\n    tag_204:\n        /* \"#utility.yul\":5472:5609   */\n      swap3\n      swap2\n      pop\n      pop\n      jump\t// out\n        /* \"#utility.yul\":5615:5960   */\n    tag_62:\n        /* \"#utility.yul\":5682:5688   */\n      0x00\n        /* \"#utility.yul\":5731:5733   */\n      0x20\n        /* \"#utility.yul\":5719:5728   */\n      dup3\n        /* \"#utility.yul\":5710:5717   */\n      dup5\n        /* \"#utility.yul\":5706:5729   */\n      sub\n        /* \"#utility.yul\":5702:5734   */\n      slt\n        /* \"#utility.yul\":5699:5818   */\n      iszero\n      tag_206\n      jumpi\n        /* \"#utility.yul\":5737:5816   */\n      tag_207\n      tag_116\n      jump\t// in\n    tag_207:\n        /* \"#utility.yul\":5699:5818   */\n    tag_206:\n        /* \"#utility.yul\":5857:5858   */\n      0x00\n        /* \"#utility.yul\":5882:5943   */\n      tag_208\n        /* \"#utility.yul\":5935:5942   */\n      dup5\n        /* \"#utility.yul\":5926:5932   */\n      dup3\n        /* \"#utility.yul\":5915:5924   */\n      dup6\n        /* \"#utility.yul\":5911:5933   */\n      add\n        /* \"#utility.yul\":5882:5943   */\n      tag_130\n      jump\t// in\n    tag_208:\n        /* \"#utility.yul\":5872:5943   */\n      swap2\n      pop\n        /* \"#utility.yul\":5828:5953   */\n      pop\n        /* \"#utility.yul\":5615:5960   */\n      swap3\n      swap2\n      pop\n      pop\n      jump\t// out\n        /* \"#utility.yul\":5966:6188   */\n    tag_69:\n        /* \"#utility.yul\":6059:6063   */\n      0x00\n        /* \"#utility.yul\":6097:6099   */\n      0x20\n        /* \"#utility.yul\":6086:6095   */\n      dup3\n        /* \"#utility.yul\":6082:6100   */\n      add\n        /* \"#utility.yul\":6074:6100   */\n      swap1\n      pop\n        /* \"#utility.yul\":6110:6181   */\n      tag_210\n        /* \"#utility.yul\":6178:6179   */\n      0x00\n        /* \"#utility.yul\":6167:6176   */\n      dup4\n        /* \"#utility.yul\":6163:6180   */\n      add\n        /* \"#utility.yul\":6154:6160   */\n      dup5\n        /* \"#utility.yul\":6110:6181   */\n      tag_128\n      jump\t// in\n    tag_210:\n        /* \"#utility.yul\":5966:6188   */\n      swap3\n      swap2\n      pop\n      pop\n      jump\t// out\n        /* \"#utility.yul\":6194:6337   */\n    tag_131:\n        /* \"#utility.yul\":6251:6256   */\n      0x00\n        /* \"#utility.yul\":6282:6288   */\n      dup2\n        /* \"#utility.yul\":6276:6289   */\n      mload\n        /* \"#utility.yul\":6267:6289   */\n      swap1\n      pop\n        /* \"#utility.yul\":6298:6331   */\n      tag_212\n        /* \"#utility.yul\":6325:6330   */\n      dup2\n        /* \"#utility.yul\":6298:6331   */\n      tag_123\n      jump\t// in\n    tag_212:\n        /* \"#utility.yul\":6194:6337   */\n      swap3\n      swap2\n      pop\n      pop\n      jump\t// out\n        /* \"#utility.yul\":6343:6694   */\n    tag_73:\n        /* \"#utility.yul\":6413:6419   */\n      0x00\n        /* \"#utility.yul\":6462:6464   */\n      0x20\n        /* \"#utility.yul\":6450:6459   */\n      dup3\n        /* \"#utility.yul\":6441:6448   */\n      dup5\n        /* \"#utility.yul\":6437:6460   */\n      sub\n        /* \"#utility.yul\":6433:6465   */\n      slt\n        /* \"#utility.yul\":6430:6549   */\n      iszero\n      tag_214\n      jumpi\n        /* \"#utility.yul\":6468:6547   */\n      tag_215\n      tag_116\n      jump\t// in\n    tag_215:\n        /* \"#utility.yul\":6430:6549   */\n    tag_214:\n        /* \"#utility.yul\":6588:6589   */\n      0x00\n        /* \"#utility.yul\":6613:6677   */\n      tag_216\n        /* \"#utility.yul\":6669:6676   */\n      dup5\n        /* \"#utility.yul\":6660:6666   */\n      dup3\n        /* \"#utility.yul\":6649:6658   */\n      dup6\n        /* \"#utility.yul\":6645:6667   */\n      add\n        /* \"#utility.yul\":6613:6677   */\n      tag_131\n      jump\t// in\n    tag_216:\n        /* \"#utility.yul\":6603:6677   */\n      swap2\n      pop\n        /* \"#utility.yul\":6559:6687   */\n      pop\n        /* \"#utility.yul\":6343:6694   */\n      swap3\n      swap2\n      pop\n      pop\n      jump\t// out\n        /* \"#utility.yul\":6700:7032   */\n    tag_80:\n        /* \"#utility.yul\":6821:6825   */\n      0x00\n        /* \"#utility.yul\":6859:6861   */\n      0x40\n        /* \"#utility.yul\":6848:6857   */\n      dup3\n        /* \"#utility.yul\":6844:6862   */\n      add\n        /* \"#utility.yul\":6836:6862   */\n      swap1\n      pop\n        /* \"#utility.yul\":6872:6943   */\n      tag_218\n        /* \"#utility.yul\":6940:6941   */\n      0x00\n        /* \"#utility.yul\":6929:6938   */\n      dup4\n        /* \"#utility.yul\":6925:6942   */\n      add\n        /* \"#utility.yul\":6916:6922   */\n      dup6\n        /* \"#utility.yul\":6872:6943   */\n      tag_128\n      jump\t// in\n    tag_218:\n        /* \"#utility.yul\":6953:7025   */\n      tag_219\n        /* \"#utility.yul\":7021:7023   */\n      0x20\n        /* \"#utility.yul\":7010:7019   */\n      dup4\n        /* \"#utility.yul\":7006:7024   */\n      add\n        /* \"#utility.yul\":6997:7003   */\n      dup5\n        /* \"#utility.yul\":6953:7025   */\n      tag_128\n      jump\t// in\n    tag_219:\n        /* \"#utility.yul\":6700:7032   */\n      swap4\n      swap3\n      pop\n      pop\n      pop\n      jump\t// out\n        /* \"#utility.yul\":7038:7370   */\n    tag_86:\n        /* \"#utility.yul\":7159:7163   */\n      0x00\n        /* \"#utility.yul\":7197:7199   */\n      0x40\n        /* \"#utility.yul\":7186:7195   */\n      dup3\n        /* \"#utility.yul\":7182:7200   */\n      add\n        /* \"#utility.yul\":7174:7200   */\n      swap1\n      pop\n        /* \"#utility.yul\":7210:7281   */\n      tag_221\n        /* \"#utility.yul\":7278:7279   */\n      0x00\n        /* \"#utility.yul\":7267:7276   */\n      dup4\n        /* \"#utility.yul\":7263:7280   */\n      add\n        /* \"#utility.yul\":7254:7260   */\n      dup6\n        /* \"#utility.yul\":7210:7281   */\n      tag_128\n      jump\t// in\n    tag_221:\n        /* \"#utility.yul\":7291:7363   */\n      tag_222\n        /* \"#utility.yul\":7359:7361   */\n      0x20\n        /* \"#utility.yul\":7348:7357   */\n      dup4\n        /* \"#utility.yul\":7344:7362   */\n      add\n        /* \"#utility.yul\":7335:7341   */\n      dup5\n        /* \"#utility.yul\":7291:7363   */\n      tag_125\n      jump\t// in\n    tag_222:\n        /* \"#utility.yul\":7038:7370   */\n      swap4\n      swap3\n      pop\n      pop\n      pop\n      jump\t// out\n        /* \"#utility.yul\":7376:7545   */\n    tag_132:\n        /* \"#utility.yul\":7460:7471   */\n      0x00\n        /* \"#utility.yul\":7494:7500   */\n      dup3\n        /* \"#utility.yul\":7489:7492   */\n      dup3\n        /* \"#utility.yul\":7482:7501   */\n      mstore\n        /* \"#utility.yul\":7534:7538   */\n      0x20\n        /* \"#utility.yul\":7529:7532   */\n      dup3\n        /* \"#utility.yul\":7525:7539   */\n      add\n        /* \"#utility.yul\":7510:7539   */\n      swap1\n      pop\n        /* \"#utility.yul\":7376:7545   */\n      swap3\n      swap2\n      pop\n      pop\n      jump\t// out\n        /* \"#utility.yul\":7551:7782   */\n    tag_133:\n        /* \"#utility.yul\":7691:7725   */\n      0x6174206c6561737420302e303120455448206973206e656564656420746f206a\n        /* \"#utility.yul\":7687:7688   */\n      0x00\n        /* \"#utility.yul\":7679:7685   */\n      dup3\n        /* \"#utility.yul\":7675:7689   */\n      add\n        /* \"#utility.yul\":7668:7726   */\n      mstore\n        /* \"#utility.yul\":7760:7774   */\n      0x6f696e207468652067616d650000000000000000000000000000000000000000\n        /* \"#utility.yul\":7755:7757   */\n      0x20\n        /* \"#utility.yul\":7747:7753   */\n      dup3\n        /* \"#utility.yul\":7743:7758   */\n      add\n        /* \"#utility.yul\":7736:7775   */\n      mstore\n        /* \"#utility.yul\":7551:7782   */\n      pop\n      jump\t// out\n        /* \"#utility.yul\":7788:8154   */\n    tag_134:\n        /* \"#utility.yul\":7930:7933   */\n      0x00\n        /* \"#utility.yul\":7951:8018   */\n      tag_226\n        /* \"#utility.yul\":8015:8017   */\n      0x2c\n        /* \"#utility.yul\":8010:8013   */\n      dup4\n        /* \"#utility.yul\":7951:8018   */\n      tag_132\n      jump\t// in\n    tag_226:\n        /* \"#utility.yul\":7944:8018   */\n      swap2\n      pop\n        /* \"#utility.yul\":8027:8120   */\n      tag_227\n        /* \"#utility.yul\":8116:8119   */\n      dup3\n        /* \"#utility.yul\":8027:8120   */\n      tag_133\n      jump\t// in\n    tag_227:\n        /* \"#utility.yul\":8145:8147   */\n      0x40\n        /* \"#utility.yul\":8140:8143   */\n      dup3\n        /* \"#utility.yul\":8136:8148   */\n      add\n        /* \"#utility.yul\":8129:8148   */\n      swap1\n      pop\n        /* \"#utility.yul\":7788:8154   */\n      swap2\n      swap1\n      pop\n      jump\t// out\n        /* \"#utility.yul\":8160:8579   */\n    tag_93:\n        /* \"#utility.yul\":8326:8330   */\n      0x00\n        /* \"#utility.yul\":8364:8366   */\n      0x20\n        /* \"#utility.yul\":8353:8362   */\n      dup3\n        /* \"#utility.yul\":8349:8367   */\n      add\n        /* \"#utility.yul\":8341:8367   */\n      swap1\n      pop\n        /* \"#utility.yul\":8413:8422   */\n      dup2\n        /* \"#utility.yul\":8407:8411   */\n      dup2\n        /* \"#utility.yul\":8403:8423   */\n      sub\n        /* \"#utility.yul\":8399:8400   */\n      0x00\n        /* \"#utility.yul\":8388:8397   */\n      dup4\n        /* \"#utility.yul\":8384:8401   */\n      add\n        /* \"#utility.yul\":8377:8424   */\n      mstore\n        /* \"#utility.yul\":8441:8572   */\n      tag_229\n        /* \"#utility.yul\":8567:8571   */\n      dup2\n        /* \"#utility.yul\":8441:8572   */\n      tag_134\n      jump\t// in\n    tag_229:\n        /* \"#utility.yul\":8433:8572   */\n      swap1\n      pop\n        /* \"#utility.yul\":8160:8579   */\n      swap2\n      swap1\n      pop\n      jump\t// out\n        /* \"#utility.yul\":8585:8765   */\n    tag_135:\n        /* \"#utility.yul\":8633:8710   */\n      0x4e487b7100000000000000000000000000000000000000000000000000000000\n        /* \"#utility.yul\":8630:8631   */\n      0x00\n        /* \"#utility.yul\":8623:8711   */\n      mstore\n        /* \"#utility.yul\":8730:8734   */\n      0x12\n        /* \"#utility.yul\":8727:8728   */\n      0x04\n        /* \"#utility.yul\":8720:8735   */\n      mstore\n        /* \"#utility.yul\":8754:8758   */\n      0x24\n        /* \"#utility.yul\":8751:8752   */\n      0x00\n        /* \"#utility.yul\":8744:8759   */\n      revert\n        /* \"#utility.yul\":8771:8951   */\n    tag_136:\n        /* \"#utility.yul\":8819:8896   */\n      0x4e487b7100000000000000000000000000000000000000000000000000000000\n        /* \"#utility.yul\":8816:8817   */\n      0x00\n        /* \"#utility.yul\":8809:8897   */\n      mstore\n        /* \"#utility.yul\":8916:8920   */\n      0x11\n        /* \"#utility.yul\":8913:8914   */\n      0x04\n        /* \"#utility.yul\":8906:8921   */\n      mstore\n        /* \"#utility.yul\":8940:8944   */\n      0x24\n        /* \"#utility.yul\":8937:8938   */\n      0x00\n        /* \"#utility.yul\":8930:8945   */\n      revert\n        /* \"#utility.yul\":8957:9142   */\n    tag_95:\n        /* \"#utility.yul\":8997:8998   */\n      0x00\n        /* \"#utility.yul\":9014:9034   */\n      tag_233\n        /* \"#utility.yul\":9032:9033   */\n      dup3\n        /* \"#utility.yul\":9014:9034   */\n      tag_122\n      jump\t// in\n    tag_233:\n        /* \"#utility.yul\":9009:9034   */\n      swap2\n      pop\n        /* \"#utility.yul\":9048:9068   */\n      tag_234\n        /* \"#utility.yul\":9066:9067   */\n      dup4\n        /* \"#utility.yul\":9048:9068   */\n      tag_122\n      jump\t// in\n    tag_234:\n        /* \"#utility.yul\":9043:9068   */\n      swap3\n      pop\n        /* \"#utility.yul\":9087:9088   */\n      dup3\n        /* \"#utility.yul\":9077:9112   */\n      tag_235\n      jumpi\n        /* \"#utility.yul\":9092:9110   */\n      tag_236\n      tag_135\n      jump\t// in\n    tag_236:\n        /* \"#utility.yul\":9077:9112   */\n    tag_235:\n        /* \"#utility.yul\":9134:9135   */\n      dup3\n        /* \"#utility.yul\":9131:9132   */\n      dup3\n        /* \"#utility.yul\":9127:9136   */\n      div\n        /* \"#utility.yul\":9122:9136   */\n      swap1\n      pop\n        /* \"#utility.yul\":8957:9142   */\n      swap3\n      swap2\n      pop\n      pop\n      jump\t// out\n        /* \"#utility.yul\":9148:9339   */\n    tag_100:\n        /* \"#utility.yul\":9188:9191   */\n      0x00\n        /* \"#utility.yul\":9207:9227   */\n      tag_238\n        /* \"#utility.yul\":9225:9226   */\n      dup3\n        /* \"#utility.yul\":9207:9227   */\n      tag_122\n      jump\t// in\n    tag_238:\n        /* \"#utility.yul\":9202:9227   */\n      swap2\n      pop\n        /* \"#utility.yul\":9241:9261   */\n      tag_239\n        /* \"#utility.yul\":9259:9260   */\n      dup4\n        /* \"#utility.yul\":9241:9261   */\n      tag_122\n      jump\t// in\n    tag_239:\n        /* \"#utility.yul\":9236:9261   */\n      swap3\n      pop\n        /* \"#utility.yul\":9284:9285   */\n      dup3\n        /* \"#utility.yul\":9281:9282   */\n      dup3\n        /* \"#utility.yul\":9277:9286   */\n      add\n        /* \"#utility.yul\":9270:9286   */\n      swap1\n      pop\n        /* \"#utility.yul\":9305:9308   */\n      dup1\n        /* \"#utility.yul\":9302:9303   */\n      dup3\n        /* \"#utility.yul\":9299:9309   */\n      gt\n        /* \"#utility.yul\":9296:9332   */\n      iszero\n      tag_240\n      jumpi\n        /* \"#utility.yul\":9312:9330   */\n      tag_241\n      tag_136\n      jump\t// in\n    tag_241:\n        /* \"#utility.yul\":9296:9332   */\n    tag_240:\n        /* \"#utility.yul\":9148:9339   */\n      swap3\n      swap2\n      pop\n      pop\n      jump\t// out\n        /* \"#utility.yul\":9345:9520   */\n    tag_137:\n        /* \"#utility.yul\":9485:9512   */\n      0x5250535420737570706c79206973206e6f7420656e6f75676800000000000000\n        /* \"#utility.yul\":9481:9482   */\n      0x00\n        /* \"#utility.yul\":9473:9479   */\n      dup3\n        /* \"#utility.yul\":9469:9483   */\n      add\n        /* \"#utility.yul\":9462:9513   */\n      mstore\n        /* \"#utility.yul\":9345:9520   */\n      pop\n      jump\t// out\n        /* \"#utility.yul\":9526:9892   */\n    tag_138:\n        /* \"#utility.yul\":9668:9671   */\n      0x00\n        /* \"#utility.yul\":9689:9756   */\n      tag_244\n        /* \"#utility.yul\":9753:9755   */\n      0x19\n        /* \"#utility.yul\":9748:9751   */\n      dup4\n        /* \"#utility.yul\":9689:9756   */\n      tag_132\n      jump\t// in\n    tag_244:\n        /* \"#utility.yul\":9682:9756   */\n      swap2\n      pop\n        /* \"#utility.yul\":9765:9858   */\n      tag_245\n        /* \"#utility.yul\":9854:9857   */\n      dup3\n        /* \"#utility.yul\":9765:9858   */\n      tag_137\n      jump\t// in\n    tag_245:\n        /* \"#utility.yul\":9883:9885   */\n      0x20\n        /* \"#utility.yul\":9878:9881   */\n      dup3\n        /* \"#utility.yul\":9874:9886   */\n      add\n        /* \"#utility.yul\":9867:9886   */\n      swap1\n      pop\n        /* \"#utility.yul\":9526:9892   */\n      swap2\n      swap1\n      pop\n      jump\t// out\n        /* \"#utility.yul\":9898:10317   */\n    tag_103:\n        /* \"#utility.yul\":10064:10068   */\n      0x00\n        /* \"#utility.yul\":10102:10104   */\n      0x20\n        /* \"#utility.yul\":10091:10100   */\n      dup3\n        /* \"#utility.yul\":10087:10105   */\n      add\n        /* \"#utility.yul\":10079:10105   */\n      swap1\n      pop\n        /* \"#utility.yul\":10151:10160   */\n      dup2\n        /* \"#utility.yul\":10145:10149   */\n      dup2\n        /* \"#utility.yul\":10141:10161   */\n      sub\n        /* \"#utility.yul\":10137:10138   */\n      0x00\n        /* \"#utility.yul\":10126:10135   */\n      dup4\n        /* \"#utility.yul\":10122:10139   */\n      add\n        /* \"#utility.yul\":10115:10162   */\n      mstore\n        /* \"#utility.yul\":10179:10310   */\n      tag_247\n        /* \"#utility.yul\":10305:10309   */\n      dup2\n        /* \"#utility.yul\":10179:10310   */\n      tag_138\n      jump\t// in\n    tag_247:\n        /* \"#utility.yul\":10171:10310   */\n      swap1\n      pop\n        /* \"#utility.yul\":9898:10317   */\n      swap2\n      swap1\n      pop\n      jump\t// out\n        /* \"#utility.yul\":10323:10765   */\n    tag_111:\n        /* \"#utility.yul\":10472:10476   */\n      0x00\n        /* \"#utility.yul\":10510:10512   */\n      0x60\n        /* \"#utility.yul\":10499:10508   */\n      dup3\n        /* \"#utility.yul\":10495:10513   */\n      add\n        /* \"#utility.yul\":10487:10513   */\n      swap1\n      pop\n        /* \"#utility.yul\":10523:10594   */\n      tag_249\n        /* \"#utility.yul\":10591:10592   */\n      0x00\n        /* \"#utility.yul\":10580:10589   */\n      dup4\n        /* \"#utility.yul\":10576:10593   */\n      add\n        /* \"#utility.yul\":10567:10573   */\n      dup7\n        /* \"#utility.yul\":10523:10594   */\n      tag_128\n      jump\t// in\n    tag_249:\n        /* \"#utility.yul\":10604:10676   */\n      tag_250\n        /* \"#utility.yul\":10672:10674   */\n      0x20\n        /* \"#utility.yul\":10661:10670   */\n      dup4\n        /* \"#utility.yul\":10657:10675   */\n      add\n        /* \"#utility.yul\":10648:10654   */\n      dup6\n        /* \"#utility.yul\":10604:10676   */\n      tag_128\n      jump\t// in\n    tag_250:\n        /* \"#utility.yul\":10686:10758   */\n      tag_251\n        /* \"#utility.yul\":10754:10756   */\n      0x40\n        /* \"#utility.yul\":10743:10752   */\n      dup4\n        /* \"#utility.yul\":10739:10757   */\n      add\n        /* \"#utility.yul\":10730:10736   */\n      dup5\n        /* \"#utility.yul\":10686:10758   */\n      tag_125\n      jump\t// in\n    tag_251:\n        /* \"#utility.yul\":10323:10765   */\n      swap5\n      swap4\n      pop\n      pop\n      pop\n      pop\n      jump\t// out\n\n    auxdata: 0xa26469706673582212207b8e2b385ec7c6aa39052262a1dbf284116a5a4429aff937a9e5f415b116b9ec64736f6c63430008120033\n}\n\nsub_1: assembly {\n        /* \"src/ERC20.sol\":1294:6705  contract ERC20 {... */\n      mstore(0x40, 0x80)\n        /* \"src/ERC20.sol\":1382:1387  false */\n      0x00\n        /* \"src/ERC20.sol\":1352:1387  bool public mintingFinished = false */\n      dup1\n      exp(0x0100, 0x00)\n      dup2\n      sload\n      dup2\n      0xff\n      mul\n      not\n      and\n      swap1\n      dup4\n      iszero\n      iszero\n      mul\n      or\n      swap1\n      sstore\n      pop\n        /* \"src/ERC20.sol\":1421:1431  msg.sender */\n      caller\n        /* \"src/ERC20.sol\":1398:1431  address public owner = msg.sender */\n      0x00\n      exp(0x0100, 0x01)\n      dup2\n      sload\n      dup2\n      0xffffffffffffffffffffffffffffffffffffffff\n      mul\n      not\n      and\n      swap1\n      dup4\n      0xffffffffffffffffffffffffffffffffffffffff\n      and\n      mul\n      or\n      swap1\n      sstore\n      pop\n        /* \"src/ERC20.sol\":1294:6705  contract ERC20 {... */\n      callvalue\n      dup1\n      iszero\n      tag_1\n      jumpi\n      0x00\n      dup1\n      revert\n    tag_1:\n      pop\n      dataSize(sub_0)\n      dup1\n      dataOffset(sub_0)\n      0x00\n      codecopy\n      0x00\n      return\n    stop\n\n    sub_0: assembly {\n            /* \"src/ERC20.sol\":1294:6705  contract ERC20 {... */\n          mstore(0x40, 0x80)\n          callvalue\n          dup1\n          iszero\n          tag_1\n          jumpi\n          0x00\n          dup1\n          revert\n        tag_1:\n          pop\n          jumpi(tag_2, lt(calldatasize, 0x04))\n          shr(0xe0, calldataload(0x00))\n          dup1\n          0x7d64bcb4\n          gt\n          tag_19\n          jumpi\n          dup1\n          0xa9059cbb\n          gt\n          tag_20\n          jumpi\n          dup1\n          0xa9059cbb\n          eq\n          tag_15\n          jumpi\n          dup1\n          0xdb05ea05\n          eq\n          tag_16\n          jumpi\n          dup1\n          0xdd62ed3e\n          eq\n          tag_17\n          jumpi\n          dup1\n          0xf0cf209d\n          eq\n          tag_18\n          jumpi\n          jump(tag_2)\n        tag_20:\n          dup1\n          0x7d64bcb4\n          eq\n          tag_11\n          jumpi\n          dup1\n          0x893d20e8\n          eq\n          tag_12\n          jumpi\n          dup1\n          0x8da5cb5b\n          eq\n          tag_13\n          jumpi\n          dup1\n          0x95d89b41\n          eq\n          tag_14\n          jumpi\n          jump(tag_2)\n        tag_19:\n          dup1\n          0x23b872dd\n          gt\n          tag_21\n          jumpi\n          dup1\n          0x23b872dd\n          eq\n          tag_7\n          jumpi\n          dup1\n          0x313ce567\n          eq\n          tag_8\n          jumpi\n          dup1\n          0x40c10f19\n          eq\n          tag_9\n          jumpi\n          dup1\n          0x70a08231\n          eq\n          tag_10\n          jumpi\n          jump(tag_2)\n        tag_21:\n          dup1\n          0x05d2035b\n          eq\n          tag_3\n          jumpi\n          dup1\n          0x06fdde03\n          eq\n          tag_4\n          jumpi\n          dup1\n          0x095ea7b3\n          eq\n          tag_5\n          jumpi\n          dup1\n          0x18160ddd\n          eq\n          tag_6\n          jumpi\n        tag_2:\n          0x00\n          dup1\n          revert\n            /* \"src/ERC20.sol\":1352:1387  bool public mintingFinished = false */\n        tag_3:\n          tag_22\n          tag_23\n          jump\t// in\n        tag_22:\n          mload(0x40)\n          tag_24\n          swap2\n          swap1\n          tag_25\n          jump\t// in\n        tag_24:\n          mload(0x40)\n          dup1\n          swap2\n          sub\n          swap1\n          return\n            /* \"src/ERC20.sol\":1566:1607  string public constant name = \"DiceToken\" */\n        tag_4:\n          tag_26\n          tag_27\n          jump\t// in\n        tag_26:\n          mload(0x40)\n          tag_28\n          swap2\n          swap1\n          tag_29\n          jump\t// in\n        tag_28:\n          mload(0x40)\n          dup1\n          swap2\n          sub\n          swap1\n          return\n            /* \"src/ERC20.sol\":4869:5057  function approve(address _spender, uint256 _value) public returns (bool) {... */\n        tag_5:\n          tag_30\n          0x04\n          dup1\n          calldatasize\n          sub\n          dup2\n          add\n          swap1\n          tag_31\n          swap2\n          swap1\n          tag_32\n          jump\t// in\n        tag_31:\n          tag_33\n          jump\t// in\n        tag_30:\n          mload(0x40)\n          tag_34\n          swap2\n          swap1\n          tag_25\n          jump\t// in\n        tag_34:\n          mload(0x40)\n          dup1\n          swap2\n          sub\n          swap1\n          return\n            /* \"src/ERC20.sol\":2024:2107  function totalSupply() public view returns (uint256) {... */\n        tag_6:\n          tag_35\n          tag_36\n          jump\t// in\n        tag_35:\n          mload(0x40)\n          tag_37\n          swap2\n          swap1\n          tag_38\n          jump\t// in\n        tag_37:\n          mload(0x40)\n          dup1\n          swap2\n          sub\n          swap1\n          return\n            /* \"src/ERC20.sol\":3203:3714  function transferFrom(address _from, address _to, uint256 _value) public returns (bool) {... */\n        tag_7:\n          tag_39\n          0x04\n          dup1\n          calldatasize\n          sub\n          dup2\n          add\n          swap1\n          tag_40\n          swap2\n          swap1\n          tag_41\n          jump\t// in\n        tag_40:\n          tag_42\n          jump\t// in\n        tag_39:\n          mload(0x40)\n          tag_43\n          swap2\n          swap1\n          tag_25\n          jump\t// in\n        tag_43:\n          mload(0x40)\n          dup1\n          swap2\n          sub\n          swap1\n          return\n            /* \"src/ERC20.sol\":1655:1690  uint8 public constant decimals = 18 */\n        tag_8:\n          tag_44\n          tag_45\n          jump\t// in\n        tag_44:\n          mload(0x40)\n          tag_46\n          swap2\n          swap1\n          tag_47\n          jump\t// in\n        tag_46:\n          mload(0x40)\n          dup1\n          swap2\n          sub\n          swap1\n          return\n            /* \"src/ERC20.sol\":5947:6221  function mint(address _to, uint256 _amount) onlyOwner canMint public returns (bool) {... */\n        tag_9:\n          tag_48\n          0x04\n          dup1\n          calldatasize\n          sub\n          dup2\n          add\n          swap1\n          tag_49\n          swap2\n          swap1\n          tag_32\n          jump\t// in\n        tag_49:\n          tag_50\n          jump\t// in\n        tag_48:\n          mload(0x40)\n          tag_51\n          swap2\n          swap1\n          tag_25\n          jump\t// in\n        tag_51:\n          mload(0x40)\n          dup1\n          swap2\n          sub\n          swap1\n          return\n            /* \"src/ERC20.sol\":2313:2412  function balanceOf(address _owner) public view returns (uint256) {... */\n        tag_10:\n          tag_52\n          0x04\n          dup1\n          calldatasize\n          sub\n          dup2\n          add\n          swap1\n          tag_53\n          swap2\n          swap1\n          tag_54\n          jump\t// in\n        tag_53:\n          tag_55\n          jump\t// in\n        tag_52:\n          mload(0x40)\n          tag_56\n          swap2\n          swap1\n          tag_38\n          jump\t// in\n        tag_56:\n          mload(0x40)\n          dup1\n          swap2\n          sub\n          swap1\n          return\n            /* \"src/ERC20.sol\":6335:6475  function finishMinting() onlyOwner canMint public returns (bool) {... */\n        tag_11:\n          tag_57\n          tag_58\n          jump\t// in\n        tag_57:\n          mload(0x40)\n          tag_59\n          swap2\n          swap1\n          tag_25\n          jump\t// in\n        tag_59:\n          mload(0x40)\n          dup1\n          swap2\n          sub\n          swap1\n          return\n            /* \"src/ERC20.sol\":6481:6555  function getOwner() public view returns (address){... */\n        tag_12:\n          tag_60\n          tag_61\n          jump\t// in\n        tag_60:\n          mload(0x40)\n          tag_62\n          swap2\n          swap1\n          tag_63\n          jump\t// in\n        tag_62:\n          mload(0x40)\n          dup1\n          swap2\n          sub\n          swap1\n          return\n            /* \"src/ERC20.sol\":1398:1431  address public owner = msg.sender */\n        tag_13:\n          tag_64\n          tag_65\n          jump\t// in\n        tag_64:\n          mload(0x40)\n          tag_66\n          swap2\n          swap1\n          tag_63\n          jump\t// in\n        tag_66:\n          mload(0x40)\n          dup1\n          swap2\n          sub\n          swap1\n          return\n            /* \"src/ERC20.sol\":1613:1649  string public constant symbol = \"DT\" */\n        tag_14:\n          tag_67\n          tag_68\n          jump\t// in\n        tag_67:\n          mload(0x40)\n          tag_69\n          swap2\n          swap1\n          tag_29\n          jump\t// in\n        tag_69:\n          mload(0x40)\n          dup1\n          swap2\n          sub\n          swap1\n          return\n            /* \"src/ERC20.sol\":2567:2926  function transfer(address _to, uint256 _value) public returns (bool) {... */\n        tag_15:\n          tag_70\n          0x04\n          dup1\n          calldatasize\n          sub\n          dup2\n          add\n          swap1\n          tag_71\n          swap2\n          swap1\n          tag_32\n          jump\t// in\n        tag_71:\n          tag_72\n          jump\t// in\n        tag_70:\n          mload(0x40)\n          tag_73\n          swap2\n          swap1\n          tag_25\n          jump\t// in\n        tag_73:\n          mload(0x40)\n          dup1\n          swap2\n          sub\n          swap1\n          return\n            /* \"src/ERC20.sol\":3718:4246  function DTtransferFrom(address _from, address _spender, address _to, uint256 _value) public returns (bool) {... */\n        tag_16:\n          tag_74\n          0x04\n          dup1\n          calldatasize\n          sub\n          dup2\n          add\n          swap1\n          tag_75\n          swap2\n          swap1\n          tag_76\n          jump\t// in\n        tag_75:\n          tag_77\n          jump\t// in\n        tag_74:\n          mload(0x40)\n          tag_78\n          swap2\n          swap1\n          tag_25\n          jump\t// in\n        tag_78:\n          mload(0x40)\n          dup1\n          swap2\n          sub\n          swap1\n          return\n            /* \"src/ERC20.sol\":5578:5704  function allowance(address _owner, address _spender) public view returns (uint256) {... */\n        tag_17:\n          tag_79\n          0x04\n          dup1\n          calldatasize\n          sub\n          dup2\n          add\n          swap1\n          tag_80\n          swap2\n          swap1\n          tag_81\n          jump\t// in\n        tag_80:\n          tag_82\n          jump\t// in\n        tag_79:\n          mload(0x40)\n          tag_83\n          swap2\n          swap1\n          tag_38\n          jump\t// in\n        tag_83:\n          mload(0x40)\n          dup1\n          swap2\n          sub\n          swap1\n          return\n            /* \"src/ERC20.sol\":5061:5259  function DTapprove(address _owner, address _spender, uint256 _value) public returns (bool) {... */\n        tag_18:\n          tag_84\n          0x04\n          dup1\n          calldatasize\n          sub\n          dup2\n          add\n          swap1\n          tag_85\n          swap2\n          swap1\n          tag_41\n          jump\t// in\n        tag_85:\n          tag_86\n          jump\t// in\n        tag_84:\n          mload(0x40)\n          tag_87\n          swap2\n          swap1\n          tag_25\n          jump\t// in\n        tag_87:\n          mload(0x40)\n          dup1\n          swap2\n          sub\n          swap1\n          return\n            /* \"src/ERC20.sol\":1352:1387  bool public mintingFinished = false */\n        tag_23:\n          0x00\n          dup1\n          sload\n          swap1\n          0x0100\n          exp\n          swap1\n          div\n          0xff\n          and\n          dup2\n          jump\t// out\n            /* \"src/ERC20.sol\":1566:1607  string public constant name = \"DiceToken\" */\n        tag_27:\n          mload(0x40)\n          dup1\n          0x40\n          add\n          0x40\n          mstore\n          dup1\n          0x09\n          dup2\n          mstore\n          0x20\n          add\n          0x44696365546f6b656e0000000000000000000000000000000000000000000000\n          dup2\n          mstore\n          pop\n          dup2\n          jump\t// out\n            /* \"src/ERC20.sol\":4869:5057  function approve(address _spender, uint256 _value) public returns (bool) {... */\n        tag_33:\n            /* \"src/ERC20.sol\":4936:4940  bool */\n          0x00\n            /* \"src/ERC20.sol\":4980:4986  _value */\n          dup2\n            /* \"src/ERC20.sol\":4948:4955  allowed */\n          0x01\n            /* \"src/ERC20.sol\":4948:4967  allowed[msg.sender] */\n          0x00\n            /* \"src/ERC20.sol\":4956:4966  msg.sender */\n          caller\n            /* \"src/ERC20.sol\":4948:4967  allowed[msg.sender] */\n          0xffffffffffffffffffffffffffffffffffffffff\n          and\n          0xffffffffffffffffffffffffffffffffffffffff\n          and\n          dup2\n          mstore\n          0x20\n          add\n          swap1\n          dup2\n          mstore\n          0x20\n          add\n          0x00\n          keccak256\n            /* \"src/ERC20.sol\":4948:4977  allowed[msg.sender][_spender] */\n          0x00\n            /* \"src/ERC20.sol\":4968:4976  _spender */\n          dup6\n            /* \"src/ERC20.sol\":4948:4977  allowed[msg.sender][_spender] */\n          0xffffffffffffffffffffffffffffffffffffffff\n          and\n          0xffffffffffffffffffffffffffffffffffffffff\n          and\n          dup2\n          mstore\n          0x20\n          add\n          swap1\n          dup2\n          mstore\n          0x20\n          add\n          0x00\n          keccak256\n            /* \"src/ERC20.sol\":4948:4986  allowed[msg.sender][_spender] = _value */\n          dup2\n          swap1\n          sstore\n          pop\n            /* \"src/ERC20.sol\":5018:5026  _spender */\n          dup3\n            /* \"src/ERC20.sol\":4997:5035  Approval(msg.sender, _spender, _value) */\n          0xffffffffffffffffffffffffffffffffffffffff\n          and\n            /* \"src/ERC20.sol\":5006:5016  msg.sender */\n          caller\n            /* \"src/ERC20.sol\":4997:5035  Approval(msg.sender, _spender, _value) */\n          0xffffffffffffffffffffffffffffffffffffffff\n          and\n          0x8c5be1e5ebec7d5bd14f71427d1e84f3dd0314c0f7b2291e5b200ac8c7c3b925\n            /* \"src/ERC20.sol\":5028:5034  _value */\n          dup5\n            /* \"src/ERC20.sol\":4997:5035  Approval(msg.sender, _spender, _value) */\n          mload(0x40)\n          tag_89\n          swap2\n          swap1\n          tag_38\n          jump\t// in\n        tag_89:\n          mload(0x40)\n          dup1\n          swap2\n          sub\n          swap1\n          log3\n            /* \"src/ERC20.sol\":5048:5052  true */\n          0x01\n            /* \"src/ERC20.sol\":5041:5052  return true */\n          swap1\n          pop\n            /* \"src/ERC20.sol\":4869:5057  function approve(address _spender, uint256 _value) public returns (bool) {... */\n          swap3\n          swap2\n          pop\n          pop\n          jump\t// out\n            /* \"src/ERC20.sol\":2024:2107  function totalSupply() public view returns (uint256) {... */\n        tag_36:\n            /* \"src/ERC20.sol\":2068:2075  uint256 */\n          0x00\n            /* \"src/ERC20.sol\":2090:2102  totalSupply_ */\n          sload(0x03)\n            /* \"src/ERC20.sol\":2083:2102  return totalSupply_ */\n          swap1\n          pop\n            /* \"src/ERC20.sol\":2024:2107  function totalSupply() public view returns (uint256) {... */\n          swap1\n          jump\t// out\n            /* \"src/ERC20.sol\":3203:3714  function transferFrom(address _from, address _to, uint256 _value) public returns (bool) {... */\n        tag_42:\n            /* \"src/ERC20.sol\":3285:3289  bool */\n          0x00\n            /* \"src/ERC20.sol\":3320:3321  0 */\n          dup1\n            /* \"src/ERC20.sol\":3305:3322  _to != address(0) */\n          0xffffffffffffffffffffffffffffffffffffffff\n          and\n            /* \"src/ERC20.sol\":3305:3308  _to */\n          dup4\n            /* \"src/ERC20.sol\":3305:3322  _to != address(0) */\n          0xffffffffffffffffffffffffffffffffffffffff\n          and\n          sub\n            /* \"src/ERC20.sol\":3297:3323  require(_to != address(0)) */\n          tag_92\n          jumpi\n          0x00\n          dup1\n          revert\n        tag_92:\n            /* \"src/ERC20.sol\":3347:3355  balances */\n          0x02\n            /* \"src/ERC20.sol\":3347:3362  balances[_from] */\n          0x00\n            /* \"src/ERC20.sol\":3356:3361  _from */\n          dup6\n            /* \"src/ERC20.sol\":3347:3362  balances[_from] */\n          0xffffffffffffffffffffffffffffffffffffffff\n          and\n          0xffffffffffffffffffffffffffffffffffffffff\n          and\n          dup2\n          mstore\n          0x20\n          add\n          swap1\n          dup2\n          mstore\n          0x20\n          add\n          0x00\n          keccak256\n          sload\n            /* \"src/ERC20.sol\":3337:3343  _value */\n          dup3\n            /* \"src/ERC20.sol\":3337:3362  _value <= balances[_from] */\n          gt\n          iszero\n            /* \"src/ERC20.sol\":3329:3399  require(_value <= balances[_from], \"From doesn't have enough balance\") */\n          tag_93\n          jumpi\n          mload(0x40)\n          0x08c379a000000000000000000000000000000000000000000000000000000000\n          dup2\n          mstore\n          0x04\n          add\n          tag_94\n          swap1\n          tag_95\n          jump\t// in\n        tag_94:\n          mload(0x40)\n          dup1\n          swap2\n          sub\n          swap1\n          revert\n        tag_93:\n            /* \"src/ERC20.sol\":3423:3430  allowed */\n          0x01\n            /* \"src/ERC20.sol\":3423:3437  allowed[_from] */\n          0x00\n            /* \"src/ERC20.sol\":3431:3436  _from */\n          dup6\n            /* \"src/ERC20.sol\":3423:3437  allowed[_from] */\n          0xffffffffffffffffffffffffffffffffffffffff\n          and\n          0xffffffffffffffffffffffffffffffffffffffff\n          and\n          dup2\n          mstore\n          0x20\n          add\n          swap1\n          dup2\n          mstore\n          0x20\n          add\n          0x00\n          keccak256\n            /* \"src/ERC20.sol\":3423:3448  allowed[_from][tx.origin] */\n          0x00\n            /* \"src/ERC20.sol\":3438:3447  tx.origin */\n          origin\n            /* \"src/ERC20.sol\":3423:3448  allowed[_from][tx.origin] */\n          0xffffffffffffffffffffffffffffffffffffffff\n          and\n          0xffffffffffffffffffffffffffffffffffffffff\n          and\n          dup2\n          mstore\n          0x20\n          add\n          swap1\n          dup2\n          mstore\n          0x20\n          add\n          0x00\n          keccak256\n          sload\n            /* \"src/ERC20.sol\":3413:3419  _value */\n          dup3\n            /* \"src/ERC20.sol\":3413:3448  _value <= allowed[_from][tx.origin] */\n          gt\n          iszero\n            /* \"src/ERC20.sol\":3405:3483  require(_value <= allowed[_from][tx.origin], \"Not allowed to spend this much\") */\n          tag_96\n          jumpi\n          mload(0x40)\n          0x08c379a000000000000000000000000000000000000000000000000000000000\n          dup2\n          mstore\n          0x04\n          add\n          tag_97\n          swap1\n          tag_98\n          jump\t// in\n        tag_97:\n          mload(0x40)\n          dup1\n          swap2\n          sub\n          swap1\n          revert\n        tag_96:\n            /* \"src/ERC20.sol\":3508:3535  balances[_from].sub(_value) */\n          tag_99\n            /* \"src/ERC20.sol\":3528:3534  _value */\n          dup3\n            /* \"src/ERC20.sol\":3508:3516  balances */\n          0x02\n            /* \"src/ERC20.sol\":3508:3523  balances[_from] */\n          0x00\n            /* \"src/ERC20.sol\":3517:3522  _from */\n          dup8\n            /* \"src/ERC20.sol\":3508:3523  balances[_from] */\n          0xffffffffffffffffffffffffffffffffffffffff\n          and\n          0xffffffffffffffffffffffffffffffffffffffff\n          and\n          dup2\n          mstore\n          0x20\n          add\n          swap1\n          dup2\n          mstore\n          0x20\n          add\n          0x00\n          keccak256\n          sload\n            /* \"src/ERC20.sol\":3508:3527  balances[_from].sub */\n          tag_100\n          swap1\n            /* \"src/ERC20.sol\":3508:3535  balances[_from].sub(_value) */\n          swap2\n          swap1\n          0xffffffff\n          and\n          jump\t// in\n        tag_99:\n            /* \"src/ERC20.sol\":3490:3498  balances */\n          0x02\n            /* \"src/ERC20.sol\":3490:3505  balances[_from] */\n          0x00\n            /* \"src/ERC20.sol\":3499:3504  _from */\n          dup7\n            /* \"src/ERC20.sol\":3490:3505  balances[_from] */\n          0xffffffffffffffffffffffffffffffffffffffff\n          and\n          0xffffffffffffffffffffffffffffffffffffffff\n          and\n          dup2\n          mstore\n          0x20\n          add\n          swap1\n          dup2\n          mstore\n          0x20\n          add\n          0x00\n          keccak256\n            /* \"src/ERC20.sol\":3490:3535  balances[_from] = balances[_from].sub(_value) */\n          dup2\n          swap1\n          sstore\n          pop\n            /* \"src/ERC20.sol\":3557:3582  balances[_to].add(_value) */\n          tag_101\n            /* \"src/ERC20.sol\":3575:3581  _value */\n          dup3\n            /* \"src/ERC20.sol\":3557:3565  balances */\n          0x02\n            /* \"src/ERC20.sol\":3557:3570  balances[_to] */\n          0x00\n            /* \"src/ERC20.sol\":3566:3569  _to */\n          dup7\n            /* \"src/ERC20.sol\":3557:3570  balances[_to] */\n          0xffffffffffffffffffffffffffffffffffffffff\n          and\n          0xffffffffffffffffffffffffffffffffffffffff\n          and\n          dup2\n          mstore\n          0x20\n          add\n          swap1\n          dup2\n          mstore\n          0x20\n          add\n          0x00\n          keccak256\n          sload\n            /* \"src/ERC20.sol\":3557:3574  balances[_to].add */\n          tag_102\n          swap1\n            /* \"src/ERC20.sol\":3557:3582  balances[_to].add(_value) */\n          swap2\n          swap1\n          0xffffffff\n          and\n          jump\t// in\n        tag_101:\n            /* \"src/ERC20.sol\":3541:3549  balances */\n          0x02\n            /* \"src/ERC20.sol\":3541:3554  balances[_to] */\n          0x00\n            /* \"src/ERC20.sol\":3550:3553  _to */\n          dup6\n            /* \"src/ERC20.sol\":3541:3554  balances[_to] */\n          0xffffffffffffffffffffffffffffffffffffffff\n          and\n          0xffffffffffffffffffffffffffffffffffffffff\n          and\n          dup2\n          mstore\n          0x20\n          add\n          swap1\n          dup2\n          mstore\n          0x20\n          add\n          0x00\n          keccak256\n            /* \"src/ERC20.sol\":3541:3582  balances[_to] = balances[_to].add(_value) */\n          dup2\n          swap1\n          sstore\n          pop\n            /* \"src/ERC20.sol\":3616:3653  allowed[_from][tx.origin].sub(_value) */\n          tag_103\n            /* \"src/ERC20.sol\":3646:3652  _value */\n          dup3\n            /* \"src/ERC20.sol\":3616:3623  allowed */\n          0x01\n            /* \"src/ERC20.sol\":3616:3630  allowed[_from] */\n          0x00\n            /* \"src/ERC20.sol\":3624:3629  _from */\n          dup8\n            /* \"src/ERC20.sol\":3616:3630  allowed[_from] */\n          0xffffffffffffffffffffffffffffffffffffffff\n          and\n          0xffffffffffffffffffffffffffffffffffffffff\n          and\n          dup2\n          mstore\n          0x20\n          add\n          swap1\n          dup2\n          mstore\n          0x20\n          add\n          0x00\n          keccak256\n            /* \"src/ERC20.sol\":3616:3641  allowed[_from][tx.origin] */\n          0x00\n            /* \"src/ERC20.sol\":3631:3640  tx.origin */\n          origin\n            /* \"src/ERC20.sol\":3616:3641  allowed[_from][tx.origin] */\n          0xffffffffffffffffffffffffffffffffffffffff\n          and\n          0xffffffffffffffffffffffffffffffffffffffff\n          and\n          dup2\n          mstore\n          0x20\n          add\n          swap1\n          dup2\n          mstore\n          0x20\n          add\n          0x00\n          keccak256\n          sload\n            /* \"src/ERC20.sol\":3616:3645  allowed[_from][tx.origin].sub */\n          tag_100\n          swap1\n            /* \"src/ERC20.sol\":3616:3653  allowed[_from][tx.origin].sub(_value) */\n          swap2\n          swap1\n          0xffffffff\n          and\n          jump\t// in\n        tag_103:\n            /* \"src/ERC20.sol\":3588:3595  allowed */\n          0x01\n            /* \"src/ERC20.sol\":3588:3602  allowed[_from] */\n          0x00\n            /* \"src/ERC20.sol\":3596:3601  _from */\n          dup7\n            /* \"src/ERC20.sol\":3588:3602  allowed[_from] */\n          0xffffffffffffffffffffffffffffffffffffffff\n          and\n          0xffffffffffffffffffffffffffffffffffffffff\n          and\n          dup2\n          mstore\n          0x20\n          add\n          swap1\n          dup2\n          mstore\n          0x20\n          add\n          0x00\n          keccak256\n            /* \"src/ERC20.sol\":3588:3613  allowed[_from][tx.origin] */\n          0x00\n            /* \"src/ERC20.sol\":3603:3612  tx.origin */\n          origin\n            /* \"src/ERC20.sol\":3588:3613  allowed[_from][tx.origin] */\n          0xffffffffffffffffffffffffffffffffffffffff\n          and\n          0xffffffffffffffffffffffffffffffffffffffff\n          and\n          dup2\n          mstore\n          0x20\n          add\n          swap1\n          dup2\n          mstore\n          0x20\n          add\n          0x00\n          keccak256\n            /* \"src/ERC20.sol\":3588:3653  allowed[_from][tx.origin] = allowed[_from][tx.origin].sub(_value) */\n          dup2\n          swap1\n          sstore\n          pop\n            /* \"src/ERC20.sol\":3680:3683  _to */\n          dup3\n            /* \"src/ERC20.sol\":3664:3692  Transfer(_from, _to, _value) */\n          0xffffffffffffffffffffffffffffffffffffffff\n          and\n            /* \"src/ERC20.sol\":3673:3678  _from */\n          dup5\n            /* \"src/ERC20.sol\":3664:3692  Transfer(_from, _to, _value) */\n          0xffffffffffffffffffffffffffffffffffffffff\n          and\n          0xddf252ad1be2c89b69c2b068fc378daa952ba7f163c4a11628f55a4df523b3ef\n            /* \"src/ERC20.sol\":3685:3691  _value */\n          dup5\n            /* \"src/ERC20.sol\":3664:3692  Transfer(_from, _to, _value) */\n          mload(0x40)\n          tag_104\n          swap2\n          swap1\n          tag_38\n          jump\t// in\n        tag_104:\n          mload(0x40)\n          dup1\n          swap2\n          sub\n          swap1\n          log3\n            /* \"src/ERC20.sol\":3705:3709  true */\n          0x01\n            /* \"src/ERC20.sol\":3698:3709  return true */\n          swap1\n          pop\n            /* \"src/ERC20.sol\":3203:3714  function transferFrom(address _from, address _to, uint256 _value) public returns (bool) {... */\n          swap4\n          swap3\n          pop\n          pop\n          pop\n          jump\t// out\n            /* \"src/ERC20.sol\":1655:1690  uint8 public constant decimals = 18 */\n        tag_45:\n            /* \"src/ERC20.sol\":1688:1690  18 */\n          0x12\n            /* \"src/ERC20.sol\":1655:1690  uint8 public constant decimals = 18 */\n          dup2\n          jump\t// out\n            /* \"src/ERC20.sol\":5947:6221  function mint(address _to, uint256 _amount) onlyOwner canMint public returns (bool) {... */\n        tag_50:\n            /* \"src/ERC20.sol\":6025:6029  bool */\n          0x00\n            /* \"src/ERC20.sol\":6614:6619  owner */\n          dup1\n          0x01\n          swap1\n          sload\n          swap1\n          0x0100\n          exp\n          swap1\n          div\n          0xffffffffffffffffffffffffffffffffffffffff\n          and\n            /* \"src/ERC20.sol\":6600:6619  msg.sender == owner */\n          0xffffffffffffffffffffffffffffffffffffffff\n          and\n            /* \"src/ERC20.sol\":6600:6610  msg.sender */\n          caller\n            /* \"src/ERC20.sol\":6600:6619  msg.sender == owner */\n          0xffffffffffffffffffffffffffffffffffffffff\n          and\n          eq\n            /* \"src/ERC20.sol\":6592:6620  require(msg.sender == owner) */\n          tag_106\n          jumpi\n          0x00\n          dup1\n          revert\n        tag_106:\n            /* \"src/ERC20.sol\":6675:6690  mintingFinished */\n          0x00\n          dup1\n          sload\n          swap1\n          0x0100\n          exp\n          swap1\n          div\n          0xff\n          and\n            /* \"src/ERC20.sol\":6674:6690  !mintingFinished */\n          iszero\n            /* \"src/ERC20.sol\":6666:6691  require(!mintingFinished) */\n          tag_108\n          jumpi\n          0x00\n          dup1\n          revert\n        tag_108:\n            /* \"src/ERC20.sol\":6052:6077  totalSupply_.add(_amount) */\n          tag_110\n            /* \"src/ERC20.sol\":6069:6076  _amount */\n          dup3\n            /* \"src/ERC20.sol\":6052:6064  totalSupply_ */\n          sload(0x03)\n            /* \"src/ERC20.sol\":6052:6068  totalSupply_.add */\n          tag_102\n          swap1\n            /* \"src/ERC20.sol\":6052:6077  totalSupply_.add(_amount) */\n          swap2\n          swap1\n          0xffffffff\n          and\n          jump\t// in\n        tag_110:\n            /* \"src/ERC20.sol\":6037:6049  totalSupply_ */\n          0x03\n            /* \"src/ERC20.sol\":6037:6077  totalSupply_ = totalSupply_.add(_amount) */\n          dup2\n          swap1\n          sstore\n          pop\n            /* \"src/ERC20.sol\":6099:6125  balances[_to].add(_amount) */\n          tag_111\n            /* \"src/ERC20.sol\":6117:6124  _amount */\n          dup3\n            /* \"src/ERC20.sol\":6099:6107  balances */\n          0x02\n            /* \"src/ERC20.sol\":6099:6112  balances[_to] */\n          0x00\n            /* \"src/ERC20.sol\":6108:6111  _to */\n          dup7\n            /* \"src/ERC20.sol\":6099:6112  balances[_to] */\n          0xffffffffffffffffffffffffffffffffffffffff\n          and\n          0xffffffffffffffffffffffffffffffffffffffff\n          and\n          dup2\n          mstore\n          0x20\n          add\n          swap1\n          dup2\n          mstore\n          0x20\n          add\n          0x00\n          keccak256\n          sload\n            /* \"src/ERC20.sol\":6099:6116  balances[_to].add */\n          tag_102\n          swap1\n            /* \"src/ERC20.sol\":6099:6125  balances[_to].add(_amount) */\n          swap2\n          swap1\n          0xffffffff\n          and\n          jump\t// in\n        tag_111:\n            /* \"src/ERC20.sol\":6083:6091  balances */\n          0x02\n            /* \"src/ERC20.sol\":6083:6096  balances[_to] */\n          0x00\n            /* \"src/ERC20.sol\":6092:6095  _to */\n          dup6\n            /* \"src/ERC20.sol\":6083:6096  balances[_to] */\n          0xffffffffffffffffffffffffffffffffffffffff\n          and\n          0xffffffffffffffffffffffffffffffffffffffff\n          and\n          dup2\n          mstore\n          0x20\n          add\n          swap1\n          dup2\n          mstore\n          0x20\n          add\n          0x00\n          keccak256\n            /* \"src/ERC20.sol\":6083:6125  balances[_to] = balances[_to].add(_amount) */\n          dup2\n          swap1\n          sstore\n          pop\n            /* \"src/ERC20.sol\":6141:6144  _to */\n          dup3\n            /* \"src/ERC20.sol\":6136:6154  Mint(_to, _amount) */\n          0xffffffffffffffffffffffffffffffffffffffff\n          and\n          0x0f6798a560793a54c3bcfe86a93cde1e73087d944c0ea20544137d4121396885\n            /* \"src/ERC20.sol\":6146:6153  _amount */\n          dup4\n            /* \"src/ERC20.sol\":6136:6154  Mint(_to, _amount) */\n          mload(0x40)\n          tag_112\n          swap2\n          swap1\n          tag_38\n          jump\t// in\n        tag_112:\n          mload(0x40)\n          dup1\n          swap2\n          sub\n          swap1\n          log2\n            /* \"src/ERC20.sol\":6186:6189  _to */\n          dup3\n            /* \"src/ERC20.sol\":6165:6199  Transfer(address(0), _to, _amount) */\n          0xffffffffffffffffffffffffffffffffffffffff\n          and\n            /* \"src/ERC20.sol\":6182:6183  0 */\n          0x00\n            /* \"src/ERC20.sol\":6165:6199  Transfer(address(0), _to, _amount) */\n          0xffffffffffffffffffffffffffffffffffffffff\n          and\n          0xddf252ad1be2c89b69c2b068fc378daa952ba7f163c4a11628f55a4df523b3ef\n            /* \"src/ERC20.sol\":6191:6198  _amount */\n          dup5\n            /* \"src/ERC20.sol\":6165:6199  Transfer(address(0), _to, _amount) */\n          mload(0x40)\n          tag_113\n          swap2\n          swap1\n          tag_38\n          jump\t// in\n        tag_113:\n          mload(0x40)\n          dup1\n          swap2\n          sub\n          swap1\n          log3\n            /* \"src/ERC20.sol\":6212:6216  true */\n          0x01\n            /* \"src/ERC20.sol\":6205:6216  return true */\n          swap1\n          pop\n            /* \"src/ERC20.sol\":5947:6221  function mint(address _to, uint256 _amount) onlyOwner canMint public returns (bool) {... */\n          swap3\n          swap2\n          pop\n          pop\n          jump\t// out\n            /* \"src/ERC20.sol\":2313:2412  function balanceOf(address _owner) public view returns (uint256) {... */\n        tag_55:\n            /* \"src/ERC20.sol\":2369:2376  uint256 */\n          0x00\n            /* \"src/ERC20.sol\":2391:2399  balances */\n          0x02\n            /* \"src/ERC20.sol\":2391:2407  balances[_owner] */\n          0x00\n            /* \"src/ERC20.sol\":2400:2406  _owner */\n          dup4\n            /* \"src/ERC20.sol\":2391:2407  balances[_owner] */\n          0xffffffffffffffffffffffffffffffffffffffff\n          and\n          0xffffffffffffffffffffffffffffffffffffffff\n          and\n          dup2\n          mstore\n          0x20\n          add\n          swap1\n          dup2\n          mstore\n          0x20\n          add\n          0x00\n          keccak256\n          sload\n            /* \"src/ERC20.sol\":2384:2407  return balances[_owner] */\n          swap1\n          pop\n            /* \"src/ERC20.sol\":2313:2412  function balanceOf(address _owner) public view returns (uint256) {... */\n          swap2\n          swap1\n          pop\n          jump\t// out\n            /* \"src/ERC20.sol\":6335:6475  function finishMinting() onlyOwner canMint public returns (bool) {... */\n        tag_58:\n            /* \"src/ERC20.sol\":6394:6398  bool */\n          0x00\n            /* \"src/ERC20.sol\":6614:6619  owner */\n          dup1\n          0x01\n          swap1\n          sload\n          swap1\n          0x0100\n          exp\n          swap1\n          div\n          0xffffffffffffffffffffffffffffffffffffffff\n          and\n            /* \"src/ERC20.sol\":6600:6619  msg.sender == owner */\n          0xffffffffffffffffffffffffffffffffffffffff\n          and\n            /* \"src/ERC20.sol\":6600:6610  msg.sender */\n          caller\n            /* \"src/ERC20.sol\":6600:6619  msg.sender == owner */\n          0xffffffffffffffffffffffffffffffffffffffff\n          and\n          eq\n            /* \"src/ERC20.sol\":6592:6620  require(msg.sender == owner) */\n          tag_116\n          jumpi\n          0x00\n          dup1\n          revert\n        tag_116:\n            /* \"src/ERC20.sol\":6675:6690  mintingFinished */\n          0x00\n          dup1\n          sload\n          swap1\n          0x0100\n          exp\n          swap1\n          div\n          0xff\n          and\n            /* \"src/ERC20.sol\":6674:6690  !mintingFinished */\n          iszero\n            /* \"src/ERC20.sol\":6666:6691  require(!mintingFinished) */\n          tag_118\n          jumpi\n          0x00\n          dup1\n          revert\n        tag_118:\n            /* \"src/ERC20.sol\":6424:6428  true */\n          0x01\n            /* \"src/ERC20.sol\":6406:6421  mintingFinished */\n          0x00\n          dup1\n            /* \"src/ERC20.sol\":6406:6428  mintingFinished = true */\n          0x0100\n          exp\n          dup2\n          sload\n          dup2\n          0xff\n          mul\n          not\n          and\n          swap1\n          dup4\n          iszero\n          iszero\n          mul\n          or\n          swap1\n          sstore\n          pop\n            /* \"src/ERC20.sol\":6439:6453  MintFinished() */\n          0xae5184fba832cb2b1f702aca6117b8d265eaf03ad33eb133f19dde0f5920fa08\n          mload(0x40)\n          mload(0x40)\n          dup1\n          swap2\n          sub\n          swap1\n          log1\n            /* \"src/ERC20.sol\":6466:6470  true */\n          0x01\n            /* \"src/ERC20.sol\":6459:6470  return true */\n          swap1\n          pop\n            /* \"src/ERC20.sol\":6335:6475  function finishMinting() onlyOwner canMint public returns (bool) {... */\n          swap1\n          jump\t// out\n            /* \"src/ERC20.sol\":6481:6555  function getOwner() public view returns (address){... */\n        tag_61:\n            /* \"src/ERC20.sol\":6522:6529  address */\n          0x00\n            /* \"src/ERC20.sol\":6545:6550  owner */\n          dup1\n          0x01\n          swap1\n          sload\n          swap1\n          0x0100\n          exp\n          swap1\n          div\n          0xffffffffffffffffffffffffffffffffffffffff\n          and\n            /* \"src/ERC20.sol\":6538:6550  return owner */\n          swap1\n          pop\n            /* \"src/ERC20.sol\":6481:6555  function getOwner() public view returns (address){... */\n          swap1\n          jump\t// out\n            /* \"src/ERC20.sol\":1398:1431  address public owner = msg.sender */\n        tag_65:\n          0x00\n          0x01\n          swap1\n          sload\n          swap1\n          0x0100\n          exp\n          swap1\n          div\n          0xffffffffffffffffffffffffffffffffffffffff\n          and\n          dup2\n          jump\t// out\n            /* \"src/ERC20.sol\":1613:1649  string public constant symbol = \"DT\" */\n        tag_68:\n          mload(0x40)\n          dup1\n          0x40\n          add\n          0x40\n          mstore\n          dup1\n          0x02\n          dup2\n          mstore\n          0x20\n          add\n          0x4454000000000000000000000000000000000000000000000000000000000000\n          dup2\n          mstore\n          pop\n          dup2\n          jump\t// out\n            /* \"src/ERC20.sol\":2567:2926  function transfer(address _to, uint256 _value) public returns (bool) {... */\n        tag_72:\n            /* \"src/ERC20.sol\":2630:2634  bool */\n          0x00\n            /* \"src/ERC20.sol\":2665:2666  0 */\n          dup1\n            /* \"src/ERC20.sol\":2650:2667  _to != address(0) */\n          0xffffffffffffffffffffffffffffffffffffffff\n          and\n            /* \"src/ERC20.sol\":2650:2653  _to */\n          dup4\n            /* \"src/ERC20.sol\":2650:2667  _to != address(0) */\n          0xffffffffffffffffffffffffffffffffffffffff\n          and\n          sub\n            /* \"src/ERC20.sol\":2642:2668  require(_to != address(0)) */\n          tag_122\n          jumpi\n          0x00\n          dup1\n          revert\n        tag_122:\n            /* \"src/ERC20.sol\":2692:2700  balances */\n          0x02\n            /* \"src/ERC20.sol\":2692:2711  balances[tx.origin] */\n          0x00\n            /* \"src/ERC20.sol\":2701:2710  tx.origin */\n          origin\n            /* \"src/ERC20.sol\":2692:2711  balances[tx.origin] */\n          0xffffffffffffffffffffffffffffffffffffffff\n          and\n          0xffffffffffffffffffffffffffffffffffffffff\n          and\n          dup2\n          mstore\n          0x20\n          add\n          swap1\n          dup2\n          mstore\n          0x20\n          add\n          0x00\n          keccak256\n          sload\n            /* \"src/ERC20.sol\":2682:2688  _value */\n          dup3\n            /* \"src/ERC20.sol\":2682:2711  _value <= balances[tx.origin] */\n          gt\n          iszero\n            /* \"src/ERC20.sol\":2674:2754  require(_value <= balances[tx.origin], \"msg.sender doesn't have enough balance\") */\n          tag_123\n          jumpi\n          mload(0x40)\n          0x08c379a000000000000000000000000000000000000000000000000000000000\n          dup2\n          mstore\n          0x04\n          add\n          tag_124\n          swap1\n          tag_125\n          jump\t// in\n        tag_124:\n          mload(0x40)\n          dup1\n          swap2\n          sub\n          swap1\n          revert\n        tag_123:\n            /* \"src/ERC20.sol\":2783:2814  balances[tx.origin].sub(_value) */\n          tag_126\n            /* \"src/ERC20.sol\":2807:2813  _value */\n          dup3\n            /* \"src/ERC20.sol\":2783:2791  balances */\n          0x02\n            /* \"src/ERC20.sol\":2783:2802  balances[tx.origin] */\n          0x00\n            /* \"src/ERC20.sol\":2792:2801  tx.origin */\n          origin\n            /* \"src/ERC20.sol\":2783:2802  balances[tx.origin] */\n          0xffffffffffffffffffffffffffffffffffffffff\n          and\n          0xffffffffffffffffffffffffffffffffffffffff\n          and\n          dup2\n          mstore\n          0x20\n          add\n          swap1\n          dup2\n          mstore\n          0x20\n          add\n          0x00\n          keccak256\n          sload\n            /* \"src/ERC20.sol\":2783:2806  balances[tx.origin].sub */\n          tag_100\n          swap1\n            /* \"src/ERC20.sol\":2783:2814  balances[tx.origin].sub(_value) */\n          swap2\n          swap1\n          0xffffffff\n          and\n          jump\t// in\n        tag_126:\n            /* \"src/ERC20.sol\":2761:2769  balances */\n          0x02\n            /* \"src/ERC20.sol\":2761:2780  balances[tx.origin] */\n          0x00\n            /* \"src/ERC20.sol\":2770:2779  tx.origin */\n          origin\n            /* \"src/ERC20.sol\":2761:2780  balances[tx.origin] */\n          0xffffffffffffffffffffffffffffffffffffffff\n          and\n          0xffffffffffffffffffffffffffffffffffffffff\n          and\n          dup2\n          mstore\n          0x20\n          add\n          swap1\n          dup2\n          mstore\n          0x20\n          add\n          0x00\n          keccak256\n            /* \"src/ERC20.sol\":2761:2814  balances[tx.origin] = balances[tx.origin].sub(_value) */\n          dup2\n          swap1\n          sstore\n          pop\n            /* \"src/ERC20.sol\":2836:2861  balances[_to].add(_value) */\n          tag_127\n            /* \"src/ERC20.sol\":2854:2860  _value */\n          dup3\n            /* \"src/ERC20.sol\":2836:2844  balances */\n          0x02\n            /* \"src/ERC20.sol\":2836:2849  balances[_to] */\n          0x00\n            /* \"src/ERC20.sol\":2845:2848  _to */\n          dup7\n            /* \"src/ERC20.sol\":2836:2849  balances[_to] */\n          0xffffffffffffffffffffffffffffffffffffffff\n          and\n          0xffffffffffffffffffffffffffffffffffffffff\n          and\n          dup2\n          mstore\n          0x20\n          add\n          swap1\n          dup2\n          mstore\n          0x20\n          add\n          0x00\n          keccak256\n          sload\n            /* \"src/ERC20.sol\":2836:2853  balances[_to].add */\n          tag_102\n          swap1\n            /* \"src/ERC20.sol\":2836:2861  balances[_to].add(_value) */\n          swap2\n          swap1\n          0xffffffff\n          and\n          jump\t// in\n        tag_127:\n            /* \"src/ERC20.sol\":2820:2828  balances */\n          0x02\n            /* \"src/ERC20.sol\":2820:2833  balances[_to] */\n          0x00\n            /* \"src/ERC20.sol\":2829:2832  _to */\n          dup6\n            /* \"src/ERC20.sol\":2820:2833  balances[_to] */\n          0xffffffffffffffffffffffffffffffffffffffff\n          and\n          0xffffffffffffffffffffffffffffffffffffffff\n          and\n          dup2\n          mstore\n          0x20\n          add\n          swap1\n          dup2\n          mstore\n          0x20\n          add\n          0x00\n          keccak256\n            /* \"src/ERC20.sol\":2820:2861  balances[_to] = balances[_to].add(_value) */\n          dup2\n          swap1\n          sstore\n          pop\n            /* \"src/ERC20.sol\":2892:2895  _to */\n          dup3\n            /* \"src/ERC20.sol\":2872:2904  Transfer(tx.origin, _to, _value) */\n          0xffffffffffffffffffffffffffffffffffffffff\n          and\n            /* \"src/ERC20.sol\":2881:2890  tx.origin */\n          origin\n            /* \"src/ERC20.sol\":2872:2904  Transfer(tx.origin, _to, _value) */\n          0xffffffffffffffffffffffffffffffffffffffff\n          and\n          0xddf252ad1be2c89b69c2b068fc378daa952ba7f163c4a11628f55a4df523b3ef\n            /* \"src/ERC20.sol\":2897:2903  _value */\n          dup5\n            /* \"src/ERC20.sol\":2872:2904  Transfer(tx.origin, _to, _value) */\n          mload(0x40)\n          tag_128\n          swap2\n          swap1\n          tag_38\n          jump\t// in\n        tag_128:\n          mload(0x40)\n          dup1\n          swap2\n          sub\n          swap1\n          log3\n            /* \"src/ERC20.sol\":2917:2921  true */\n          0x01\n            /* \"src/ERC20.sol\":2910:2921  return true */\n          swap1\n          pop\n            /* \"src/ERC20.sol\":2567:2926  function transfer(address _to, uint256 _value) public returns (bool) {... */\n          swap3\n          swap2\n          pop\n          pop\n          jump\t// out\n            /* \"src/ERC20.sol\":3718:4246  function DTtransferFrom(address _from, address _spender, address _to, uint256 _value) public returns (bool) {... */\n        tag_77:\n            /* \"src/ERC20.sol\":3820:3824  bool */\n          0x00\n            /* \"src/ERC20.sol\":3855:3856  0 */\n          dup1\n            /* \"src/ERC20.sol\":3840:3857  _to != address(0) */\n          0xffffffffffffffffffffffffffffffffffffffff\n          and\n            /* \"src/ERC20.sol\":3840:3843  _to */\n          dup4\n            /* \"src/ERC20.sol\":3840:3857  _to != address(0) */\n          0xffffffffffffffffffffffffffffffffffffffff\n          and\n          sub\n            /* \"src/ERC20.sol\":3832:3858  require(_to != address(0)) */\n          tag_130\n          jumpi\n          0x00\n          dup1\n          revert\n        tag_130:\n            /* \"src/ERC20.sol\":3882:3890  balances */\n          0x02\n            /* \"src/ERC20.sol\":3882:3897  balances[_from] */\n          0x00\n            /* \"src/ERC20.sol\":3891:3896  _from */\n          dup7\n            /* \"src/ERC20.sol\":3882:3897  balances[_from] */\n          0xffffffffffffffffffffffffffffffffffffffff\n          and\n          0xffffffffffffffffffffffffffffffffffffffff\n          and\n          dup2\n          mstore\n          0x20\n          add\n          swap1\n          dup2\n          mstore\n          0x20\n          add\n          0x00\n          keccak256\n          sload\n            /* \"src/ERC20.sol\":3872:3878  _value */\n          dup3\n            /* \"src/ERC20.sol\":3872:3897  _value <= balances[_from] */\n          gt\n          iszero\n            /* \"src/ERC20.sol\":3864:3934  require(_value <= balances[_from], \"From doesn't have enough balance\") */\n          tag_131\n          jumpi\n          mload(0x40)\n          0x08c379a000000000000000000000000000000000000000000000000000000000\n          dup2\n          mstore\n          0x04\n          add\n          tag_132\n          swap1\n          tag_95\n          jump\t// in\n        tag_132:\n          mload(0x40)\n          dup1\n          swap2\n          sub\n          swap1\n          revert\n        tag_131:\n            /* \"src/ERC20.sol\":3958:3965  allowed */\n          0x01\n            /* \"src/ERC20.sol\":3958:3972  allowed[_from] */\n          0x00\n            /* \"src/ERC20.sol\":3966:3971  _from */\n          dup7\n            /* \"src/ERC20.sol\":3958:3972  allowed[_from] */\n          0xffffffffffffffffffffffffffffffffffffffff\n          and\n          0xffffffffffffffffffffffffffffffffffffffff\n          and\n          dup2\n          mstore\n          0x20\n          add\n          swap1\n          dup2\n          mstore\n          0x20\n          add\n          0x00\n          keccak256\n            /* \"src/ERC20.sol\":3958:3982  allowed[_from][_spender] */\n          0x00\n            /* \"src/ERC20.sol\":3973:3981  _spender */\n          dup6\n            /* \"src/ERC20.sol\":3958:3982  allowed[_from][_spender] */\n          0xffffffffffffffffffffffffffffffffffffffff\n          and\n          0xffffffffffffffffffffffffffffffffffffffff\n          and\n          dup2\n          mstore\n          0x20\n          add\n          swap1\n          dup2\n          mstore\n          0x20\n          add\n          0x00\n          keccak256\n          sload\n            /* \"src/ERC20.sol\":3948:3954  _value */\n          dup3\n            /* \"src/ERC20.sol\":3948:3982  _value <= allowed[_from][_spender] */\n          gt\n          iszero\n            /* \"src/ERC20.sol\":3940:4017  require(_value <= allowed[_from][_spender], \"Not allowed to spend this much\") */\n          tag_133\n          jumpi\n          mload(0x40)\n          0x08c379a000000000000000000000000000000000000000000000000000000000\n          dup2\n          mstore\n          0x04\n          add\n          tag_134\n          swap1\n          tag_98\n          jump\t// in\n        tag_134:\n          mload(0x40)\n          dup1\n          swap2\n          sub\n          swap1\n          revert\n        tag_133:\n            /* \"src/ERC20.sol\":4042:4069  balances[_from].sub(_value) */\n          tag_135\n            /* \"src/ERC20.sol\":4062:4068  _value */\n          dup3\n            /* \"src/ERC20.sol\":4042:4050  balances */\n          0x02\n            /* \"src/ERC20.sol\":4042:4057  balances[_from] */\n          0x00\n            /* \"src/ERC20.sol\":4051:4056  _from */\n          dup9\n            /* \"src/ERC20.sol\":4042:4057  balances[_from] */\n          0xffffffffffffffffffffffffffffffffffffffff\n          and\n          0xffffffffffffffffffffffffffffffffffffffff\n          and\n          dup2\n          mstore\n          0x20\n          add\n          swap1\n          dup2\n          mstore\n          0x20\n          add\n          0x00\n          keccak256\n          sload\n            /* \"src/ERC20.sol\":4042:4061  balances[_from].sub */\n          tag_100\n          swap1\n            /* \"src/ERC20.sol\":4042:4069  balances[_from].sub(_value) */\n          swap2\n          swap1\n          0xffffffff\n          and\n          jump\t// in\n        tag_135:\n            /* \"src/ERC20.sol\":4024:4032  balances */\n          0x02\n            /* \"src/ERC20.sol\":4024:4039  balances[_from] */\n          0x00\n            /* \"src/ERC20.sol\":4033:4038  _from */\n          dup8\n            /* \"src/ERC20.sol\":4024:4039  balances[_from] */\n          0xffffffffffffffffffffffffffffffffffffffff\n          and\n          0xffffffffffffffffffffffffffffffffffffffff\n          and\n          dup2\n          mstore\n          0x20\n          add\n          swap1\n          dup2\n          mstore\n          0x20\n          add\n          0x00\n          keccak256\n            /* \"src/ERC20.sol\":4024:4069  balances[_from] = balances[_from].sub(_value) */\n          dup2\n          swap1\n          sstore\n          pop\n            /* \"src/ERC20.sol\":4091:4116  balances[_to].add(_value) */\n          tag_136\n            /* \"src/ERC20.sol\":4109:4115  _value */\n          dup3\n            /* \"src/ERC20.sol\":4091:4099  balances */\n          0x02\n            /* \"src/ERC20.sol\":4091:4104  balances[_to] */\n          0x00\n            /* \"src/ERC20.sol\":4100:4103  _to */\n          dup7\n            /* \"src/ERC20.sol\":4091:4104  balances[_to] */\n          0xffffffffffffffffffffffffffffffffffffffff\n          and\n          0xffffffffffffffffffffffffffffffffffffffff\n          and\n          dup2\n          mstore\n          0x20\n          add\n          swap1\n          dup2\n          mstore\n          0x20\n          add\n          0x00\n          keccak256\n          sload\n            /* \"src/ERC20.sol\":4091:4108  balances[_to].add */\n          tag_102\n          swap1\n            /* \"src/ERC20.sol\":4091:4116  balances[_to].add(_value) */\n          swap2\n          swap1\n          0xffffffff\n          and\n          jump\t// in\n        tag_136:\n            /* \"src/ERC20.sol\":4075:4083  balances */\n          0x02\n            /* \"src/ERC20.sol\":4075:4088  balances[_to] */\n          0x00\n            /* \"src/ERC20.sol\":4084:4087  _to */\n          dup6\n            /* \"src/ERC20.sol\":4075:4088  balances[_to] */\n          0xffffffffffffffffffffffffffffffffffffffff\n          and\n          0xffffffffffffffffffffffffffffffffffffffff\n          and\n          dup2\n          mstore\n          0x20\n          add\n          swap1\n          dup2\n          mstore\n          0x20\n          add\n          0x00\n          keccak256\n            /* \"src/ERC20.sol\":4075:4116  balances[_to] = balances[_to].add(_value) */\n          dup2\n          swap1\n          sstore\n          pop\n            /* \"src/ERC20.sol\":4149:4185  allowed[_from][_spender].sub(_value) */\n          tag_137\n            /* \"src/ERC20.sol\":4178:4184  _value */\n          dup3\n            /* \"src/ERC20.sol\":4149:4156  allowed */\n          0x01\n            /* \"src/ERC20.sol\":4149:4163  allowed[_from] */\n          0x00\n            /* \"src/ERC20.sol\":4157:4162  _from */\n          dup9\n            /* \"src/ERC20.sol\":4149:4163  allowed[_from] */\n          0xffffffffffffffffffffffffffffffffffffffff\n          and\n          0xffffffffffffffffffffffffffffffffffffffff\n          and\n          dup2\n          mstore\n          0x20\n          add\n          swap1\n          dup2\n          mstore\n          0x20\n          add\n          0x00\n          keccak256\n            /* \"src/ERC20.sol\":4149:4173  allowed[_from][_spender] */\n          0x00\n            /* \"src/ERC20.sol\":4164:4172  _spender */\n          dup8\n            /* \"src/ERC20.sol\":4149:4173  allowed[_from][_spender] */\n          0xffffffffffffffffffffffffffffffffffffffff\n          and\n          0xffffffffffffffffffffffffffffffffffffffff\n          and\n          dup2\n          mstore\n          0x20\n          add\n          swap1\n          dup2\n          mstore\n          0x20\n          add\n          0x00\n          keccak256\n          sload\n            /* \"src/ERC20.sol\":4149:4177  allowed[_from][_spender].sub */\n          tag_100\n          swap1\n            /* \"src/ERC20.sol\":4149:4185  allowed[_from][_spender].sub(_value) */\n          swap2\n          swap1\n          0xffffffff\n          and\n          jump\t// in\n        tag_137:\n            /* \"src/ERC20.sol\":4122:4129  allowed */\n          0x01\n            /* \"src/ERC20.sol\":4122:4136  allowed[_from] */\n          0x00\n            /* \"src/ERC20.sol\":4130:4135  _from */\n          dup8\n            /* \"src/ERC20.sol\":4122:4136  allowed[_from] */\n          0xffffffffffffffffffffffffffffffffffffffff\n          and\n          0xffffffffffffffffffffffffffffffffffffffff\n          and\n          dup2\n          mstore\n          0x20\n          add\n          swap1\n          dup2\n          mstore\n          0x20\n          add\n          0x00\n          keccak256\n            /* \"src/ERC20.sol\":4122:4146  allowed[_from][_spender] */\n          0x00\n            /* \"src/ERC20.sol\":4137:4145  _spender */\n          dup7\n            /* \"src/ERC20.sol\":4122:4146  allowed[_from][_spender] */\n          0xffffffffffffffffffffffffffffffffffffffff\n          and\n          0xffffffffffffffffffffffffffffffffffffffff\n          and\n          dup2\n          mstore\n          0x20\n          add\n          swap1\n          dup2\n          mstore\n          0x20\n          add\n          0x00\n          keccak256\n            /* \"src/ERC20.sol\":4122:4185  allowed[_from][_spender] = allowed[_from][_spender].sub(_value) */\n          dup2\n          swap1\n          sstore\n          pop\n            /* \"src/ERC20.sol\":4212:4215  _to */\n          dup3\n            /* \"src/ERC20.sol\":4196:4224  Transfer(_from, _to, _value) */\n          0xffffffffffffffffffffffffffffffffffffffff\n          and\n            /* \"src/ERC20.sol\":4205:4210  _from */\n          dup6\n            /* \"src/ERC20.sol\":4196:4224  Transfer(_from, _to, _value) */\n          0xffffffffffffffffffffffffffffffffffffffff\n          and\n          0xddf252ad1be2c89b69c2b068fc378daa952ba7f163c4a11628f55a4df523b3ef\n            /* \"src/ERC20.sol\":4217:4223  _value */\n          dup5\n            /* \"src/ERC20.sol\":4196:4224  Transfer(_from, _to, _value) */\n          mload(0x40)\n          tag_138\n          swap2\n          swap1\n          tag_38\n          jump\t// in\n        tag_138:\n          mload(0x40)\n          dup1\n          swap2\n          sub\n          swap1\n          log3\n            /* \"src/ERC20.sol\":4237:4241  true */\n          0x01\n            /* \"src/ERC20.sol\":4230:4241  return true */\n          swap1\n          pop\n            /* \"src/ERC20.sol\":3718:4246  function DTtransferFrom(address _from, address _spender, address _to, uint256 _value) public returns (bool) {... */\n          swap5\n          swap4\n          pop\n          pop\n          pop\n          pop\n          jump\t// out\n            /* \"src/ERC20.sol\":5578:5704  function allowance(address _owner, address _spender) public view returns (uint256) {... */\n        tag_82:\n            /* \"src/ERC20.sol\":5652:5659  uint256 */\n          0x00\n            /* \"src/ERC20.sol\":5674:5681  allowed */\n          0x01\n            /* \"src/ERC20.sol\":5674:5689  allowed[_owner] */\n          0x00\n            /* \"src/ERC20.sol\":5682:5688  _owner */\n          dup5\n            /* \"src/ERC20.sol\":5674:5689  allowed[_owner] */\n          0xffffffffffffffffffffffffffffffffffffffff\n          and\n          0xffffffffffffffffffffffffffffffffffffffff\n          and\n          dup2\n          mstore\n          0x20\n          add\n          swap1\n          dup2\n          mstore\n          0x20\n          add\n          0x00\n          keccak256\n            /* \"src/ERC20.sol\":5674:5699  allowed[_owner][_spender] */\n          0x00\n            /* \"src/ERC20.sol\":5690:5698  _spender */\n          dup4\n            /* \"src/ERC20.sol\":5674:5699  allowed[_owner][_spender] */\n          0xffffffffffffffffffffffffffffffffffffffff\n          and\n          0xffffffffffffffffffffffffffffffffffffffff\n          and\n          dup2\n          mstore\n          0x20\n          add\n          swap1\n          dup2\n          mstore\n          0x20\n          add\n          0x00\n          keccak256\n          sload\n            /* \"src/ERC20.sol\":5667:5699  return allowed[_owner][_spender] */\n          swap1\n          pop\n            /* \"src/ERC20.sol\":5578:5704  function allowance(address _owner, address _spender) public view returns (uint256) {... */\n          swap3\n          swap2\n          pop\n          pop\n          jump\t// out\n            /* \"src/ERC20.sol\":5061:5259  function DTapprove(address _owner, address _spender, uint256 _value) public returns (bool) {... */\n        tag_86:\n            /* \"src/ERC20.sol\":5146:5150  bool */\n          0x00\n            /* \"src/ERC20.sol\":5186:5192  _value */\n          dup2\n            /* \"src/ERC20.sol\":5158:5165  allowed */\n          0x01\n            /* \"src/ERC20.sol\":5158:5173  allowed[_owner] */\n          0x00\n            /* \"src/ERC20.sol\":5166:5172  _owner */\n          dup7\n            /* \"src/ERC20.sol\":5158:5173  allowed[_owner] */\n          0xffffffffffffffffffffffffffffffffffffffff\n          and\n          0xffffffffffffffffffffffffffffffffffffffff\n          and\n          dup2\n          mstore\n          0x20\n          add\n          swap1\n          dup2\n          mstore\n          0x20\n          add\n          0x00\n          keccak256\n            /* \"src/ERC20.sol\":5158:5183  allowed[_owner][_spender] */\n          0x00\n            /* \"src/ERC20.sol\":5174:5182  _spender */\n          dup6\n            /* \"src/ERC20.sol\":5158:5183  allowed[_owner][_spender] */\n          0xffffffffffffffffffffffffffffffffffffffff\n          and\n          0xffffffffffffffffffffffffffffffffffffffff\n          and\n          dup2\n          mstore\n          0x20\n          add\n          swap1\n          dup2\n          mstore\n          0x20\n          add\n          0x00\n          keccak256\n            /* \"src/ERC20.sol\":5158:5192  allowed[_owner][_spender] = _value */\n          dup2\n          swap1\n          sstore\n          pop\n            /* \"src/ERC20.sol\":5220:5228  _spender */\n          dup3\n            /* \"src/ERC20.sol\":5203:5237  Approval(_owner, _spender, _value) */\n          0xffffffffffffffffffffffffffffffffffffffff\n          and\n            /* \"src/ERC20.sol\":5212:5218  _owner */\n          dup5\n            /* \"src/ERC20.sol\":5203:5237  Approval(_owner, _spender, _value) */\n          0xffffffffffffffffffffffffffffffffffffffff\n          and\n          0x8c5be1e5ebec7d5bd14f71427d1e84f3dd0314c0f7b2291e5b200ac8c7c3b925\n            /* \"src/ERC20.sol\":5230:5236  _value */\n          dup5\n            /* \"src/ERC20.sol\":5203:5237  Approval(_owner, _spender, _value) */\n          mload(0x40)\n          tag_141\n          swap2\n          swap1\n          tag_38\n          jump\t// in\n        tag_141:\n          mload(0x40)\n          dup1\n          swap2\n          sub\n          swap1\n          log3\n            /* \"src/ERC20.sol\":5250:5254  true */\n          0x01\n            /* \"src/ERC20.sol\":5243:5254  return true */\n          swap1\n          pop\n            /* \"src/ERC20.sol\":5061:5259  function DTapprove(address _owner, address _spender, uint256 _value) public returns (bool) {... */\n          swap4\n          swap3\n          pop\n          pop\n          pop\n          jump\t// out\n            /* \"src/ERC20.sol\":995:1105  function sub(uint256 a, uint256 b) internal pure returns (uint256) {... */\n        tag_100:\n            /* \"src/ERC20.sol\":1053:1060  uint256 */\n          0x00\n            /* \"src/ERC20.sol\":1080:1081  a */\n          dup3\n            /* \"src/ERC20.sol\":1075:1076  b */\n          dup3\n            /* \"src/ERC20.sol\":1075:1081  b <= a */\n          gt\n          iszero\n            /* \"src/ERC20.sol\":1068:1082  assert(b <= a) */\n          tag_143\n          jumpi\n          tag_144\n          tag_145\n          jump\t// in\n        tag_144:\n        tag_143:\n            /* \"src/ERC20.sol\":1099:1100  b */\n          dup2\n            /* \"src/ERC20.sol\":1095:1096  a */\n          dup4\n            /* \"src/ERC20.sol\":1095:1100  a - b */\n          tag_146\n          swap2\n          swap1\n          tag_147\n          jump\t// in\n        tag_146:\n            /* \"src/ERC20.sol\":1088:1100  return a - b */\n          swap1\n          pop\n            /* \"src/ERC20.sol\":995:1105  function sub(uint256 a, uint256 b) internal pure returns (uint256) {... */\n          swap3\n          swap2\n          pop\n          pop\n          jump\t// out\n            /* \"src/ERC20.sol\":1167:1290  function add(uint256 a, uint256 b) internal pure returns (uint256 c) {... */\n        tag_102:\n            /* \"src/ERC20.sol\":1225:1234  uint256 c */\n          0x00\n            /* \"src/ERC20.sol\":1250:1251  b */\n          dup2\n            /* \"src/ERC20.sol\":1246:1247  a */\n          dup4\n            /* \"src/ERC20.sol\":1246:1251  a + b */\n          tag_149\n          swap2\n          swap1\n          tag_150\n          jump\t// in\n        tag_149:\n            /* \"src/ERC20.sol\":1242:1251  c = a + b */\n          swap1\n          pop\n            /* \"src/ERC20.sol\":1269:1270  a */\n          dup3\n            /* \"src/ERC20.sol\":1264:1265  c */\n          dup2\n            /* \"src/ERC20.sol\":1264:1270  c >= a */\n          lt\n          iszero\n            /* \"src/ERC20.sol\":1257:1271  assert(c >= a) */\n          tag_151\n          jumpi\n          tag_152\n          tag_145\n          jump\t// in\n        tag_152:\n        tag_151:\n            /* \"src/ERC20.sol\":1167:1290  function add(uint256 a, uint256 b) internal pure returns (uint256 c) {... */\n          swap3\n          swap2\n          pop\n          pop\n          jump\t// out\n            /* \"#utility.yul\":7:97   */\n        tag_153:\n            /* \"#utility.yul\":41:48   */\n          0x00\n            /* \"#utility.yul\":84:89   */\n          dup2\n            /* \"#utility.yul\":77:90   */\n          iszero\n            /* \"#utility.yul\":70:91   */\n          iszero\n            /* \"#utility.yul\":59:91   */\n          swap1\n          pop\n            /* \"#utility.yul\":7:97   */\n          swap2\n          swap1\n          pop\n          jump\t// out\n            /* \"#utility.yul\":103:212   */\n        tag_154:\n            /* \"#utility.yul\":184:205   */\n          tag_184\n            /* \"#utility.yul\":199:204   */\n          dup2\n            /* \"#utility.yul\":184:205   */\n          tag_153\n          jump\t// in\n        tag_184:\n            /* \"#utility.yul\":179:182   */\n          dup3\n            /* \"#utility.yul\":172:206   */\n          mstore\n            /* \"#utility.yul\":103:212   */\n          pop\n          pop\n          jump\t// out\n            /* \"#utility.yul\":218:428   */\n        tag_25:\n            /* \"#utility.yul\":305:309   */\n          0x00\n            /* \"#utility.yul\":343:345   */\n          0x20\n            /* \"#utility.yul\":332:341   */\n          dup3\n            /* \"#utility.yul\":328:346   */\n          add\n            /* \"#utility.yul\":320:346   */\n          swap1\n          pop\n            /* \"#utility.yul\":356:421   */\n          tag_186\n            /* \"#utility.yul\":418:419   */\n          0x00\n            /* \"#utility.yul\":407:416   */\n          dup4\n            /* \"#utility.yul\":403:420   */\n          add\n            /* \"#utility.yul\":394:400   */\n          dup5\n            /* \"#utility.yul\":356:421   */\n          tag_154\n          jump\t// in\n        tag_186:\n            /* \"#utility.yul\":218:428   */\n          swap3\n          swap2\n          pop\n          pop\n          jump\t// out\n            /* \"#utility.yul\":434:533   */\n        tag_155:\n            /* \"#utility.yul\":486:492   */\n          0x00\n            /* \"#utility.yul\":520:525   */\n          dup2\n            /* \"#utility.yul\":514:526   */\n          mload\n            /* \"#utility.yul\":504:526   */\n          swap1\n          pop\n            /* \"#utility.yul\":434:533   */\n          swap2\n          swap1\n          pop\n          jump\t// out\n            /* \"#utility.yul\":539:708   */\n        tag_156:\n            /* \"#utility.yul\":623:634   */\n          0x00\n            /* \"#utility.yul\":657:663   */\n          dup3\n            /* \"#utility.yul\":652:655   */\n          dup3\n            /* \"#utility.yul\":645:664   */\n          mstore\n            /* \"#utility.yul\":697:701   */\n          0x20\n            /* \"#utility.yul\":692:695   */\n          dup3\n            /* \"#utility.yul\":688:702   */\n          add\n            /* \"#utility.yul\":673:702   */\n          swap1\n          pop\n            /* \"#utility.yul\":539:708   */\n          swap3\n          swap2\n          pop\n          pop\n          jump\t// out\n            /* \"#utility.yul\":714:960   */\n        tag_157:\n            /* \"#utility.yul\":795:796   */\n          0x00\n            /* \"#utility.yul\":805:918   */\n        tag_190:\n            /* \"#utility.yul\":819:825   */\n          dup4\n            /* \"#utility.yul\":816:817   */\n          dup2\n            /* \"#utility.yul\":813:826   */\n          lt\n            /* \"#utility.yul\":805:918   */\n          iszero\n          tag_192\n          jumpi\n            /* \"#utility.yul\":904:905   */\n          dup1\n            /* \"#utility.yul\":899:902   */\n          dup3\n            /* \"#utility.yul\":895:906   */\n          add\n            /* \"#utility.yul\":889:907   */\n          mload\n            /* \"#utility.yul\":885:886   */\n          dup2\n            /* \"#utility.yul\":880:883   */\n          dup5\n            /* \"#utility.yul\":876:887   */\n          add\n            /* \"#utility.yul\":869:908   */\n          mstore\n            /* \"#utility.yul\":841:843   */\n          0x20\n            /* \"#utility.yul\":838:839   */\n          dup2\n            /* \"#utility.yul\":834:844   */\n          add\n            /* \"#utility.yul\":829:844   */\n          swap1\n          pop\n            /* \"#utility.yul\":805:918   */\n          jump(tag_190)\n        tag_192:\n            /* \"#utility.yul\":952:953   */\n          0x00\n            /* \"#utility.yul\":943:949   */\n          dup5\n            /* \"#utility.yul\":938:941   */\n          dup5\n            /* \"#utility.yul\":934:950   */\n          add\n            /* \"#utility.yul\":927:954   */\n          mstore\n            /* \"#utility.yul\":776:960   */\n          pop\n            /* \"#utility.yul\":714:960   */\n          pop\n          pop\n          pop\n          jump\t// out\n            /* \"#utility.yul\":966:1068   */\n        tag_158:\n            /* \"#utility.yul\":1007:1013   */\n          0x00\n            /* \"#utility.yul\":1058:1060   */\n          0x1f\n            /* \"#utility.yul\":1054:1061   */\n          not\n            /* \"#utility.yul\":1049:1051   */\n          0x1f\n            /* \"#utility.yul\":1042:1047   */\n          dup4\n            /* \"#utility.yul\":1038:1052   */\n          add\n            /* \"#utility.yul\":1034:1062   */\n          and\n            /* \"#utility.yul\":1024:1062   */\n          swap1\n          pop\n            /* \"#utility.yul\":966:1068   */\n          swap2\n          swap1\n          pop\n          jump\t// out\n            /* \"#utility.yul\":1074:1451   */\n        tag_159:\n            /* \"#utility.yul\":1162:1165   */\n          0x00\n            /* \"#utility.yul\":1190:1229   */\n          tag_195\n            /* \"#utility.yul\":1223:1228   */\n          dup3\n            /* \"#utility.yul\":1190:1229   */\n          tag_155\n          jump\t// in\n        tag_195:\n            /* \"#utility.yul\":1245:1316   */\n          tag_196\n            /* \"#utility.yul\":1309:1315   */\n          dup2\n            /* \"#utility.yul\":1304:1307   */\n          dup6\n            /* \"#utility.yul\":1245:1316   */\n          tag_156\n          jump\t// in\n        tag_196:\n            /* \"#utility.yul\":1238:1316   */\n          swap4\n          pop\n            /* \"#utility.yul\":1325:1390   */\n          tag_197\n            /* \"#utility.yul\":1383:1389   */\n          dup2\n            /* \"#utility.yul\":1378:1381   */\n          dup6\n            /* \"#utility.yul\":1371:1375   */\n          0x20\n            /* \"#utility.yul\":1364:1369   */\n          dup7\n            /* \"#utility.yul\":1360:1376   */\n          add\n            /* \"#utility.yul\":1325:1390   */\n          tag_157\n          jump\t// in\n        tag_197:\n            /* \"#utility.yul\":1415:1444   */\n          tag_198\n            /* \"#utility.yul\":1437:1443   */\n          dup2\n            /* \"#utility.yul\":1415:1444   */\n          tag_158\n          jump\t// in\n        tag_198:\n            /* \"#utility.yul\":1410:1413   */\n          dup5\n            /* \"#utility.yul\":1406:1445   */\n          add\n            /* \"#utility.yul\":1399:1445   */\n          swap2\n          pop\n            /* \"#utility.yul\":1166:1451   */\n          pop\n            /* \"#utility.yul\":1074:1451   */\n          swap3\n          swap2\n          pop\n          pop\n          jump\t// out\n            /* \"#utility.yul\":1457:1770   */\n        tag_29:\n            /* \"#utility.yul\":1570:1574   */\n          0x00\n            /* \"#utility.yul\":1608:1610   */\n          0x20\n            /* \"#utility.yul\":1597:1606   */\n          dup3\n            /* \"#utility.yul\":1593:1611   */\n          add\n            /* \"#utility.yul\":1585:1611   */\n          swap1\n          pop\n            /* \"#utility.yul\":1657:1666   */\n          dup2\n            /* \"#utility.yul\":1651:1655   */\n          dup2\n            /* \"#utility.yul\":1647:1667   */\n          sub\n            /* \"#utility.yul\":1643:1644   */\n          0x00\n            /* \"#utility.yul\":1632:1641   */\n          dup4\n            /* \"#utility.yul\":1628:1645   */\n          add\n            /* \"#utility.yul\":1621:1668   */\n          mstore\n            /* \"#utility.yul\":1685:1763   */\n          tag_200\n            /* \"#utility.yul\":1758:1762   */\n          dup2\n            /* \"#utility.yul\":1749:1755   */\n          dup5\n            /* \"#utility.yul\":1685:1763   */\n          tag_159\n          jump\t// in\n        tag_200:\n            /* \"#utility.yul\":1677:1763   */\n          swap1\n          pop\n            /* \"#utility.yul\":1457:1770   */\n          swap3\n          swap2\n          pop\n          pop\n          jump\t// out\n            /* \"#utility.yul\":1857:1974   */\n        tag_161:\n            /* \"#utility.yul\":1966:1967   */\n          0x00\n            /* \"#utility.yul\":1963:1964   */\n          dup1\n            /* \"#utility.yul\":1956:1968   */\n          revert\n            /* \"#utility.yul\":2103:2229   */\n        tag_163:\n            /* \"#utility.yul\":2140:2147   */\n          0x00\n            /* \"#utility.yul\":2180:2222   */\n          0xffffffffffffffffffffffffffffffffffffffff\n            /* \"#utility.yul\":2173:2178   */\n          dup3\n            /* \"#utility.yul\":2169:2223   */\n          and\n            /* \"#utility.yul\":2158:2223   */\n          swap1\n          pop\n            /* \"#utility.yul\":2103:2229   */\n          swap2\n          swap1\n          pop\n          jump\t// out\n            /* \"#utility.yul\":2235:2331   */\n        tag_164:\n            /* \"#utility.yul\":2272:2279   */\n          0x00\n            /* \"#utility.yul\":2301:2325   */\n          tag_206\n            /* \"#utility.yul\":2319:2324   */\n          dup3\n            /* \"#utility.yul\":2301:2325   */\n          tag_163\n          jump\t// in\n        tag_206:\n            /* \"#utility.yul\":2290:2325   */\n          swap1\n          pop\n            /* \"#utility.yul\":2235:2331   */\n          swap2\n          swap1\n          pop\n          jump\t// out\n            /* \"#utility.yul\":2337:2459   */\n        tag_165:\n            /* \"#utility.yul\":2410:2434   */\n          tag_208\n            /* \"#utility.yul\":2428:2433   */\n          dup2\n            /* \"#utility.yul\":2410:2434   */\n          tag_164\n          jump\t// in\n        tag_208:\n            /* \"#utility.yul\":2403:2408   */\n          dup2\n            /* \"#utility.yul\":2400:2435   */\n          eq\n            /* \"#utility.yul\":2390:2453   */\n          tag_209\n          jumpi\n            /* \"#utility.yul\":2449:2450   */\n          0x00\n            /* \"#utility.yul\":2446:2447   */\n          dup1\n            /* \"#utility.yul\":2439:2451   */\n          revert\n            /* \"#utility.yul\":2390:2453   */\n        tag_209:\n            /* \"#utility.yul\":2337:2459   */\n          pop\n          jump\t// out\n            /* \"#utility.yul\":2465:2604   */\n        tag_166:\n            /* \"#utility.yul\":2511:2516   */\n          0x00\n            /* \"#utility.yul\":2549:2555   */\n          dup2\n            /* \"#utility.yul\":2536:2556   */\n          calldataload\n            /* \"#utility.yul\":2527:2556   */\n          swap1\n          pop\n            /* \"#utility.yul\":2565:2598   */\n          tag_211\n            /* \"#utility.yul\":2592:2597   */\n          dup2\n            /* \"#utility.yul\":2565:2598   */\n          tag_165\n          jump\t// in\n        tag_211:\n            /* \"#utility.yul\":2465:2604   */\n          swap3\n          swap2\n          pop\n          pop\n          jump\t// out\n            /* \"#utility.yul\":2610:2687   */\n        tag_167:\n            /* \"#utility.yul\":2647:2654   */\n          0x00\n            /* \"#utility.yul\":2676:2681   */\n          dup2\n            /* \"#utility.yul\":2665:2681   */\n          swap1\n          pop\n            /* \"#utility.yul\":2610:2687   */\n          swap2\n          swap1\n          pop\n          jump\t// out\n            /* \"#utility.yul\":2693:2815   */\n        tag_168:\n            /* \"#utility.yul\":2766:2790   */\n          tag_214\n            /* \"#utility.yul\":2784:2789   */\n          dup2\n            /* \"#utility.yul\":2766:2790   */\n          tag_167\n          jump\t// in\n        tag_214:\n            /* \"#utility.yul\":2759:2764   */\n          dup2\n            /* \"#utility.yul\":2756:2791   */\n          eq\n            /* \"#utility.yul\":2746:2809   */\n          tag_215\n          jumpi\n            /* \"#utility.yul\":2805:2806   */\n          0x00\n            /* \"#utility.yul\":2802:2803   */\n          dup1\n            /* \"#utility.yul\":2795:2807   */\n          revert\n            /* \"#utility.yul\":2746:2809   */\n        tag_215:\n            /* \"#utility.yul\":2693:2815   */\n          pop\n          jump\t// out\n            /* \"#utility.yul\":2821:2960   */\n        tag_169:\n            /* \"#utility.yul\":2867:2872   */\n          0x00\n            /* \"#utility.yul\":2905:2911   */\n          dup2\n            /* \"#utility.yul\":2892:2912   */\n          calldataload\n            /* \"#utility.yul\":2883:2912   */\n          swap1\n          pop\n            /* \"#utility.yul\":2921:2954   */\n          tag_217\n            /* \"#utility.yul\":2948:2953   */\n          dup2\n            /* \"#utility.yul\":2921:2954   */\n          tag_168\n          jump\t// in\n        tag_217:\n            /* \"#utility.yul\":2821:2960   */\n          swap3\n          swap2\n          pop\n          pop\n          jump\t// out\n            /* \"#utility.yul\":2966:3440   */\n        tag_32:\n            /* \"#utility.yul\":3034:3040   */\n          0x00\n            /* \"#utility.yul\":3042:3048   */\n          dup1\n            /* \"#utility.yul\":3091:3093   */\n          0x40\n            /* \"#utility.yul\":3079:3088   */\n          dup4\n            /* \"#utility.yul\":3070:3077   */\n          dup6\n            /* \"#utility.yul\":3066:3089   */\n          sub\n            /* \"#utility.yul\":3062:3094   */\n          slt\n            /* \"#utility.yul\":3059:3178   */\n          iszero\n          tag_219\n          jumpi\n            /* \"#utility.yul\":3097:3176   */\n          tag_220\n          tag_161\n          jump\t// in\n        tag_220:\n            /* \"#utility.yul\":3059:3178   */\n        tag_219:\n            /* \"#utility.yul\":3217:3218   */\n          0x00\n            /* \"#utility.yul\":3242:3295   */\n          tag_221\n            /* \"#utility.yul\":3287:3294   */\n          dup6\n            /* \"#utility.yul\":3278:3284   */\n          dup3\n            /* \"#utility.yul\":3267:3276   */\n          dup7\n            /* \"#utility.yul\":3263:3285   */\n          add\n            /* \"#utility.yul\":3242:3295   */\n          tag_166\n          jump\t// in\n        tag_221:\n            /* \"#utility.yul\":3232:3295   */\n          swap3\n          pop\n            /* \"#utility.yul\":3188:3305   */\n          pop\n            /* \"#utility.yul\":3344:3346   */\n          0x20\n            /* \"#utility.yul\":3370:3423   */\n          tag_222\n            /* \"#utility.yul\":3415:3422   */\n          dup6\n            /* \"#utility.yul\":3406:3412   */\n          dup3\n            /* \"#utility.yul\":3395:3404   */\n          dup7\n            /* \"#utility.yul\":3391:3413   */\n          add\n            /* \"#utility.yul\":3370:3423   */\n          tag_169\n          jump\t// in\n        tag_222:\n            /* \"#utility.yul\":3360:3423   */\n          swap2\n          pop\n            /* \"#utility.yul\":3315:3433   */\n          pop\n            /* \"#utility.yul\":2966:3440   */\n          swap3\n          pop\n          swap3\n          swap1\n          pop\n          jump\t// out\n            /* \"#utility.yul\":3446:3564   */\n        tag_170:\n            /* \"#utility.yul\":3533:3557   */\n          tag_224\n            /* \"#utility.yul\":3551:3556   */\n          dup2\n            /* \"#utility.yul\":3533:3557   */\n          tag_167\n          jump\t// in\n        tag_224:\n            /* \"#utility.yul\":3528:3531   */\n          dup3\n            /* \"#utility.yul\":3521:3558   */\n          mstore\n            /* \"#utility.yul\":3446:3564   */\n          pop\n          pop\n          jump\t// out\n            /* \"#utility.yul\":3570:3792   */\n        tag_38:\n            /* \"#utility.yul\":3663:3667   */\n          0x00\n            /* \"#utility.yul\":3701:3703   */\n          0x20\n            /* \"#utility.yul\":3690:3699   */\n          dup3\n            /* \"#utility.yul\":3686:3704   */\n          add\n            /* \"#utility.yul\":3678:3704   */\n          swap1\n          pop\n            /* \"#utility.yul\":3714:3785   */\n          tag_226\n            /* \"#utility.yul\":3782:3783   */\n          0x00\n            /* \"#utility.yul\":3771:3780   */\n          dup4\n            /* \"#utility.yul\":3767:3784   */\n          add\n            /* \"#utility.yul\":3758:3764   */\n          dup5\n            /* \"#utility.yul\":3714:3785   */\n          tag_170\n          jump\t// in\n        tag_226:\n            /* \"#utility.yul\":3570:3792   */\n          swap3\n          swap2\n          pop\n          pop\n          jump\t// out\n            /* \"#utility.yul\":3798:4417   */\n        tag_41:\n            /* \"#utility.yul\":3875:3881   */\n          0x00\n            /* \"#utility.yul\":3883:3889   */\n          dup1\n            /* \"#utility.yul\":3891:3897   */\n          0x00\n            /* \"#utility.yul\":3940:3942   */\n          0x60\n            /* \"#utility.yul\":3928:3937   */\n          dup5\n            /* \"#utility.yul\":3919:3926   */\n          dup7\n            /* \"#utility.yul\":3915:3938   */\n          sub\n            /* \"#utility.yul\":3911:3943   */\n          slt\n            /* \"#utility.yul\":3908:4027   */\n          iszero\n          tag_228\n          jumpi\n            /* \"#utility.yul\":3946:4025   */\n          tag_229\n          tag_161\n          jump\t// in\n        tag_229:\n            /* \"#utility.yul\":3908:4027   */\n        tag_228:\n            /* \"#utility.yul\":4066:4067   */\n          0x00\n            /* \"#utility.yul\":4091:4144   */\n          tag_230\n            /* \"#utility.yul\":4136:4143   */\n          dup7\n            /* \"#utility.yul\":4127:4133   */\n          dup3\n            /* \"#utility.yul\":4116:4125   */\n          dup8\n            /* \"#utility.yul\":4112:4134   */\n          add\n            /* \"#utility.yul\":4091:4144   */\n          tag_166\n          jump\t// in\n        tag_230:\n            /* \"#utility.yul\":4081:4144   */\n          swap4\n          pop\n            /* \"#utility.yul\":4037:4154   */\n          pop\n            /* \"#utility.yul\":4193:4195   */\n          0x20\n            /* \"#utility.yul\":4219:4272   */\n          tag_231\n            /* \"#utility.yul\":4264:4271   */\n          dup7\n            /* \"#utility.yul\":4255:4261   */\n          dup3\n            /* \"#utility.yul\":4244:4253   */\n          dup8\n            /* \"#utility.yul\":4240:4262   */\n          add\n            /* \"#utility.yul\":4219:4272   */\n          tag_166\n          jump\t// in\n        tag_231:\n            /* \"#utility.yul\":4209:4272   */\n          swap3\n          pop\n            /* \"#utility.yul\":4164:4282   */\n          pop\n            /* \"#utility.yul\":4321:4323   */\n          0x40\n            /* \"#utility.yul\":4347:4400   */\n          tag_232\n            /* \"#utility.yul\":4392:4399   */\n          dup7\n            /* \"#utility.yul\":4383:4389   */\n          dup3\n            /* \"#utility.yul\":4372:4381   */\n          dup8\n            /* \"#utility.yul\":4368:4390   */\n          add\n            /* \"#utility.yul\":4347:4400   */\n          tag_169\n          jump\t// in\n        tag_232:\n            /* \"#utility.yul\":4337:4400   */\n          swap2\n          pop\n            /* \"#utility.yul\":4292:4410   */\n          pop\n            /* \"#utility.yul\":3798:4417   */\n          swap3\n          pop\n          swap3\n          pop\n          swap3\n          jump\t// out\n            /* \"#utility.yul\":4423:4509   */\n        tag_171:\n            /* \"#utility.yul\":4458:4465   */\n          0x00\n            /* \"#utility.yul\":4498:4502   */\n          0xff\n            /* \"#utility.yul\":4491:4496   */\n          dup3\n            /* \"#utility.yul\":4487:4503   */\n          and\n            /* \"#utility.yul\":4476:4503   */\n          swap1\n          pop\n            /* \"#utility.yul\":4423:4509   */\n          swap2\n          swap1\n          pop\n          jump\t// out\n            /* \"#utility.yul\":4515:4627   */\n        tag_172:\n            /* \"#utility.yul\":4598:4620   */\n          tag_235\n            /* \"#utility.yul\":4614:4619   */\n          dup2\n            /* \"#utility.yul\":4598:4620   */\n          tag_171\n          jump\t// in\n        tag_235:\n            /* \"#utility.yul\":4593:4596   */\n          dup3\n            /* \"#utility.yul\":4586:4621   */\n          mstore\n            /* \"#utility.yul\":4515:4627   */\n          pop\n          pop\n          jump\t// out\n            /* \"#utility.yul\":4633:4847   */\n        tag_47:\n            /* \"#utility.yul\":4722:4726   */\n          0x00\n            /* \"#utility.yul\":4760:4762   */\n          0x20\n            /* \"#utility.yul\":4749:4758   */\n          dup3\n            /* \"#utility.yul\":4745:4763   */\n          add\n            /* \"#utility.yul\":4737:4763   */\n          swap1\n          pop\n            /* \"#utility.yul\":4773:4840   */\n          tag_237\n            /* \"#utility.yul\":4837:4838   */\n          0x00\n            /* \"#utility.yul\":4826:4835   */\n          dup4\n            /* \"#utility.yul\":4822:4839   */\n          add\n            /* \"#utility.yul\":4813:4819   */\n          dup5\n            /* \"#utility.yul\":4773:4840   */\n          tag_172\n          jump\t// in\n        tag_237:\n            /* \"#utility.yul\":4633:4847   */\n          swap3\n          swap2\n          pop\n          pop\n          jump\t// out\n            /* \"#utility.yul\":4853:5182   */\n        tag_54:\n            /* \"#utility.yul\":4912:4918   */\n          0x00\n            /* \"#utility.yul\":4961:4963   */\n          0x20\n            /* \"#utility.yul\":4949:4958   */\n          dup3\n            /* \"#utility.yul\":4940:4947   */\n          dup5\n            /* \"#utility.yul\":4936:4959   */\n          sub\n            /* \"#utility.yul\":4932:4964   */\n          slt\n            /* \"#utility.yul\":4929:5048   */\n          iszero\n          tag_239\n          jumpi\n            /* \"#utility.yul\":4967:5046   */\n          tag_240\n          tag_161\n          jump\t// in\n        tag_240:\n            /* \"#utility.yul\":4929:5048   */\n        tag_239:\n            /* \"#utility.yul\":5087:5088   */\n          0x00\n            /* \"#utility.yul\":5112:5165   */\n          tag_241\n            /* \"#utility.yul\":5157:5164   */\n          dup5\n            /* \"#utility.yul\":5148:5154   */\n          dup3\n            /* \"#utility.yul\":5137:5146   */\n          dup6\n            /* \"#utility.yul\":5133:5155   */\n          add\n            /* \"#utility.yul\":5112:5165   */\n          tag_166\n          jump\t// in\n        tag_241:\n            /* \"#utility.yul\":5102:5165   */\n          swap2\n          pop\n            /* \"#utility.yul\":5058:5175   */\n          pop\n            /* \"#utility.yul\":4853:5182   */\n          swap3\n          swap2\n          pop\n          pop\n          jump\t// out\n            /* \"#utility.yul\":5188:5306   */\n        tag_173:\n            /* \"#utility.yul\":5275:5299   */\n          tag_243\n            /* \"#utility.yul\":5293:5298   */\n          dup2\n            /* \"#utility.yul\":5275:5299   */\n          tag_164\n          jump\t// in\n        tag_243:\n            /* \"#utility.yul\":5270:5273   */\n          dup3\n            /* \"#utility.yul\":5263:5300   */\n          mstore\n            /* \"#utility.yul\":5188:5306   */\n          pop\n          pop\n          jump\t// out\n            /* \"#utility.yul\":5312:5534   */\n        tag_63:\n            /* \"#utility.yul\":5405:5409   */\n          0x00\n            /* \"#utility.yul\":5443:5445   */\n          0x20\n            /* \"#utility.yul\":5432:5441   */\n          dup3\n            /* \"#utility.yul\":5428:5446   */\n          add\n            /* \"#utility.yul\":5420:5446   */\n          swap1\n          pop\n            /* \"#utility.yul\":5456:5527   */\n          tag_245\n            /* \"#utility.yul\":5524:5525   */\n          0x00\n            /* \"#utility.yul\":5513:5522   */\n          dup4\n            /* \"#utility.yul\":5509:5526   */\n          add\n            /* \"#utility.yul\":5500:5506   */\n          dup5\n            /* \"#utility.yul\":5456:5527   */\n          tag_173\n          jump\t// in\n        tag_245:\n            /* \"#utility.yul\":5312:5534   */\n          swap3\n          swap2\n          pop\n          pop\n          jump\t// out\n            /* \"#utility.yul\":5540:6305   */\n        tag_76:\n            /* \"#utility.yul\":5626:5632   */\n          0x00\n            /* \"#utility.yul\":5634:5640   */\n          dup1\n            /* \"#utility.yul\":5642:5648   */\n          0x00\n            /* \"#utility.yul\":5650:5656   */\n          dup1\n            /* \"#utility.yul\":5699:5702   */\n          0x80\n            /* \"#utility.yul\":5687:5696   */\n          dup6\n            /* \"#utility.yul\":5678:5685   */\n          dup8\n            /* \"#utility.yul\":5674:5697   */\n          sub\n            /* \"#utility.yul\":5670:5703   */\n          slt\n            /* \"#utility.yul\":5667:5787   */\n          iszero\n          tag_247\n          jumpi\n            /* \"#utility.yul\":5706:5785   */\n          tag_248\n          tag_161\n          jump\t// in\n        tag_248:\n            /* \"#utility.yul\":5667:5787   */\n        tag_247:\n            /* \"#utility.yul\":5826:5827   */\n          0x00\n            /* \"#utility.yul\":5851:5904   */\n          tag_249\n            /* \"#utility.yul\":5896:5903   */\n          dup8\n            /* \"#utility.yul\":5887:5893   */\n          dup3\n            /* \"#utility.yul\":5876:5885   */\n          dup9\n            /* \"#utility.yul\":5872:5894   */\n          add\n            /* \"#utility.yul\":5851:5904   */\n          tag_166\n          jump\t// in\n        tag_249:\n            /* \"#utility.yul\":5841:5904   */\n          swap5\n          pop\n            /* \"#utility.yul\":5797:5914   */\n          pop\n            /* \"#utility.yul\":5953:5955   */\n          0x20\n            /* \"#utility.yul\":5979:6032   */\n          tag_250\n            /* \"#utility.yul\":6024:6031   */\n          dup8\n            /* \"#utility.yul\":6015:6021   */\n          dup3\n            /* \"#utility.yul\":6004:6013   */\n          dup9\n            /* \"#utility.yul\":6000:6022   */\n          add\n            /* \"#utility.yul\":5979:6032   */\n          tag_166\n          jump\t// in\n        tag_250:\n            /* \"#utility.yul\":5969:6032   */\n          swap4\n          pop\n            /* \"#utility.yul\":5924:6042   */\n          pop\n            /* \"#utility.yul\":6081:6083   */\n          0x40\n            /* \"#utility.yul\":6107:6160   */\n          tag_251\n            /* \"#utility.yul\":6152:6159   */\n          dup8\n            /* \"#utility.yul\":6143:6149   */\n          dup3\n            /* \"#utility.yul\":6132:6141   */\n          dup9\n            /* \"#utility.yul\":6128:6150   */\n          add\n            /* \"#utility.yul\":6107:6160   */\n          tag_166\n          jump\t// in\n        tag_251:\n            /* \"#utility.yul\":6097:6160   */\n          swap3\n          pop\n            /* \"#utility.yul\":6052:6170   */\n          pop\n            /* \"#utility.yul\":6209:6211   */\n          0x60\n            /* \"#utility.yul\":6235:6288   */\n          tag_252\n            /* \"#utility.yul\":6280:6287   */\n          dup8\n            /* \"#utility.yul\":6271:6277   */\n          dup3\n            /* \"#utility.yul\":6260:6269   */\n          dup9\n            /* \"#utility.yul\":6256:6278   */\n          add\n            /* \"#utility.yul\":6235:6288   */\n          tag_169\n          jump\t// in\n        tag_252:\n            /* \"#utility.yul\":6225:6288   */\n          swap2\n          pop\n            /* \"#utility.yul\":6180:6298   */\n          pop\n            /* \"#utility.yul\":5540:6305   */\n          swap3\n          swap6\n          swap2\n          swap5\n          pop\n          swap3\n          pop\n          jump\t// out\n            /* \"#utility.yul\":6311:6785   */\n        tag_81:\n            /* \"#utility.yul\":6379:6385   */\n          0x00\n            /* \"#utility.yul\":6387:6393   */\n          dup1\n            /* \"#utility.yul\":6436:6438   */\n          0x40\n            /* \"#utility.yul\":6424:6433   */\n          dup4\n            /* \"#utility.yul\":6415:6422   */\n          dup6\n            /* \"#utility.yul\":6411:6434   */\n          sub\n            /* \"#utility.yul\":6407:6439   */\n          slt\n            /* \"#utility.yul\":6404:6523   */\n          iszero\n          tag_254\n          jumpi\n            /* \"#utility.yul\":6442:6521   */\n          tag_255\n          tag_161\n          jump\t// in\n        tag_255:\n            /* \"#utility.yul\":6404:6523   */\n        tag_254:\n            /* \"#utility.yul\":6562:6563   */\n          0x00\n            /* \"#utility.yul\":6587:6640   */\n          tag_256\n            /* \"#utility.yul\":6632:6639   */\n          dup6\n            /* \"#utility.yul\":6623:6629   */\n          dup3\n            /* \"#utility.yul\":6612:6621   */\n          dup7\n            /* \"#utility.yul\":6608:6630   */\n          add\n            /* \"#utility.yul\":6587:6640   */\n          tag_166\n          jump\t// in\n        tag_256:\n            /* \"#utility.yul\":6577:6640   */\n          swap3\n          pop\n            /* \"#utility.yul\":6533:6650   */\n          pop\n            /* \"#utility.yul\":6689:6691   */\n          0x20\n            /* \"#utility.yul\":6715:6768   */\n          tag_257\n            /* \"#utility.yul\":6760:6767   */\n          dup6\n            /* \"#utility.yul\":6751:6757   */\n          dup3\n            /* \"#utility.yul\":6740:6749   */\n          dup7\n            /* \"#utility.yul\":6736:6758   */\n          add\n            /* \"#utility.yul\":6715:6768   */\n          tag_166\n          jump\t// in\n        tag_257:\n            /* \"#utility.yul\":6705:6768   */\n          swap2\n          pop\n            /* \"#utility.yul\":6660:6778   */\n          pop\n            /* \"#utility.yul\":6311:6785   */\n          swap3\n          pop\n          swap3\n          swap1\n          pop\n          jump\t// out\n            /* \"#utility.yul\":6791:6973   */\n        tag_174:\n            /* \"#utility.yul\":6931:6965   */\n          0x46726f6d20646f65736e2774206861766520656e6f7567682062616c616e6365\n            /* \"#utility.yul\":6927:6928   */\n          0x00\n            /* \"#utility.yul\":6919:6925   */\n          dup3\n            /* \"#utility.yul\":6915:6929   */\n          add\n            /* \"#utility.yul\":6908:6966   */\n          mstore\n            /* \"#utility.yul\":6791:6973   */\n          pop\n          jump\t// out\n            /* \"#utility.yul\":6979:7345   */\n        tag_175:\n            /* \"#utility.yul\":7121:7124   */\n          0x00\n            /* \"#utility.yul\":7142:7209   */\n          tag_260\n            /* \"#utility.yul\":7206:7208   */\n          0x20\n            /* \"#utility.yul\":7201:7204   */\n          dup4\n            /* \"#utility.yul\":7142:7209   */\n          tag_156\n          jump\t// in\n        tag_260:\n            /* \"#utility.yul\":7135:7209   */\n          swap2\n          pop\n            /* \"#utility.yul\":7218:7311   */\n          tag_261\n            /* \"#utility.yul\":7307:7310   */\n          dup3\n            /* \"#utility.yul\":7218:7311   */\n          tag_174\n          jump\t// in\n        tag_261:\n            /* \"#utility.yul\":7336:7338   */\n          0x20\n            /* \"#utility.yul\":7331:7334   */\n          dup3\n            /* \"#utility.yul\":7327:7339   */\n          add\n            /* \"#utility.yul\":7320:7339   */\n          swap1\n          pop\n            /* \"#utility.yul\":6979:7345   */\n          swap2\n          swap1\n          pop\n          jump\t// out\n            /* \"#utility.yul\":7351:7770   */\n        tag_95:\n            /* \"#utility.yul\":7517:7521   */\n          0x00\n            /* \"#utility.yul\":7555:7557   */\n          0x20\n            /* \"#utility.yul\":7544:7553   */\n          dup3\n            /* \"#utility.yul\":7540:7558   */\n          add\n            /* \"#utility.yul\":7532:7558   */\n          swap1\n          pop\n            /* \"#utility.yul\":7604:7613   */\n          dup2\n            /* \"#utility.yul\":7598:7602   */\n          dup2\n            /* \"#utility.yul\":7594:7614   */\n          sub\n            /* \"#utility.yul\":7590:7591   */\n          0x00\n            /* \"#utility.yul\":7579:7588   */\n          dup4\n            /* \"#utility.yul\":7575:7592   */\n          add\n            /* \"#utility.yul\":7568:7615   */\n          mstore\n            /* \"#utility.yul\":7632:7763   */\n          tag_263\n            /* \"#utility.yul\":7758:7762   */\n          dup2\n            /* \"#utility.yul\":7632:7763   */\n          tag_175\n          jump\t// in\n        tag_263:\n            /* \"#utility.yul\":7624:7763   */\n          swap1\n          pop\n            /* \"#utility.yul\":7351:7770   */\n          swap2\n          swap1\n          pop\n          jump\t// out\n            /* \"#utility.yul\":7776:7956   */\n        tag_176:\n            /* \"#utility.yul\":7916:7948   */\n          0x4e6f7420616c6c6f77656420746f207370656e642074686973206d7563680000\n            /* \"#utility.yul\":7912:7913   */\n          0x00\n            /* \"#utility.yul\":7904:7910   */\n          dup3\n            /* \"#utility.yul\":7900:7914   */\n          add\n            /* \"#utility.yul\":7893:7949   */\n          mstore\n            /* \"#utility.yul\":7776:7956   */\n          pop\n          jump\t// out\n            /* \"#utility.yul\":7962:8328   */\n        tag_177:\n            /* \"#utility.yul\":8104:8107   */\n          0x00\n            /* \"#utility.yul\":8125:8192   */\n          tag_266\n            /* \"#utility.yul\":8189:8191   */\n          0x1e\n            /* \"#utility.yul\":8184:8187   */\n          dup4\n            /* \"#utility.yul\":8125:8192   */\n          tag_156\n          jump\t// in\n        tag_266:\n            /* \"#utility.yul\":8118:8192   */\n          swap2\n          pop\n            /* \"#utility.yul\":8201:8294   */\n          tag_267\n            /* \"#utility.yul\":8290:8293   */\n          dup3\n            /* \"#utility.yul\":8201:8294   */\n          tag_176\n          jump\t// in\n        tag_267:\n            /* \"#utility.yul\":8319:8321   */\n          0x20\n            /* \"#utility.yul\":8314:8317   */\n          dup3\n            /* \"#utility.yul\":8310:8322   */\n          add\n            /* \"#utility.yul\":8303:8322   */\n          swap1\n          pop\n            /* \"#utility.yul\":7962:8328   */\n          swap2\n          swap1\n          pop\n          jump\t// out\n            /* \"#utility.yul\":8334:8753   */\n        tag_98:\n            /* \"#utility.yul\":8500:8504   */\n          0x00\n            /* \"#utility.yul\":8538:8540   */\n          0x20\n            /* \"#utility.yul\":8527:8536   */\n          dup3\n            /* \"#utility.yul\":8523:8541   */\n          add\n            /* \"#utility.yul\":8515:8541   */\n          swap1\n          pop\n            /* \"#utility.yul\":8587:8596   */\n          dup2\n            /* \"#utility.yul\":8581:8585   */\n          dup2\n            /* \"#utility.yul\":8577:8597   */\n          sub\n            /* \"#utility.yul\":8573:8574   */\n          0x00\n            /* \"#utility.yul\":8562:8571   */\n          dup4\n            /* \"#utility.yul\":8558:8575   */\n          add\n            /* \"#utility.yul\":8551:8598   */\n          mstore\n            /* \"#utility.yul\":8615:8746   */\n          tag_269\n            /* \"#utility.yul\":8741:8745   */\n          dup2\n            /* \"#utility.yul\":8615:8746   */\n          tag_177\n          jump\t// in\n        tag_269:\n            /* \"#utility.yul\":8607:8746   */\n          swap1\n          pop\n            /* \"#utility.yul\":8334:8753   */\n          swap2\n          swap1\n          pop\n          jump\t// out\n            /* \"#utility.yul\":8759:8984   */\n        tag_178:\n            /* \"#utility.yul\":8899:8933   */\n          0x6d73672e73656e64657220646f65736e2774206861766520656e6f7567682062\n            /* \"#utility.yul\":8895:8896   */\n          0x00\n            /* \"#utility.yul\":8887:8893   */\n          dup3\n            /* \"#utility.yul\":8883:8897   */\n          add\n            /* \"#utility.yul\":8876:8934   */\n          mstore\n            /* \"#utility.yul\":8968:8976   */\n          0x616c616e63650000000000000000000000000000000000000000000000000000\n            /* \"#utility.yul\":8963:8965   */\n          0x20\n            /* \"#utility.yul\":8955:8961   */\n          dup3\n            /* \"#utility.yul\":8951:8966   */\n          add\n            /* \"#utility.yul\":8944:8977   */\n          mstore\n            /* \"#utility.yul\":8759:8984   */\n          pop\n          jump\t// out\n            /* \"#utility.yul\":8990:9356   */\n        tag_179:\n            /* \"#utility.yul\":9132:9135   */\n          0x00\n            /* \"#utility.yul\":9153:9220   */\n          tag_272\n            /* \"#utility.yul\":9217:9219   */\n          0x26\n            /* \"#utility.yul\":9212:9215   */\n          dup4\n            /* \"#utility.yul\":9153:9220   */\n          tag_156\n          jump\t// in\n        tag_272:\n            /* \"#utility.yul\":9146:9220   */\n          swap2\n          pop\n            /* \"#utility.yul\":9229:9322   */\n          tag_273\n            /* \"#utility.yul\":9318:9321   */\n          dup3\n            /* \"#utility.yul\":9229:9322   */\n          tag_178\n          jump\t// in\n        tag_273:\n            /* \"#utility.yul\":9347:9349   */\n          0x40\n            /* \"#utility.yul\":9342:9345   */\n          dup3\n            /* \"#utility.yul\":9338:9350   */\n          add\n            /* \"#utility.yul\":9331:9350   */\n          swap1\n          pop\n            /* \"#utility.yul\":8990:9356   */\n          swap2\n          swap1\n          pop\n          jump\t// out\n            /* \"#utility.yul\":9362:9781   */\n        tag_125:\n            /* \"#utility.yul\":9528:9532   */\n          0x00\n            /* \"#utility.yul\":9566:9568   */\n          0x20\n            /* \"#utility.yul\":9555:9564   */\n          dup3\n            /* \"#utility.yul\":9551:9569   */\n          add\n            /* \"#utility.yul\":9543:9569   */\n          swap1\n          pop\n            /* \"#utility.yul\":9615:9624   */\n          dup2\n            /* \"#utility.yul\":9609:9613   */\n          dup2\n            /* \"#utility.yul\":9605:9625   */\n          sub\n            /* \"#utility.yul\":9601:9602   */\n          0x00\n            /* \"#utility.yul\":9590:9599   */\n          dup4\n            /* \"#utility.yul\":9586:9603   */\n          add\n            /* \"#utility.yul\":9579:9626   */\n          mstore\n            /* \"#utility.yul\":9643:9774   */\n          tag_275\n            /* \"#utility.yul\":9769:9773   */\n          dup2\n            /* \"#utility.yul\":9643:9774   */\n          tag_179\n          jump\t// in\n        tag_275:\n            /* \"#utility.yul\":9635:9774   */\n          swap1\n          pop\n            /* \"#utility.yul\":9362:9781   */\n          swap2\n          swap1\n          pop\n          jump\t// out\n            /* \"#utility.yul\":9787:9967   */\n        tag_145:\n            /* \"#utility.yul\":9835:9912   */\n          0x4e487b7100000000000000000000000000000000000000000000000000000000\n            /* \"#utility.yul\":9832:9833   */\n          0x00\n            /* \"#utility.yul\":9825:9913   */\n          mstore\n            /* \"#utility.yul\":9932:9936   */\n          0x01\n            /* \"#utility.yul\":9929:9930   */\n          0x04\n            /* \"#utility.yul\":9922:9937   */\n          mstore\n            /* \"#utility.yul\":9956:9960   */\n          0x24\n            /* \"#utility.yul\":9953:9954   */\n          0x00\n            /* \"#utility.yul\":9946:9961   */\n          revert\n            /* \"#utility.yul\":9973:10153   */\n        tag_180:\n            /* \"#utility.yul\":10021:10098   */\n          0x4e487b7100000000000000000000000000000000000000000000000000000000\n            /* \"#utility.yul\":10018:10019   */\n          0x00\n            /* \"#utility.yul\":10011:10099   */\n          mstore\n            /* \"#utility.yul\":10118:10122   */\n          0x11\n            /* \"#utility.yul\":10115:10116   */\n          0x04\n            /* \"#utility.yul\":10108:10123   */\n          mstore\n            /* \"#utility.yul\":10142:10146   */\n          0x24\n            /* \"#utility.yul\":10139:10140   */\n          0x00\n            /* \"#utility.yul\":10132:10147   */\n          revert\n            /* \"#utility.yul\":10159:10353   */\n        tag_147:\n            /* \"#utility.yul\":10199:10203   */\n          0x00\n            /* \"#utility.yul\":10219:10239   */\n          tag_279\n            /* \"#utility.yul\":10237:10238   */\n          dup3\n            /* \"#utility.yul\":10219:10239   */\n          tag_167\n          jump\t// in\n        tag_279:\n            /* \"#utility.yul\":10214:10239   */\n          swap2\n          pop\n            /* \"#utility.yul\":10253:10273   */\n          tag_280\n            /* \"#utility.yul\":10271:10272   */\n          dup4\n            /* \"#utility.yul\":10253:10273   */\n          tag_167\n          jump\t// in\n        tag_280:\n            /* \"#utility.yul\":10248:10273   */\n          swap3\n          pop\n            /* \"#utility.yul\":10297:10298   */\n          dup3\n            /* \"#utility.yul\":10294:10295   */\n          dup3\n            /* \"#utility.yul\":10290:10299   */\n          sub\n            /* \"#utility.yul\":10282:10299   */\n          swap1\n          pop\n            /* \"#utility.yul\":10321:10322   */\n          dup2\n            /* \"#utility.yul\":10315:10319   */\n          dup2\n            /* \"#utility.yul\":10312:10323   */\n          gt\n            /* \"#utility.yul\":10309:10346   */\n          iszero\n          tag_281\n          jumpi\n            /* \"#utility.yul\":10326:10344   */\n          tag_282\n          tag_180\n          jump\t// in\n        tag_282:\n            /* \"#utility.yul\":10309:10346   */\n        tag_281:\n            /* \"#utility.yul\":10159:10353   */\n          swap3\n          swap2\n          pop\n          pop\n          jump\t// out\n            /* \"#utility.yul\":10359:10550   */\n        tag_150:\n            /* \"#utility.yul\":10399:10402   */\n          0x00\n            /* \"#utility.yul\":10418:10438   */\n          tag_284\n            /* \"#utility.yul\":10436:10437   */\n          dup3\n            /* \"#utility.yul\":10418:10438   */\n          tag_167\n          jump\t// in\n        tag_284:\n            /* \"#utility.yul\":10413:10438   */\n          swap2\n          pop\n            /* \"#utility.yul\":10452:10472   */\n          tag_285\n            /* \"#utility.yul\":10470:10471   */\n          dup4\n            /* \"#utility.yul\":10452:10472   */\n          tag_167\n          jump\t// in\n        tag_285:\n            /* \"#utility.yul\":10447:10472   */\n          swap3\n          pop\n            /* \"#utility.yul\":10495:10496   */\n          dup3\n            /* \"#utility.yul\":10492:10493   */\n          dup3\n            /* \"#utility.yul\":10488:10497   */\n          add\n            /* \"#utility.yul\":10481:10497   */\n          swap1\n          pop\n            /* \"#utility.yul\":10516:10519   */\n          dup1\n            /* \"#utility.yul\":10513:10514   */\n          dup3\n            /* \"#utility.yul\":10510:10520   */\n          gt\n            /* \"#utility.yul\":10507:10543   */\n          iszero\n          tag_286\n          jumpi\n            /* \"#utility.yul\":10523:10541   */\n          tag_287\n          tag_180\n          jump\t// in\n        tag_287:\n            /* \"#utility.yul\":10507:10543   */\n        tag_286:\n            /* \"#utility.yul\":10359:10550   */\n          swap3\n          swap2\n          pop\n          pop\n          jump\t// out\n\n        auxdata: 0xa264697066735822122055e5bd592447b3bd964801dfd4b4d6d044766ee2c9edf28ec5b03cfaea41f91764736f6c63430008120033\n    }\n}\n",
				"bytecode": {
					"linkReferences": {},
					"object": "608060405234801561001057600080fd5b5060405161001d906100c8565b604051809103906000f080158015610039573d6000803e3d6000fd5b506000806101000a81548173ffffffffffffffffffffffffffffffffffffffff021916908373ffffffffffffffffffffffffffffffffffffffff16021790555061271060018190555033600260006101000a81548173ffffffffffffffffffffffffffffffffffffffff021916908373ffffffffffffffffffffffffffffffffffffffff1602179055506100d5565b611aec80610f6483390190565b610e80806100e46000396000f3fe6080604052600436106100865760003560e01c8063771282f611610059578063771282f6146101475780638b099b2314610172578063a9059cbb146101af578063dc29f1de146101d8578063e1f21c67146101e257610086565b806315dacbea1461008b57806319d1997a146100b45780633e3e0b12146100df57806370a082311461010a575b600080fd5b34801561009757600080fd5b506100b260048036038101906100ad919061091e565b61021f565b005b3480156100c057600080fd5b506100c96102c8565b6040516100d69190610994565b60405180910390f35b3480156100eb57600080fd5b506100f46102ce565b60405161010191906109ca565b60405180910390f35b34801561011657600080fd5b50610131600480360381019061012c91906109e5565b610367565b60405161013e9190610994565b60405180910390f35b34801561015357600080fd5b5061015c61040b565b6040516101699190610994565b60405180910390f35b34801561017e57600080fd5b5061019960048036038101906101949190610a12565b6104a2565b6040516101a69190610994565b60405180910390f35b3480156101bb57600080fd5b506101d660048036038101906101d19190610a52565b610549565b005b6101e06105ec565b005b3480156101ee57600080fd5b5061020960048036038101906102049190610a92565b6107d9565b60405161021691906109ca565b60405180910390f35b60008054906101000a900473ffffffffffffffffffffffffffffffffffffffff1673ffffffffffffffffffffffffffffffffffffffff1663db05ea05858585856040518563ffffffff1660e01b815260040161027e9493929190610af4565b6020604051808303816000875af115801561029d573d6000803e3d6000fd5b505050506040513d601f19601f820116820180604052508101906102c19190610b65565b5050505050565b60015481565b60008060009054906101000a900473ffffffffffffffffffffffffffffffffffffffff1673ffffffffffffffffffffffffffffffffffffffff16637d64bcb46040518163ffffffff1660e01b81526004016020604051808303816000875af115801561033e573d6000803e3d6000fd5b505050506040513d601f19601f820116820180604052508101906103629190610b65565b905090565b60008060009054906101000a900473ffffffffffffffffffffffffffffffffffffffff1673ffffffffffffffffffffffffffffffffffffffff166370a08231836040518263ffffffff1660e01b81526004016103c39190610b92565b602060405180830381865afa1580156103e0573d6000803e3d6000fd5b505050506040513d601f19601f820116820180604052508101906104049190610bc2565b9050919050565b60008060009054906101000a900473ffffffffffffffffffffffffffffffffffffffff1673ffffffffffffffffffffffffffffffffffffffff166318160ddd6040518163ffffffff1660e01b8152600401602060405180830381865afa158015610479573d6000803e3d6000fd5b505050506040513d601f19601f8201168201806040525081019061049d9190610bc2565b905090565b60008060009054906101000a900473ffffffffffffffffffffffffffffffffffffffff1673ffffffffffffffffffffffffffffffffffffffff1663dd62ed3e84846040518363ffffffff1660e01b8152600401610500929190610bef565b602060405180830381865afa15801561051d573d6000803e3d6000fd5b505050506040513d601f19601f820116820180604052508101906105419190610bc2565b905092915050565b60008054906101000a900473ffffffffffffffffffffffffffffffffffffffff1673ffffffffffffffffffffffffffffffffffffffff1663a9059cbb83836040518363ffffffff1660e01b81526004016105a4929190610c18565b6020604051808303816000875af11580156105c3573d6000803e3d6000fd5b505050506040513d601f19601f820116820180604052508101906105e79190610b65565b505050565b662386f26fc100003411610635576040517f08c379a000000000000000000000000000000000000000000000000000000000815260040161062c90610cc4565b60405180910390fd5b6001546706f05b59d3b200003461064c9190610d42565b60008054906101000a900473ffffffffffffffffffffffffffffffffffffffff1673ffffffffffffffffffffffffffffffffffffffff166318160ddd6040518163ffffffff1660e01b8152600401602060405180830381865afa1580156106b7573d6000803e3d6000fd5b505050506040513d601f19601f820116820180604052508101906106db9190610bc2565b6106e59190610d73565b10610725576040517f08c379a000000000000000000000000000000000000000000000000000000000815260040161071c90610df3565b60405180910390fd5b60008054906101000a900473ffffffffffffffffffffffffffffffffffffffff1673ffffffffffffffffffffffffffffffffffffffff166340c10f19336706f05b59d3b20000346107769190610d42565b6040518363ffffffff1660e01b8152600401610793929190610c18565b6020604051808303816000875af11580156107b2573d6000803e3d6000fd5b505050506040513d601f19601f820116820180604052508101906107d69190610b65565b50565b60008060009054906101000a900473ffffffffffffffffffffffffffffffffffffffff1673ffffffffffffffffffffffffffffffffffffffff1663f0cf209d8585856040518463ffffffff1660e01b815260040161083993929190610e13565b6020604051808303816000875af1158015610858573d6000803e3d6000fd5b505050506040513d601f19601f8201168201806040525081019061087c9190610b65565b90509392505050565b600080fd5b600073ffffffffffffffffffffffffffffffffffffffff82169050919050565b60006108b58261088a565b9050919050565b6108c5816108aa565b81146108d057600080fd5b50565b6000813590506108e2816108bc565b92915050565b6000819050919050565b6108fb816108e8565b811461090657600080fd5b50565b600081359050610918816108f2565b92915050565b6000806000806080858703121561093857610937610885565b5b6000610946878288016108d3565b9450506020610957878288016108d3565b9350506040610968878288016108d3565b925050606061097987828801610909565b91505092959194509250565b61098e816108e8565b82525050565b60006020820190506109a96000830184610985565b92915050565b60008115159050919050565b6109c4816109af565b82525050565b60006020820190506109df60008301846109bb565b92915050565b6000602082840312156109fb576109fa610885565b5b6000610a09848285016108d3565b91505092915050565b60008060408385031215610a2957610a28610885565b5b6000610a37858286016108d3565b9250506020610a48858286016108d3565b9150509250929050565b60008060408385031215610a6957610a68610885565b5b6000610a77858286016108d3565b9250506020610a8885828601610909565b9150509250929050565b600080600060608486031215610aab57610aaa610885565b5b6000610ab9868287016108d3565b9350506020610aca868287016108d3565b9250506040610adb86828701610909565b9150509250925092565b610aee816108aa565b82525050565b6000608082019050610b096000830187610ae5565b610b166020830186610ae5565b610b236040830185610ae5565b610b306060830184610985565b95945050505050565b610b42816109af565b8114610b4d57600080fd5b50565b600081519050610b5f81610b39565b92915050565b600060208284031215610b7b57610b7a610885565b5b6000610b8984828501610b50565b91505092915050565b6000602082019050610ba76000830184610ae5565b92915050565b600081519050610bbc816108f2565b92915050565b600060208284031215610bd857610bd7610885565b5b6000610be684828501610bad565b91505092915050565b6000604082019050610c046000830185610ae5565b610c116020830184610ae5565b9392505050565b6000604082019050610c2d6000830185610ae5565b610c3a6020830184610985565b9392505050565b600082825260208201905092915050565b7f6174206c6561737420302e303120455448206973206e656564656420746f206a60008201527f6f696e207468652067616d650000000000000000000000000000000000000000602082015250565b6000610cae602c83610c41565b9150610cb982610c52565b604082019050919050565b60006020820190508181036000830152610cdd81610ca1565b9050919050565b7f4e487b7100000000000000000000000000000000000000000000000000000000600052601260045260246000fd5b7f4e487b7100000000000000000000000000000000000000000000000000000000600052601160045260246000fd5b6000610d4d826108e8565b9150610d58836108e8565b925082610d6857610d67610ce4565b5b828204905092915050565b6000610d7e826108e8565b9150610d89836108e8565b9250828201905080821115610da157610da0610d13565b5b92915050565b7f5250535420737570706c79206973206e6f7420656e6f75676800000000000000600082015250565b6000610ddd601983610c41565b9150610de882610da7565b602082019050919050565b60006020820190508181036000830152610e0c81610dd0565b9050919050565b6000606082019050610e286000830186610ae5565b610e356020830185610ae5565b610e426040830184610985565b94935050505056fea26469706673582212207b8e2b385ec7c6aa39052262a1dbf284116a5a4429aff937a9e5f415b116b9ec64736f6c63430008120033608060405260008060006101000a81548160ff02191690831515021790555033600060016101000a81548173ffffffffffffffffffffffffffffffffffffffff021916908373ffffffffffffffffffffffffffffffffffffffff16021790555034801561006b57600080fd5b50611a718061007b6000396000f3fe608060405234801561001057600080fd5b50600436106101005760003560e01c80637d64bcb411610097578063a9059cbb11610066578063a9059cbb146102b5578063db05ea05146102e5578063dd62ed3e14610315578063f0cf209d1461034557610100565b80637d64bcb41461023d578063893d20e81461025b5780638da5cb5b1461027957806395d89b411461029757610100565b806323b872dd116100d357806323b872dd1461018f578063313ce567146101bf57806340c10f19146101dd57806370a082311461020d57610100565b806305d2035b1461010557806306fdde0314610123578063095ea7b31461014157806318160ddd14610171575b600080fd5b61010d610375565b60405161011a91906114b3565b60405180910390f35b61012b610386565b604051610138919061155e565b60405180910390f35b61015b60048036038101906101569190611619565b6103bf565b60405161016891906114b3565b60405180910390f35b6101796104b1565b6040516101869190611668565b60405180910390f35b6101a960048036038101906101a49190611683565b6104bb565b6040516101b691906114b3565b60405180910390f35b6101c76108df565b6040516101d491906116f2565b60405180910390f35b6101f760048036038101906101f29190611619565b6108e4565b60405161020491906114b3565b60405180910390f35b6102276004803603810190610222919061170d565b610ac5565b6040516102349190611668565b60405180910390f35b610245610b0e565b60405161025291906114b3565b60405180910390f35b610263610bce565b6040516102709190611749565b60405180910390f35b610281610bf7565b60405161028e9190611749565b60405180910390f35b61029f610c1d565b6040516102ac919061155e565b60405180910390f35b6102cf60048036038101906102ca9190611619565b610c56565b6040516102dc91906114b3565b60405180910390f35b6102ff60048036038101906102fa9190611764565b610eab565b60405161030c91906114b3565b60405180910390f35b61032f600480360381019061032a91906117cb565b6112d0565b60405161033c9190611668565b60405180910390f35b61035f600480360381019061035a9190611683565b611357565b60405161036c91906114b3565b60405180910390f35b60008054906101000a900460ff1681565b6040518060400160405280600981526020017f44696365546f6b656e000000000000000000000000000000000000000000000081525081565b600081600160003373ffffffffffffffffffffffffffffffffffffffff1673ffffffffffffffffffffffffffffffffffffffff16815260200190815260200160002060008573ffffffffffffffffffffffffffffffffffffffff1673ffffffffffffffffffffffffffffffffffffffff168152602001908152602001600020819055508273ffffffffffffffffffffffffffffffffffffffff163373ffffffffffffffffffffffffffffffffffffffff167f8c5be1e5ebec7d5bd14f71427d1e84f3dd0314c0f7b2291e5b200ac8c7c3b9258460405161049f9190611668565b60405180910390a36001905092915050565b6000600354905090565b60008073ffffffffffffffffffffffffffffffffffffffff168373ffffffffffffffffffffffffffffffffffffffff16036104f557600080fd5b600260008573ffffffffffffffffffffffffffffffffffffffff1673ffffffffffffffffffffffffffffffffffffffff16815260200190815260200160002054821115610577576040517f08c379a000000000000000000000000000000000000000000000000000000000815260040161056e90611857565b60405180910390fd5b600160008573ffffffffffffffffffffffffffffffffffffffff1673ffffffffffffffffffffffffffffffffffffffff16815260200190815260200160002060003273ffffffffffffffffffffffffffffffffffffffff1673ffffffffffffffffffffffffffffffffffffffff16815260200190815260200160002054821115610636576040517f08c379a000000000000000000000000000000000000000000000000000000000815260040161062d906118c3565b60405180910390fd5b61068882600260008773ffffffffffffffffffffffffffffffffffffffff1673ffffffffffffffffffffffffffffffffffffffff1681526020019081526020016000205461144a90919063ffffffff16565b600260008673ffffffffffffffffffffffffffffffffffffffff1673ffffffffffffffffffffffffffffffffffffffff1681526020019081526020016000208190555061071d82600260008673ffffffffffffffffffffffffffffffffffffffff1673ffffffffffffffffffffffffffffffffffffffff1681526020019081526020016000205461147190919063ffffffff16565b600260008573ffffffffffffffffffffffffffffffffffffffff1673ffffffffffffffffffffffffffffffffffffffff168152602001908152602001600020819055506107ef82600160008773ffffffffffffffffffffffffffffffffffffffff1673ffffffffffffffffffffffffffffffffffffffff16815260200190815260200160002060003273ffffffffffffffffffffffffffffffffffffffff1673ffffffffffffffffffffffffffffffffffffffff1681526020019081526020016000205461144a90919063ffffffff16565b600160008673ffffffffffffffffffffffffffffffffffffffff1673ffffffffffffffffffffffffffffffffffffffff16815260200190815260200160002060003273ffffffffffffffffffffffffffffffffffffffff1673ffffffffffffffffffffffffffffffffffffffff168152602001908152602001600020819055508273ffffffffffffffffffffffffffffffffffffffff168473ffffffffffffffffffffffffffffffffffffffff167fddf252ad1be2c89b69c2b068fc378daa952ba7f163c4a11628f55a4df523b3ef846040516108cc9190611668565b60405180910390a3600190509392505050565b601281565b60008060019054906101000a900473ffffffffffffffffffffffffffffffffffffffff1673ffffffffffffffffffffffffffffffffffffffff163373ffffffffffffffffffffffffffffffffffffffff161461093f57600080fd5b60008054906101000a900460ff161561095757600080fd5b61096c8260035461147190919063ffffffff16565b6003819055506109c482600260008673ffffffffffffffffffffffffffffffffffffffff1673ffffffffffffffffffffffffffffffffffffffff1681526020019081526020016000205461147190919063ffffffff16565b600260008573ffffffffffffffffffffffffffffffffffffffff1673ffffffffffffffffffffffffffffffffffffffff168152602001908152602001600020819055508273ffffffffffffffffffffffffffffffffffffffff167f0f6798a560793a54c3bcfe86a93cde1e73087d944c0ea20544137d412139688583604051610a4d9190611668565b60405180910390a28273ffffffffffffffffffffffffffffffffffffffff16600073ffffffffffffffffffffffffffffffffffffffff167fddf252ad1be2c89b69c2b068fc378daa952ba7f163c4a11628f55a4df523b3ef84604051610ab39190611668565b60405180910390a36001905092915050565b6000600260008373ffffffffffffffffffffffffffffffffffffffff1673ffffffffffffffffffffffffffffffffffffffff168152602001908152602001600020549050919050565b60008060019054906101000a900473ffffffffffffffffffffffffffffffffffffffff1673ffffffffffffffffffffffffffffffffffffffff163373ffffffffffffffffffffffffffffffffffffffff1614610b6957600080fd5b60008054906101000a900460ff1615610b8157600080fd5b60016000806101000a81548160ff0219169083151502179055507fae5184fba832cb2b1f702aca6117b8d265eaf03ad33eb133f19dde0f5920fa0860405160405180910390a16001905090565b60008060019054906101000a900473ffffffffffffffffffffffffffffffffffffffff16905090565b600060019054906101000a900473ffffffffffffffffffffffffffffffffffffffff1681565b6040518060400160405280600281526020017f445400000000000000000000000000000000000000000000000000000000000081525081565b60008073ffffffffffffffffffffffffffffffffffffffff168373ffffffffffffffffffffffffffffffffffffffff1603610c9057600080fd5b600260003273ffffffffffffffffffffffffffffffffffffffff1673ffffffffffffffffffffffffffffffffffffffff16815260200190815260200160002054821115610d12576040517f08c379a0000000000000000000000000000000000000000000000000000000008152600401610d0990611955565b60405180910390fd5b610d6482600260003273ffffffffffffffffffffffffffffffffffffffff1673ffffffffffffffffffffffffffffffffffffffff1681526020019081526020016000205461144a90919063ffffffff16565b600260003273ffffffffffffffffffffffffffffffffffffffff1673ffffffffffffffffffffffffffffffffffffffff16815260200190815260200160002081905550610df982600260008673ffffffffffffffffffffffffffffffffffffffff1673ffffffffffffffffffffffffffffffffffffffff1681526020019081526020016000205461147190919063ffffffff16565b600260008573ffffffffffffffffffffffffffffffffffffffff1673ffffffffffffffffffffffffffffffffffffffff168152602001908152602001600020819055508273ffffffffffffffffffffffffffffffffffffffff163273ffffffffffffffffffffffffffffffffffffffff167fddf252ad1be2c89b69c2b068fc378daa952ba7f163c4a11628f55a4df523b3ef84604051610e999190611668565b60405180910390a36001905092915050565b60008073ffffffffffffffffffffffffffffffffffffffff168373ffffffffffffffffffffffffffffffffffffffff1603610ee557600080fd5b600260008673ffffffffffffffffffffffffffffffffffffffff1673ffffffffffffffffffffffffffffffffffffffff16815260200190815260200160002054821115610f67576040517f08c379a0000000000000000000000000000000000000000000000000000000008152600401610f5e90611857565b60405180910390fd5b600160008673ffffffffffffffffffffffffffffffffffffffff1673ffffffffffffffffffffffffffffffffffffffff16815260200190815260200160002060008573ffffffffffffffffffffffffffffffffffffffff1673ffffffffffffffffffffffffffffffffffffffff16815260200190815260200160002054821115611026576040517f08c379a000000000000000000000000000000000000000000000000000000000815260040161101d906118c3565b60405180910390fd5b61107882600260008873ffffffffffffffffffffffffffffffffffffffff1673ffffffffffffffffffffffffffffffffffffffff1681526020019081526020016000205461144a90919063ffffffff16565b600260008773ffffffffffffffffffffffffffffffffffffffff1673ffffffffffffffffffffffffffffffffffffffff1681526020019081526020016000208190555061110d82600260008673ffffffffffffffffffffffffffffffffffffffff1673ffffffffffffffffffffffffffffffffffffffff1681526020019081526020016000205461147190919063ffffffff16565b600260008573ffffffffffffffffffffffffffffffffffffffff1673ffffffffffffffffffffffffffffffffffffffff168152602001908152602001600020819055506111df82600160008873ffffffffffffffffffffffffffffffffffffffff1673ffffffffffffffffffffffffffffffffffffffff16815260200190815260200160002060008773ffffffffffffffffffffffffffffffffffffffff1673ffffffffffffffffffffffffffffffffffffffff1681526020019081526020016000205461144a90919063ffffffff16565b600160008773ffffffffffffffffffffffffffffffffffffffff1673ffffffffffffffffffffffffffffffffffffffff16815260200190815260200160002060008673ffffffffffffffffffffffffffffffffffffffff1673ffffffffffffffffffffffffffffffffffffffff168152602001908152602001600020819055508273ffffffffffffffffffffffffffffffffffffffff168573ffffffffffffffffffffffffffffffffffffffff167fddf252ad1be2c89b69c2b068fc378daa952ba7f163c4a11628f55a4df523b3ef846040516112bc9190611668565b60405180910390a360019050949350505050565b6000600160008473ffffffffffffffffffffffffffffffffffffffff1673ffffffffffffffffffffffffffffffffffffffff16815260200190815260200160002060008373ffffffffffffffffffffffffffffffffffffffff1673ffffffffffffffffffffffffffffffffffffffff16815260200190815260200160002054905092915050565b600081600160008673ffffffffffffffffffffffffffffffffffffffff1673ffffffffffffffffffffffffffffffffffffffff16815260200190815260200160002060008573ffffffffffffffffffffffffffffffffffffffff1673ffffffffffffffffffffffffffffffffffffffff168152602001908152602001600020819055508273ffffffffffffffffffffffffffffffffffffffff168473ffffffffffffffffffffffffffffffffffffffff167f8c5be1e5ebec7d5bd14f71427d1e84f3dd0314c0f7b2291e5b200ac8c7c3b925846040516114379190611668565b60405180910390a3600190509392505050565b60008282111561145d5761145c611975565b5b818361146991906119d3565b905092915050565b6000818361147f9190611a07565b90508281101561149257611491611975565b5b92915050565b60008115159050919050565b6114ad81611498565b82525050565b60006020820190506114c860008301846114a4565b92915050565b600081519050919050565b600082825260208201905092915050565b60005b838110156115085780820151818401526020810190506114ed565b60008484015250505050565b6000601f19601f8301169050919050565b6000611530826114ce565b61153a81856114d9565b935061154a8185602086016114ea565b61155381611514565b840191505092915050565b600060208201905081810360008301526115788184611525565b905092915050565b600080fd5b600073ffffffffffffffffffffffffffffffffffffffff82169050919050565b60006115b082611585565b9050919050565b6115c0816115a5565b81146115cb57600080fd5b50565b6000813590506115dd816115b7565b92915050565b6000819050919050565b6115f6816115e3565b811461160157600080fd5b50565b600081359050611613816115ed565b92915050565b600080604083850312156116305761162f611580565b5b600061163e858286016115ce565b925050602061164f85828601611604565b9150509250929050565b611662816115e3565b82525050565b600060208201905061167d6000830184611659565b92915050565b60008060006060848603121561169c5761169b611580565b5b60006116aa868287016115ce565b93505060206116bb868287016115ce565b92505060406116cc86828701611604565b9150509250925092565b600060ff82169050919050565b6116ec816116d6565b82525050565b600060208201905061170760008301846116e3565b92915050565b60006020828403121561172357611722611580565b5b6000611731848285016115ce565b91505092915050565b611743816115a5565b82525050565b600060208201905061175e600083018461173a565b92915050565b6000806000806080858703121561177e5761177d611580565b5b600061178c878288016115ce565b945050602061179d878288016115ce565b93505060406117ae878288016115ce565b92505060606117bf87828801611604565b91505092959194509250565b600080604083850312156117e2576117e1611580565b5b60006117f0858286016115ce565b9250506020611801858286016115ce565b9150509250929050565b7f46726f6d20646f65736e2774206861766520656e6f7567682062616c616e6365600082015250565b60006118416020836114d9565b915061184c8261180b565b602082019050919050565b6000602082019050818103600083015261187081611834565b9050919050565b7f4e6f7420616c6c6f77656420746f207370656e642074686973206d7563680000600082015250565b60006118ad601e836114d9565b91506118b882611877565b602082019050919050565b600060208201905081810360008301526118dc816118a0565b9050919050565b7f6d73672e73656e64657220646f65736e2774206861766520656e6f756768206260008201527f616c616e63650000000000000000000000000000000000000000000000000000602082015250565b600061193f6026836114d9565b915061194a826118e3565b604082019050919050565b6000602082019050818103600083015261196e81611932565b9050919050565b7f4e487b7100000000000000000000000000000000000000000000000000000000600052600160045260246000fd5b7f4e487b7100000000000000000000000000000000000000000000000000000000600052601160045260246000fd5b60006119de826115e3565b91506119e9836115e3565b9250828203905081811115611a0157611a006119a4565b5b92915050565b6000611a12826115e3565b9150611a1d836115e3565b9250828201905080821115611a3557611a346119a4565b5b9291505056fea264697066735822122055e5bd592447b3bd964801dfd4b4d6d044766ee2c9edf28ec5b03cfaea41f91764736f6c63430008120033",
					"opcodes": "PUSH1 0x80 PUSH1 0x40 MSTORE CALLVALUE DUP1 ISZERO PUSH2 0x10 JUMPI PUSH1 0x0 DUP1 REVERT JUMPDEST POP PUSH1 0x40 MLOAD PUSH2 0x1D SWAP1 PUSH2 0xC8 JUMP JUMPDEST PUSH1 0x40 MLOAD DUP1 SWAP2 SUB SWAP1 PUSH1 0x0 CREATE DUP1 ISZERO DUP1 ISZERO PUSH2 0x39 JUMPI RETURNDATASIZE PUSH1 0x0 DUP1 RETURNDATACOPY RETURNDATASIZE PUSH1 0x0 REVERT JUMPDEST POP PUSH1 0x0 DUP1 PUSH2 0x100 EXP DUP2 SLOAD DUP2 PUSH20 0xFFFFFFFFFFFFFFFFFFFFFFFFFFFFFFFFFFFFFFFF MUL NOT AND SWAP1 DUP4 PUSH20 0xFFFFFFFFFFFFFFFFFFFFFFFFFFFFFFFFFFFFFFFF AND MUL OR SWAP1 SSTORE POP PUSH2 0x2710 PUSH1 0x1 DUP2 SWAP1 SSTORE POP CALLER PUSH1 0x2 PUSH1 0x0 PUSH2 0x100 EXP DUP2 SLOAD DUP2 PUSH20 0xFFFFFFFFFFFFFFFFFFFFFFFFFFFFFFFFFFFFFFFF MUL NOT AND SWAP1 DUP4 PUSH20 0xFFFFFFFFFFFFFFFFFFFFFFFFFFFFFFFFFFFFFFFF AND MUL OR SWAP1 SSTORE POP PUSH2 0xD5 JUMP JUMPDEST PUSH2 0x1AEC DUP1 PUSH2 0xF64 DUP4 CODECOPY ADD SWAP1 JUMP JUMPDEST PUSH2 0xE80 DUP1 PUSH2 0xE4 PUSH1 0x0 CODECOPY PUSH1 0x0 RETURN INVALID PUSH1 0x80 PUSH1 0x40 MSTORE PUSH1 0x4 CALLDATASIZE LT PUSH2 0x86 JUMPI PUSH1 0x0 CALLDATALOAD PUSH1 0xE0 SHR DUP1 PUSH4 0x771282F6 GT PUSH2 0x59 JUMPI DUP1 PUSH4 0x771282F6 EQ PUSH2 0x147 JUMPI DUP1 PUSH4 0x8B099B23 EQ PUSH2 0x172 JUMPI DUP1 PUSH4 0xA9059CBB EQ PUSH2 0x1AF JUMPI DUP1 PUSH4 0xDC29F1DE EQ PUSH2 0x1D8 JUMPI DUP1 PUSH4 0xE1F21C67 EQ PUSH2 0x1E2 JUMPI PUSH2 0x86 JUMP JUMPDEST DUP1 PUSH4 0x15DACBEA EQ PUSH2 0x8B JUMPI DUP1 PUSH4 0x19D1997A EQ PUSH2 0xB4 JUMPI DUP1 PUSH4 0x3E3E0B12 EQ PUSH2 0xDF JUMPI DUP1 PUSH4 0x70A08231 EQ PUSH2 0x10A JUMPI JUMPDEST PUSH1 0x0 DUP1 REVERT JUMPDEST CALLVALUE DUP1 ISZERO PUSH2 0x97 JUMPI PUSH1 0x0 DUP1 REVERT JUMPDEST POP PUSH2 0xB2 PUSH1 0x4 DUP1 CALLDATASIZE SUB DUP2 ADD SWAP1 PUSH2 0xAD SWAP2 SWAP1 PUSH2 0x91E JUMP JUMPDEST PUSH2 0x21F JUMP JUMPDEST STOP JUMPDEST CALLVALUE DUP1 ISZERO PUSH2 0xC0 JUMPI PUSH1 0x0 DUP1 REVERT JUMPDEST POP PUSH2 0xC9 PUSH2 0x2C8 JUMP JUMPDEST PUSH1 0x40 MLOAD PUSH2 0xD6 SWAP2 SWAP1 PUSH2 0x994 JUMP JUMPDEST PUSH1 0x40 MLOAD DUP1 SWAP2 SUB SWAP1 RETURN JUMPDEST CALLVALUE DUP1 ISZERO PUSH2 0xEB JUMPI PUSH1 0x0 DUP1 REVERT JUMPDEST POP PUSH2 0xF4 PUSH2 0x2CE JUMP JUMPDEST PUSH1 0x40 MLOAD PUSH2 0x101 SWAP2 SWAP1 PUSH2 0x9CA JUMP JUMPDEST PUSH1 0x40 MLOAD DUP1 SWAP2 SUB SWAP1 RETURN JUMPDEST CALLVALUE DUP1 ISZERO PUSH2 0x116 JUMPI PUSH1 0x0 DUP1 REVERT JUMPDEST POP PUSH2 0x131 PUSH1 0x4 DUP1 CALLDATASIZE SUB DUP2 ADD SWAP1 PUSH2 0x12C SWAP2 SWAP1 PUSH2 0x9E5 JUMP JUMPDEST PUSH2 0x367 JUMP JUMPDEST PUSH1 0x40 MLOAD PUSH2 0x13E SWAP2 SWAP1 PUSH2 0x994 JUMP JUMPDEST PUSH1 0x40 MLOAD DUP1 SWAP2 SUB SWAP1 RETURN JUMPDEST CALLVALUE DUP1 ISZERO PUSH2 0x153 JUMPI PUSH1 0x0 DUP1 REVERT JUMPDEST POP PUSH2 0x15C PUSH2 0x40B JUMP JUMPDEST PUSH1 0x40 MLOAD PUSH2 0x169 SWAP2 SWAP1 PUSH2 0x994 JUMP JUMPDEST PUSH1 0x40 MLOAD DUP1 SWAP2 SUB SWAP1 RETURN JUMPDEST CALLVALUE DUP1 ISZERO PUSH2 0x17E JUMPI PUSH1 0x0 DUP1 REVERT JUMPDEST POP PUSH2 0x199 PUSH1 0x4 DUP1 CALLDATASIZE SUB DUP2 ADD SWAP1 PUSH2 0x194 SWAP2 SWAP1 PUSH2 0xA12 JUMP JUMPDEST PUSH2 0x4A2 JUMP JUMPDEST PUSH1 0x40 MLOAD PUSH2 0x1A6 SWAP2 SWAP1 PUSH2 0x994 JUMP JUMPDEST PUSH1 0x40 MLOAD DUP1 SWAP2 SUB SWAP1 RETURN JUMPDEST CALLVALUE DUP1 ISZERO PUSH2 0x1BB JUMPI PUSH1 0x0 DUP1 REVERT JUMPDEST POP PUSH2 0x1D6 PUSH1 0x4 DUP1 CALLDATASIZE SUB DUP2 ADD SWAP1 PUSH2 0x1D1 SWAP2 SWAP1 PUSH2 0xA52 JUMP JUMPDEST PUSH2 0x549 JUMP JUMPDEST STOP JUMPDEST PUSH2 0x1E0 PUSH2 0x5EC JUMP JUMPDEST STOP JUMPDEST CALLVALUE DUP1 ISZERO PUSH2 0x1EE JUMPI PUSH1 0x0 DUP1 REVERT JUMPDEST POP PUSH2 0x209 PUSH1 0x4 DUP1 CALLDATASIZE SUB DUP2 ADD SWAP1 PUSH2 0x204 SWAP2 SWAP1 PUSH2 0xA92 JUMP JUMPDEST PUSH2 0x7D9 JUMP JUMPDEST PUSH1 0x40 MLOAD PUSH2 0x216 SWAP2 SWAP1 PUSH2 0x9CA JUMP JUMPDEST PUSH1 0x40 MLOAD DUP1 SWAP2 SUB SWAP1 RETURN JUMPDEST PUSH1 0x0 DUP1 SLOAD SWAP1 PUSH2 0x100 EXP SWAP1 DIV PUSH20 0xFFFFFFFFFFFFFFFFFFFFFFFFFFFFFFFFFFFFFFFF AND PUSH20 0xFFFFFFFFFFFFFFFFFFFFFFFFFFFFFFFFFFFFFFFF AND PUSH4 0xDB05EA05 DUP6 DUP6 DUP6 DUP6 PUSH1 0x40 MLOAD DUP6 PUSH4 0xFFFFFFFF AND PUSH1 0xE0 SHL DUP2 MSTORE PUSH1 0x4 ADD PUSH2 0x27E SWAP5 SWAP4 SWAP3 SWAP2 SWAP1 PUSH2 0xAF4 JUMP JUMPDEST PUSH1 0x20 PUSH1 0x40 MLOAD DUP1 DUP4 SUB DUP2 PUSH1 0x0 DUP8 GAS CALL ISZERO DUP1 ISZERO PUSH2 0x29D JUMPI RETURNDATASIZE PUSH1 0x0 DUP1 RETURNDATACOPY RETURNDATASIZE PUSH1 0x0 REVERT JUMPDEST POP POP POP POP PUSH1 0x40 MLOAD RETURNDATASIZE PUSH1 0x1F NOT PUSH1 0x1F DUP3 ADD AND DUP3 ADD DUP1 PUSH1 0x40 MSTORE POP DUP2 ADD SWAP1 PUSH2 0x2C1 SWAP2 SWAP1 PUSH2 0xB65 JUMP JUMPDEST POP POP POP POP POP JUMP JUMPDEST PUSH1 0x1 SLOAD DUP2 JUMP JUMPDEST PUSH1 0x0 DUP1 PUSH1 0x0 SWAP1 SLOAD SWAP1 PUSH2 0x100 EXP SWAP1 DIV PUSH20 0xFFFFFFFFFFFFFFFFFFFFFFFFFFFFFFFFFFFFFFFF AND PUSH20 0xFFFFFFFFFFFFFFFFFFFFFFFFFFFFFFFFFFFFFFFF AND PUSH4 0x7D64BCB4 PUSH1 0x40 MLOAD DUP2 PUSH4 0xFFFFFFFF AND PUSH1 0xE0 SHL DUP2 MSTORE PUSH1 0x4 ADD PUSH1 0x20 PUSH1 0x40 MLOAD DUP1 DUP4 SUB DUP2 PUSH1 0x0 DUP8 GAS CALL ISZERO DUP1 ISZERO PUSH2 0x33E JUMPI RETURNDATASIZE PUSH1 0x0 DUP1 RETURNDATACOPY RETURNDATASIZE PUSH1 0x0 REVERT JUMPDEST POP POP POP POP PUSH1 0x40 MLOAD RETURNDATASIZE PUSH1 0x1F NOT PUSH1 0x1F DUP3 ADD AND DUP3 ADD DUP1 PUSH1 0x40 MSTORE POP DUP2 ADD SWAP1 PUSH2 0x362 SWAP2 SWAP1 PUSH2 0xB65 JUMP JUMPDEST SWAP1 POP SWAP1 JUMP JUMPDEST PUSH1 0x0 DUP1 PUSH1 0x0 SWAP1 SLOAD SWAP1 PUSH2 0x100 EXP SWAP1 DIV PUSH20 0xFFFFFFFFFFFFFFFFFFFFFFFFFFFFFFFFFFFFFFFF AND PUSH20 0xFFFFFFFFFFFFFFFFFFFFFFFFFFFFFFFFFFFFFFFF AND PUSH4 0x70A08231 DUP4 PUSH1 0x40 MLOAD DUP3 PUSH4 0xFFFFFFFF AND PUSH1 0xE0 SHL DUP2 MSTORE PUSH1 0x4 ADD PUSH2 0x3C3 SWAP2 SWAP1 PUSH2 0xB92 JUMP JUMPDEST PUSH1 0x20 PUSH1 0x40 MLOAD DUP1 DUP4 SUB DUP2 DUP7 GAS STATICCALL ISZERO DUP1 ISZERO PUSH2 0x3E0 JUMPI RETURNDATASIZE PUSH1 0x0 DUP1 RETURNDATACOPY RETURNDATASIZE PUSH1 0x0 REVERT JUMPDEST POP POP POP POP PUSH1 0x40 MLOAD RETURNDATASIZE PUSH1 0x1F NOT PUSH1 0x1F DUP3 ADD AND DUP3 ADD DUP1 PUSH1 0x40 MSTORE POP DUP2 ADD SWAP1 PUSH2 0x404 SWAP2 SWAP1 PUSH2 0xBC2 JUMP JUMPDEST SWAP1 POP SWAP2 SWAP1 POP JUMP JUMPDEST PUSH1 0x0 DUP1 PUSH1 0x0 SWAP1 SLOAD SWAP1 PUSH2 0x100 EXP SWAP1 DIV PUSH20 0xFFFFFFFFFFFFFFFFFFFFFFFFFFFFFFFFFFFFFFFF AND PUSH20 0xFFFFFFFFFFFFFFFFFFFFFFFFFFFFFFFFFFFFFFFF AND PUSH4 0x18160DDD PUSH1 0x40 MLOAD DUP2 PUSH4 0xFFFFFFFF AND PUSH1 0xE0 SHL DUP2 MSTORE PUSH1 0x4 ADD PUSH1 0x20 PUSH1 0x40 MLOAD DUP1 DUP4 SUB DUP2 DUP7 GAS STATICCALL ISZERO DUP1 ISZERO PUSH2 0x479 JUMPI RETURNDATASIZE PUSH1 0x0 DUP1 RETURNDATACOPY RETURNDATASIZE PUSH1 0x0 REVERT JUMPDEST POP POP POP POP PUSH1 0x40 MLOAD RETURNDATASIZE PUSH1 0x1F NOT PUSH1 0x1F DUP3 ADD AND DUP3 ADD DUP1 PUSH1 0x40 MSTORE POP DUP2 ADD SWAP1 PUSH2 0x49D SWAP2 SWAP1 PUSH2 0xBC2 JUMP JUMPDEST SWAP1 POP SWAP1 JUMP JUMPDEST PUSH1 0x0 DUP1 PUSH1 0x0 SWAP1 SLOAD SWAP1 PUSH2 0x100 EXP SWAP1 DIV PUSH20 0xFFFFFFFFFFFFFFFFFFFFFFFFFFFFFFFFFFFFFFFF AND PUSH20 0xFFFFFFFFFFFFFFFFFFFFFFFFFFFFFFFFFFFFFFFF AND PUSH4 0xDD62ED3E DUP5 DUP5 PUSH1 0x40 MLOAD DUP4 PUSH4 0xFFFFFFFF AND PUSH1 0xE0 SHL DUP2 MSTORE PUSH1 0x4 ADD PUSH2 0x500 SWAP3 SWAP2 SWAP1 PUSH2 0xBEF JUMP JUMPDEST PUSH1 0x20 PUSH1 0x40 MLOAD DUP1 DUP4 SUB DUP2 DUP7 GAS STATICCALL ISZERO DUP1 ISZERO PUSH2 0x51D JUMPI RETURNDATASIZE PUSH1 0x0 DUP1 RETURNDATACOPY RETURNDATASIZE PUSH1 0x0 REVERT JUMPDEST POP POP POP POP PUSH1 0x40 MLOAD RETURNDATASIZE PUSH1 0x1F NOT PUSH1 0x1F DUP3 ADD AND DUP3 ADD DUP1 PUSH1 0x40 MSTORE POP DUP2 ADD SWAP1 PUSH2 0x541 SWAP2 SWAP1 PUSH2 0xBC2 JUMP JUMPDEST SWAP1 POP SWAP3 SWAP2 POP POP JUMP JUMPDEST PUSH1 0x0 DUP1 SLOAD SWAP1 PUSH2 0x100 EXP SWAP1 DIV PUSH20 0xFFFFFFFFFFFFFFFFFFFFFFFFFFFFFFFFFFFFFFFF AND PUSH20 0xFFFFFFFFFFFFFFFFFFFFFFFFFFFFFFFFFFFFFFFF AND PUSH4 0xA9059CBB DUP4 DUP4 PUSH1 0x40 MLOAD DUP4 PUSH4 0xFFFFFFFF AND PUSH1 0xE0 SHL DUP2 MSTORE PUSH1 0x4 ADD PUSH2 0x5A4 SWAP3 SWAP2 SWAP1 PUSH2 0xC18 JUMP JUMPDEST PUSH1 0x20 PUSH1 0x40 MLOAD DUP1 DUP4 SUB DUP2 PUSH1 0x0 DUP8 GAS CALL ISZERO DUP1 ISZERO PUSH2 0x5C3 JUMPI RETURNDATASIZE PUSH1 0x0 DUP1 RETURNDATACOPY RETURNDATASIZE PUSH1 0x0 REVERT JUMPDEST POP POP POP POP PUSH1 0x40 MLOAD RETURNDATASIZE PUSH1 0x1F NOT PUSH1 0x1F DUP3 ADD AND DUP3 ADD DUP1 PUSH1 0x40 MSTORE POP DUP2 ADD SWAP1 PUSH2 0x5E7 SWAP2 SWAP1 PUSH2 0xB65 JUMP JUMPDEST POP POP POP JUMP JUMPDEST PUSH7 0x2386F26FC10000 CALLVALUE GT PUSH2 0x635 JUMPI PUSH1 0x40 MLOAD PUSH32 0x8C379A000000000000000000000000000000000000000000000000000000000 DUP2 MSTORE PUSH1 0x4 ADD PUSH2 0x62C SWAP1 PUSH2 0xCC4 JUMP JUMPDEST PUSH1 0x40 MLOAD DUP1 SWAP2 SUB SWAP1 REVERT JUMPDEST PUSH1 0x1 SLOAD PUSH8 0x6F05B59D3B20000 CALLVALUE PUSH2 0x64C SWAP2 SWAP1 PUSH2 0xD42 JUMP JUMPDEST PUSH1 0x0 DUP1 SLOAD SWAP1 PUSH2 0x100 EXP SWAP1 DIV PUSH20 0xFFFFFFFFFFFFFFFFFFFFFFFFFFFFFFFFFFFFFFFF AND PUSH20 0xFFFFFFFFFFFFFFFFFFFFFFFFFFFFFFFFFFFFFFFF AND PUSH4 0x18160DDD PUSH1 0x40 MLOAD DUP2 PUSH4 0xFFFFFFFF AND PUSH1 0xE0 SHL DUP2 MSTORE PUSH1 0x4 ADD PUSH1 0x20 PUSH1 0x40 MLOAD DUP1 DUP4 SUB DUP2 DUP7 GAS STATICCALL ISZERO DUP1 ISZERO PUSH2 0x6B7 JUMPI RETURNDATASIZE PUSH1 0x0 DUP1 RETURNDATACOPY RETURNDATASIZE PUSH1 0x0 REVERT JUMPDEST POP POP POP POP PUSH1 0x40 MLOAD RETURNDATASIZE PUSH1 0x1F NOT PUSH1 0x1F DUP3 ADD AND DUP3 ADD DUP1 PUSH1 0x40 MSTORE POP DUP2 ADD SWAP1 PUSH2 0x6DB SWAP2 SWAP1 PUSH2 0xBC2 JUMP JUMPDEST PUSH2 0x6E5 SWAP2 SWAP1 PUSH2 0xD73 JUMP JUMPDEST LT PUSH2 0x725 JUMPI PUSH1 0x40 MLOAD PUSH32 0x8C379A000000000000000000000000000000000000000000000000000000000 DUP2 MSTORE PUSH1 0x4 ADD PUSH2 0x71C SWAP1 PUSH2 0xDF3 JUMP JUMPDEST PUSH1 0x40 MLOAD DUP1 SWAP2 SUB SWAP1 REVERT JUMPDEST PUSH1 0x0 DUP1 SLOAD SWAP1 PUSH2 0x100 EXP SWAP1 DIV PUSH20 0xFFFFFFFFFFFFFFFFFFFFFFFFFFFFFFFFFFFFFFFF AND PUSH20 0xFFFFFFFFFFFFFFFFFFFFFFFFFFFFFFFFFFFFFFFF AND PUSH4 0x40C10F19 CALLER PUSH8 0x6F05B59D3B20000 CALLVALUE PUSH2 0x776 SWAP2 SWAP1 PUSH2 0xD42 JUMP JUMPDEST PUSH1 0x40 MLOAD DUP4 PUSH4 0xFFFFFFFF AND PUSH1 0xE0 SHL DUP2 MSTORE PUSH1 0x4 ADD PUSH2 0x793 SWAP3 SWAP2 SWAP1 PUSH2 0xC18 JUMP JUMPDEST PUSH1 0x20 PUSH1 0x40 MLOAD DUP1 DUP4 SUB DUP2 PUSH1 0x0 DUP8 GAS CALL ISZERO DUP1 ISZERO PUSH2 0x7B2 JUMPI RETURNDATASIZE PUSH1 0x0 DUP1 RETURNDATACOPY RETURNDATASIZE PUSH1 0x0 REVERT JUMPDEST POP POP POP POP PUSH1 0x40 MLOAD RETURNDATASIZE PUSH1 0x1F NOT PUSH1 0x1F DUP3 ADD AND DUP3 ADD DUP1 PUSH1 0x40 MSTORE POP DUP2 ADD SWAP1 PUSH2 0x7D6 SWAP2 SWAP1 PUSH2 0xB65 JUMP JUMPDEST POP JUMP JUMPDEST PUSH1 0x0 DUP1 PUSH1 0x0 SWAP1 SLOAD SWAP1 PUSH2 0x100 EXP SWAP1 DIV PUSH20 0xFFFFFFFFFFFFFFFFFFFFFFFFFFFFFFFFFFFFFFFF AND PUSH20 0xFFFFFFFFFFFFFFFFFFFFFFFFFFFFFFFFFFFFFFFF AND PUSH4 0xF0CF209D DUP6 DUP6 DUP6 PUSH1 0x40 MLOAD DUP5 PUSH4 0xFFFFFFFF AND PUSH1 0xE0 SHL DUP2 MSTORE PUSH1 0x4 ADD PUSH2 0x839 SWAP4 SWAP3 SWAP2 SWAP1 PUSH2 0xE13 JUMP JUMPDEST PUSH1 0x20 PUSH1 0x40 MLOAD DUP1 DUP4 SUB DUP2 PUSH1 0x0 DUP8 GAS CALL ISZERO DUP1 ISZERO PUSH2 0x858 JUMPI RETURNDATASIZE PUSH1 0x0 DUP1 RETURNDATACOPY RETURNDATASIZE PUSH1 0x0 REVERT JUMPDEST POP POP POP POP PUSH1 0x40 MLOAD RETURNDATASIZE PUSH1 0x1F NOT PUSH1 0x1F DUP3 ADD AND DUP3 ADD DUP1 PUSH1 0x40 MSTORE POP DUP2 ADD SWAP1 PUSH2 0x87C SWAP2 SWAP1 PUSH2 0xB65 JUMP JUMPDEST SWAP1 POP SWAP4 SWAP3 POP POP POP JUMP JUMPDEST PUSH1 0x0 DUP1 REVERT JUMPDEST PUSH1 0x0 PUSH20 0xFFFFFFFFFFFFFFFFFFFFFFFFFFFFFFFFFFFFFFFF DUP3 AND SWAP1 POP SWAP2 SWAP1 POP JUMP JUMPDEST PUSH1 0x0 PUSH2 0x8B5 DUP3 PUSH2 0x88A JUMP JUMPDEST SWAP1 POP SWAP2 SWAP1 POP JUMP JUMPDEST PUSH2 0x8C5 DUP2 PUSH2 0x8AA JUMP JUMPDEST DUP2 EQ PUSH2 0x8D0 JUMPI PUSH1 0x0 DUP1 REVERT JUMPDEST POP JUMP JUMPDEST PUSH1 0x0 DUP2 CALLDATALOAD SWAP1 POP PUSH2 0x8E2 DUP2 PUSH2 0x8BC JUMP JUMPDEST SWAP3 SWAP2 POP POP JUMP JUMPDEST PUSH1 0x0 DUP2 SWAP1 POP SWAP2 SWAP1 POP JUMP JUMPDEST PUSH2 0x8FB DUP2 PUSH2 0x8E8 JUMP JUMPDEST DUP2 EQ PUSH2 0x906 JUMPI PUSH1 0x0 DUP1 REVERT JUMPDEST POP JUMP JUMPDEST PUSH1 0x0 DUP2 CALLDATALOAD SWAP1 POP PUSH2 0x918 DUP2 PUSH2 0x8F2 JUMP JUMPDEST SWAP3 SWAP2 POP POP JUMP JUMPDEST PUSH1 0x0 DUP1 PUSH1 0x0 DUP1 PUSH1 0x80 DUP6 DUP8 SUB SLT ISZERO PUSH2 0x938 JUMPI PUSH2 0x937 PUSH2 0x885 JUMP JUMPDEST JUMPDEST PUSH1 0x0 PUSH2 0x946 DUP8 DUP3 DUP9 ADD PUSH2 0x8D3 JUMP JUMPDEST SWAP5 POP POP PUSH1 0x20 PUSH2 0x957 DUP8 DUP3 DUP9 ADD PUSH2 0x8D3 JUMP JUMPDEST SWAP4 POP POP PUSH1 0x40 PUSH2 0x968 DUP8 DUP3 DUP9 ADD PUSH2 0x8D3 JUMP JUMPDEST SWAP3 POP POP PUSH1 0x60 PUSH2 0x979 DUP8 DUP3 DUP9 ADD PUSH2 0x909 JUMP JUMPDEST SWAP2 POP POP SWAP3 SWAP6 SWAP2 SWAP5 POP SWAP3 POP JUMP JUMPDEST PUSH2 0x98E DUP2 PUSH2 0x8E8 JUMP JUMPDEST DUP3 MSTORE POP POP JUMP JUMPDEST PUSH1 0x0 PUSH1 0x20 DUP3 ADD SWAP1 POP PUSH2 0x9A9 PUSH1 0x0 DUP4 ADD DUP5 PUSH2 0x985 JUMP JUMPDEST SWAP3 SWAP2 POP POP JUMP JUMPDEST PUSH1 0x0 DUP2 ISZERO ISZERO SWAP1 POP SWAP2 SWAP1 POP JUMP JUMPDEST PUSH2 0x9C4 DUP2 PUSH2 0x9AF JUMP JUMPDEST DUP3 MSTORE POP POP JUMP JUMPDEST PUSH1 0x0 PUSH1 0x20 DUP3 ADD SWAP1 POP PUSH2 0x9DF PUSH1 0x0 DUP4 ADD DUP5 PUSH2 0x9BB JUMP JUMPDEST SWAP3 SWAP2 POP POP JUMP JUMPDEST PUSH1 0x0 PUSH1 0x20 DUP3 DUP5 SUB SLT ISZERO PUSH2 0x9FB JUMPI PUSH2 0x9FA PUSH2 0x885 JUMP JUMPDEST JUMPDEST PUSH1 0x0 PUSH2 0xA09 DUP5 DUP3 DUP6 ADD PUSH2 0x8D3 JUMP JUMPDEST SWAP2 POP POP SWAP3 SWAP2 POP POP JUMP JUMPDEST PUSH1 0x0 DUP1 PUSH1 0x40 DUP4 DUP6 SUB SLT ISZERO PUSH2 0xA29 JUMPI PUSH2 0xA28 PUSH2 0x885 JUMP JUMPDEST JUMPDEST PUSH1 0x0 PUSH2 0xA37 DUP6 DUP3 DUP7 ADD PUSH2 0x8D3 JUMP JUMPDEST SWAP3 POP POP PUSH1 0x20 PUSH2 0xA48 DUP6 DUP3 DUP7 ADD PUSH2 0x8D3 JUMP JUMPDEST SWAP2 POP POP SWAP3 POP SWAP3 SWAP1 POP JUMP JUMPDEST PUSH1 0x0 DUP1 PUSH1 0x40 DUP4 DUP6 SUB SLT ISZERO PUSH2 0xA69 JUMPI PUSH2 0xA68 PUSH2 0x885 JUMP JUMPDEST JUMPDEST PUSH1 0x0 PUSH2 0xA77 DUP6 DUP3 DUP7 ADD PUSH2 0x8D3 JUMP JUMPDEST SWAP3 POP POP PUSH1 0x20 PUSH2 0xA88 DUP6 DUP3 DUP7 ADD PUSH2 0x909 JUMP JUMPDEST SWAP2 POP POP SWAP3 POP SWAP3 SWAP1 POP JUMP JUMPDEST PUSH1 0x0 DUP1 PUSH1 0x0 PUSH1 0x60 DUP5 DUP7 SUB SLT ISZERO PUSH2 0xAAB JUMPI PUSH2 0xAAA PUSH2 0x885 JUMP JUMPDEST JUMPDEST PUSH1 0x0 PUSH2 0xAB9 DUP7 DUP3 DUP8 ADD PUSH2 0x8D3 JUMP JUMPDEST SWAP4 POP POP PUSH1 0x20 PUSH2 0xACA DUP7 DUP3 DUP8 ADD PUSH2 0x8D3 JUMP JUMPDEST SWAP3 POP POP PUSH1 0x40 PUSH2 0xADB DUP7 DUP3 DUP8 ADD PUSH2 0x909 JUMP JUMPDEST SWAP2 POP POP SWAP3 POP SWAP3 POP SWAP3 JUMP JUMPDEST PUSH2 0xAEE DUP2 PUSH2 0x8AA JUMP JUMPDEST DUP3 MSTORE POP POP JUMP JUMPDEST PUSH1 0x0 PUSH1 0x80 DUP3 ADD SWAP1 POP PUSH2 0xB09 PUSH1 0x0 DUP4 ADD DUP8 PUSH2 0xAE5 JUMP JUMPDEST PUSH2 0xB16 PUSH1 0x20 DUP4 ADD DUP7 PUSH2 0xAE5 JUMP JUMPDEST PUSH2 0xB23 PUSH1 0x40 DUP4 ADD DUP6 PUSH2 0xAE5 JUMP JUMPDEST PUSH2 0xB30 PUSH1 0x60 DUP4 ADD DUP5 PUSH2 0x985 JUMP JUMPDEST SWAP6 SWAP5 POP POP POP POP POP JUMP JUMPDEST PUSH2 0xB42 DUP2 PUSH2 0x9AF JUMP JUMPDEST DUP2 EQ PUSH2 0xB4D JUMPI PUSH1 0x0 DUP1 REVERT JUMPDEST POP JUMP JUMPDEST PUSH1 0x0 DUP2 MLOAD SWAP1 POP PUSH2 0xB5F DUP2 PUSH2 0xB39 JUMP JUMPDEST SWAP3 SWAP2 POP POP JUMP JUMPDEST PUSH1 0x0 PUSH1 0x20 DUP3 DUP5 SUB SLT ISZERO PUSH2 0xB7B JUMPI PUSH2 0xB7A PUSH2 0x885 JUMP JUMPDEST JUMPDEST PUSH1 0x0 PUSH2 0xB89 DUP5 DUP3 DUP6 ADD PUSH2 0xB50 JUMP JUMPDEST SWAP2 POP POP SWAP3 SWAP2 POP POP JUMP JUMPDEST PUSH1 0x0 PUSH1 0x20 DUP3 ADD SWAP1 POP PUSH2 0xBA7 PUSH1 0x0 DUP4 ADD DUP5 PUSH2 0xAE5 JUMP JUMPDEST SWAP3 SWAP2 POP POP JUMP JUMPDEST PUSH1 0x0 DUP2 MLOAD SWAP1 POP PUSH2 0xBBC DUP2 PUSH2 0x8F2 JUMP JUMPDEST SWAP3 SWAP2 POP POP JUMP JUMPDEST PUSH1 0x0 PUSH1 0x20 DUP3 DUP5 SUB SLT ISZERO PUSH2 0xBD8 JUMPI PUSH2 0xBD7 PUSH2 0x885 JUMP JUMPDEST JUMPDEST PUSH1 0x0 PUSH2 0xBE6 DUP5 DUP3 DUP6 ADD PUSH2 0xBAD JUMP JUMPDEST SWAP2 POP POP SWAP3 SWAP2 POP POP JUMP JUMPDEST PUSH1 0x0 PUSH1 0x40 DUP3 ADD SWAP1 POP PUSH2 0xC04 PUSH1 0x0 DUP4 ADD DUP6 PUSH2 0xAE5 JUMP JUMPDEST PUSH2 0xC11 PUSH1 0x20 DUP4 ADD DUP5 PUSH2 0xAE5 JUMP JUMPDEST SWAP4 SWAP3 POP POP POP JUMP JUMPDEST PUSH1 0x0 PUSH1 0x40 DUP3 ADD SWAP1 POP PUSH2 0xC2D PUSH1 0x0 DUP4 ADD DUP6 PUSH2 0xAE5 JUMP JUMPDEST PUSH2 0xC3A PUSH1 0x20 DUP4 ADD DUP5 PUSH2 0x985 JUMP JUMPDEST SWAP4 SWAP3 POP POP POP JUMP JUMPDEST PUSH1 0x0 DUP3 DUP3 MSTORE PUSH1 0x20 DUP3 ADD SWAP1 POP SWAP3 SWAP2 POP POP JUMP JUMPDEST PUSH32 0x6174206C6561737420302E303120455448206973206E656564656420746F206A PUSH1 0x0 DUP3 ADD MSTORE PUSH32 0x6F696E207468652067616D650000000000000000000000000000000000000000 PUSH1 0x20 DUP3 ADD MSTORE POP JUMP JUMPDEST PUSH1 0x0 PUSH2 0xCAE PUSH1 0x2C DUP4 PUSH2 0xC41 JUMP JUMPDEST SWAP2 POP PUSH2 0xCB9 DUP3 PUSH2 0xC52 JUMP JUMPDEST PUSH1 0x40 DUP3 ADD SWAP1 POP SWAP2 SWAP1 POP JUMP JUMPDEST PUSH1 0x0 PUSH1 0x20 DUP3 ADD SWAP1 POP DUP2 DUP2 SUB PUSH1 0x0 DUP4 ADD MSTORE PUSH2 0xCDD DUP2 PUSH2 0xCA1 JUMP JUMPDEST SWAP1 POP SWAP2 SWAP1 POP JUMP JUMPDEST PUSH32 0x4E487B7100000000000000000000000000000000000000000000000000000000 PUSH1 0x0 MSTORE PUSH1 0x12 PUSH1 0x4 MSTORE PUSH1 0x24 PUSH1 0x0 REVERT JUMPDEST PUSH32 0x4E487B7100000000000000000000000000000000000000000000000000000000 PUSH1 0x0 MSTORE PUSH1 0x11 PUSH1 0x4 MSTORE PUSH1 0x24 PUSH1 0x0 REVERT JUMPDEST PUSH1 0x0 PUSH2 0xD4D DUP3 PUSH2 0x8E8 JUMP JUMPDEST SWAP2 POP PUSH2 0xD58 DUP4 PUSH2 0x8E8 JUMP JUMPDEST SWAP3 POP DUP3 PUSH2 0xD68 JUMPI PUSH2 0xD67 PUSH2 0xCE4 JUMP JUMPDEST JUMPDEST DUP3 DUP3 DIV SWAP1 POP SWAP3 SWAP2 POP POP JUMP JUMPDEST PUSH1 0x0 PUSH2 0xD7E DUP3 PUSH2 0x8E8 JUMP JUMPDEST SWAP2 POP PUSH2 0xD89 DUP4 PUSH2 0x8E8 JUMP JUMPDEST SWAP3 POP DUP3 DUP3 ADD SWAP1 POP DUP1 DUP3 GT ISZERO PUSH2 0xDA1 JUMPI PUSH2 0xDA0 PUSH2 0xD13 JUMP JUMPDEST JUMPDEST SWAP3 SWAP2 POP POP JUMP JUMPDEST PUSH32 0x5250535420737570706C79206973206E6F7420656E6F75676800000000000000 PUSH1 0x0 DUP3 ADD MSTORE POP JUMP JUMPDEST PUSH1 0x0 PUSH2 0xDDD PUSH1 0x19 DUP4 PUSH2 0xC41 JUMP JUMPDEST SWAP2 POP PUSH2 0xDE8 DUP3 PUSH2 0xDA7 JUMP JUMPDEST PUSH1 0x20 DUP3 ADD SWAP1 POP SWAP2 SWAP1 POP JUMP JUMPDEST PUSH1 0x0 PUSH1 0x20 DUP3 ADD SWAP1 POP DUP2 DUP2 SUB PUSH1 0x0 DUP4 ADD MSTORE PUSH2 0xE0C DUP2 PUSH2 0xDD0 JUMP JUMPDEST SWAP1 POP SWAP2 SWAP1 POP JUMP JUMPDEST PUSH1 0x0 PUSH1 0x60 DUP3 ADD SWAP1 POP PUSH2 0xE28 PUSH1 0x0 DUP4 ADD DUP7 PUSH2 0xAE5 JUMP JUMPDEST PUSH2 0xE35 PUSH1 0x20 DUP4 ADD DUP6 PUSH2 0xAE5 JUMP JUMPDEST PUSH2 0xE42 PUSH1 0x40 DUP4 ADD DUP5 PUSH2 0x985 JUMP JUMPDEST SWAP5 SWAP4 POP POP POP POP JUMP INVALID LOG2 PUSH5 0x6970667358 0x22 SLT KECCAK256 PUSH28 0x8E2B385EC7C6AA39052262A1DBF284116A5A4429AFF937A9E5F415B1 AND 0xB9 0xEC PUSH5 0x736F6C6343 STOP ADDMOD SLT STOP CALLER PUSH1 0x80 PUSH1 0x40 MSTORE PUSH1 0x0 DUP1 PUSH1 0x0 PUSH2 0x100 EXP DUP2 SLOAD DUP2 PUSH1 0xFF MUL NOT AND SWAP1 DUP4 ISZERO ISZERO MUL OR SWAP1 SSTORE POP CALLER PUSH1 0x0 PUSH1 0x1 PUSH2 0x100 EXP DUP2 SLOAD DUP2 PUSH20 0xFFFFFFFFFFFFFFFFFFFFFFFFFFFFFFFFFFFFFFFF MUL NOT AND SWAP1 DUP4 PUSH20 0xFFFFFFFFFFFFFFFFFFFFFFFFFFFFFFFFFFFFFFFF AND MUL OR SWAP1 SSTORE POP CALLVALUE DUP1 ISZERO PUSH2 0x6B JUMPI PUSH1 0x0 DUP1 REVERT JUMPDEST POP PUSH2 0x1A71 DUP1 PUSH2 0x7B PUSH1 0x0 CODECOPY PUSH1 0x0 RETURN INVALID PUSH1 0x80 PUSH1 0x40 MSTORE CALLVALUE DUP1 ISZERO PUSH2 0x10 JUMPI PUSH1 0x0 DUP1 REVERT JUMPDEST POP PUSH1 0x4 CALLDATASIZE LT PUSH2 0x100 JUMPI PUSH1 0x0 CALLDATALOAD PUSH1 0xE0 SHR DUP1 PUSH4 0x7D64BCB4 GT PUSH2 0x97 JUMPI DUP1 PUSH4 0xA9059CBB GT PUSH2 0x66 JUMPI DUP1 PUSH4 0xA9059CBB EQ PUSH2 0x2B5 JUMPI DUP1 PUSH4 0xDB05EA05 EQ PUSH2 0x2E5 JUMPI DUP1 PUSH4 0xDD62ED3E EQ PUSH2 0x315 JUMPI DUP1 PUSH4 0xF0CF209D EQ PUSH2 0x345 JUMPI PUSH2 0x100 JUMP JUMPDEST DUP1 PUSH4 0x7D64BCB4 EQ PUSH2 0x23D JUMPI DUP1 PUSH4 0x893D20E8 EQ PUSH2 0x25B JUMPI DUP1 PUSH4 0x8DA5CB5B EQ PUSH2 0x279 JUMPI DUP1 PUSH4 0x95D89B41 EQ PUSH2 0x297 JUMPI PUSH2 0x100 JUMP JUMPDEST DUP1 PUSH4 0x23B872DD GT PUSH2 0xD3 JUMPI DUP1 PUSH4 0x23B872DD EQ PUSH2 0x18F JUMPI DUP1 PUSH4 0x313CE567 EQ PUSH2 0x1BF JUMPI DUP1 PUSH4 0x40C10F19 EQ PUSH2 0x1DD JUMPI DUP1 PUSH4 0x70A08231 EQ PUSH2 0x20D JUMPI PUSH2 0x100 JUMP JUMPDEST DUP1 PUSH4 0x5D2035B EQ PUSH2 0x105 JUMPI DUP1 PUSH4 0x6FDDE03 EQ PUSH2 0x123 JUMPI DUP1 PUSH4 0x95EA7B3 EQ PUSH2 0x141 JUMPI DUP1 PUSH4 0x18160DDD EQ PUSH2 0x171 JUMPI JUMPDEST PUSH1 0x0 DUP1 REVERT JUMPDEST PUSH2 0x10D PUSH2 0x375 JUMP JUMPDEST PUSH1 0x40 MLOAD PUSH2 0x11A SWAP2 SWAP1 PUSH2 0x14B3 JUMP JUMPDEST PUSH1 0x40 MLOAD DUP1 SWAP2 SUB SWAP1 RETURN JUMPDEST PUSH2 0x12B PUSH2 0x386 JUMP JUMPDEST PUSH1 0x40 MLOAD PUSH2 0x138 SWAP2 SWAP1 PUSH2 0x155E JUMP JUMPDEST PUSH1 0x40 MLOAD DUP1 SWAP2 SUB SWAP1 RETURN JUMPDEST PUSH2 0x15B PUSH1 0x4 DUP1 CALLDATASIZE SUB DUP2 ADD SWAP1 PUSH2 0x156 SWAP2 SWAP1 PUSH2 0x1619 JUMP JUMPDEST PUSH2 0x3BF JUMP JUMPDEST PUSH1 0x40 MLOAD PUSH2 0x168 SWAP2 SWAP1 PUSH2 0x14B3 JUMP JUMPDEST PUSH1 0x40 MLOAD DUP1 SWAP2 SUB SWAP1 RETURN JUMPDEST PUSH2 0x179 PUSH2 0x4B1 JUMP JUMPDEST PUSH1 0x40 MLOAD PUSH2 0x186 SWAP2 SWAP1 PUSH2 0x1668 JUMP JUMPDEST PUSH1 0x40 MLOAD DUP1 SWAP2 SUB SWAP1 RETURN JUMPDEST PUSH2 0x1A9 PUSH1 0x4 DUP1 CALLDATASIZE SUB DUP2 ADD SWAP1 PUSH2 0x1A4 SWAP2 SWAP1 PUSH2 0x1683 JUMP JUMPDEST PUSH2 0x4BB JUMP JUMPDEST PUSH1 0x40 MLOAD PUSH2 0x1B6 SWAP2 SWAP1 PUSH2 0x14B3 JUMP JUMPDEST PUSH1 0x40 MLOAD DUP1 SWAP2 SUB SWAP1 RETURN JUMPDEST PUSH2 0x1C7 PUSH2 0x8DF JUMP JUMPDEST PUSH1 0x40 MLOAD PUSH2 0x1D4 SWAP2 SWAP1 PUSH2 0x16F2 JUMP JUMPDEST PUSH1 0x40 MLOAD DUP1 SWAP2 SUB SWAP1 RETURN JUMPDEST PUSH2 0x1F7 PUSH1 0x4 DUP1 CALLDATASIZE SUB DUP2 ADD SWAP1 PUSH2 0x1F2 SWAP2 SWAP1 PUSH2 0x1619 JUMP JUMPDEST PUSH2 0x8E4 JUMP JUMPDEST PUSH1 0x40 MLOAD PUSH2 0x204 SWAP2 SWAP1 PUSH2 0x14B3 JUMP JUMPDEST PUSH1 0x40 MLOAD DUP1 SWAP2 SUB SWAP1 RETURN JUMPDEST PUSH2 0x227 PUSH1 0x4 DUP1 CALLDATASIZE SUB DUP2 ADD SWAP1 PUSH2 0x222 SWAP2 SWAP1 PUSH2 0x170D JUMP JUMPDEST PUSH2 0xAC5 JUMP JUMPDEST PUSH1 0x40 MLOAD PUSH2 0x234 SWAP2 SWAP1 PUSH2 0x1668 JUMP JUMPDEST PUSH1 0x40 MLOAD DUP1 SWAP2 SUB SWAP1 RETURN JUMPDEST PUSH2 0x245 PUSH2 0xB0E JUMP JUMPDEST PUSH1 0x40 MLOAD PUSH2 0x252 SWAP2 SWAP1 PUSH2 0x14B3 JUMP JUMPDEST PUSH1 0x40 MLOAD DUP1 SWAP2 SUB SWAP1 RETURN JUMPDEST PUSH2 0x263 PUSH2 0xBCE JUMP JUMPDEST PUSH1 0x40 MLOAD PUSH2 0x270 SWAP2 SWAP1 PUSH2 0x1749 JUMP JUMPDEST PUSH1 0x40 MLOAD DUP1 SWAP2 SUB SWAP1 RETURN JUMPDEST PUSH2 0x281 PUSH2 0xBF7 JUMP JUMPDEST PUSH1 0x40 MLOAD PUSH2 0x28E SWAP2 SWAP1 PUSH2 0x1749 JUMP JUMPDEST PUSH1 0x40 MLOAD DUP1 SWAP2 SUB SWAP1 RETURN JUMPDEST PUSH2 0x29F PUSH2 0xC1D JUMP JUMPDEST PUSH1 0x40 MLOAD PUSH2 0x2AC SWAP2 SWAP1 PUSH2 0x155E JUMP JUMPDEST PUSH1 0x40 MLOAD DUP1 SWAP2 SUB SWAP1 RETURN JUMPDEST PUSH2 0x2CF PUSH1 0x4 DUP1 CALLDATASIZE SUB DUP2 ADD SWAP1 PUSH2 0x2CA SWAP2 SWAP1 PUSH2 0x1619 JUMP JUMPDEST PUSH2 0xC56 JUMP JUMPDEST PUSH1 0x40 MLOAD PUSH2 0x2DC SWAP2 SWAP1 PUSH2 0x14B3 JUMP JUMPDEST PUSH1 0x40 MLOAD DUP1 SWAP2 SUB SWAP1 RETURN JUMPDEST PUSH2 0x2FF PUSH1 0x4 DUP1 CALLDATASIZE SUB DUP2 ADD SWAP1 PUSH2 0x2FA SWAP2 SWAP1 PUSH2 0x1764 JUMP JUMPDEST PUSH2 0xEAB JUMP JUMPDEST PUSH1 0x40 MLOAD PUSH2 0x30C SWAP2 SWAP1 PUSH2 0x14B3 JUMP JUMPDEST PUSH1 0x40 MLOAD DUP1 SWAP2 SUB SWAP1 RETURN JUMPDEST PUSH2 0x32F PUSH1 0x4 DUP1 CALLDATASIZE SUB DUP2 ADD SWAP1 PUSH2 0x32A SWAP2 SWAP1 PUSH2 0x17CB JUMP JUMPDEST PUSH2 0x12D0 JUMP JUMPDEST PUSH1 0x40 MLOAD PUSH2 0x33C SWAP2 SWAP1 PUSH2 0x1668 JUMP JUMPDEST PUSH1 0x40 MLOAD DUP1 SWAP2 SUB SWAP1 RETURN JUMPDEST PUSH2 0x35F PUSH1 0x4 DUP1 CALLDATASIZE SUB DUP2 ADD SWAP1 PUSH2 0x35A SWAP2 SWAP1 PUSH2 0x1683 JUMP JUMPDEST PUSH2 0x1357 JUMP JUMPDEST PUSH1 0x40 MLOAD PUSH2 0x36C SWAP2 SWAP1 PUSH2 0x14B3 JUMP JUMPDEST PUSH1 0x40 MLOAD DUP1 SWAP2 SUB SWAP1 RETURN JUMPDEST PUSH1 0x0 DUP1 SLOAD SWAP1 PUSH2 0x100 EXP SWAP1 DIV PUSH1 0xFF AND DUP2 JUMP JUMPDEST PUSH1 0x40 MLOAD DUP1 PUSH1 0x40 ADD PUSH1 0x40 MSTORE DUP1 PUSH1 0x9 DUP2 MSTORE PUSH1 0x20 ADD PUSH32 0x44696365546F6B656E0000000000000000000000000000000000000000000000 DUP2 MSTORE POP DUP2 JUMP JUMPDEST PUSH1 0x0 DUP2 PUSH1 0x1 PUSH1 0x0 CALLER PUSH20 0xFFFFFFFFFFFFFFFFFFFFFFFFFFFFFFFFFFFFFFFF AND PUSH20 0xFFFFFFFFFFFFFFFFFFFFFFFFFFFFFFFFFFFFFFFF AND DUP2 MSTORE PUSH1 0x20 ADD SWAP1 DUP2 MSTORE PUSH1 0x20 ADD PUSH1 0x0 KECCAK256 PUSH1 0x0 DUP6 PUSH20 0xFFFFFFFFFFFFFFFFFFFFFFFFFFFFFFFFFFFFFFFF AND PUSH20 0xFFFFFFFFFFFFFFFFFFFFFFFFFFFFFFFFFFFFFFFF AND DUP2 MSTORE PUSH1 0x20 ADD SWAP1 DUP2 MSTORE PUSH1 0x20 ADD PUSH1 0x0 KECCAK256 DUP2 SWAP1 SSTORE POP DUP3 PUSH20 0xFFFFFFFFFFFFFFFFFFFFFFFFFFFFFFFFFFFFFFFF AND CALLER PUSH20 0xFFFFFFFFFFFFFFFFFFFFFFFFFFFFFFFFFFFFFFFF AND PUSH32 0x8C5BE1E5EBEC7D5BD14F71427D1E84F3DD0314C0F7B2291E5B200AC8C7C3B925 DUP5 PUSH1 0x40 MLOAD PUSH2 0x49F SWAP2 SWAP1 PUSH2 0x1668 JUMP JUMPDEST PUSH1 0x40 MLOAD DUP1 SWAP2 SUB SWAP1 LOG3 PUSH1 0x1 SWAP1 POP SWAP3 SWAP2 POP POP JUMP JUMPDEST PUSH1 0x0 PUSH1 0x3 SLOAD SWAP1 POP SWAP1 JUMP JUMPDEST PUSH1 0x0 DUP1 PUSH20 0xFFFFFFFFFFFFFFFFFFFFFFFFFFFFFFFFFFFFFFFF AND DUP4 PUSH20 0xFFFFFFFFFFFFFFFFFFFFFFFFFFFFFFFFFFFFFFFF AND SUB PUSH2 0x4F5 JUMPI PUSH1 0x0 DUP1 REVERT JUMPDEST PUSH1 0x2 PUSH1 0x0 DUP6 PUSH20 0xFFFFFFFFFFFFFFFFFFFFFFFFFFFFFFFFFFFFFFFF AND PUSH20 0xFFFFFFFFFFFFFFFFFFFFFFFFFFFFFFFFFFFFFFFF AND DUP2 MSTORE PUSH1 0x20 ADD SWAP1 DUP2 MSTORE PUSH1 0x20 ADD PUSH1 0x0 KECCAK256 SLOAD DUP3 GT ISZERO PUSH2 0x577 JUMPI PUSH1 0x40 MLOAD PUSH32 0x8C379A000000000000000000000000000000000000000000000000000000000 DUP2 MSTORE PUSH1 0x4 ADD PUSH2 0x56E SWAP1 PUSH2 0x1857 JUMP JUMPDEST PUSH1 0x40 MLOAD DUP1 SWAP2 SUB SWAP1 REVERT JUMPDEST PUSH1 0x1 PUSH1 0x0 DUP6 PUSH20 0xFFFFFFFFFFFFFFFFFFFFFFFFFFFFFFFFFFFFFFFF AND PUSH20 0xFFFFFFFFFFFFFFFFFFFFFFFFFFFFFFFFFFFFFFFF AND DUP2 MSTORE PUSH1 0x20 ADD SWAP1 DUP2 MSTORE PUSH1 0x20 ADD PUSH1 0x0 KECCAK256 PUSH1 0x0 ORIGIN PUSH20 0xFFFFFFFFFFFFFFFFFFFFFFFFFFFFFFFFFFFFFFFF AND PUSH20 0xFFFFFFFFFFFFFFFFFFFFFFFFFFFFFFFFFFFFFFFF AND DUP2 MSTORE PUSH1 0x20 ADD SWAP1 DUP2 MSTORE PUSH1 0x20 ADD PUSH1 0x0 KECCAK256 SLOAD DUP3 GT ISZERO PUSH2 0x636 JUMPI PUSH1 0x40 MLOAD PUSH32 0x8C379A000000000000000000000000000000000000000000000000000000000 DUP2 MSTORE PUSH1 0x4 ADD PUSH2 0x62D SWAP1 PUSH2 0x18C3 JUMP JUMPDEST PUSH1 0x40 MLOAD DUP1 SWAP2 SUB SWAP1 REVERT JUMPDEST PUSH2 0x688 DUP3 PUSH1 0x2 PUSH1 0x0 DUP8 PUSH20 0xFFFFFFFFFFFFFFFFFFFFFFFFFFFFFFFFFFFFFFFF AND PUSH20 0xFFFFFFFFFFFFFFFFFFFFFFFFFFFFFFFFFFFFFFFF AND DUP2 MSTORE PUSH1 0x20 ADD SWAP1 DUP2 MSTORE PUSH1 0x20 ADD PUSH1 0x0 KECCAK256 SLOAD PUSH2 0x144A SWAP1 SWAP2 SWAP1 PUSH4 0xFFFFFFFF AND JUMP JUMPDEST PUSH1 0x2 PUSH1 0x0 DUP7 PUSH20 0xFFFFFFFFFFFFFFFFFFFFFFFFFFFFFFFFFFFFFFFF AND PUSH20 0xFFFFFFFFFFFFFFFFFFFFFFFFFFFFFFFFFFFFFFFF AND DUP2 MSTORE PUSH1 0x20 ADD SWAP1 DUP2 MSTORE PUSH1 0x20 ADD PUSH1 0x0 KECCAK256 DUP2 SWAP1 SSTORE POP PUSH2 0x71D DUP3 PUSH1 0x2 PUSH1 0x0 DUP7 PUSH20 0xFFFFFFFFFFFFFFFFFFFFFFFFFFFFFFFFFFFFFFFF AND PUSH20 0xFFFFFFFFFFFFFFFFFFFFFFFFFFFFFFFFFFFFFFFF AND DUP2 MSTORE PUSH1 0x20 ADD SWAP1 DUP2 MSTORE PUSH1 0x20 ADD PUSH1 0x0 KECCAK256 SLOAD PUSH2 0x1471 SWAP1 SWAP2 SWAP1 PUSH4 0xFFFFFFFF AND JUMP JUMPDEST PUSH1 0x2 PUSH1 0x0 DUP6 PUSH20 0xFFFFFFFFFFFFFFFFFFFFFFFFFFFFFFFFFFFFFFFF AND PUSH20 0xFFFFFFFFFFFFFFFFFFFFFFFFFFFFFFFFFFFFFFFF AND DUP2 MSTORE PUSH1 0x20 ADD SWAP1 DUP2 MSTORE PUSH1 0x20 ADD PUSH1 0x0 KECCAK256 DUP2 SWAP1 SSTORE POP PUSH2 0x7EF DUP3 PUSH1 0x1 PUSH1 0x0 DUP8 PUSH20 0xFFFFFFFFFFFFFFFFFFFFFFFFFFFFFFFFFFFFFFFF AND PUSH20 0xFFFFFFFFFFFFFFFFFFFFFFFFFFFFFFFFFFFFFFFF AND DUP2 MSTORE PUSH1 0x20 ADD SWAP1 DUP2 MSTORE PUSH1 0x20 ADD PUSH1 0x0 KECCAK256 PUSH1 0x0 ORIGIN PUSH20 0xFFFFFFFFFFFFFFFFFFFFFFFFFFFFFFFFFFFFFFFF AND PUSH20 0xFFFFFFFFFFFFFFFFFFFFFFFFFFFFFFFFFFFFFFFF AND DUP2 MSTORE PUSH1 0x20 ADD SWAP1 DUP2 MSTORE PUSH1 0x20 ADD PUSH1 0x0 KECCAK256 SLOAD PUSH2 0x144A SWAP1 SWAP2 SWAP1 PUSH4 0xFFFFFFFF AND JUMP JUMPDEST PUSH1 0x1 PUSH1 0x0 DUP7 PUSH20 0xFFFFFFFFFFFFFFFFFFFFFFFFFFFFFFFFFFFFFFFF AND PUSH20 0xFFFFFFFFFFFFFFFFFFFFFFFFFFFFFFFFFFFFFFFF AND DUP2 MSTORE PUSH1 0x20 ADD SWAP1 DUP2 MSTORE PUSH1 0x20 ADD PUSH1 0x0 KECCAK256 PUSH1 0x0 ORIGIN PUSH20 0xFFFFFFFFFFFFFFFFFFFFFFFFFFFFFFFFFFFFFFFF AND PUSH20 0xFFFFFFFFFFFFFFFFFFFFFFFFFFFFFFFFFFFFFFFF AND DUP2 MSTORE PUSH1 0x20 ADD SWAP1 DUP2 MSTORE PUSH1 0x20 ADD PUSH1 0x0 KECCAK256 DUP2 SWAP1 SSTORE POP DUP3 PUSH20 0xFFFFFFFFFFFFFFFFFFFFFFFFFFFFFFFFFFFFFFFF AND DUP5 PUSH20 0xFFFFFFFFFFFFFFFFFFFFFFFFFFFFFFFFFFFFFFFF AND PUSH32 0xDDF252AD1BE2C89B69C2B068FC378DAA952BA7F163C4A11628F55A4DF523B3EF DUP5 PUSH1 0x40 MLOAD PUSH2 0x8CC SWAP2 SWAP1 PUSH2 0x1668 JUMP JUMPDEST PUSH1 0x40 MLOAD DUP1 SWAP2 SUB SWAP1 LOG3 PUSH1 0x1 SWAP1 POP SWAP4 SWAP3 POP POP POP JUMP JUMPDEST PUSH1 0x12 DUP2 JUMP JUMPDEST PUSH1 0x0 DUP1 PUSH1 0x1 SWAP1 SLOAD SWAP1 PUSH2 0x100 EXP SWAP1 DIV PUSH20 0xFFFFFFFFFFFFFFFFFFFFFFFFFFFFFFFFFFFFFFFF AND PUSH20 0xFFFFFFFFFFFFFFFFFFFFFFFFFFFFFFFFFFFFFFFF AND CALLER PUSH20 0xFFFFFFFFFFFFFFFFFFFFFFFFFFFFFFFFFFFFFFFF AND EQ PUSH2 0x93F JUMPI PUSH1 0x0 DUP1 REVERT JUMPDEST PUSH1 0x0 DUP1 SLOAD SWAP1 PUSH2 0x100 EXP SWAP1 DIV PUSH1 0xFF AND ISZERO PUSH2 0x957 JUMPI PUSH1 0x0 DUP1 REVERT JUMPDEST PUSH2 0x96C DUP3 PUSH1 0x3 SLOAD PUSH2 0x1471 SWAP1 SWAP2 SWAP1 PUSH4 0xFFFFFFFF AND JUMP JUMPDEST PUSH1 0x3 DUP2 SWAP1 SSTORE POP PUSH2 0x9C4 DUP3 PUSH1 0x2 PUSH1 0x0 DUP7 PUSH20 0xFFFFFFFFFFFFFFFFFFFFFFFFFFFFFFFFFFFFFFFF AND PUSH20 0xFFFFFFFFFFFFFFFFFFFFFFFFFFFFFFFFFFFFFFFF AND DUP2 MSTORE PUSH1 0x20 ADD SWAP1 DUP2 MSTORE PUSH1 0x20 ADD PUSH1 0x0 KECCAK256 SLOAD PUSH2 0x1471 SWAP1 SWAP2 SWAP1 PUSH4 0xFFFFFFFF AND JUMP JUMPDEST PUSH1 0x2 PUSH1 0x0 DUP6 PUSH20 0xFFFFFFFFFFFFFFFFFFFFFFFFFFFFFFFFFFFFFFFF AND PUSH20 0xFFFFFFFFFFFFFFFFFFFFFFFFFFFFFFFFFFFFFFFF AND DUP2 MSTORE PUSH1 0x20 ADD SWAP1 DUP2 MSTORE PUSH1 0x20 ADD PUSH1 0x0 KECCAK256 DUP2 SWAP1 SSTORE POP DUP3 PUSH20 0xFFFFFFFFFFFFFFFFFFFFFFFFFFFFFFFFFFFFFFFF AND PUSH32 0xF6798A560793A54C3BCFE86A93CDE1E73087D944C0EA20544137D4121396885 DUP4 PUSH1 0x40 MLOAD PUSH2 0xA4D SWAP2 SWAP1 PUSH2 0x1668 JUMP JUMPDEST PUSH1 0x40 MLOAD DUP1 SWAP2 SUB SWAP1 LOG2 DUP3 PUSH20 0xFFFFFFFFFFFFFFFFFFFFFFFFFFFFFFFFFFFFFFFF AND PUSH1 0x0 PUSH20 0xFFFFFFFFFFFFFFFFFFFFFFFFFFFFFFFFFFFFFFFF AND PUSH32 0xDDF252AD1BE2C89B69C2B068FC378DAA952BA7F163C4A11628F55A4DF523B3EF DUP5 PUSH1 0x40 MLOAD PUSH2 0xAB3 SWAP2 SWAP1 PUSH2 0x1668 JUMP JUMPDEST PUSH1 0x40 MLOAD DUP1 SWAP2 SUB SWAP1 LOG3 PUSH1 0x1 SWAP1 POP SWAP3 SWAP2 POP POP JUMP JUMPDEST PUSH1 0x0 PUSH1 0x2 PUSH1 0x0 DUP4 PUSH20 0xFFFFFFFFFFFFFFFFFFFFFFFFFFFFFFFFFFFFFFFF AND PUSH20 0xFFFFFFFFFFFFFFFFFFFFFFFFFFFFFFFFFFFFFFFF AND DUP2 MSTORE PUSH1 0x20 ADD SWAP1 DUP2 MSTORE PUSH1 0x20 ADD PUSH1 0x0 KECCAK256 SLOAD SWAP1 POP SWAP2 SWAP1 POP JUMP JUMPDEST PUSH1 0x0 DUP1 PUSH1 0x1 SWAP1 SLOAD SWAP1 PUSH2 0x100 EXP SWAP1 DIV PUSH20 0xFFFFFFFFFFFFFFFFFFFFFFFFFFFFFFFFFFFFFFFF AND PUSH20 0xFFFFFFFFFFFFFFFFFFFFFFFFFFFFFFFFFFFFFFFF AND CALLER PUSH20 0xFFFFFFFFFFFFFFFFFFFFFFFFFFFFFFFFFFFFFFFF AND EQ PUSH2 0xB69 JUMPI PUSH1 0x0 DUP1 REVERT JUMPDEST PUSH1 0x0 DUP1 SLOAD SWAP1 PUSH2 0x100 EXP SWAP1 DIV PUSH1 0xFF AND ISZERO PUSH2 0xB81 JUMPI PUSH1 0x0 DUP1 REVERT JUMPDEST PUSH1 0x1 PUSH1 0x0 DUP1 PUSH2 0x100 EXP DUP2 SLOAD DUP2 PUSH1 0xFF MUL NOT AND SWAP1 DUP4 ISZERO ISZERO MUL OR SWAP1 SSTORE POP PUSH32 0xAE5184FBA832CB2B1F702ACA6117B8D265EAF03AD33EB133F19DDE0F5920FA08 PUSH1 0x40 MLOAD PUSH1 0x40 MLOAD DUP1 SWAP2 SUB SWAP1 LOG1 PUSH1 0x1 SWAP1 POP SWAP1 JUMP JUMPDEST PUSH1 0x0 DUP1 PUSH1 0x1 SWAP1 SLOAD SWAP1 PUSH2 0x100 EXP SWAP1 DIV PUSH20 0xFFFFFFFFFFFFFFFFFFFFFFFFFFFFFFFFFFFFFFFF AND SWAP1 POP SWAP1 JUMP JUMPDEST PUSH1 0x0 PUSH1 0x1 SWAP1 SLOAD SWAP1 PUSH2 0x100 EXP SWAP1 DIV PUSH20 0xFFFFFFFFFFFFFFFFFFFFFFFFFFFFFFFFFFFFFFFF AND DUP2 JUMP JUMPDEST PUSH1 0x40 MLOAD DUP1 PUSH1 0x40 ADD PUSH1 0x40 MSTORE DUP1 PUSH1 0x2 DUP2 MSTORE PUSH1 0x20 ADD PUSH32 0x4454000000000000000000000000000000000000000000000000000000000000 DUP2 MSTORE POP DUP2 JUMP JUMPDEST PUSH1 0x0 DUP1 PUSH20 0xFFFFFFFFFFFFFFFFFFFFFFFFFFFFFFFFFFFFFFFF AND DUP4 PUSH20 0xFFFFFFFFFFFFFFFFFFFFFFFFFFFFFFFFFFFFFFFF AND SUB PUSH2 0xC90 JUMPI PUSH1 0x0 DUP1 REVERT JUMPDEST PUSH1 0x2 PUSH1 0x0 ORIGIN PUSH20 0xFFFFFFFFFFFFFFFFFFFFFFFFFFFFFFFFFFFFFFFF AND PUSH20 0xFFFFFFFFFFFFFFFFFFFFFFFFFFFFFFFFFFFFFFFF AND DUP2 MSTORE PUSH1 0x20 ADD SWAP1 DUP2 MSTORE PUSH1 0x20 ADD PUSH1 0x0 KECCAK256 SLOAD DUP3 GT ISZERO PUSH2 0xD12 JUMPI PUSH1 0x40 MLOAD PUSH32 0x8C379A000000000000000000000000000000000000000000000000000000000 DUP2 MSTORE PUSH1 0x4 ADD PUSH2 0xD09 SWAP1 PUSH2 0x1955 JUMP JUMPDEST PUSH1 0x40 MLOAD DUP1 SWAP2 SUB SWAP1 REVERT JUMPDEST PUSH2 0xD64 DUP3 PUSH1 0x2 PUSH1 0x0 ORIGIN PUSH20 0xFFFFFFFFFFFFFFFFFFFFFFFFFFFFFFFFFFFFFFFF AND PUSH20 0xFFFFFFFFFFFFFFFFFFFFFFFFFFFFFFFFFFFFFFFF AND DUP2 MSTORE PUSH1 0x20 ADD SWAP1 DUP2 MSTORE PUSH1 0x20 ADD PUSH1 0x0 KECCAK256 SLOAD PUSH2 0x144A SWAP1 SWAP2 SWAP1 PUSH4 0xFFFFFFFF AND JUMP JUMPDEST PUSH1 0x2 PUSH1 0x0 ORIGIN PUSH20 0xFFFFFFFFFFFFFFFFFFFFFFFFFFFFFFFFFFFFFFFF AND PUSH20 0xFFFFFFFFFFFFFFFFFFFFFFFFFFFFFFFFFFFFFFFF AND DUP2 MSTORE PUSH1 0x20 ADD SWAP1 DUP2 MSTORE PUSH1 0x20 ADD PUSH1 0x0 KECCAK256 DUP2 SWAP1 SSTORE POP PUSH2 0xDF9 DUP3 PUSH1 0x2 PUSH1 0x0 DUP7 PUSH20 0xFFFFFFFFFFFFFFFFFFFFFFFFFFFFFFFFFFFFFFFF AND PUSH20 0xFFFFFFFFFFFFFFFFFFFFFFFFFFFFFFFFFFFFFFFF AND DUP2 MSTORE PUSH1 0x20 ADD SWAP1 DUP2 MSTORE PUSH1 0x20 ADD PUSH1 0x0 KECCAK256 SLOAD PUSH2 0x1471 SWAP1 SWAP2 SWAP1 PUSH4 0xFFFFFFFF AND JUMP JUMPDEST PUSH1 0x2 PUSH1 0x0 DUP6 PUSH20 0xFFFFFFFFFFFFFFFFFFFFFFFFFFFFFFFFFFFFFFFF AND PUSH20 0xFFFFFFFFFFFFFFFFFFFFFFFFFFFFFFFFFFFFFFFF AND DUP2 MSTORE PUSH1 0x20 ADD SWAP1 DUP2 MSTORE PUSH1 0x20 ADD PUSH1 0x0 KECCAK256 DUP2 SWAP1 SSTORE POP DUP3 PUSH20 0xFFFFFFFFFFFFFFFFFFFFFFFFFFFFFFFFFFFFFFFF AND ORIGIN PUSH20 0xFFFFFFFFFFFFFFFFFFFFFFFFFFFFFFFFFFFFFFFF AND PUSH32 0xDDF252AD1BE2C89B69C2B068FC378DAA952BA7F163C4A11628F55A4DF523B3EF DUP5 PUSH1 0x40 MLOAD PUSH2 0xE99 SWAP2 SWAP1 PUSH2 0x1668 JUMP JUMPDEST PUSH1 0x40 MLOAD DUP1 SWAP2 SUB SWAP1 LOG3 PUSH1 0x1 SWAP1 POP SWAP3 SWAP2 POP POP JUMP JUMPDEST PUSH1 0x0 DUP1 PUSH20 0xFFFFFFFFFFFFFFFFFFFFFFFFFFFFFFFFFFFFFFFF AND DUP4 PUSH20 0xFFFFFFFFFFFFFFFFFFFFFFFFFFFFFFFFFFFFFFFF AND SUB PUSH2 0xEE5 JUMPI PUSH1 0x0 DUP1 REVERT JUMPDEST PUSH1 0x2 PUSH1 0x0 DUP7 PUSH20 0xFFFFFFFFFFFFFFFFFFFFFFFFFFFFFFFFFFFFFFFF AND PUSH20 0xFFFFFFFFFFFFFFFFFFFFFFFFFFFFFFFFFFFFFFFF AND DUP2 MSTORE PUSH1 0x20 ADD SWAP1 DUP2 MSTORE PUSH1 0x20 ADD PUSH1 0x0 KECCAK256 SLOAD DUP3 GT ISZERO PUSH2 0xF67 JUMPI PUSH1 0x40 MLOAD PUSH32 0x8C379A000000000000000000000000000000000000000000000000000000000 DUP2 MSTORE PUSH1 0x4 ADD PUSH2 0xF5E SWAP1 PUSH2 0x1857 JUMP JUMPDEST PUSH1 0x40 MLOAD DUP1 SWAP2 SUB SWAP1 REVERT JUMPDEST PUSH1 0x1 PUSH1 0x0 DUP7 PUSH20 0xFFFFFFFFFFFFFFFFFFFFFFFFFFFFFFFFFFFFFFFF AND PUSH20 0xFFFFFFFFFFFFFFFFFFFFFFFFFFFFFFFFFFFFFFFF AND DUP2 MSTORE PUSH1 0x20 ADD SWAP1 DUP2 MSTORE PUSH1 0x20 ADD PUSH1 0x0 KECCAK256 PUSH1 0x0 DUP6 PUSH20 0xFFFFFFFFFFFFFFFFFFFFFFFFFFFFFFFFFFFFFFFF AND PUSH20 0xFFFFFFFFFFFFFFFFFFFFFFFFFFFFFFFFFFFFFFFF AND DUP2 MSTORE PUSH1 0x20 ADD SWAP1 DUP2 MSTORE PUSH1 0x20 ADD PUSH1 0x0 KECCAK256 SLOAD DUP3 GT ISZERO PUSH2 0x1026 JUMPI PUSH1 0x40 MLOAD PUSH32 0x8C379A000000000000000000000000000000000000000000000000000000000 DUP2 MSTORE PUSH1 0x4 ADD PUSH2 0x101D SWAP1 PUSH2 0x18C3 JUMP JUMPDEST PUSH1 0x40 MLOAD DUP1 SWAP2 SUB SWAP1 REVERT JUMPDEST PUSH2 0x1078 DUP3 PUSH1 0x2 PUSH1 0x0 DUP9 PUSH20 0xFFFFFFFFFFFFFFFFFFFFFFFFFFFFFFFFFFFFFFFF AND PUSH20 0xFFFFFFFFFFFFFFFFFFFFFFFFFFFFFFFFFFFFFFFF AND DUP2 MSTORE PUSH1 0x20 ADD SWAP1 DUP2 MSTORE PUSH1 0x20 ADD PUSH1 0x0 KECCAK256 SLOAD PUSH2 0x144A SWAP1 SWAP2 SWAP1 PUSH4 0xFFFFFFFF AND JUMP JUMPDEST PUSH1 0x2 PUSH1 0x0 DUP8 PUSH20 0xFFFFFFFFFFFFFFFFFFFFFFFFFFFFFFFFFFFFFFFF AND PUSH20 0xFFFFFFFFFFFFFFFFFFFFFFFFFFFFFFFFFFFFFFFF AND DUP2 MSTORE PUSH1 0x20 ADD SWAP1 DUP2 MSTORE PUSH1 0x20 ADD PUSH1 0x0 KECCAK256 DUP2 SWAP1 SSTORE POP PUSH2 0x110D DUP3 PUSH1 0x2 PUSH1 0x0 DUP7 PUSH20 0xFFFFFFFFFFFFFFFFFFFFFFFFFFFFFFFFFFFFFFFF AND PUSH20 0xFFFFFFFFFFFFFFFFFFFFFFFFFFFFFFFFFFFFFFFF AND DUP2 MSTORE PUSH1 0x20 ADD SWAP1 DUP2 MSTORE PUSH1 0x20 ADD PUSH1 0x0 KECCAK256 SLOAD PUSH2 0x1471 SWAP1 SWAP2 SWAP1 PUSH4 0xFFFFFFFF AND JUMP JUMPDEST PUSH1 0x2 PUSH1 0x0 DUP6 PUSH20 0xFFFFFFFFFFFFFFFFFFFFFFFFFFFFFFFFFFFFFFFF AND PUSH20 0xFFFFFFFFFFFFFFFFFFFFFFFFFFFFFFFFFFFFFFFF AND DUP2 MSTORE PUSH1 0x20 ADD SWAP1 DUP2 MSTORE PUSH1 0x20 ADD PUSH1 0x0 KECCAK256 DUP2 SWAP1 SSTORE POP PUSH2 0x11DF DUP3 PUSH1 0x1 PUSH1 0x0 DUP9 PUSH20 0xFFFFFFFFFFFFFFFFFFFFFFFFFFFFFFFFFFFFFFFF AND PUSH20 0xFFFFFFFFFFFFFFFFFFFFFFFFFFFFFFFFFFFFFFFF AND DUP2 MSTORE PUSH1 0x20 ADD SWAP1 DUP2 MSTORE PUSH1 0x20 ADD PUSH1 0x0 KECCAK256 PUSH1 0x0 DUP8 PUSH20 0xFFFFFFFFFFFFFFFFFFFFFFFFFFFFFFFFFFFFFFFF AND PUSH20 0xFFFFFFFFFFFFFFFFFFFFFFFFFFFFFFFFFFFFFFFF AND DUP2 MSTORE PUSH1 0x20 ADD SWAP1 DUP2 MSTORE PUSH1 0x20 ADD PUSH1 0x0 KECCAK256 SLOAD PUSH2 0x144A SWAP1 SWAP2 SWAP1 PUSH4 0xFFFFFFFF AND JUMP JUMPDEST PUSH1 0x1 PUSH1 0x0 DUP8 PUSH20 0xFFFFFFFFFFFFFFFFFFFFFFFFFFFFFFFFFFFFFFFF AND PUSH20 0xFFFFFFFFFFFFFFFFFFFFFFFFFFFFFFFFFFFFFFFF AND DUP2 MSTORE PUSH1 0x20 ADD SWAP1 DUP2 MSTORE PUSH1 0x20 ADD PUSH1 0x0 KECCAK256 PUSH1 0x0 DUP7 PUSH20 0xFFFFFFFFFFFFFFFFFFFFFFFFFFFFFFFFFFFFFFFF AND PUSH20 0xFFFFFFFFFFFFFFFFFFFFFFFFFFFFFFFFFFFFFFFF AND DUP2 MSTORE PUSH1 0x20 ADD SWAP1 DUP2 MSTORE PUSH1 0x20 ADD PUSH1 0x0 KECCAK256 DUP2 SWAP1 SSTORE POP DUP3 PUSH20 0xFFFFFFFFFFFFFFFFFFFFFFFFFFFFFFFFFFFFFFFF AND DUP6 PUSH20 0xFFFFFFFFFFFFFFFFFFFFFFFFFFFFFFFFFFFFFFFF AND PUSH32 0xDDF252AD1BE2C89B69C2B068FC378DAA952BA7F163C4A11628F55A4DF523B3EF DUP5 PUSH1 0x40 MLOAD PUSH2 0x12BC SWAP2 SWAP1 PUSH2 0x1668 JUMP JUMPDEST PUSH1 0x40 MLOAD DUP1 SWAP2 SUB SWAP1 LOG3 PUSH1 0x1 SWAP1 POP SWAP5 SWAP4 POP POP POP POP JUMP JUMPDEST PUSH1 0x0 PUSH1 0x1 PUSH1 0x0 DUP5 PUSH20 0xFFFFFFFFFFFFFFFFFFFFFFFFFFFFFFFFFFFFFFFF AND PUSH20 0xFFFFFFFFFFFFFFFFFFFFFFFFFFFFFFFFFFFFFFFF AND DUP2 MSTORE PUSH1 0x20 ADD SWAP1 DUP2 MSTORE PUSH1 0x20 ADD PUSH1 0x0 KECCAK256 PUSH1 0x0 DUP4 PUSH20 0xFFFFFFFFFFFFFFFFFFFFFFFFFFFFFFFFFFFFFFFF AND PUSH20 0xFFFFFFFFFFFFFFFFFFFFFFFFFFFFFFFFFFFFFFFF AND DUP2 MSTORE PUSH1 0x20 ADD SWAP1 DUP2 MSTORE PUSH1 0x20 ADD PUSH1 0x0 KECCAK256 SLOAD SWAP1 POP SWAP3 SWAP2 POP POP JUMP JUMPDEST PUSH1 0x0 DUP2 PUSH1 0x1 PUSH1 0x0 DUP7 PUSH20 0xFFFFFFFFFFFFFFFFFFFFFFFFFFFFFFFFFFFFFFFF AND PUSH20 0xFFFFFFFFFFFFFFFFFFFFFFFFFFFFFFFFFFFFFFFF AND DUP2 MSTORE PUSH1 0x20 ADD SWAP1 DUP2 MSTORE PUSH1 0x20 ADD PUSH1 0x0 KECCAK256 PUSH1 0x0 DUP6 PUSH20 0xFFFFFFFFFFFFFFFFFFFFFFFFFFFFFFFFFFFFFFFF AND PUSH20 0xFFFFFFFFFFFFFFFFFFFFFFFFFFFFFFFFFFFFFFFF AND DUP2 MSTORE PUSH1 0x20 ADD SWAP1 DUP2 MSTORE PUSH1 0x20 ADD PUSH1 0x0 KECCAK256 DUP2 SWAP1 SSTORE POP DUP3 PUSH20 0xFFFFFFFFFFFFFFFFFFFFFFFFFFFFFFFFFFFFFFFF AND DUP5 PUSH20 0xFFFFFFFFFFFFFFFFFFFFFFFFFFFFFFFFFFFFFFFF AND PUSH32 0x8C5BE1E5EBEC7D5BD14F71427D1E84F3DD0314C0F7B2291E5B200AC8C7C3B925 DUP5 PUSH1 0x40 MLOAD PUSH2 0x1437 SWAP2 SWAP1 PUSH2 0x1668 JUMP JUMPDEST PUSH1 0x40 MLOAD DUP1 SWAP2 SUB SWAP1 LOG3 PUSH1 0x1 SWAP1 POP SWAP4 SWAP3 POP POP POP JUMP JUMPDEST PUSH1 0x0 DUP3 DUP3 GT ISZERO PUSH2 0x145D JUMPI PUSH2 0x145C PUSH2 0x1975 JUMP JUMPDEST JUMPDEST DUP2 DUP4 PUSH2 0x1469 SWAP2 SWAP1 PUSH2 0x19D3 JUMP JUMPDEST SWAP1 POP SWAP3 SWAP2 POP POP JUMP JUMPDEST PUSH1 0x0 DUP2 DUP4 PUSH2 0x147F SWAP2 SWAP1 PUSH2 0x1A07 JUMP JUMPDEST SWAP1 POP DUP3 DUP2 LT ISZERO PUSH2 0x1492 JUMPI PUSH2 0x1491 PUSH2 0x1975 JUMP JUMPDEST JUMPDEST SWAP3 SWAP2 POP POP JUMP JUMPDEST PUSH1 0x0 DUP2 ISZERO ISZERO SWAP1 POP SWAP2 SWAP1 POP JUMP JUMPDEST PUSH2 0x14AD DUP2 PUSH2 0x1498 JUMP JUMPDEST DUP3 MSTORE POP POP JUMP JUMPDEST PUSH1 0x0 PUSH1 0x20 DUP3 ADD SWAP1 POP PUSH2 0x14C8 PUSH1 0x0 DUP4 ADD DUP5 PUSH2 0x14A4 JUMP JUMPDEST SWAP3 SWAP2 POP POP JUMP JUMPDEST PUSH1 0x0 DUP2 MLOAD SWAP1 POP SWAP2 SWAP1 POP JUMP JUMPDEST PUSH1 0x0 DUP3 DUP3 MSTORE PUSH1 0x20 DUP3 ADD SWAP1 POP SWAP3 SWAP2 POP POP JUMP JUMPDEST PUSH1 0x0 JUMPDEST DUP4 DUP2 LT ISZERO PUSH2 0x1508 JUMPI DUP1 DUP3 ADD MLOAD DUP2 DUP5 ADD MSTORE PUSH1 0x20 DUP2 ADD SWAP1 POP PUSH2 0x14ED JUMP JUMPDEST PUSH1 0x0 DUP5 DUP5 ADD MSTORE POP POP POP POP JUMP JUMPDEST PUSH1 0x0 PUSH1 0x1F NOT PUSH1 0x1F DUP4 ADD AND SWAP1 POP SWAP2 SWAP1 POP JUMP JUMPDEST PUSH1 0x0 PUSH2 0x1530 DUP3 PUSH2 0x14CE JUMP JUMPDEST PUSH2 0x153A DUP2 DUP6 PUSH2 0x14D9 JUMP JUMPDEST SWAP4 POP PUSH2 0x154A DUP2 DUP6 PUSH1 0x20 DUP7 ADD PUSH2 0x14EA JUMP JUMPDEST PUSH2 0x1553 DUP2 PUSH2 0x1514 JUMP JUMPDEST DUP5 ADD SWAP2 POP POP SWAP3 SWAP2 POP POP JUMP JUMPDEST PUSH1 0x0 PUSH1 0x20 DUP3 ADD SWAP1 POP DUP2 DUP2 SUB PUSH1 0x0 DUP4 ADD MSTORE PUSH2 0x1578 DUP2 DUP5 PUSH2 0x1525 JUMP JUMPDEST SWAP1 POP SWAP3 SWAP2 POP POP JUMP JUMPDEST PUSH1 0x0 DUP1 REVERT JUMPDEST PUSH1 0x0 PUSH20 0xFFFFFFFFFFFFFFFFFFFFFFFFFFFFFFFFFFFFFFFF DUP3 AND SWAP1 POP SWAP2 SWAP1 POP JUMP JUMPDEST PUSH1 0x0 PUSH2 0x15B0 DUP3 PUSH2 0x1585 JUMP JUMPDEST SWAP1 POP SWAP2 SWAP1 POP JUMP JUMPDEST PUSH2 0x15C0 DUP2 PUSH2 0x15A5 JUMP JUMPDEST DUP2 EQ PUSH2 0x15CB JUMPI PUSH1 0x0 DUP1 REVERT JUMPDEST POP JUMP JUMPDEST PUSH1 0x0 DUP2 CALLDATALOAD SWAP1 POP PUSH2 0x15DD DUP2 PUSH2 0x15B7 JUMP JUMPDEST SWAP3 SWAP2 POP POP JUMP JUMPDEST PUSH1 0x0 DUP2 SWAP1 POP SWAP2 SWAP1 POP JUMP JUMPDEST PUSH2 0x15F6 DUP2 PUSH2 0x15E3 JUMP JUMPDEST DUP2 EQ PUSH2 0x1601 JUMPI PUSH1 0x0 DUP1 REVERT JUMPDEST POP JUMP JUMPDEST PUSH1 0x0 DUP2 CALLDATALOAD SWAP1 POP PUSH2 0x1613 DUP2 PUSH2 0x15ED JUMP JUMPDEST SWAP3 SWAP2 POP POP JUMP JUMPDEST PUSH1 0x0 DUP1 PUSH1 0x40 DUP4 DUP6 SUB SLT ISZERO PUSH2 0x1630 JUMPI PUSH2 0x162F PUSH2 0x1580 JUMP JUMPDEST JUMPDEST PUSH1 0x0 PUSH2 0x163E DUP6 DUP3 DUP7 ADD PUSH2 0x15CE JUMP JUMPDEST SWAP3 POP POP PUSH1 0x20 PUSH2 0x164F DUP6 DUP3 DUP7 ADD PUSH2 0x1604 JUMP JUMPDEST SWAP2 POP POP SWAP3 POP SWAP3 SWAP1 POP JUMP JUMPDEST PUSH2 0x1662 DUP2 PUSH2 0x15E3 JUMP JUMPDEST DUP3 MSTORE POP POP JUMP JUMPDEST PUSH1 0x0 PUSH1 0x20 DUP3 ADD SWAP1 POP PUSH2 0x167D PUSH1 0x0 DUP4 ADD DUP5 PUSH2 0x1659 JUMP JUMPDEST SWAP3 SWAP2 POP POP JUMP JUMPDEST PUSH1 0x0 DUP1 PUSH1 0x0 PUSH1 0x60 DUP5 DUP7 SUB SLT ISZERO PUSH2 0x169C JUMPI PUSH2 0x169B PUSH2 0x1580 JUMP JUMPDEST JUMPDEST PUSH1 0x0 PUSH2 0x16AA DUP7 DUP3 DUP8 ADD PUSH2 0x15CE JUMP JUMPDEST SWAP4 POP POP PUSH1 0x20 PUSH2 0x16BB DUP7 DUP3 DUP8 ADD PUSH2 0x15CE JUMP JUMPDEST SWAP3 POP POP PUSH1 0x40 PUSH2 0x16CC DUP7 DUP3 DUP8 ADD PUSH2 0x1604 JUMP JUMPDEST SWAP2 POP POP SWAP3 POP SWAP3 POP SWAP3 JUMP JUMPDEST PUSH1 0x0 PUSH1 0xFF DUP3 AND SWAP1 POP SWAP2 SWAP1 POP JUMP JUMPDEST PUSH2 0x16EC DUP2 PUSH2 0x16D6 JUMP JUMPDEST DUP3 MSTORE POP POP JUMP JUMPDEST PUSH1 0x0 PUSH1 0x20 DUP3 ADD SWAP1 POP PUSH2 0x1707 PUSH1 0x0 DUP4 ADD DUP5 PUSH2 0x16E3 JUMP JUMPDEST SWAP3 SWAP2 POP POP JUMP JUMPDEST PUSH1 0x0 PUSH1 0x20 DUP3 DUP5 SUB SLT ISZERO PUSH2 0x1723 JUMPI PUSH2 0x1722 PUSH2 0x1580 JUMP JUMPDEST JUMPDEST PUSH1 0x0 PUSH2 0x1731 DUP5 DUP3 DUP6 ADD PUSH2 0x15CE JUMP JUMPDEST SWAP2 POP POP SWAP3 SWAP2 POP POP JUMP JUMPDEST PUSH2 0x1743 DUP2 PUSH2 0x15A5 JUMP JUMPDEST DUP3 MSTORE POP POP JUMP JUMPDEST PUSH1 0x0 PUSH1 0x20 DUP3 ADD SWAP1 POP PUSH2 0x175E PUSH1 0x0 DUP4 ADD DUP5 PUSH2 0x173A JUMP JUMPDEST SWAP3 SWAP2 POP POP JUMP JUMPDEST PUSH1 0x0 DUP1 PUSH1 0x0 DUP1 PUSH1 0x80 DUP6 DUP8 SUB SLT ISZERO PUSH2 0x177E JUMPI PUSH2 0x177D PUSH2 0x1580 JUMP JUMPDEST JUMPDEST PUSH1 0x0 PUSH2 0x178C DUP8 DUP3 DUP9 ADD PUSH2 0x15CE JUMP JUMPDEST SWAP5 POP POP PUSH1 0x20 PUSH2 0x179D DUP8 DUP3 DUP9 ADD PUSH2 0x15CE JUMP JUMPDEST SWAP4 POP POP PUSH1 0x40 PUSH2 0x17AE DUP8 DUP3 DUP9 ADD PUSH2 0x15CE JUMP JUMPDEST SWAP3 POP POP PUSH1 0x60 PUSH2 0x17BF DUP8 DUP3 DUP9 ADD PUSH2 0x1604 JUMP JUMPDEST SWAP2 POP POP SWAP3 SWAP6 SWAP2 SWAP5 POP SWAP3 POP JUMP JUMPDEST PUSH1 0x0 DUP1 PUSH1 0x40 DUP4 DUP6 SUB SLT ISZERO PUSH2 0x17E2 JUMPI PUSH2 0x17E1 PUSH2 0x1580 JUMP JUMPDEST JUMPDEST PUSH1 0x0 PUSH2 0x17F0 DUP6 DUP3 DUP7 ADD PUSH2 0x15CE JUMP JUMPDEST SWAP3 POP POP PUSH1 0x20 PUSH2 0x1801 DUP6 DUP3 DUP7 ADD PUSH2 0x15CE JUMP JUMPDEST SWAP2 POP POP SWAP3 POP SWAP3 SWAP1 POP JUMP JUMPDEST PUSH32 0x46726F6D20646F65736E2774206861766520656E6F7567682062616C616E6365 PUSH1 0x0 DUP3 ADD MSTORE POP JUMP JUMPDEST PUSH1 0x0 PUSH2 0x1841 PUSH1 0x20 DUP4 PUSH2 0x14D9 JUMP JUMPDEST SWAP2 POP PUSH2 0x184C DUP3 PUSH2 0x180B JUMP JUMPDEST PUSH1 0x20 DUP3 ADD SWAP1 POP SWAP2 SWAP1 POP JUMP JUMPDEST PUSH1 0x0 PUSH1 0x20 DUP3 ADD SWAP1 POP DUP2 DUP2 SUB PUSH1 0x0 DUP4 ADD MSTORE PUSH2 0x1870 DUP2 PUSH2 0x1834 JUMP JUMPDEST SWAP1 POP SWAP2 SWAP1 POP JUMP JUMPDEST PUSH32 0x4E6F7420616C6C6F77656420746F207370656E642074686973206D7563680000 PUSH1 0x0 DUP3 ADD MSTORE POP JUMP JUMPDEST PUSH1 0x0 PUSH2 0x18AD PUSH1 0x1E DUP4 PUSH2 0x14D9 JUMP JUMPDEST SWAP2 POP PUSH2 0x18B8 DUP3 PUSH2 0x1877 JUMP JUMPDEST PUSH1 0x20 DUP3 ADD SWAP1 POP SWAP2 SWAP1 POP JUMP JUMPDEST PUSH1 0x0 PUSH1 0x20 DUP3 ADD SWAP1 POP DUP2 DUP2 SUB PUSH1 0x0 DUP4 ADD MSTORE PUSH2 0x18DC DUP2 PUSH2 0x18A0 JUMP JUMPDEST SWAP1 POP SWAP2 SWAP1 POP JUMP JUMPDEST PUSH32 0x6D73672E73656E64657220646F65736E2774206861766520656E6F7567682062 PUSH1 0x0 DUP3 ADD MSTORE PUSH32 0x616C616E63650000000000000000000000000000000000000000000000000000 PUSH1 0x20 DUP3 ADD MSTORE POP JUMP JUMPDEST PUSH1 0x0 PUSH2 0x193F PUSH1 0x26 DUP4 PUSH2 0x14D9 JUMP JUMPDEST SWAP2 POP PUSH2 0x194A DUP3 PUSH2 0x18E3 JUMP JUMPDEST PUSH1 0x40 DUP3 ADD SWAP1 POP SWAP2 SWAP1 POP JUMP JUMPDEST PUSH1 0x0 PUSH1 0x20 DUP3 ADD SWAP1 POP DUP2 DUP2 SUB PUSH1 0x0 DUP4 ADD MSTORE PUSH2 0x196E DUP2 PUSH2 0x1932 JUMP JUMPDEST SWAP1 POP SWAP2 SWAP1 POP JUMP JUMPDEST PUSH32 0x4E487B7100000000000000000000000000000000000000000000000000000000 PUSH1 0x0 MSTORE PUSH1 0x1 PUSH1 0x4 MSTORE PUSH1 0x24 PUSH1 0x0 REVERT JUMPDEST PUSH32 0x4E487B7100000000000000000000000000000000000000000000000000000000 PUSH1 0x0 MSTORE PUSH1 0x11 PUSH1 0x4 MSTORE PUSH1 0x24 PUSH1 0x0 REVERT JUMPDEST PUSH1 0x0 PUSH2 0x19DE DUP3 PUSH2 0x15E3 JUMP JUMPDEST SWAP2 POP PUSH2 0x19E9 DUP4 PUSH2 0x15E3 JUMP JUMPDEST SWAP3 POP DUP3 DUP3 SUB SWAP1 POP DUP2 DUP2 GT ISZERO PUSH2 0x1A01 JUMPI PUSH2 0x1A00 PUSH2 0x19A4 JUMP JUMPDEST JUMPDEST SWAP3 SWAP2 POP POP JUMP JUMPDEST PUSH1 0x0 PUSH2 0x1A12 DUP3 PUSH2 0x15E3 JUMP JUMPDEST SWAP2 POP PUSH2 0x1A1D DUP4 PUSH2 0x15E3 JUMP JUMPDEST SWAP3 POP DUP3 DUP3 ADD SWAP1 POP DUP1 DUP3 GT ISZERO PUSH2 0x1A35 JUMPI PUSH2 0x1A34 PUSH2 0x19A4 JUMP JUMPDEST JUMPDEST SWAP3 SWAP2 POP POP JUMP INVALID LOG2 PUSH5 0x6970667358 0x22 SLT KECCAK256 SSTORE 0xE5 0xBD MSIZE 0x24 SELFBALANCE 0xB3 0xBD SWAP7 BASEFEE ADD 0xDF 0xD4 0xB4 0xD6 0xD0 PREVRANDAO PUSH23 0x6EE2C9EDF28EC5B03CFAEA41F91764736F6C6343000812 STOP CALLER "
				},
				"gasEstimates": {
					"creation": {
						"codeDepositCost": "742400",
						"executionCost": "infinite",
						"totalCost": "infinite"
					},
					"external": {
						"approve(address,address,uint256)": "infinite",
						"balanceOf(address)": "infinite",
						"checkAllowance(address,address)": "infinite",
						"currentSupply()": "infinite",
						"stopMinting()": "infinite",
						"supplyLimit()": "2452",
						"topUp()": "infinite",
						"transfer(address,uint256)": "infinite",
						"transferFrom(address,address,address,uint256)": "infinite"
					}
				},
				"methodIdentifiers": {
					"approve(address,address,uint256)": "e1f21c67",
					"balanceOf(address)": "70a08231",
					"checkAllowance(address,address)": "8b099b23",
					"currentSupply()": "771282f6",
					"stopMinting()": "3e3e0b12",
					"supplyLimit()": "19d1997a",
					"topUp()": "dc29f1de",
					"transfer(address,uint256)": "a9059cbb",
					"transferFrom(address,address,address,uint256)": "15dacbea"
				}
			},
			"storageLayout": {
				"storage": [
					{
						"astId": 594,
						"contract": "src/RPSToken.sol:RPSToken",
						"label": "erc20Contract",
						"offset": 0,
						"slot": "0",
						"type": "t_contract(ERC20)588"
					},
					{
						"astId": 596,
						"contract": "src/RPSToken.sol:RPSToken",
						"label": "supplyLimit",
						"offset": 0,
						"slot": "1",
						"type": "t_uint256"
					},
					{
						"astId": 598,
						"contract": "src/RPSToken.sol:RPSToken",
						"label": "owner",
						"offset": 0,
						"slot": "2",
						"type": "t_address"
					}
				],
				"types": {
					"t_address": {
						"encoding": "inplace",
						"label": "address",
						"numberOfBytes": "20"
					},
					"t_contract(ERC20)588": {
						"encoding": "inplace",
						"label": "contract ERC20",
						"numberOfBytes": "20"
					},
					"t_uint256": {
						"encoding": "inplace",
						"label": "uint256",
						"numberOfBytes": "32"
					}
				}
			},
			"userdoc": {
				"kind": "user",
				"methods": {},
				"version": 1
			}
		}
	}
}