{
	"src/ERC20.sol": {
		"ERC20": {
			"abi": [
				{
					"anonymous": false,
					"inputs": [
						{
							"indexed": true,
							"internalType": "address",
							"name": "owner",
							"type": "address"
						},
						{
							"indexed": true,
							"internalType": "address",
							"name": "spender",
							"type": "address"
						},
						{
							"indexed": false,
							"internalType": "uint256",
							"name": "value",
							"type": "uint256"
						}
					],
					"name": "Approval",
					"type": "event"
				},
				{
					"anonymous": false,
					"inputs": [
						{
							"indexed": true,
							"internalType": "address",
							"name": "to",
							"type": "address"
						},
						{
							"indexed": false,
							"internalType": "uint256",
							"name": "amount",
							"type": "uint256"
						}
					],
					"name": "Mint",
					"type": "event"
				},
				{
					"anonymous": false,
					"inputs": [],
					"name": "MintFinished",
					"type": "event"
				},
				{
					"anonymous": false,
					"inputs": [
						{
							"indexed": true,
							"internalType": "address",
							"name": "from",
							"type": "address"
						},
						{
							"indexed": true,
							"internalType": "address",
							"name": "to",
							"type": "address"
						},
						{
							"indexed": false,
							"internalType": "uint256",
							"name": "value",
							"type": "uint256"
						}
					],
					"name": "Transfer",
					"type": "event"
				},
				{
					"inputs": [
						{
							"internalType": "address",
							"name": "_owner",
							"type": "address"
						},
						{
							"internalType": "address",
							"name": "_spender",
							"type": "address"
						},
						{
							"internalType": "uint256",
							"name": "_value",
							"type": "uint256"
						}
					],
					"name": "DTapprove",
					"outputs": [
						{
							"internalType": "bool",
							"name": "",
							"type": "bool"
						}
					],
					"stateMutability": "nonpayable",
					"type": "function"
				},
				{
					"inputs": [
						{
							"internalType": "address",
							"name": "_from",
							"type": "address"
						},
						{
							"internalType": "address",
							"name": "_spender",
							"type": "address"
						},
						{
							"internalType": "address",
							"name": "_to",
							"type": "address"
						},
						{
							"internalType": "uint256",
							"name": "_value",
							"type": "uint256"
						}
					],
					"name": "DTtransferFrom",
					"outputs": [
						{
							"internalType": "bool",
							"name": "",
							"type": "bool"
						}
					],
					"stateMutability": "nonpayable",
					"type": "function"
				},
				{
					"inputs": [
						{
							"internalType": "address",
							"name": "_owner",
							"type": "address"
						},
						{
							"internalType": "address",
							"name": "_spender",
							"type": "address"
						}
					],
					"name": "allowance",
					"outputs": [
						{
							"internalType": "uint256",
							"name": "",
							"type": "uint256"
						}
					],
					"stateMutability": "view",
					"type": "function"
				},
				{
					"inputs": [
						{
							"internalType": "address",
							"name": "_spender",
							"type": "address"
						},
						{
							"internalType": "uint256",
							"name": "_value",
							"type": "uint256"
						}
					],
					"name": "approve",
					"outputs": [
						{
							"internalType": "bool",
							"name": "",
							"type": "bool"
						}
					],
					"stateMutability": "nonpayable",
					"type": "function"
				},
				{
					"inputs": [
						{
							"internalType": "address",
							"name": "_owner",
							"type": "address"
						}
					],
					"name": "balanceOf",
					"outputs": [
						{
							"internalType": "uint256",
							"name": "",
							"type": "uint256"
						}
					],
					"stateMutability": "view",
					"type": "function"
				},
				{
					"inputs": [],
					"name": "decimals",
					"outputs": [
						{
							"internalType": "uint8",
							"name": "",
							"type": "uint8"
						}
					],
					"stateMutability": "view",
					"type": "function"
				},
				{
					"inputs": [],
					"name": "finishMinting",
					"outputs": [
						{
							"internalType": "bool",
							"name": "",
							"type": "bool"
						}
					],
					"stateMutability": "nonpayable",
					"type": "function"
				},
				{
					"inputs": [],
					"name": "getOwner",
					"outputs": [
						{
							"internalType": "address",
							"name": "",
							"type": "address"
						}
					],
					"stateMutability": "view",
					"type": "function"
				},
				{
					"inputs": [
						{
							"internalType": "address",
							"name": "_to",
							"type": "address"
						},
						{
							"internalType": "uint256",
							"name": "_amount",
							"type": "uint256"
						}
					],
					"name": "mint",
					"outputs": [
						{
							"internalType": "bool",
							"name": "",
							"type": "bool"
						}
					],
					"stateMutability": "nonpayable",
					"type": "function"
				},
				{
					"inputs": [],
					"name": "mintingFinished",
					"outputs": [
						{
							"internalType": "bool",
							"name": "",
							"type": "bool"
						}
					],
					"stateMutability": "view",
					"type": "function"
				},
				{
					"inputs": [],
					"name": "name",
					"outputs": [
						{
							"internalType": "string",
							"name": "",
							"type": "string"
						}
					],
					"stateMutability": "view",
					"type": "function"
				},
				{
					"inputs": [],
					"name": "owner",
					"outputs": [
						{
							"internalType": "address",
							"name": "",
							"type": "address"
						}
					],
					"stateMutability": "view",
					"type": "function"
				},
				{
					"inputs": [],
					"name": "symbol",
					"outputs": [
						{
							"internalType": "string",
							"name": "",
							"type": "string"
						}
					],
					"stateMutability": "view",
					"type": "function"
				},
				{
					"inputs": [],
					"name": "totalSupply",
					"outputs": [
						{
							"internalType": "uint256",
							"name": "",
							"type": "uint256"
						}
					],
					"stateMutability": "view",
					"type": "function"
				},
				{
					"inputs": [
						{
							"internalType": "address",
							"name": "_to",
							"type": "address"
						},
						{
							"internalType": "uint256",
							"name": "_value",
							"type": "uint256"
						}
					],
					"name": "transfer",
					"outputs": [
						{
							"internalType": "bool",
							"name": "",
							"type": "bool"
						}
					],
					"stateMutability": "nonpayable",
					"type": "function"
				},
				{
					"inputs": [
						{
							"internalType": "address",
							"name": "_from",
							"type": "address"
						},
						{
							"internalType": "address",
							"name": "_to",
							"type": "address"
						},
						{
							"internalType": "uint256",
							"name": "_value",
							"type": "uint256"
						}
					],
					"name": "transferFrom",
					"outputs": [
						{
							"internalType": "bool",
							"name": "",
							"type": "bool"
						}
					],
					"stateMutability": "nonpayable",
					"type": "function"
				}
			],
			"devdoc": {
				"kind": "dev",
				"methods": {
					"allowance(address,address)": {
						"details": "Function to check the amount of tokens that an owner allowed to a spender.",
						"params": {
							"_owner": "address The address which owns the funds.",
							"_spender": "address The address which will spend the funds."
						},
						"returns": {
							"_0": "A uint256 specifying the amount of tokens still available for the spender."
						}
					},
					"approve(address,uint256)": {
						"details": "Approve the passed address to spend the specified amount of tokens on behalf of msg.sender. Beware that changing an allowance with this method brings the risk that someone may use both the old and the new allowance by unfortunate transaction ordering. One possible solution to mitigate this race condition is to first reduce the spender's allowance to 0 and set the desired value afterwards: https://github.com/ethereum/EIPs/issues/20#issuecomment-263524729",
						"params": {
							"_spender": "The address which will spend the funds.",
							"_value": "The amount of tokens to be spent."
						}
					},
					"balanceOf(address)": {
						"details": "Gets the balance of the specified address.",
						"params": {
							"_owner": "The address to query the the balance of."
						},
						"returns": {
							"_0": "An uint256 representing the amount owned by the passed address."
						}
					},
					"finishMinting()": {
						"details": "Function to stop minting new tokens.",
						"returns": {
							"_0": "True if the operation was successful."
						}
					},
					"mint(address,uint256)": {
						"details": "Function to mint tokens",
						"params": {
							"_amount": "The amount of tokens to mint.",
							"_to": "The address that will receive the minted tokens."
						},
						"returns": {
							"_0": "A boolean that indicates if the operation was successful."
						}
					},
					"totalSupply()": {
						"details": "total number of tokens in existence"
					},
					"transfer(address,uint256)": {
						"details": "transfer token for a specified address",
						"params": {
							"_to": "The address to transfer to.",
							"_value": "The amount to be transferred."
						}
					},
					"transferFrom(address,address,uint256)": {
						"details": "Transfer tokens from one address to another",
						"params": {
							"_from": "address The address which you want to send tokens from",
							"_to": "address The address which you want to transfer to",
							"_value": "uint256 the amount of tokens to be transferred"
						}
					}
				},
				"version": 1
			},
			"evm": {
				"assembly": "    /* \"src/ERC20.sol\":1294:6705  contract ERC20 {... */\n  mstore(0x40, 0x80)\n    /* \"src/ERC20.sol\":1382:1387  false */\n  0x00\n    /* \"src/ERC20.sol\":1352:1387  bool public mintingFinished = false */\n  dup1\n  exp(0x0100, 0x00)\n  dup2\n  sload\n  dup2\n  0xff\n  mul\n  not\n  and\n  swap1\n  dup4\n  iszero\n  iszero\n  mul\n  or\n  swap1\n  sstore\n  pop\n    /* \"src/ERC20.sol\":1421:1431  msg.sender */\n  caller\n    /* \"src/ERC20.sol\":1398:1431  address public owner = msg.sender */\n  0x00\n  exp(0x0100, 0x01)\n  dup2\n  sload\n  dup2\n  0xffffffffffffffffffffffffffffffffffffffff\n  mul\n  not\n  and\n  swap1\n  dup4\n  0xffffffffffffffffffffffffffffffffffffffff\n  and\n  mul\n  or\n  swap1\n  sstore\n  pop\n    /* \"src/ERC20.sol\":1294:6705  contract ERC20 {... */\n  callvalue\n  dup1\n  iszero\n  tag_1\n  jumpi\n  0x00\n  dup1\n  revert\ntag_1:\n  pop\n  dataSize(sub_0)\n  dup1\n  dataOffset(sub_0)\n  0x00\n  codecopy\n  0x00\n  return\nstop\n\nsub_0: assembly {\n        /* \"src/ERC20.sol\":1294:6705  contract ERC20 {... */\n      mstore(0x40, 0x80)\n      callvalue\n      dup1\n      iszero\n      tag_1\n      jumpi\n      0x00\n      dup1\n      revert\n    tag_1:\n      pop\n      jumpi(tag_2, lt(calldatasize, 0x04))\n      shr(0xe0, calldataload(0x00))\n      dup1\n      0x7d64bcb4\n      gt\n      tag_19\n      jumpi\n      dup1\n      0xa9059cbb\n      gt\n      tag_20\n      jumpi\n      dup1\n      0xa9059cbb\n      eq\n      tag_15\n      jumpi\n      dup1\n      0xdb05ea05\n      eq\n      tag_16\n      jumpi\n      dup1\n      0xdd62ed3e\n      eq\n      tag_17\n      jumpi\n      dup1\n      0xf0cf209d\n      eq\n      tag_18\n      jumpi\n      jump(tag_2)\n    tag_20:\n      dup1\n      0x7d64bcb4\n      eq\n      tag_11\n      jumpi\n      dup1\n      0x893d20e8\n      eq\n      tag_12\n      jumpi\n      dup1\n      0x8da5cb5b\n      eq\n      tag_13\n      jumpi\n      dup1\n      0x95d89b41\n      eq\n      tag_14\n      jumpi\n      jump(tag_2)\n    tag_19:\n      dup1\n      0x23b872dd\n      gt\n      tag_21\n      jumpi\n      dup1\n      0x23b872dd\n      eq\n      tag_7\n      jumpi\n      dup1\n      0x313ce567\n      eq\n      tag_8\n      jumpi\n      dup1\n      0x40c10f19\n      eq\n      tag_9\n      jumpi\n      dup1\n      0x70a08231\n      eq\n      tag_10\n      jumpi\n      jump(tag_2)\n    tag_21:\n      dup1\n      0x05d2035b\n      eq\n      tag_3\n      jumpi\n      dup1\n      0x06fdde03\n      eq\n      tag_4\n      jumpi\n      dup1\n      0x095ea7b3\n      eq\n      tag_5\n      jumpi\n      dup1\n      0x18160ddd\n      eq\n      tag_6\n      jumpi\n    tag_2:\n      0x00\n      dup1\n      revert\n        /* \"src/ERC20.sol\":1352:1387  bool public mintingFinished = false */\n    tag_3:\n      tag_22\n      tag_23\n      jump\t// in\n    tag_22:\n      mload(0x40)\n      tag_24\n      swap2\n      swap1\n      tag_25\n      jump\t// in\n    tag_24:\n      mload(0x40)\n      dup1\n      swap2\n      sub\n      swap1\n      return\n        /* \"src/ERC20.sol\":1566:1607  string public constant name = \"DiceToken\" */\n    tag_4:\n      tag_26\n      tag_27\n      jump\t// in\n    tag_26:\n      mload(0x40)\n      tag_28\n      swap2\n      swap1\n      tag_29\n      jump\t// in\n    tag_28:\n      mload(0x40)\n      dup1\n      swap2\n      sub\n      swap1\n      return\n        /* \"src/ERC20.sol\":4869:5057  function approve(address _spender, uint256 _value) public returns (bool) {... */\n    tag_5:\n      tag_30\n      0x04\n      dup1\n      calldatasize\n      sub\n      dup2\n      add\n      swap1\n      tag_31\n      swap2\n      swap1\n      tag_32\n      jump\t// in\n    tag_31:\n      tag_33\n      jump\t// in\n    tag_30:\n      mload(0x40)\n      tag_34\n      swap2\n      swap1\n      tag_25\n      jump\t// in\n    tag_34:\n      mload(0x40)\n      dup1\n      swap2\n      sub\n      swap1\n      return\n        /* \"src/ERC20.sol\":2024:2107  function totalSupply() public view returns (uint256) {... */\n    tag_6:\n      tag_35\n      tag_36\n      jump\t// in\n    tag_35:\n      mload(0x40)\n      tag_37\n      swap2\n      swap1\n      tag_38\n      jump\t// in\n    tag_37:\n      mload(0x40)\n      dup1\n      swap2\n      sub\n      swap1\n      return\n        /* \"src/ERC20.sol\":3203:3714  function transferFrom(address _from, address _to, uint256 _value) public returns (bool) {... */\n    tag_7:\n      tag_39\n      0x04\n      dup1\n      calldatasize\n      sub\n      dup2\n      add\n      swap1\n      tag_40\n      swap2\n      swap1\n      tag_41\n      jump\t// in\n    tag_40:\n      tag_42\n      jump\t// in\n    tag_39:\n      mload(0x40)\n      tag_43\n      swap2\n      swap1\n      tag_25\n      jump\t// in\n    tag_43:\n      mload(0x40)\n      dup1\n      swap2\n      sub\n      swap1\n      return\n        /* \"src/ERC20.sol\":1655:1690  uint8 public constant decimals = 18 */\n    tag_8:\n      tag_44\n      tag_45\n      jump\t// in\n    tag_44:\n      mload(0x40)\n      tag_46\n      swap2\n      swap1\n      tag_47\n      jump\t// in\n    tag_46:\n      mload(0x40)\n      dup1\n      swap2\n      sub\n      swap1\n      return\n        /* \"src/ERC20.sol\":5947:6221  function mint(address _to, uint256 _amount) onlyOwner canMint public returns (bool) {... */\n    tag_9:\n      tag_48\n      0x04\n      dup1\n      calldatasize\n      sub\n      dup2\n      add\n      swap1\n      tag_49\n      swap2\n      swap1\n      tag_32\n      jump\t// in\n    tag_49:\n      tag_50\n      jump\t// in\n    tag_48:\n      mload(0x40)\n      tag_51\n      swap2\n      swap1\n      tag_25\n      jump\t// in\n    tag_51:\n      mload(0x40)\n      dup1\n      swap2\n      sub\n      swap1\n      return\n        /* \"src/ERC20.sol\":2313:2412  function balanceOf(address _owner) public view returns (uint256) {... */\n    tag_10:\n      tag_52\n      0x04\n      dup1\n      calldatasize\n      sub\n      dup2\n      add\n      swap1\n      tag_53\n      swap2\n      swap1\n      tag_54\n      jump\t// in\n    tag_53:\n      tag_55\n      jump\t// in\n    tag_52:\n      mload(0x40)\n      tag_56\n      swap2\n      swap1\n      tag_38\n      jump\t// in\n    tag_56:\n      mload(0x40)\n      dup1\n      swap2\n      sub\n      swap1\n      return\n        /* \"src/ERC20.sol\":6335:6475  function finishMinting() onlyOwner canMint public returns (bool) {... */\n    tag_11:\n      tag_57\n      tag_58\n      jump\t// in\n    tag_57:\n      mload(0x40)\n      tag_59\n      swap2\n      swap1\n      tag_25\n      jump\t// in\n    tag_59:\n      mload(0x40)\n      dup1\n      swap2\n      sub\n      swap1\n      return\n        /* \"src/ERC20.sol\":6481:6555  function getOwner() public view returns (address){... */\n    tag_12:\n      tag_60\n      tag_61\n      jump\t// in\n    tag_60:\n      mload(0x40)\n      tag_62\n      swap2\n      swap1\n      tag_63\n      jump\t// in\n    tag_62:\n      mload(0x40)\n      dup1\n      swap2\n      sub\n      swap1\n      return\n        /* \"src/ERC20.sol\":1398:1431  address public owner = msg.sender */\n    tag_13:\n      tag_64\n      tag_65\n      jump\t// in\n    tag_64:\n      mload(0x40)\n      tag_66\n      swap2\n      swap1\n      tag_63\n      jump\t// in\n    tag_66:\n      mload(0x40)\n      dup1\n      swap2\n      sub\n      swap1\n      return\n        /* \"src/ERC20.sol\":1613:1649  string public constant symbol = \"DT\" */\n    tag_14:\n      tag_67\n      tag_68\n      jump\t// in\n    tag_67:\n      mload(0x40)\n      tag_69\n      swap2\n      swap1\n      tag_29\n      jump\t// in\n    tag_69:\n      mload(0x40)\n      dup1\n      swap2\n      sub\n      swap1\n      return\n        /* \"src/ERC20.sol\":2567:2926  function transfer(address _to, uint256 _value) public returns (bool) {... */\n    tag_15:\n      tag_70\n      0x04\n      dup1\n      calldatasize\n      sub\n      dup2\n      add\n      swap1\n      tag_71\n      swap2\n      swap1\n      tag_32\n      jump\t// in\n    tag_71:\n      tag_72\n      jump\t// in\n    tag_70:\n      mload(0x40)\n      tag_73\n      swap2\n      swap1\n      tag_25\n      jump\t// in\n    tag_73:\n      mload(0x40)\n      dup1\n      swap2\n      sub\n      swap1\n      return\n        /* \"src/ERC20.sol\":3718:4246  function DTtransferFrom(address _from, address _spender, address _to, uint256 _value) public returns (bool) {... */\n    tag_16:\n      tag_74\n      0x04\n      dup1\n      calldatasize\n      sub\n      dup2\n      add\n      swap1\n      tag_75\n      swap2\n      swap1\n      tag_76\n      jump\t// in\n    tag_75:\n      tag_77\n      jump\t// in\n    tag_74:\n      mload(0x40)\n      tag_78\n      swap2\n      swap1\n      tag_25\n      jump\t// in\n    tag_78:\n      mload(0x40)\n      dup1\n      swap2\n      sub\n      swap1\n      return\n        /* \"src/ERC20.sol\":5578:5704  function allowance(address _owner, address _spender) public view returns (uint256) {... */\n    tag_17:\n      tag_79\n      0x04\n      dup1\n      calldatasize\n      sub\n      dup2\n      add\n      swap1\n      tag_80\n      swap2\n      swap1\n      tag_81\n      jump\t// in\n    tag_80:\n      tag_82\n      jump\t// in\n    tag_79:\n      mload(0x40)\n      tag_83\n      swap2\n      swap1\n      tag_38\n      jump\t// in\n    tag_83:\n      mload(0x40)\n      dup1\n      swap2\n      sub\n      swap1\n      return\n        /* \"src/ERC20.sol\":5061:5259  function DTapprove(address _owner, address _spender, uint256 _value) public returns (bool) {... */\n    tag_18:\n      tag_84\n      0x04\n      dup1\n      calldatasize\n      sub\n      dup2\n      add\n      swap1\n      tag_85\n      swap2\n      swap1\n      tag_41\n      jump\t// in\n    tag_85:\n      tag_86\n      jump\t// in\n    tag_84:\n      mload(0x40)\n      tag_87\n      swap2\n      swap1\n      tag_25\n      jump\t// in\n    tag_87:\n      mload(0x40)\n      dup1\n      swap2\n      sub\n      swap1\n      return\n        /* \"src/ERC20.sol\":1352:1387  bool public mintingFinished = false */\n    tag_23:\n      0x00\n      dup1\n      sload\n      swap1\n      0x0100\n      exp\n      swap1\n      div\n      0xff\n      and\n      dup2\n      jump\t// out\n        /* \"src/ERC20.sol\":1566:1607  string public constant name = \"DiceToken\" */\n    tag_27:\n      mload(0x40)\n      dup1\n      0x40\n      add\n      0x40\n      mstore\n      dup1\n      0x09\n      dup2\n      mstore\n      0x20\n      add\n      0x44696365546f6b656e0000000000000000000000000000000000000000000000\n      dup2\n      mstore\n      pop\n      dup2\n      jump\t// out\n        /* \"src/ERC20.sol\":4869:5057  function approve(address _spender, uint256 _value) public returns (bool) {... */\n    tag_33:\n        /* \"src/ERC20.sol\":4936:4940  bool */\n      0x00\n        /* \"src/ERC20.sol\":4980:4986  _value */\n      dup2\n        /* \"src/ERC20.sol\":4948:4955  allowed */\n      0x01\n        /* \"src/ERC20.sol\":4948:4967  allowed[msg.sender] */\n      0x00\n        /* \"src/ERC20.sol\":4956:4966  msg.sender */\n      caller\n        /* \"src/ERC20.sol\":4948:4967  allowed[msg.sender] */\n      0xffffffffffffffffffffffffffffffffffffffff\n      and\n      0xffffffffffffffffffffffffffffffffffffffff\n      and\n      dup2\n      mstore\n      0x20\n      add\n      swap1\n      dup2\n      mstore\n      0x20\n      add\n      0x00\n      keccak256\n        /* \"src/ERC20.sol\":4948:4977  allowed[msg.sender][_spender] */\n      0x00\n        /* \"src/ERC20.sol\":4968:4976  _spender */\n      dup6\n        /* \"src/ERC20.sol\":4948:4977  allowed[msg.sender][_spender] */\n      0xffffffffffffffffffffffffffffffffffffffff\n      and\n      0xffffffffffffffffffffffffffffffffffffffff\n      and\n      dup2\n      mstore\n      0x20\n      add\n      swap1\n      dup2\n      mstore\n      0x20\n      add\n      0x00\n      keccak256\n        /* \"src/ERC20.sol\":4948:4986  allowed[msg.sender][_spender] = _value */\n      dup2\n      swap1\n      sstore\n      pop\n        /* \"src/ERC20.sol\":5018:5026  _spender */\n      dup3\n        /* \"src/ERC20.sol\":4997:5035  Approval(msg.sender, _spender, _value) */\n      0xffffffffffffffffffffffffffffffffffffffff\n      and\n        /* \"src/ERC20.sol\":5006:5016  msg.sender */\n      caller\n        /* \"src/ERC20.sol\":4997:5035  Approval(msg.sender, _spender, _value) */\n      0xffffffffffffffffffffffffffffffffffffffff\n      and\n      0x8c5be1e5ebec7d5bd14f71427d1e84f3dd0314c0f7b2291e5b200ac8c7c3b925\n        /* \"src/ERC20.sol\":5028:5034  _value */\n      dup5\n        /* \"src/ERC20.sol\":4997:5035  Approval(msg.sender, _spender, _value) */\n      mload(0x40)\n      tag_89\n      swap2\n      swap1\n      tag_38\n      jump\t// in\n    tag_89:\n      mload(0x40)\n      dup1\n      swap2\n      sub\n      swap1\n      log3\n        /* \"src/ERC20.sol\":5048:5052  true */\n      0x01\n        /* \"src/ERC20.sol\":5041:5052  return true */\n      swap1\n      pop\n        /* \"src/ERC20.sol\":4869:5057  function approve(address _spender, uint256 _value) public returns (bool) {... */\n      swap3\n      swap2\n      pop\n      pop\n      jump\t// out\n        /* \"src/ERC20.sol\":2024:2107  function totalSupply() public view returns (uint256) {... */\n    tag_36:\n        /* \"src/ERC20.sol\":2068:2075  uint256 */\n      0x00\n        /* \"src/ERC20.sol\":2090:2102  totalSupply_ */\n      sload(0x03)\n        /* \"src/ERC20.sol\":2083:2102  return totalSupply_ */\n      swap1\n      pop\n        /* \"src/ERC20.sol\":2024:2107  function totalSupply() public view returns (uint256) {... */\n      swap1\n      jump\t// out\n        /* \"src/ERC20.sol\":3203:3714  function transferFrom(address _from, address _to, uint256 _value) public returns (bool) {... */\n    tag_42:\n        /* \"src/ERC20.sol\":3285:3289  bool */\n      0x00\n        /* \"src/ERC20.sol\":3320:3321  0 */\n      dup1\n        /* \"src/ERC20.sol\":3305:3322  _to != address(0) */\n      0xffffffffffffffffffffffffffffffffffffffff\n      and\n        /* \"src/ERC20.sol\":3305:3308  _to */\n      dup4\n        /* \"src/ERC20.sol\":3305:3322  _to != address(0) */\n      0xffffffffffffffffffffffffffffffffffffffff\n      and\n      sub\n        /* \"src/ERC20.sol\":3297:3323  require(_to != address(0)) */\n      tag_92\n      jumpi\n      0x00\n      dup1\n      revert\n    tag_92:\n        /* \"src/ERC20.sol\":3347:3355  balances */\n      0x02\n        /* \"src/ERC20.sol\":3347:3362  balances[_from] */\n      0x00\n        /* \"src/ERC20.sol\":3356:3361  _from */\n      dup6\n        /* \"src/ERC20.sol\":3347:3362  balances[_from] */\n      0xffffffffffffffffffffffffffffffffffffffff\n      and\n      0xffffffffffffffffffffffffffffffffffffffff\n      and\n      dup2\n      mstore\n      0x20\n      add\n      swap1\n      dup2\n      mstore\n      0x20\n      add\n      0x00\n      keccak256\n      sload\n        /* \"src/ERC20.sol\":3337:3343  _value */\n      dup3\n        /* \"src/ERC20.sol\":3337:3362  _value <= balances[_from] */\n      gt\n      iszero\n        /* \"src/ERC20.sol\":3329:3399  require(_value <= balances[_from], \"From doesn't have enough balance\") */\n      tag_93\n      jumpi\n      mload(0x40)\n      0x08c379a000000000000000000000000000000000000000000000000000000000\n      dup2\n      mstore\n      0x04\n      add\n      tag_94\n      swap1\n      tag_95\n      jump\t// in\n    tag_94:\n      mload(0x40)\n      dup1\n      swap2\n      sub\n      swap1\n      revert\n    tag_93:\n        /* \"src/ERC20.sol\":3423:3430  allowed */\n      0x01\n        /* \"src/ERC20.sol\":3423:3437  allowed[_from] */\n      0x00\n        /* \"src/ERC20.sol\":3431:3436  _from */\n      dup6\n        /* \"src/ERC20.sol\":3423:3437  allowed[_from] */\n      0xffffffffffffffffffffffffffffffffffffffff\n      and\n      0xffffffffffffffffffffffffffffffffffffffff\n      and\n      dup2\n      mstore\n      0x20\n      add\n      swap1\n      dup2\n      mstore\n      0x20\n      add\n      0x00\n      keccak256\n        /* \"src/ERC20.sol\":3423:3448  allowed[_from][tx.origin] */\n      0x00\n        /* \"src/ERC20.sol\":3438:3447  tx.origin */\n      origin\n        /* \"src/ERC20.sol\":3423:3448  allowed[_from][tx.origin] */\n      0xffffffffffffffffffffffffffffffffffffffff\n      and\n      0xffffffffffffffffffffffffffffffffffffffff\n      and\n      dup2\n      mstore\n      0x20\n      add\n      swap1\n      dup2\n      mstore\n      0x20\n      add\n      0x00\n      keccak256\n      sload\n        /* \"src/ERC20.sol\":3413:3419  _value */\n      dup3\n        /* \"src/ERC20.sol\":3413:3448  _value <= allowed[_from][tx.origin] */\n      gt\n      iszero\n        /* \"src/ERC20.sol\":3405:3483  require(_value <= allowed[_from][tx.origin], \"Not allowed to spend this much\") */\n      tag_96\n      jumpi\n      mload(0x40)\n      0x08c379a000000000000000000000000000000000000000000000000000000000\n      dup2\n      mstore\n      0x04\n      add\n      tag_97\n      swap1\n      tag_98\n      jump\t// in\n    tag_97:\n      mload(0x40)\n      dup1\n      swap2\n      sub\n      swap1\n      revert\n    tag_96:\n        /* \"src/ERC20.sol\":3508:3535  balances[_from].sub(_value) */\n      tag_99\n        /* \"src/ERC20.sol\":3528:3534  _value */\n      dup3\n        /* \"src/ERC20.sol\":3508:3516  balances */\n      0x02\n        /* \"src/ERC20.sol\":3508:3523  balances[_from] */\n      0x00\n        /* \"src/ERC20.sol\":3517:3522  _from */\n      dup8\n        /* \"src/ERC20.sol\":3508:3523  balances[_from] */\n      0xffffffffffffffffffffffffffffffffffffffff\n      and\n      0xffffffffffffffffffffffffffffffffffffffff\n      and\n      dup2\n      mstore\n      0x20\n      add\n      swap1\n      dup2\n      mstore\n      0x20\n      add\n      0x00\n      keccak256\n      sload\n        /* \"src/ERC20.sol\":3508:3527  balances[_from].sub */\n      tag_100\n      swap1\n        /* \"src/ERC20.sol\":3508:3535  balances[_from].sub(_value) */\n      swap2\n      swap1\n      0xffffffff\n      and\n      jump\t// in\n    tag_99:\n        /* \"src/ERC20.sol\":3490:3498  balances */\n      0x02\n        /* \"src/ERC20.sol\":3490:3505  balances[_from] */\n      0x00\n        /* \"src/ERC20.sol\":3499:3504  _from */\n      dup7\n        /* \"src/ERC20.sol\":3490:3505  balances[_from] */\n      0xffffffffffffffffffffffffffffffffffffffff\n      and\n      0xffffffffffffffffffffffffffffffffffffffff\n      and\n      dup2\n      mstore\n      0x20\n      add\n      swap1\n      dup2\n      mstore\n      0x20\n      add\n      0x00\n      keccak256\n        /* \"src/ERC20.sol\":3490:3535  balances[_from] = balances[_from].sub(_value) */\n      dup2\n      swap1\n      sstore\n      pop\n        /* \"src/ERC20.sol\":3557:3582  balances[_to].add(_value) */\n      tag_101\n        /* \"src/ERC20.sol\":3575:3581  _value */\n      dup3\n        /* \"src/ERC20.sol\":3557:3565  balances */\n      0x02\n        /* \"src/ERC20.sol\":3557:3570  balances[_to] */\n      0x00\n        /* \"src/ERC20.sol\":3566:3569  _to */\n      dup7\n        /* \"src/ERC20.sol\":3557:3570  balances[_to] */\n      0xffffffffffffffffffffffffffffffffffffffff\n      and\n      0xffffffffffffffffffffffffffffffffffffffff\n      and\n      dup2\n      mstore\n      0x20\n      add\n      swap1\n      dup2\n      mstore\n      0x20\n      add\n      0x00\n      keccak256\n      sload\n        /* \"src/ERC20.sol\":3557:3574  balances[_to].add */\n      tag_102\n      swap1\n        /* \"src/ERC20.sol\":3557:3582  balances[_to].add(_value) */\n      swap2\n      swap1\n      0xffffffff\n      and\n      jump\t// in\n    tag_101:\n        /* \"src/ERC20.sol\":3541:3549  balances */\n      0x02\n        /* \"src/ERC20.sol\":3541:3554  balances[_to] */\n      0x00\n        /* \"src/ERC20.sol\":3550:3553  _to */\n      dup6\n        /* \"src/ERC20.sol\":3541:3554  balances[_to] */\n      0xffffffffffffffffffffffffffffffffffffffff\n      and\n      0xffffffffffffffffffffffffffffffffffffffff\n      and\n      dup2\n      mstore\n      0x20\n      add\n      swap1\n      dup2\n      mstore\n      0x20\n      add\n      0x00\n      keccak256\n        /* \"src/ERC20.sol\":3541:3582  balances[_to] = balances[_to].add(_value) */\n      dup2\n      swap1\n      sstore\n      pop\n        /* \"src/ERC20.sol\":3616:3653  allowed[_from][tx.origin].sub(_value) */\n      tag_103\n        /* \"src/ERC20.sol\":3646:3652  _value */\n      dup3\n        /* \"src/ERC20.sol\":3616:3623  allowed */\n      0x01\n        /* \"src/ERC20.sol\":3616:3630  allowed[_from] */\n      0x00\n        /* \"src/ERC20.sol\":3624:3629  _from */\n      dup8\n        /* \"src/ERC20.sol\":3616:3630  allowed[_from] */\n      0xffffffffffffffffffffffffffffffffffffffff\n      and\n      0xffffffffffffffffffffffffffffffffffffffff\n      and\n      dup2\n      mstore\n      0x20\n      add\n      swap1\n      dup2\n      mstore\n      0x20\n      add\n      0x00\n      keccak256\n        /* \"src/ERC20.sol\":3616:3641  allowed[_from][tx.origin] */\n      0x00\n        /* \"src/ERC20.sol\":3631:3640  tx.origin */\n      origin\n        /* \"src/ERC20.sol\":3616:3641  allowed[_from][tx.origin] */\n      0xffffffffffffffffffffffffffffffffffffffff\n      and\n      0xffffffffffffffffffffffffffffffffffffffff\n      and\n      dup2\n      mstore\n      0x20\n      add\n      swap1\n      dup2\n      mstore\n      0x20\n      add\n      0x00\n      keccak256\n      sload\n        /* \"src/ERC20.sol\":3616:3645  allowed[_from][tx.origin].sub */\n      tag_100\n      swap1\n        /* \"src/ERC20.sol\":3616:3653  allowed[_from][tx.origin].sub(_value) */\n      swap2\n      swap1\n      0xffffffff\n      and\n      jump\t// in\n    tag_103:\n        /* \"src/ERC20.sol\":3588:3595  allowed */\n      0x01\n        /* \"src/ERC20.sol\":3588:3602  allowed[_from] */\n      0x00\n        /* \"src/ERC20.sol\":3596:3601  _from */\n      dup7\n        /* \"src/ERC20.sol\":3588:3602  allowed[_from] */\n      0xffffffffffffffffffffffffffffffffffffffff\n      and\n      0xffffffffffffffffffffffffffffffffffffffff\n      and\n      dup2\n      mstore\n      0x20\n      add\n      swap1\n      dup2\n      mstore\n      0x20\n      add\n      0x00\n      keccak256\n        /* \"src/ERC20.sol\":3588:3613  allowed[_from][tx.origin] */\n      0x00\n        /* \"src/ERC20.sol\":3603:3612  tx.origin */\n      origin\n        /* \"src/ERC20.sol\":3588:3613  allowed[_from][tx.origin] */\n      0xffffffffffffffffffffffffffffffffffffffff\n      and\n      0xffffffffffffffffffffffffffffffffffffffff\n      and\n      dup2\n      mstore\n      0x20\n      add\n      swap1\n      dup2\n      mstore\n      0x20\n      add\n      0x00\n      keccak256\n        /* \"src/ERC20.sol\":3588:3653  allowed[_from][tx.origin] = allowed[_from][tx.origin].sub(_value) */\n      dup2\n      swap1\n      sstore\n      pop\n        /* \"src/ERC20.sol\":3680:3683  _to */\n      dup3\n        /* \"src/ERC20.sol\":3664:3692  Transfer(_from, _to, _value) */\n      0xffffffffffffffffffffffffffffffffffffffff\n      and\n        /* \"src/ERC20.sol\":3673:3678  _from */\n      dup5\n        /* \"src/ERC20.sol\":3664:3692  Transfer(_from, _to, _value) */\n      0xffffffffffffffffffffffffffffffffffffffff\n      and\n      0xddf252ad1be2c89b69c2b068fc378daa952ba7f163c4a11628f55a4df523b3ef\n        /* \"src/ERC20.sol\":3685:3691  _value */\n      dup5\n        /* \"src/ERC20.sol\":3664:3692  Transfer(_from, _to, _value) */\n      mload(0x40)\n      tag_104\n      swap2\n      swap1\n      tag_38\n      jump\t// in\n    tag_104:\n      mload(0x40)\n      dup1\n      swap2\n      sub\n      swap1\n      log3\n        /* \"src/ERC20.sol\":3705:3709  true */\n      0x01\n        /* \"src/ERC20.sol\":3698:3709  return true */\n      swap1\n      pop\n        /* \"src/ERC20.sol\":3203:3714  function transferFrom(address _from, address _to, uint256 _value) public returns (bool) {... */\n      swap4\n      swap3\n      pop\n      pop\n      pop\n      jump\t// out\n        /* \"src/ERC20.sol\":1655:1690  uint8 public constant decimals = 18 */\n    tag_45:\n        /* \"src/ERC20.sol\":1688:1690  18 */\n      0x12\n        /* \"src/ERC20.sol\":1655:1690  uint8 public constant decimals = 18 */\n      dup2\n      jump\t// out\n        /* \"src/ERC20.sol\":5947:6221  function mint(address _to, uint256 _amount) onlyOwner canMint public returns (bool) {... */\n    tag_50:\n        /* \"src/ERC20.sol\":6025:6029  bool */\n      0x00\n        /* \"src/ERC20.sol\":6614:6619  owner */\n      dup1\n      0x01\n      swap1\n      sload\n      swap1\n      0x0100\n      exp\n      swap1\n      div\n      0xffffffffffffffffffffffffffffffffffffffff\n      and\n        /* \"src/ERC20.sol\":6600:6619  msg.sender == owner */\n      0xffffffffffffffffffffffffffffffffffffffff\n      and\n        /* \"src/ERC20.sol\":6600:6610  msg.sender */\n      caller\n        /* \"src/ERC20.sol\":6600:6619  msg.sender == owner */\n      0xffffffffffffffffffffffffffffffffffffffff\n      and\n      eq\n        /* \"src/ERC20.sol\":6592:6620  require(msg.sender == owner) */\n      tag_106\n      jumpi\n      0x00\n      dup1\n      revert\n    tag_106:\n        /* \"src/ERC20.sol\":6675:6690  mintingFinished */\n      0x00\n      dup1\n      sload\n      swap1\n      0x0100\n      exp\n      swap1\n      div\n      0xff\n      and\n        /* \"src/ERC20.sol\":6674:6690  !mintingFinished */\n      iszero\n        /* \"src/ERC20.sol\":6666:6691  require(!mintingFinished) */\n      tag_108\n      jumpi\n      0x00\n      dup1\n      revert\n    tag_108:\n        /* \"src/ERC20.sol\":6052:6077  totalSupply_.add(_amount) */\n      tag_110\n        /* \"src/ERC20.sol\":6069:6076  _amount */\n      dup3\n        /* \"src/ERC20.sol\":6052:6064  totalSupply_ */\n      sload(0x03)\n        /* \"src/ERC20.sol\":6052:6068  totalSupply_.add */\n      tag_102\n      swap1\n        /* \"src/ERC20.sol\":6052:6077  totalSupply_.add(_amount) */\n      swap2\n      swap1\n      0xffffffff\n      and\n      jump\t// in\n    tag_110:\n        /* \"src/ERC20.sol\":6037:6049  totalSupply_ */\n      0x03\n        /* \"src/ERC20.sol\":6037:6077  totalSupply_ = totalSupply_.add(_amount) */\n      dup2\n      swap1\n      sstore\n      pop\n        /* \"src/ERC20.sol\":6099:6125  balances[_to].add(_amount) */\n      tag_111\n        /* \"src/ERC20.sol\":6117:6124  _amount */\n      dup3\n        /* \"src/ERC20.sol\":6099:6107  balances */\n      0x02\n        /* \"src/ERC20.sol\":6099:6112  balances[_to] */\n      0x00\n        /* \"src/ERC20.sol\":6108:6111  _to */\n      dup7\n        /* \"src/ERC20.sol\":6099:6112  balances[_to] */\n      0xffffffffffffffffffffffffffffffffffffffff\n      and\n      0xffffffffffffffffffffffffffffffffffffffff\n      and\n      dup2\n      mstore\n      0x20\n      add\n      swap1\n      dup2\n      mstore\n      0x20\n      add\n      0x00\n      keccak256\n      sload\n        /* \"src/ERC20.sol\":6099:6116  balances[_to].add */\n      tag_102\n      swap1\n        /* \"src/ERC20.sol\":6099:6125  balances[_to].add(_amount) */\n      swap2\n      swap1\n      0xffffffff\n      and\n      jump\t// in\n    tag_111:\n        /* \"src/ERC20.sol\":6083:6091  balances */\n      0x02\n        /* \"src/ERC20.sol\":6083:6096  balances[_to] */\n      0x00\n        /* \"src/ERC20.sol\":6092:6095  _to */\n      dup6\n        /* \"src/ERC20.sol\":6083:6096  balances[_to] */\n      0xffffffffffffffffffffffffffffffffffffffff\n      and\n      0xffffffffffffffffffffffffffffffffffffffff\n      and\n      dup2\n      mstore\n      0x20\n      add\n      swap1\n      dup2\n      mstore\n      0x20\n      add\n      0x00\n      keccak256\n        /* \"src/ERC20.sol\":6083:6125  balances[_to] = balances[_to].add(_amount) */\n      dup2\n      swap1\n      sstore\n      pop\n        /* \"src/ERC20.sol\":6141:6144  _to */\n      dup3\n        /* \"src/ERC20.sol\":6136:6154  Mint(_to, _amount) */\n      0xffffffffffffffffffffffffffffffffffffffff\n      and\n      0x0f6798a560793a54c3bcfe86a93cde1e73087d944c0ea20544137d4121396885\n        /* \"src/ERC20.sol\":6146:6153  _amount */\n      dup4\n        /* \"src/ERC20.sol\":6136:6154  Mint(_to, _amount) */\n      mload(0x40)\n      tag_112\n      swap2\n      swap1\n      tag_38\n      jump\t// in\n    tag_112:\n      mload(0x40)\n      dup1\n      swap2\n      sub\n      swap1\n      log2\n        /* \"src/ERC20.sol\":6186:6189  _to */\n      dup3\n        /* \"src/ERC20.sol\":6165:6199  Transfer(address(0), _to, _amount) */\n      0xffffffffffffffffffffffffffffffffffffffff\n      and\n        /* \"src/ERC20.sol\":6182:6183  0 */\n      0x00\n        /* \"src/ERC20.sol\":6165:6199  Transfer(address(0), _to, _amount) */\n      0xffffffffffffffffffffffffffffffffffffffff\n      and\n      0xddf252ad1be2c89b69c2b068fc378daa952ba7f163c4a11628f55a4df523b3ef\n        /* \"src/ERC20.sol\":6191:6198  _amount */\n      dup5\n        /* \"src/ERC20.sol\":6165:6199  Transfer(address(0), _to, _amount) */\n      mload(0x40)\n      tag_113\n      swap2\n      swap1\n      tag_38\n      jump\t// in\n    tag_113:\n      mload(0x40)\n      dup1\n      swap2\n      sub\n      swap1\n      log3\n        /* \"src/ERC20.sol\":6212:6216  true */\n      0x01\n        /* \"src/ERC20.sol\":6205:6216  return true */\n      swap1\n      pop\n        /* \"src/ERC20.sol\":5947:6221  function mint(address _to, uint256 _amount) onlyOwner canMint public returns (bool) {... */\n      swap3\n      swap2\n      pop\n      pop\n      jump\t// out\n        /* \"src/ERC20.sol\":2313:2412  function balanceOf(address _owner) public view returns (uint256) {... */\n    tag_55:\n        /* \"src/ERC20.sol\":2369:2376  uint256 */\n      0x00\n        /* \"src/ERC20.sol\":2391:2399  balances */\n      0x02\n        /* \"src/ERC20.sol\":2391:2407  balances[_owner] */\n      0x00\n        /* \"src/ERC20.sol\":2400:2406  _owner */\n      dup4\n        /* \"src/ERC20.sol\":2391:2407  balances[_owner] */\n      0xffffffffffffffffffffffffffffffffffffffff\n      and\n      0xffffffffffffffffffffffffffffffffffffffff\n      and\n      dup2\n      mstore\n      0x20\n      add\n      swap1\n      dup2\n      mstore\n      0x20\n      add\n      0x00\n      keccak256\n      sload\n        /* \"src/ERC20.sol\":2384:2407  return balances[_owner] */\n      swap1\n      pop\n        /* \"src/ERC20.sol\":2313:2412  function balanceOf(address _owner) public view returns (uint256) {... */\n      swap2\n      swap1\n      pop\n      jump\t// out\n        /* \"src/ERC20.sol\":6335:6475  function finishMinting() onlyOwner canMint public returns (bool) {... */\n    tag_58:\n        /* \"src/ERC20.sol\":6394:6398  bool */\n      0x00\n        /* \"src/ERC20.sol\":6614:6619  owner */\n      dup1\n      0x01\n      swap1\n      sload\n      swap1\n      0x0100\n      exp\n      swap1\n      div\n      0xffffffffffffffffffffffffffffffffffffffff\n      and\n        /* \"src/ERC20.sol\":6600:6619  msg.sender == owner */\n      0xffffffffffffffffffffffffffffffffffffffff\n      and\n        /* \"src/ERC20.sol\":6600:6610  msg.sender */\n      caller\n        /* \"src/ERC20.sol\":6600:6619  msg.sender == owner */\n      0xffffffffffffffffffffffffffffffffffffffff\n      and\n      eq\n        /* \"src/ERC20.sol\":6592:6620  require(msg.sender == owner) */\n      tag_116\n      jumpi\n      0x00\n      dup1\n      revert\n    tag_116:\n        /* \"src/ERC20.sol\":6675:6690  mintingFinished */\n      0x00\n      dup1\n      sload\n      swap1\n      0x0100\n      exp\n      swap1\n      div\n      0xff\n      and\n        /* \"src/ERC20.sol\":6674:6690  !mintingFinished */\n      iszero\n        /* \"src/ERC20.sol\":6666:6691  require(!mintingFinished) */\n      tag_118\n      jumpi\n      0x00\n      dup1\n      revert\n    tag_118:\n        /* \"src/ERC20.sol\":6424:6428  true */\n      0x01\n        /* \"src/ERC20.sol\":6406:6421  mintingFinished */\n      0x00\n      dup1\n        /* \"src/ERC20.sol\":6406:6428  mintingFinished = true */\n      0x0100\n      exp\n      dup2\n      sload\n      dup2\n      0xff\n      mul\n      not\n      and\n      swap1\n      dup4\n      iszero\n      iszero\n      mul\n      or\n      swap1\n      sstore\n      pop\n        /* \"src/ERC20.sol\":6439:6453  MintFinished() */\n      0xae5184fba832cb2b1f702aca6117b8d265eaf03ad33eb133f19dde0f5920fa08\n      mload(0x40)\n      mload(0x40)\n      dup1\n      swap2\n      sub\n      swap1\n      log1\n        /* \"src/ERC20.sol\":6466:6470  true */\n      0x01\n        /* \"src/ERC20.sol\":6459:6470  return true */\n      swap1\n      pop\n        /* \"src/ERC20.sol\":6335:6475  function finishMinting() onlyOwner canMint public returns (bool) {... */\n      swap1\n      jump\t// out\n        /* \"src/ERC20.sol\":6481:6555  function getOwner() public view returns (address){... */\n    tag_61:\n        /* \"src/ERC20.sol\":6522:6529  address */\n      0x00\n        /* \"src/ERC20.sol\":6545:6550  owner */\n      dup1\n      0x01\n      swap1\n      sload\n      swap1\n      0x0100\n      exp\n      swap1\n      div\n      0xffffffffffffffffffffffffffffffffffffffff\n      and\n        /* \"src/ERC20.sol\":6538:6550  return owner */\n      swap1\n      pop\n        /* \"src/ERC20.sol\":6481:6555  function getOwner() public view returns (address){... */\n      swap1\n      jump\t// out\n        /* \"src/ERC20.sol\":1398:1431  address public owner = msg.sender */\n    tag_65:\n      0x00\n      0x01\n      swap1\n      sload\n      swap1\n      0x0100\n      exp\n      swap1\n      div\n      0xffffffffffffffffffffffffffffffffffffffff\n      and\n      dup2\n      jump\t// out\n        /* \"src/ERC20.sol\":1613:1649  string public constant symbol = \"DT\" */\n    tag_68:\n      mload(0x40)\n      dup1\n      0x40\n      add\n      0x40\n      mstore\n      dup1\n      0x02\n      dup2\n      mstore\n      0x20\n      add\n      0x4454000000000000000000000000000000000000000000000000000000000000\n      dup2\n      mstore\n      pop\n      dup2\n      jump\t// out\n        /* \"src/ERC20.sol\":2567:2926  function transfer(address _to, uint256 _value) public returns (bool) {... */\n    tag_72:\n        /* \"src/ERC20.sol\":2630:2634  bool */\n      0x00\n        /* \"src/ERC20.sol\":2665:2666  0 */\n      dup1\n        /* \"src/ERC20.sol\":2650:2667  _to != address(0) */\n      0xffffffffffffffffffffffffffffffffffffffff\n      and\n        /* \"src/ERC20.sol\":2650:2653  _to */\n      dup4\n        /* \"src/ERC20.sol\":2650:2667  _to != address(0) */\n      0xffffffffffffffffffffffffffffffffffffffff\n      and\n      sub\n        /* \"src/ERC20.sol\":2642:2668  require(_to != address(0)) */\n      tag_122\n      jumpi\n      0x00\n      dup1\n      revert\n    tag_122:\n        /* \"src/ERC20.sol\":2692:2700  balances */\n      0x02\n        /* \"src/ERC20.sol\":2692:2711  balances[tx.origin] */\n      0x00\n        /* \"src/ERC20.sol\":2701:2710  tx.origin */\n      origin\n        /* \"src/ERC20.sol\":2692:2711  balances[tx.origin] */\n      0xffffffffffffffffffffffffffffffffffffffff\n      and\n      0xffffffffffffffffffffffffffffffffffffffff\n      and\n      dup2\n      mstore\n      0x20\n      add\n      swap1\n      dup2\n      mstore\n      0x20\n      add\n      0x00\n      keccak256\n      sload\n        /* \"src/ERC20.sol\":2682:2688  _value */\n      dup3\n        /* \"src/ERC20.sol\":2682:2711  _value <= balances[tx.origin] */\n      gt\n      iszero\n        /* \"src/ERC20.sol\":2674:2754  require(_value <= balances[tx.origin], \"msg.sender doesn't have enough balance\") */\n      tag_123\n      jumpi\n      mload(0x40)\n      0x08c379a000000000000000000000000000000000000000000000000000000000\n      dup2\n      mstore\n      0x04\n      add\n      tag_124\n      swap1\n      tag_125\n      jump\t// in\n    tag_124:\n      mload(0x40)\n      dup1\n      swap2\n      sub\n      swap1\n      revert\n    tag_123:\n        /* \"src/ERC20.sol\":2783:2814  balances[tx.origin].sub(_value) */\n      tag_126\n        /* \"src/ERC20.sol\":2807:2813  _value */\n      dup3\n        /* \"src/ERC20.sol\":2783:2791  balances */\n      0x02\n        /* \"src/ERC20.sol\":2783:2802  balances[tx.origin] */\n      0x00\n        /* \"src/ERC20.sol\":2792:2801  tx.origin */\n      origin\n        /* \"src/ERC20.sol\":2783:2802  balances[tx.origin] */\n      0xffffffffffffffffffffffffffffffffffffffff\n      and\n      0xffffffffffffffffffffffffffffffffffffffff\n      and\n      dup2\n      mstore\n      0x20\n      add\n      swap1\n      dup2\n      mstore\n      0x20\n      add\n      0x00\n      keccak256\n      sload\n        /* \"src/ERC20.sol\":2783:2806  balances[tx.origin].sub */\n      tag_100\n      swap1\n        /* \"src/ERC20.sol\":2783:2814  balances[tx.origin].sub(_value) */\n      swap2\n      swap1\n      0xffffffff\n      and\n      jump\t// in\n    tag_126:\n        /* \"src/ERC20.sol\":2761:2769  balances */\n      0x02\n        /* \"src/ERC20.sol\":2761:2780  balances[tx.origin] */\n      0x00\n        /* \"src/ERC20.sol\":2770:2779  tx.origin */\n      origin\n        /* \"src/ERC20.sol\":2761:2780  balances[tx.origin] */\n      0xffffffffffffffffffffffffffffffffffffffff\n      and\n      0xffffffffffffffffffffffffffffffffffffffff\n      and\n      dup2\n      mstore\n      0x20\n      add\n      swap1\n      dup2\n      mstore\n      0x20\n      add\n      0x00\n      keccak256\n        /* \"src/ERC20.sol\":2761:2814  balances[tx.origin] = balances[tx.origin].sub(_value) */\n      dup2\n      swap1\n      sstore\n      pop\n        /* \"src/ERC20.sol\":2836:2861  balances[_to].add(_value) */\n      tag_127\n        /* \"src/ERC20.sol\":2854:2860  _value */\n      dup3\n        /* \"src/ERC20.sol\":2836:2844  balances */\n      0x02\n        /* \"src/ERC20.sol\":2836:2849  balances[_to] */\n      0x00\n        /* \"src/ERC20.sol\":2845:2848  _to */\n      dup7\n        /* \"src/ERC20.sol\":2836:2849  balances[_to] */\n      0xffffffffffffffffffffffffffffffffffffffff\n      and\n      0xffffffffffffffffffffffffffffffffffffffff\n      and\n      dup2\n      mstore\n      0x20\n      add\n      swap1\n      dup2\n      mstore\n      0x20\n      add\n      0x00\n      keccak256\n      sload\n        /* \"src/ERC20.sol\":2836:2853  balances[_to].add */\n      tag_102\n      swap1\n        /* \"src/ERC20.sol\":2836:2861  balances[_to].add(_value) */\n      swap2\n      swap1\n      0xffffffff\n      and\n      jump\t// in\n    tag_127:\n        /* \"src/ERC20.sol\":2820:2828  balances */\n      0x02\n        /* \"src/ERC20.sol\":2820:2833  balances[_to] */\n      0x00\n        /* \"src/ERC20.sol\":2829:2832  _to */\n      dup6\n        /* \"src/ERC20.sol\":2820:2833  balances[_to] */\n      0xffffffffffffffffffffffffffffffffffffffff\n      and\n      0xffffffffffffffffffffffffffffffffffffffff\n      and\n      dup2\n      mstore\n      0x20\n      add\n      swap1\n      dup2\n      mstore\n      0x20\n      add\n      0x00\n      keccak256\n        /* \"src/ERC20.sol\":2820:2861  balances[_to] = balances[_to].add(_value) */\n      dup2\n      swap1\n      sstore\n      pop\n        /* \"src/ERC20.sol\":2892:2895  _to */\n      dup3\n        /* \"src/ERC20.sol\":2872:2904  Transfer(tx.origin, _to, _value) */\n      0xffffffffffffffffffffffffffffffffffffffff\n      and\n        /* \"src/ERC20.sol\":2881:2890  tx.origin */\n      origin\n        /* \"src/ERC20.sol\":2872:2904  Transfer(tx.origin, _to, _value) */\n      0xffffffffffffffffffffffffffffffffffffffff\n      and\n      0xddf252ad1be2c89b69c2b068fc378daa952ba7f163c4a11628f55a4df523b3ef\n        /* \"src/ERC20.sol\":2897:2903  _value */\n      dup5\n        /* \"src/ERC20.sol\":2872:2904  Transfer(tx.origin, _to, _value) */\n      mload(0x40)\n      tag_128\n      swap2\n      swap1\n      tag_38\n      jump\t// in\n    tag_128:\n      mload(0x40)\n      dup1\n      swap2\n      sub\n      swap1\n      log3\n        /* \"src/ERC20.sol\":2917:2921  true */\n      0x01\n        /* \"src/ERC20.sol\":2910:2921  return true */\n      swap1\n      pop\n        /* \"src/ERC20.sol\":2567:2926  function transfer(address _to, uint256 _value) public returns (bool) {... */\n      swap3\n      swap2\n      pop\n      pop\n      jump\t// out\n        /* \"src/ERC20.sol\":3718:4246  function DTtransferFrom(address _from, address _spender, address _to, uint256 _value) public returns (bool) {... */\n    tag_77:\n        /* \"src/ERC20.sol\":3820:3824  bool */\n      0x00\n        /* \"src/ERC20.sol\":3855:3856  0 */\n      dup1\n        /* \"src/ERC20.sol\":3840:3857  _to != address(0) */\n      0xffffffffffffffffffffffffffffffffffffffff\n      and\n        /* \"src/ERC20.sol\":3840:3843  _to */\n      dup4\n        /* \"src/ERC20.sol\":3840:3857  _to != address(0) */\n      0xffffffffffffffffffffffffffffffffffffffff\n      and\n      sub\n        /* \"src/ERC20.sol\":3832:3858  require(_to != address(0)) */\n      tag_130\n      jumpi\n      0x00\n      dup1\n      revert\n    tag_130:\n        /* \"src/ERC20.sol\":3882:3890  balances */\n      0x02\n        /* \"src/ERC20.sol\":3882:3897  balances[_from] */\n      0x00\n        /* \"src/ERC20.sol\":3891:3896  _from */\n      dup7\n        /* \"src/ERC20.sol\":3882:3897  balances[_from] */\n      0xffffffffffffffffffffffffffffffffffffffff\n      and\n      0xffffffffffffffffffffffffffffffffffffffff\n      and\n      dup2\n      mstore\n      0x20\n      add\n      swap1\n      dup2\n      mstore\n      0x20\n      add\n      0x00\n      keccak256\n      sload\n        /* \"src/ERC20.sol\":3872:3878  _value */\n      dup3\n        /* \"src/ERC20.sol\":3872:3897  _value <= balances[_from] */\n      gt\n      iszero\n        /* \"src/ERC20.sol\":3864:3934  require(_value <= balances[_from], \"From doesn't have enough balance\") */\n      tag_131\n      jumpi\n      mload(0x40)\n      0x08c379a000000000000000000000000000000000000000000000000000000000\n      dup2\n      mstore\n      0x04\n      add\n      tag_132\n      swap1\n      tag_95\n      jump\t// in\n    tag_132:\n      mload(0x40)\n      dup1\n      swap2\n      sub\n      swap1\n      revert\n    tag_131:\n        /* \"src/ERC20.sol\":3958:3965  allowed */\n      0x01\n        /* \"src/ERC20.sol\":3958:3972  allowed[_from] */\n      0x00\n        /* \"src/ERC20.sol\":3966:3971  _from */\n      dup7\n        /* \"src/ERC20.sol\":3958:3972  allowed[_from] */\n      0xffffffffffffffffffffffffffffffffffffffff\n      and\n      0xffffffffffffffffffffffffffffffffffffffff\n      and\n      dup2\n      mstore\n      0x20\n      add\n      swap1\n      dup2\n      mstore\n      0x20\n      add\n      0x00\n      keccak256\n        /* \"src/ERC20.sol\":3958:3982  allowed[_from][_spender] */\n      0x00\n        /* \"src/ERC20.sol\":3973:3981  _spender */\n      dup6\n        /* \"src/ERC20.sol\":3958:3982  allowed[_from][_spender] */\n      0xffffffffffffffffffffffffffffffffffffffff\n      and\n      0xffffffffffffffffffffffffffffffffffffffff\n      and\n      dup2\n      mstore\n      0x20\n      add\n      swap1\n      dup2\n      mstore\n      0x20\n      add\n      0x00\n      keccak256\n      sload\n        /* \"src/ERC20.sol\":3948:3954  _value */\n      dup3\n        /* \"src/ERC20.sol\":3948:3982  _value <= allowed[_from][_spender] */\n      gt\n      iszero\n        /* \"src/ERC20.sol\":3940:4017  require(_value <= allowed[_from][_spender], \"Not allowed to spend this much\") */\n      tag_133\n      jumpi\n      mload(0x40)\n      0x08c379a000000000000000000000000000000000000000000000000000000000\n      dup2\n      mstore\n      0x04\n      add\n      tag_134\n      swap1\n      tag_98\n      jump\t// in\n    tag_134:\n      mload(0x40)\n      dup1\n      swap2\n      sub\n      swap1\n      revert\n    tag_133:\n        /* \"src/ERC20.sol\":4042:4069  balances[_from].sub(_value) */\n      tag_135\n        /* \"src/ERC20.sol\":4062:4068  _value */\n      dup3\n        /* \"src/ERC20.sol\":4042:4050  balances */\n      0x02\n        /* \"src/ERC20.sol\":4042:4057  balances[_from] */\n      0x00\n        /* \"src/ERC20.sol\":4051:4056  _from */\n      dup9\n        /* \"src/ERC20.sol\":4042:4057  balances[_from] */\n      0xffffffffffffffffffffffffffffffffffffffff\n      and\n      0xffffffffffffffffffffffffffffffffffffffff\n      and\n      dup2\n      mstore\n      0x20\n      add\n      swap1\n      dup2\n      mstore\n      0x20\n      add\n      0x00\n      keccak256\n      sload\n        /* \"src/ERC20.sol\":4042:4061  balances[_from].sub */\n      tag_100\n      swap1\n        /* \"src/ERC20.sol\":4042:4069  balances[_from].sub(_value) */\n      swap2\n      swap1\n      0xffffffff\n      and\n      jump\t// in\n    tag_135:\n        /* \"src/ERC20.sol\":4024:4032  balances */\n      0x02\n        /* \"src/ERC20.sol\":4024:4039  balances[_from] */\n      0x00\n        /* \"src/ERC20.sol\":4033:4038  _from */\n      dup8\n        /* \"src/ERC20.sol\":4024:4039  balances[_from] */\n      0xffffffffffffffffffffffffffffffffffffffff\n      and\n      0xffffffffffffffffffffffffffffffffffffffff\n      and\n      dup2\n      mstore\n      0x20\n      add\n      swap1\n      dup2\n      mstore\n      0x20\n      add\n      0x00\n      keccak256\n        /* \"src/ERC20.sol\":4024:4069  balances[_from] = balances[_from].sub(_value) */\n      dup2\n      swap1\n      sstore\n      pop\n        /* \"src/ERC20.sol\":4091:4116  balances[_to].add(_value) */\n      tag_136\n        /* \"src/ERC20.sol\":4109:4115  _value */\n      dup3\n        /* \"src/ERC20.sol\":4091:4099  balances */\n      0x02\n        /* \"src/ERC20.sol\":4091:4104  balances[_to] */\n      0x00\n        /* \"src/ERC20.sol\":4100:4103  _to */\n      dup7\n        /* \"src/ERC20.sol\":4091:4104  balances[_to] */\n      0xffffffffffffffffffffffffffffffffffffffff\n      and\n      0xffffffffffffffffffffffffffffffffffffffff\n      and\n      dup2\n      mstore\n      0x20\n      add\n      swap1\n      dup2\n      mstore\n      0x20\n      add\n      0x00\n      keccak256\n      sload\n        /* \"src/ERC20.sol\":4091:4108  balances[_to].add */\n      tag_102\n      swap1\n        /* \"src/ERC20.sol\":4091:4116  balances[_to].add(_value) */\n      swap2\n      swap1\n      0xffffffff\n      and\n      jump\t// in\n    tag_136:\n        /* \"src/ERC20.sol\":4075:4083  balances */\n      0x02\n        /* \"src/ERC20.sol\":4075:4088  balances[_to] */\n      0x00\n        /* \"src/ERC20.sol\":4084:4087  _to */\n      dup6\n        /* \"src/ERC20.sol\":4075:4088  balances[_to] */\n      0xffffffffffffffffffffffffffffffffffffffff\n      and\n      0xffffffffffffffffffffffffffffffffffffffff\n      and\n      dup2\n      mstore\n      0x20\n      add\n      swap1\n      dup2\n      mstore\n      0x20\n      add\n      0x00\n      keccak256\n        /* \"src/ERC20.sol\":4075:4116  balances[_to] = balances[_to].add(_value) */\n      dup2\n      swap1\n      sstore\n      pop\n        /* \"src/ERC20.sol\":4149:4185  allowed[_from][_spender].sub(_value) */\n      tag_137\n        /* \"src/ERC20.sol\":4178:4184  _value */\n      dup3\n        /* \"src/ERC20.sol\":4149:4156  allowed */\n      0x01\n        /* \"src/ERC20.sol\":4149:4163  allowed[_from] */\n      0x00\n        /* \"src/ERC20.sol\":4157:4162  _from */\n      dup9\n        /* \"src/ERC20.sol\":4149:4163  allowed[_from] */\n      0xffffffffffffffffffffffffffffffffffffffff\n      and\n      0xffffffffffffffffffffffffffffffffffffffff\n      and\n      dup2\n      mstore\n      0x20\n      add\n      swap1\n      dup2\n      mstore\n      0x20\n      add\n      0x00\n      keccak256\n        /* \"src/ERC20.sol\":4149:4173  allowed[_from][_spender] */\n      0x00\n        /* \"src/ERC20.sol\":4164:4172  _spender */\n      dup8\n        /* \"src/ERC20.sol\":4149:4173  allowed[_from][_spender] */\n      0xffffffffffffffffffffffffffffffffffffffff\n      and\n      0xffffffffffffffffffffffffffffffffffffffff\n      and\n      dup2\n      mstore\n      0x20\n      add\n      swap1\n      dup2\n      mstore\n      0x20\n      add\n      0x00\n      keccak256\n      sload\n        /* \"src/ERC20.sol\":4149:4177  allowed[_from][_spender].sub */\n      tag_100\n      swap1\n        /* \"src/ERC20.sol\":4149:4185  allowed[_from][_spender].sub(_value) */\n      swap2\n      swap1\n      0xffffffff\n      and\n      jump\t// in\n    tag_137:\n        /* \"src/ERC20.sol\":4122:4129  allowed */\n      0x01\n        /* \"src/ERC20.sol\":4122:4136  allowed[_from] */\n      0x00\n        /* \"src/ERC20.sol\":4130:4135  _from */\n      dup8\n        /* \"src/ERC20.sol\":4122:4136  allowed[_from] */\n      0xffffffffffffffffffffffffffffffffffffffff\n      and\n      0xffffffffffffffffffffffffffffffffffffffff\n      and\n      dup2\n      mstore\n      0x20\n      add\n      swap1\n      dup2\n      mstore\n      0x20\n      add\n      0x00\n      keccak256\n        /* \"src/ERC20.sol\":4122:4146  allowed[_from][_spender] */\n      0x00\n        /* \"src/ERC20.sol\":4137:4145  _spender */\n      dup7\n        /* \"src/ERC20.sol\":4122:4146  allowed[_from][_spender] */\n      0xffffffffffffffffffffffffffffffffffffffff\n      and\n      0xffffffffffffffffffffffffffffffffffffffff\n      and\n      dup2\n      mstore\n      0x20\n      add\n      swap1\n      dup2\n      mstore\n      0x20\n      add\n      0x00\n      keccak256\n        /* \"src/ERC20.sol\":4122:4185  allowed[_from][_spender] = allowed[_from][_spender].sub(_value) */\n      dup2\n      swap1\n      sstore\n      pop\n        /* \"src/ERC20.sol\":4212:4215  _to */\n      dup3\n        /* \"src/ERC20.sol\":4196:4224  Transfer(_from, _to, _value) */\n      0xffffffffffffffffffffffffffffffffffffffff\n      and\n        /* \"src/ERC20.sol\":4205:4210  _from */\n      dup6\n        /* \"src/ERC20.sol\":4196:4224  Transfer(_from, _to, _value) */\n      0xffffffffffffffffffffffffffffffffffffffff\n      and\n      0xddf252ad1be2c89b69c2b068fc378daa952ba7f163c4a11628f55a4df523b3ef\n        /* \"src/ERC20.sol\":4217:4223  _value */\n      dup5\n        /* \"src/ERC20.sol\":4196:4224  Transfer(_from, _to, _value) */\n      mload(0x40)\n      tag_138\n      swap2\n      swap1\n      tag_38\n      jump\t// in\n    tag_138:\n      mload(0x40)\n      dup1\n      swap2\n      sub\n      swap1\n      log3\n        /* \"src/ERC20.sol\":4237:4241  true */\n      0x01\n        /* \"src/ERC20.sol\":4230:4241  return true */\n      swap1\n      pop\n        /* \"src/ERC20.sol\":3718:4246  function DTtransferFrom(address _from, address _spender, address _to, uint256 _value) public returns (bool) {... */\n      swap5\n      swap4\n      pop\n      pop\n      pop\n      pop\n      jump\t// out\n        /* \"src/ERC20.sol\":5578:5704  function allowance(address _owner, address _spender) public view returns (uint256) {... */\n    tag_82:\n        /* \"src/ERC20.sol\":5652:5659  uint256 */\n      0x00\n        /* \"src/ERC20.sol\":5674:5681  allowed */\n      0x01\n        /* \"src/ERC20.sol\":5674:5689  allowed[_owner] */\n      0x00\n        /* \"src/ERC20.sol\":5682:5688  _owner */\n      dup5\n        /* \"src/ERC20.sol\":5674:5689  allowed[_owner] */\n      0xffffffffffffffffffffffffffffffffffffffff\n      and\n      0xffffffffffffffffffffffffffffffffffffffff\n      and\n      dup2\n      mstore\n      0x20\n      add\n      swap1\n      dup2\n      mstore\n      0x20\n      add\n      0x00\n      keccak256\n        /* \"src/ERC20.sol\":5674:5699  allowed[_owner][_spender] */\n      0x00\n        /* \"src/ERC20.sol\":5690:5698  _spender */\n      dup4\n        /* \"src/ERC20.sol\":5674:5699  allowed[_owner][_spender] */\n      0xffffffffffffffffffffffffffffffffffffffff\n      and\n      0xffffffffffffffffffffffffffffffffffffffff\n      and\n      dup2\n      mstore\n      0x20\n      add\n      swap1\n      dup2\n      mstore\n      0x20\n      add\n      0x00\n      keccak256\n      sload\n        /* \"src/ERC20.sol\":5667:5699  return allowed[_owner][_spender] */\n      swap1\n      pop\n        /* \"src/ERC20.sol\":5578:5704  function allowance(address _owner, address _spender) public view returns (uint256) {... */\n      swap3\n      swap2\n      pop\n      pop\n      jump\t// out\n        /* \"src/ERC20.sol\":5061:5259  function DTapprove(address _owner, address _spender, uint256 _value) public returns (bool) {... */\n    tag_86:\n        /* \"src/ERC20.sol\":5146:5150  bool */\n      0x00\n        /* \"src/ERC20.sol\":5186:5192  _value */\n      dup2\n        /* \"src/ERC20.sol\":5158:5165  allowed */\n      0x01\n        /* \"src/ERC20.sol\":5158:5173  allowed[_owner] */\n      0x00\n        /* \"src/ERC20.sol\":5166:5172  _owner */\n      dup7\n        /* \"src/ERC20.sol\":5158:5173  allowed[_owner] */\n      0xffffffffffffffffffffffffffffffffffffffff\n      and\n      0xffffffffffffffffffffffffffffffffffffffff\n      and\n      dup2\n      mstore\n      0x20\n      add\n      swap1\n      dup2\n      mstore\n      0x20\n      add\n      0x00\n      keccak256\n        /* \"src/ERC20.sol\":5158:5183  allowed[_owner][_spender] */\n      0x00\n        /* \"src/ERC20.sol\":5174:5182  _spender */\n      dup6\n        /* \"src/ERC20.sol\":5158:5183  allowed[_owner][_spender] */\n      0xffffffffffffffffffffffffffffffffffffffff\n      and\n      0xffffffffffffffffffffffffffffffffffffffff\n      and\n      dup2\n      mstore\n      0x20\n      add\n      swap1\n      dup2\n      mstore\n      0x20\n      add\n      0x00\n      keccak256\n        /* \"src/ERC20.sol\":5158:5192  allowed[_owner][_spender] = _value */\n      dup2\n      swap1\n      sstore\n      pop\n        /* \"src/ERC20.sol\":5220:5228  _spender */\n      dup3\n        /* \"src/ERC20.sol\":5203:5237  Approval(_owner, _spender, _value) */\n      0xffffffffffffffffffffffffffffffffffffffff\n      and\n        /* \"src/ERC20.sol\":5212:5218  _owner */\n      dup5\n        /* \"src/ERC20.sol\":5203:5237  Approval(_owner, _spender, _value) */\n      0xffffffffffffffffffffffffffffffffffffffff\n      and\n      0x8c5be1e5ebec7d5bd14f71427d1e84f3dd0314c0f7b2291e5b200ac8c7c3b925\n        /* \"src/ERC20.sol\":5230:5236  _value */\n      dup5\n        /* \"src/ERC20.sol\":5203:5237  Approval(_owner, _spender, _value) */\n      mload(0x40)\n      tag_141\n      swap2\n      swap1\n      tag_38\n      jump\t// in\n    tag_141:\n      mload(0x40)\n      dup1\n      swap2\n      sub\n      swap1\n      log3\n        /* \"src/ERC20.sol\":5250:5254  true */\n      0x01\n        /* \"src/ERC20.sol\":5243:5254  return true */\n      swap1\n      pop\n        /* \"src/ERC20.sol\":5061:5259  function DTapprove(address _owner, address _spender, uint256 _value) public returns (bool) {... */\n      swap4\n      swap3\n      pop\n      pop\n      pop\n      jump\t// out\n        /* \"src/ERC20.sol\":995:1105  function sub(uint256 a, uint256 b) internal pure returns (uint256) {... */\n    tag_100:\n        /* \"src/ERC20.sol\":1053:1060  uint256 */\n      0x00\n        /* \"src/ERC20.sol\":1080:1081  a */\n      dup3\n        /* \"src/ERC20.sol\":1075:1076  b */\n      dup3\n        /* \"src/ERC20.sol\":1075:1081  b <= a */\n      gt\n      iszero\n        /* \"src/ERC20.sol\":1068:1082  assert(b <= a) */\n      tag_143\n      jumpi\n      tag_144\n      tag_145\n      jump\t// in\n    tag_144:\n    tag_143:\n        /* \"src/ERC20.sol\":1099:1100  b */\n      dup2\n        /* \"src/ERC20.sol\":1095:1096  a */\n      dup4\n        /* \"src/ERC20.sol\":1095:1100  a - b */\n      tag_146\n      swap2\n      swap1\n      tag_147\n      jump\t// in\n    tag_146:\n        /* \"src/ERC20.sol\":1088:1100  return a - b */\n      swap1\n      pop\n        /* \"src/ERC20.sol\":995:1105  function sub(uint256 a, uint256 b) internal pure returns (uint256) {... */\n      swap3\n      swap2\n      pop\n      pop\n      jump\t// out\n        /* \"src/ERC20.sol\":1167:1290  function add(uint256 a, uint256 b) internal pure returns (uint256 c) {... */\n    tag_102:\n        /* \"src/ERC20.sol\":1225:1234  uint256 c */\n      0x00\n        /* \"src/ERC20.sol\":1250:1251  b */\n      dup2\n        /* \"src/ERC20.sol\":1246:1247  a */\n      dup4\n        /* \"src/ERC20.sol\":1246:1251  a + b */\n      tag_149\n      swap2\n      swap1\n      tag_150\n      jump\t// in\n    tag_149:\n        /* \"src/ERC20.sol\":1242:1251  c = a + b */\n      swap1\n      pop\n        /* \"src/ERC20.sol\":1269:1270  a */\n      dup3\n        /* \"src/ERC20.sol\":1264:1265  c */\n      dup2\n        /* \"src/ERC20.sol\":1264:1270  c >= a */\n      lt\n      iszero\n        /* \"src/ERC20.sol\":1257:1271  assert(c >= a) */\n      tag_151\n      jumpi\n      tag_152\n      tag_145\n      jump\t// in\n    tag_152:\n    tag_151:\n        /* \"src/ERC20.sol\":1167:1290  function add(uint256 a, uint256 b) internal pure returns (uint256 c) {... */\n      swap3\n      swap2\n      pop\n      pop\n      jump\t// out\n        /* \"#utility.yul\":7:97   */\n    tag_153:\n        /* \"#utility.yul\":41:48   */\n      0x00\n        /* \"#utility.yul\":84:89   */\n      dup2\n        /* \"#utility.yul\":77:90   */\n      iszero\n        /* \"#utility.yul\":70:91   */\n      iszero\n        /* \"#utility.yul\":59:91   */\n      swap1\n      pop\n        /* \"#utility.yul\":7:97   */\n      swap2\n      swap1\n      pop\n      jump\t// out\n        /* \"#utility.yul\":103:212   */\n    tag_154:\n        /* \"#utility.yul\":184:205   */\n      tag_184\n        /* \"#utility.yul\":199:204   */\n      dup2\n        /* \"#utility.yul\":184:205   */\n      tag_153\n      jump\t// in\n    tag_184:\n        /* \"#utility.yul\":179:182   */\n      dup3\n        /* \"#utility.yul\":172:206   */\n      mstore\n        /* \"#utility.yul\":103:212   */\n      pop\n      pop\n      jump\t// out\n        /* \"#utility.yul\":218:428   */\n    tag_25:\n        /* \"#utility.yul\":305:309   */\n      0x00\n        /* \"#utility.yul\":343:345   */\n      0x20\n        /* \"#utility.yul\":332:341   */\n      dup3\n        /* \"#utility.yul\":328:346   */\n      add\n        /* \"#utility.yul\":320:346   */\n      swap1\n      pop\n        /* \"#utility.yul\":356:421   */\n      tag_186\n        /* \"#utility.yul\":418:419   */\n      0x00\n        /* \"#utility.yul\":407:416   */\n      dup4\n        /* \"#utility.yul\":403:420   */\n      add\n        /* \"#utility.yul\":394:400   */\n      dup5\n        /* \"#utility.yul\":356:421   */\n      tag_154\n      jump\t// in\n    tag_186:\n        /* \"#utility.yul\":218:428   */\n      swap3\n      swap2\n      pop\n      pop\n      jump\t// out\n        /* \"#utility.yul\":434:533   */\n    tag_155:\n        /* \"#utility.yul\":486:492   */\n      0x00\n        /* \"#utility.yul\":520:525   */\n      dup2\n        /* \"#utility.yul\":514:526   */\n      mload\n        /* \"#utility.yul\":504:526   */\n      swap1\n      pop\n        /* \"#utility.yul\":434:533   */\n      swap2\n      swap1\n      pop\n      jump\t// out\n        /* \"#utility.yul\":539:708   */\n    tag_156:\n        /* \"#utility.yul\":623:634   */\n      0x00\n        /* \"#utility.yul\":657:663   */\n      dup3\n        /* \"#utility.yul\":652:655   */\n      dup3\n        /* \"#utility.yul\":645:664   */\n      mstore\n        /* \"#utility.yul\":697:701   */\n      0x20\n        /* \"#utility.yul\":692:695   */\n      dup3\n        /* \"#utility.yul\":688:702   */\n      add\n        /* \"#utility.yul\":673:702   */\n      swap1\n      pop\n        /* \"#utility.yul\":539:708   */\n      swap3\n      swap2\n      pop\n      pop\n      jump\t// out\n        /* \"#utility.yul\":714:960   */\n    tag_157:\n        /* \"#utility.yul\":795:796   */\n      0x00\n        /* \"#utility.yul\":805:918   */\n    tag_190:\n        /* \"#utility.yul\":819:825   */\n      dup4\n        /* \"#utility.yul\":816:817   */\n      dup2\n        /* \"#utility.yul\":813:826   */\n      lt\n        /* \"#utility.yul\":805:918   */\n      iszero\n      tag_192\n      jumpi\n        /* \"#utility.yul\":904:905   */\n      dup1\n        /* \"#utility.yul\":899:902   */\n      dup3\n        /* \"#utility.yul\":895:906   */\n      add\n        /* \"#utility.yul\":889:907   */\n      mload\n        /* \"#utility.yul\":885:886   */\n      dup2\n        /* \"#utility.yul\":880:883   */\n      dup5\n        /* \"#utility.yul\":876:887   */\n      add\n        /* \"#utility.yul\":869:908   */\n      mstore\n        /* \"#utility.yul\":841:843   */\n      0x20\n        /* \"#utility.yul\":838:839   */\n      dup2\n        /* \"#utility.yul\":834:844   */\n      add\n        /* \"#utility.yul\":829:844   */\n      swap1\n      pop\n        /* \"#utility.yul\":805:918   */\n      jump(tag_190)\n    tag_192:\n        /* \"#utility.yul\":952:953   */\n      0x00\n        /* \"#utility.yul\":943:949   */\n      dup5\n        /* \"#utility.yul\":938:941   */\n      dup5\n        /* \"#utility.yul\":934:950   */\n      add\n        /* \"#utility.yul\":927:954   */\n      mstore\n        /* \"#utility.yul\":776:960   */\n      pop\n        /* \"#utility.yul\":714:960   */\n      pop\n      pop\n      pop\n      jump\t// out\n        /* \"#utility.yul\":966:1068   */\n    tag_158:\n        /* \"#utility.yul\":1007:1013   */\n      0x00\n        /* \"#utility.yul\":1058:1060   */\n      0x1f\n        /* \"#utility.yul\":1054:1061   */\n      not\n        /* \"#utility.yul\":1049:1051   */\n      0x1f\n        /* \"#utility.yul\":1042:1047   */\n      dup4\n        /* \"#utility.yul\":1038:1052   */\n      add\n        /* \"#utility.yul\":1034:1062   */\n      and\n        /* \"#utility.yul\":1024:1062   */\n      swap1\n      pop\n        /* \"#utility.yul\":966:1068   */\n      swap2\n      swap1\n      pop\n      jump\t// out\n        /* \"#utility.yul\":1074:1451   */\n    tag_159:\n        /* \"#utility.yul\":1162:1165   */\n      0x00\n        /* \"#utility.yul\":1190:1229   */\n      tag_195\n        /* \"#utility.yul\":1223:1228   */\n      dup3\n        /* \"#utility.yul\":1190:1229   */\n      tag_155\n      jump\t// in\n    tag_195:\n        /* \"#utility.yul\":1245:1316   */\n      tag_196\n        /* \"#utility.yul\":1309:1315   */\n      dup2\n        /* \"#utility.yul\":1304:1307   */\n      dup6\n        /* \"#utility.yul\":1245:1316   */\n      tag_156\n      jump\t// in\n    tag_196:\n        /* \"#utility.yul\":1238:1316   */\n      swap4\n      pop\n        /* \"#utility.yul\":1325:1390   */\n      tag_197\n        /* \"#utility.yul\":1383:1389   */\n      dup2\n        /* \"#utility.yul\":1378:1381   */\n      dup6\n        /* \"#utility.yul\":1371:1375   */\n      0x20\n        /* \"#utility.yul\":1364:1369   */\n      dup7\n        /* \"#utility.yul\":1360:1376   */\n      add\n        /* \"#utility.yul\":1325:1390   */\n      tag_157\n      jump\t// in\n    tag_197:\n        /* \"#utility.yul\":1415:1444   */\n      tag_198\n        /* \"#utility.yul\":1437:1443   */\n      dup2\n        /* \"#utility.yul\":1415:1444   */\n      tag_158\n      jump\t// in\n    tag_198:\n        /* \"#utility.yul\":1410:1413   */\n      dup5\n        /* \"#utility.yul\":1406:1445   */\n      add\n        /* \"#utility.yul\":1399:1445   */\n      swap2\n      pop\n        /* \"#utility.yul\":1166:1451   */\n      pop\n        /* \"#utility.yul\":1074:1451   */\n      swap3\n      swap2\n      pop\n      pop\n      jump\t// out\n        /* \"#utility.yul\":1457:1770   */\n    tag_29:\n        /* \"#utility.yul\":1570:1574   */\n      0x00\n        /* \"#utility.yul\":1608:1610   */\n      0x20\n        /* \"#utility.yul\":1597:1606   */\n      dup3\n        /* \"#utility.yul\":1593:1611   */\n      add\n        /* \"#utility.yul\":1585:1611   */\n      swap1\n      pop\n        /* \"#utility.yul\":1657:1666   */\n      dup2\n        /* \"#utility.yul\":1651:1655   */\n      dup2\n        /* \"#utility.yul\":1647:1667   */\n      sub\n        /* \"#utility.yul\":1643:1644   */\n      0x00\n        /* \"#utility.yul\":1632:1641   */\n      dup4\n        /* \"#utility.yul\":1628:1645   */\n      add\n        /* \"#utility.yul\":1621:1668   */\n      mstore\n        /* \"#utility.yul\":1685:1763   */\n      tag_200\n        /* \"#utility.yul\":1758:1762   */\n      dup2\n        /* \"#utility.yul\":1749:1755   */\n      dup5\n        /* \"#utility.yul\":1685:1763   */\n      tag_159\n      jump\t// in\n    tag_200:\n        /* \"#utility.yul\":1677:1763   */\n      swap1\n      pop\n        /* \"#utility.yul\":1457:1770   */\n      swap3\n      swap2\n      pop\n      pop\n      jump\t// out\n        /* \"#utility.yul\":1857:1974   */\n    tag_161:\n        /* \"#utility.yul\":1966:1967   */\n      0x00\n        /* \"#utility.yul\":1963:1964   */\n      dup1\n        /* \"#utility.yul\":1956:1968   */\n      revert\n        /* \"#utility.yul\":2103:2229   */\n    tag_163:\n        /* \"#utility.yul\":2140:2147   */\n      0x00\n        /* \"#utility.yul\":2180:2222   */\n      0xffffffffffffffffffffffffffffffffffffffff\n        /* \"#utility.yul\":2173:2178   */\n      dup3\n        /* \"#utility.yul\":2169:2223   */\n      and\n        /* \"#utility.yul\":2158:2223   */\n      swap1\n      pop\n        /* \"#utility.yul\":2103:2229   */\n      swap2\n      swap1\n      pop\n      jump\t// out\n        /* \"#utility.yul\":2235:2331   */\n    tag_164:\n        /* \"#utility.yul\":2272:2279   */\n      0x00\n        /* \"#utility.yul\":2301:2325   */\n      tag_206\n        /* \"#utility.yul\":2319:2324   */\n      dup3\n        /* \"#utility.yul\":2301:2325   */\n      tag_163\n      jump\t// in\n    tag_206:\n        /* \"#utility.yul\":2290:2325   */\n      swap1\n      pop\n        /* \"#utility.yul\":2235:2331   */\n      swap2\n      swap1\n      pop\n      jump\t// out\n        /* \"#utility.yul\":2337:2459   */\n    tag_165:\n        /* \"#utility.yul\":2410:2434   */\n      tag_208\n        /* \"#utility.yul\":2428:2433   */\n      dup2\n        /* \"#utility.yul\":2410:2434   */\n      tag_164\n      jump\t// in\n    tag_208:\n        /* \"#utility.yul\":2403:2408   */\n      dup2\n        /* \"#utility.yul\":2400:2435   */\n      eq\n        /* \"#utility.yul\":2390:2453   */\n      tag_209\n      jumpi\n        /* \"#utility.yul\":2449:2450   */\n      0x00\n        /* \"#utility.yul\":2446:2447   */\n      dup1\n        /* \"#utility.yul\":2439:2451   */\n      revert\n        /* \"#utility.yul\":2390:2453   */\n    tag_209:\n        /* \"#utility.yul\":2337:2459   */\n      pop\n      jump\t// out\n        /* \"#utility.yul\":2465:2604   */\n    tag_166:\n        /* \"#utility.yul\":2511:2516   */\n      0x00\n        /* \"#utility.yul\":2549:2555   */\n      dup2\n        /* \"#utility.yul\":2536:2556   */\n      calldataload\n        /* \"#utility.yul\":2527:2556   */\n      swap1\n      pop\n        /* \"#utility.yul\":2565:2598   */\n      tag_211\n        /* \"#utility.yul\":2592:2597   */\n      dup2\n        /* \"#utility.yul\":2565:2598   */\n      tag_165\n      jump\t// in\n    tag_211:\n        /* \"#utility.yul\":2465:2604   */\n      swap3\n      swap2\n      pop\n      pop\n      jump\t// out\n        /* \"#utility.yul\":2610:2687   */\n    tag_167:\n        /* \"#utility.yul\":2647:2654   */\n      0x00\n        /* \"#utility.yul\":2676:2681   */\n      dup2\n        /* \"#utility.yul\":2665:2681   */\n      swap1\n      pop\n        /* \"#utility.yul\":2610:2687   */\n      swap2\n      swap1\n      pop\n      jump\t// out\n        /* \"#utility.yul\":2693:2815   */\n    tag_168:\n        /* \"#utility.yul\":2766:2790   */\n      tag_214\n        /* \"#utility.yul\":2784:2789   */\n      dup2\n        /* \"#utility.yul\":2766:2790   */\n      tag_167\n      jump\t// in\n    tag_214:\n        /* \"#utility.yul\":2759:2764   */\n      dup2\n        /* \"#utility.yul\":2756:2791   */\n      eq\n        /* \"#utility.yul\":2746:2809   */\n      tag_215\n      jumpi\n        /* \"#utility.yul\":2805:2806   */\n      0x00\n        /* \"#utility.yul\":2802:2803   */\n      dup1\n        /* \"#utility.yul\":2795:2807   */\n      revert\n        /* \"#utility.yul\":2746:2809   */\n    tag_215:\n        /* \"#utility.yul\":2693:2815   */\n      pop\n      jump\t// out\n        /* \"#utility.yul\":2821:2960   */\n    tag_169:\n        /* \"#utility.yul\":2867:2872   */\n      0x00\n        /* \"#utility.yul\":2905:2911   */\n      dup2\n        /* \"#utility.yul\":2892:2912   */\n      calldataload\n        /* \"#utility.yul\":2883:2912   */\n      swap1\n      pop\n        /* \"#utility.yul\":2921:2954   */\n      tag_217\n        /* \"#utility.yul\":2948:2953   */\n      dup2\n        /* \"#utility.yul\":2921:2954   */\n      tag_168\n      jump\t// in\n    tag_217:\n        /* \"#utility.yul\":2821:2960   */\n      swap3\n      swap2\n      pop\n      pop\n      jump\t// out\n        /* \"#utility.yul\":2966:3440   */\n    tag_32:\n        /* \"#utility.yul\":3034:3040   */\n      0x00\n        /* \"#utility.yul\":3042:3048   */\n      dup1\n        /* \"#utility.yul\":3091:3093   */\n      0x40\n        /* \"#utility.yul\":3079:3088   */\n      dup4\n        /* \"#utility.yul\":3070:3077   */\n      dup6\n        /* \"#utility.yul\":3066:3089   */\n      sub\n        /* \"#utility.yul\":3062:3094   */\n      slt\n        /* \"#utility.yul\":3059:3178   */\n      iszero\n      tag_219\n      jumpi\n        /* \"#utility.yul\":3097:3176   */\n      tag_220\n      tag_161\n      jump\t// in\n    tag_220:\n        /* \"#utility.yul\":3059:3178   */\n    tag_219:\n        /* \"#utility.yul\":3217:3218   */\n      0x00\n        /* \"#utility.yul\":3242:3295   */\n      tag_221\n        /* \"#utility.yul\":3287:3294   */\n      dup6\n        /* \"#utility.yul\":3278:3284   */\n      dup3\n        /* \"#utility.yul\":3267:3276   */\n      dup7\n        /* \"#utility.yul\":3263:3285   */\n      add\n        /* \"#utility.yul\":3242:3295   */\n      tag_166\n      jump\t// in\n    tag_221:\n        /* \"#utility.yul\":3232:3295   */\n      swap3\n      pop\n        /* \"#utility.yul\":3188:3305   */\n      pop\n        /* \"#utility.yul\":3344:3346   */\n      0x20\n        /* \"#utility.yul\":3370:3423   */\n      tag_222\n        /* \"#utility.yul\":3415:3422   */\n      dup6\n        /* \"#utility.yul\":3406:3412   */\n      dup3\n        /* \"#utility.yul\":3395:3404   */\n      dup7\n        /* \"#utility.yul\":3391:3413   */\n      add\n        /* \"#utility.yul\":3370:3423   */\n      tag_169\n      jump\t// in\n    tag_222:\n        /* \"#utility.yul\":3360:3423   */\n      swap2\n      pop\n        /* \"#utility.yul\":3315:3433   */\n      pop\n        /* \"#utility.yul\":2966:3440   */\n      swap3\n      pop\n      swap3\n      swap1\n      pop\n      jump\t// out\n        /* \"#utility.yul\":3446:3564   */\n    tag_170:\n        /* \"#utility.yul\":3533:3557   */\n      tag_224\n        /* \"#utility.yul\":3551:3556   */\n      dup2\n        /* \"#utility.yul\":3533:3557   */\n      tag_167\n      jump\t// in\n    tag_224:\n        /* \"#utility.yul\":3528:3531   */\n      dup3\n        /* \"#utility.yul\":3521:3558   */\n      mstore\n        /* \"#utility.yul\":3446:3564   */\n      pop\n      pop\n      jump\t// out\n        /* \"#utility.yul\":3570:3792   */\n    tag_38:\n        /* \"#utility.yul\":3663:3667   */\n      0x00\n        /* \"#utility.yul\":3701:3703   */\n      0x20\n        /* \"#utility.yul\":3690:3699   */\n      dup3\n        /* \"#utility.yul\":3686:3704   */\n      add\n        /* \"#utility.yul\":3678:3704   */\n      swap1\n      pop\n        /* \"#utility.yul\":3714:3785   */\n      tag_226\n        /* \"#utility.yul\":3782:3783   */\n      0x00\n        /* \"#utility.yul\":3771:3780   */\n      dup4\n        /* \"#utility.yul\":3767:3784   */\n      add\n        /* \"#utility.yul\":3758:3764   */\n      dup5\n        /* \"#utility.yul\":3714:3785   */\n      tag_170\n      jump\t// in\n    tag_226:\n        /* \"#utility.yul\":3570:3792   */\n      swap3\n      swap2\n      pop\n      pop\n      jump\t// out\n        /* \"#utility.yul\":3798:4417   */\n    tag_41:\n        /* \"#utility.yul\":3875:3881   */\n      0x00\n        /* \"#utility.yul\":3883:3889   */\n      dup1\n        /* \"#utility.yul\":3891:3897   */\n      0x00\n        /* \"#utility.yul\":3940:3942   */\n      0x60\n        /* \"#utility.yul\":3928:3937   */\n      dup5\n        /* \"#utility.yul\":3919:3926   */\n      dup7\n        /* \"#utility.yul\":3915:3938   */\n      sub\n        /* \"#utility.yul\":3911:3943   */\n      slt\n        /* \"#utility.yul\":3908:4027   */\n      iszero\n      tag_228\n      jumpi\n        /* \"#utility.yul\":3946:4025   */\n      tag_229\n      tag_161\n      jump\t// in\n    tag_229:\n        /* \"#utility.yul\":3908:4027   */\n    tag_228:\n        /* \"#utility.yul\":4066:4067   */\n      0x00\n        /* \"#utility.yul\":4091:4144   */\n      tag_230\n        /* \"#utility.yul\":4136:4143   */\n      dup7\n        /* \"#utility.yul\":4127:4133   */\n      dup3\n        /* \"#utility.yul\":4116:4125   */\n      dup8\n        /* \"#utility.yul\":4112:4134   */\n      add\n        /* \"#utility.yul\":4091:4144   */\n      tag_166\n      jump\t// in\n    tag_230:\n        /* \"#utility.yul\":4081:4144   */\n      swap4\n      pop\n        /* \"#utility.yul\":4037:4154   */\n      pop\n        /* \"#utility.yul\":4193:4195   */\n      0x20\n        /* \"#utility.yul\":4219:4272   */\n      tag_231\n        /* \"#utility.yul\":4264:4271   */\n      dup7\n        /* \"#utility.yul\":4255:4261   */\n      dup3\n        /* \"#utility.yul\":4244:4253   */\n      dup8\n        /* \"#utility.yul\":4240:4262   */\n      add\n        /* \"#utility.yul\":4219:4272   */\n      tag_166\n      jump\t// in\n    tag_231:\n        /* \"#utility.yul\":4209:4272   */\n      swap3\n      pop\n        /* \"#utility.yul\":4164:4282   */\n      pop\n        /* \"#utility.yul\":4321:4323   */\n      0x40\n        /* \"#utility.yul\":4347:4400   */\n      tag_232\n        /* \"#utility.yul\":4392:4399   */\n      dup7\n        /* \"#utility.yul\":4383:4389   */\n      dup3\n        /* \"#utility.yul\":4372:4381   */\n      dup8\n        /* \"#utility.yul\":4368:4390   */\n      add\n        /* \"#utility.yul\":4347:4400   */\n      tag_169\n      jump\t// in\n    tag_232:\n        /* \"#utility.yul\":4337:4400   */\n      swap2\n      pop\n        /* \"#utility.yul\":4292:4410   */\n      pop\n        /* \"#utility.yul\":3798:4417   */\n      swap3\n      pop\n      swap3\n      pop\n      swap3\n      jump\t// out\n        /* \"#utility.yul\":4423:4509   */\n    tag_171:\n        /* \"#utility.yul\":4458:4465   */\n      0x00\n        /* \"#utility.yul\":4498:4502   */\n      0xff\n        /* \"#utility.yul\":4491:4496   */\n      dup3\n        /* \"#utility.yul\":4487:4503   */\n      and\n        /* \"#utility.yul\":4476:4503   */\n      swap1\n      pop\n        /* \"#utility.yul\":4423:4509   */\n      swap2\n      swap1\n      pop\n      jump\t// out\n        /* \"#utility.yul\":4515:4627   */\n    tag_172:\n        /* \"#utility.yul\":4598:4620   */\n      tag_235\n        /* \"#utility.yul\":4614:4619   */\n      dup2\n        /* \"#utility.yul\":4598:4620   */\n      tag_171\n      jump\t// in\n    tag_235:\n        /* \"#utility.yul\":4593:4596   */\n      dup3\n        /* \"#utility.yul\":4586:4621   */\n      mstore\n        /* \"#utility.yul\":4515:4627   */\n      pop\n      pop\n      jump\t// out\n        /* \"#utility.yul\":4633:4847   */\n    tag_47:\n        /* \"#utility.yul\":4722:4726   */\n      0x00\n        /* \"#utility.yul\":4760:4762   */\n      0x20\n        /* \"#utility.yul\":4749:4758   */\n      dup3\n        /* \"#utility.yul\":4745:4763   */\n      add\n        /* \"#utility.yul\":4737:4763   */\n      swap1\n      pop\n        /* \"#utility.yul\":4773:4840   */\n      tag_237\n        /* \"#utility.yul\":4837:4838   */\n      0x00\n        /* \"#utility.yul\":4826:4835   */\n      dup4\n        /* \"#utility.yul\":4822:4839   */\n      add\n        /* \"#utility.yul\":4813:4819   */\n      dup5\n        /* \"#utility.yul\":4773:4840   */\n      tag_172\n      jump\t// in\n    tag_237:\n        /* \"#utility.yul\":4633:4847   */\n      swap3\n      swap2\n      pop\n      pop\n      jump\t// out\n        /* \"#utility.yul\":4853:5182   */\n    tag_54:\n        /* \"#utility.yul\":4912:4918   */\n      0x00\n        /* \"#utility.yul\":4961:4963   */\n      0x20\n        /* \"#utility.yul\":4949:4958   */\n      dup3\n        /* \"#utility.yul\":4940:4947   */\n      dup5\n        /* \"#utility.yul\":4936:4959   */\n      sub\n        /* \"#utility.yul\":4932:4964   */\n      slt\n        /* \"#utility.yul\":4929:5048   */\n      iszero\n      tag_239\n      jumpi\n        /* \"#utility.yul\":4967:5046   */\n      tag_240\n      tag_161\n      jump\t// in\n    tag_240:\n        /* \"#utility.yul\":4929:5048   */\n    tag_239:\n        /* \"#utility.yul\":5087:5088   */\n      0x00\n        /* \"#utility.yul\":5112:5165   */\n      tag_241\n        /* \"#utility.yul\":5157:5164   */\n      dup5\n        /* \"#utility.yul\":5148:5154   */\n      dup3\n        /* \"#utility.yul\":5137:5146   */\n      dup6\n        /* \"#utility.yul\":5133:5155   */\n      add\n        /* \"#utility.yul\":5112:5165   */\n      tag_166\n      jump\t// in\n    tag_241:\n        /* \"#utility.yul\":5102:5165   */\n      swap2\n      pop\n        /* \"#utility.yul\":5058:5175   */\n      pop\n        /* \"#utility.yul\":4853:5182   */\n      swap3\n      swap2\n      pop\n      pop\n      jump\t// out\n        /* \"#utility.yul\":5188:5306   */\n    tag_173:\n        /* \"#utility.yul\":5275:5299   */\n      tag_243\n        /* \"#utility.yul\":5293:5298   */\n      dup2\n        /* \"#utility.yul\":5275:5299   */\n      tag_164\n      jump\t// in\n    tag_243:\n        /* \"#utility.yul\":5270:5273   */\n      dup3\n        /* \"#utility.yul\":5263:5300   */\n      mstore\n        /* \"#utility.yul\":5188:5306   */\n      pop\n      pop\n      jump\t// out\n        /* \"#utility.yul\":5312:5534   */\n    tag_63:\n        /* \"#utility.yul\":5405:5409   */\n      0x00\n        /* \"#utility.yul\":5443:5445   */\n      0x20\n        /* \"#utility.yul\":5432:5441   */\n      dup3\n        /* \"#utility.yul\":5428:5446   */\n      add\n        /* \"#utility.yul\":5420:5446   */\n      swap1\n      pop\n        /* \"#utility.yul\":5456:5527   */\n      tag_245\n        /* \"#utility.yul\":5524:5525   */\n      0x00\n        /* \"#utility.yul\":5513:5522   */\n      dup4\n        /* \"#utility.yul\":5509:5526   */\n      add\n        /* \"#utility.yul\":5500:5506   */\n      dup5\n        /* \"#utility.yul\":5456:5527   */\n      tag_173\n      jump\t// in\n    tag_245:\n        /* \"#utility.yul\":5312:5534   */\n      swap3\n      swap2\n      pop\n      pop\n      jump\t// out\n        /* \"#utility.yul\":5540:6305   */\n    tag_76:\n        /* \"#utility.yul\":5626:5632   */\n      0x00\n        /* \"#utility.yul\":5634:5640   */\n      dup1\n        /* \"#utility.yul\":5642:5648   */\n      0x00\n        /* \"#utility.yul\":5650:5656   */\n      dup1\n        /* \"#utility.yul\":5699:5702   */\n      0x80\n        /* \"#utility.yul\":5687:5696   */\n      dup6\n        /* \"#utility.yul\":5678:5685   */\n      dup8\n        /* \"#utility.yul\":5674:5697   */\n      sub\n        /* \"#utility.yul\":5670:5703   */\n      slt\n        /* \"#utility.yul\":5667:5787   */\n      iszero\n      tag_247\n      jumpi\n        /* \"#utility.yul\":5706:5785   */\n      tag_248\n      tag_161\n      jump\t// in\n    tag_248:\n        /* \"#utility.yul\":5667:5787   */\n    tag_247:\n        /* \"#utility.yul\":5826:5827   */\n      0x00\n        /* \"#utility.yul\":5851:5904   */\n      tag_249\n        /* \"#utility.yul\":5896:5903   */\n      dup8\n        /* \"#utility.yul\":5887:5893   */\n      dup3\n        /* \"#utility.yul\":5876:5885   */\n      dup9\n        /* \"#utility.yul\":5872:5894   */\n      add\n        /* \"#utility.yul\":5851:5904   */\n      tag_166\n      jump\t// in\n    tag_249:\n        /* \"#utility.yul\":5841:5904   */\n      swap5\n      pop\n        /* \"#utility.yul\":5797:5914   */\n      pop\n        /* \"#utility.yul\":5953:5955   */\n      0x20\n        /* \"#utility.yul\":5979:6032   */\n      tag_250\n        /* \"#utility.yul\":6024:6031   */\n      dup8\n        /* \"#utility.yul\":6015:6021   */\n      dup3\n        /* \"#utility.yul\":6004:6013   */\n      dup9\n        /* \"#utility.yul\":6000:6022   */\n      add\n        /* \"#utility.yul\":5979:6032   */\n      tag_166\n      jump\t// in\n    tag_250:\n        /* \"#utility.yul\":5969:6032   */\n      swap4\n      pop\n        /* \"#utility.yul\":5924:6042   */\n      pop\n        /* \"#utility.yul\":6081:6083   */\n      0x40\n        /* \"#utility.yul\":6107:6160   */\n      tag_251\n        /* \"#utility.yul\":6152:6159   */\n      dup8\n        /* \"#utility.yul\":6143:6149   */\n      dup3\n        /* \"#utility.yul\":6132:6141   */\n      dup9\n        /* \"#utility.yul\":6128:6150   */\n      add\n        /* \"#utility.yul\":6107:6160   */\n      tag_166\n      jump\t// in\n    tag_251:\n        /* \"#utility.yul\":6097:6160   */\n      swap3\n      pop\n        /* \"#utility.yul\":6052:6170   */\n      pop\n        /* \"#utility.yul\":6209:6211   */\n      0x60\n        /* \"#utility.yul\":6235:6288   */\n      tag_252\n        /* \"#utility.yul\":6280:6287   */\n      dup8\n        /* \"#utility.yul\":6271:6277   */\n      dup3\n        /* \"#utility.yul\":6260:6269   */\n      dup9\n        /* \"#utility.yul\":6256:6278   */\n      add\n        /* \"#utility.yul\":6235:6288   */\n      tag_169\n      jump\t// in\n    tag_252:\n        /* \"#utility.yul\":6225:6288   */\n      swap2\n      pop\n        /* \"#utility.yul\":6180:6298   */\n      pop\n        /* \"#utility.yul\":5540:6305   */\n      swap3\n      swap6\n      swap2\n      swap5\n      pop\n      swap3\n      pop\n      jump\t// out\n        /* \"#utility.yul\":6311:6785   */\n    tag_81:\n        /* \"#utility.yul\":6379:6385   */\n      0x00\n        /* \"#utility.yul\":6387:6393   */\n      dup1\n        /* \"#utility.yul\":6436:6438   */\n      0x40\n        /* \"#utility.yul\":6424:6433   */\n      dup4\n        /* \"#utility.yul\":6415:6422   */\n      dup6\n        /* \"#utility.yul\":6411:6434   */\n      sub\n        /* \"#utility.yul\":6407:6439   */\n      slt\n        /* \"#utility.yul\":6404:6523   */\n      iszero\n      tag_254\n      jumpi\n        /* \"#utility.yul\":6442:6521   */\n      tag_255\n      tag_161\n      jump\t// in\n    tag_255:\n        /* \"#utility.yul\":6404:6523   */\n    tag_254:\n        /* \"#utility.yul\":6562:6563   */\n      0x00\n        /* \"#utility.yul\":6587:6640   */\n      tag_256\n        /* \"#utility.yul\":6632:6639   */\n      dup6\n        /* \"#utility.yul\":6623:6629   */\n      dup3\n        /* \"#utility.yul\":6612:6621   */\n      dup7\n        /* \"#utility.yul\":6608:6630   */\n      add\n        /* \"#utility.yul\":6587:6640   */\n      tag_166\n      jump\t// in\n    tag_256:\n        /* \"#utility.yul\":6577:6640   */\n      swap3\n      pop\n        /* \"#utility.yul\":6533:6650   */\n      pop\n        /* \"#utility.yul\":6689:6691   */\n      0x20\n        /* \"#utility.yul\":6715:6768   */\n      tag_257\n        /* \"#utility.yul\":6760:6767   */\n      dup6\n        /* \"#utility.yul\":6751:6757   */\n      dup3\n        /* \"#utility.yul\":6740:6749   */\n      dup7\n        /* \"#utility.yul\":6736:6758   */\n      add\n        /* \"#utility.yul\":6715:6768   */\n      tag_166\n      jump\t// in\n    tag_257:\n        /* \"#utility.yul\":6705:6768   */\n      swap2\n      pop\n        /* \"#utility.yul\":6660:6778   */\n      pop\n        /* \"#utility.yul\":6311:6785   */\n      swap3\n      pop\n      swap3\n      swap1\n      pop\n      jump\t// out\n        /* \"#utility.yul\":6791:6973   */\n    tag_174:\n        /* \"#utility.yul\":6931:6965   */\n      0x46726f6d20646f65736e2774206861766520656e6f7567682062616c616e6365\n        /* \"#utility.yul\":6927:6928   */\n      0x00\n        /* \"#utility.yul\":6919:6925   */\n      dup3\n        /* \"#utility.yul\":6915:6929   */\n      add\n        /* \"#utility.yul\":6908:6966   */\n      mstore\n        /* \"#utility.yul\":6791:6973   */\n      pop\n      jump\t// out\n        /* \"#utility.yul\":6979:7345   */\n    tag_175:\n        /* \"#utility.yul\":7121:7124   */\n      0x00\n        /* \"#utility.yul\":7142:7209   */\n      tag_260\n        /* \"#utility.yul\":7206:7208   */\n      0x20\n        /* \"#utility.yul\":7201:7204   */\n      dup4\n        /* \"#utility.yul\":7142:7209   */\n      tag_156\n      jump\t// in\n    tag_260:\n        /* \"#utility.yul\":7135:7209   */\n      swap2\n      pop\n        /* \"#utility.yul\":7218:7311   */\n      tag_261\n        /* \"#utility.yul\":7307:7310   */\n      dup3\n        /* \"#utility.yul\":7218:7311   */\n      tag_174\n      jump\t// in\n    tag_261:\n        /* \"#utility.yul\":7336:7338   */\n      0x20\n        /* \"#utility.yul\":7331:7334   */\n      dup3\n        /* \"#utility.yul\":7327:7339   */\n      add\n        /* \"#utility.yul\":7320:7339   */\n      swap1\n      pop\n        /* \"#utility.yul\":6979:7345   */\n      swap2\n      swap1\n      pop\n      jump\t// out\n        /* \"#utility.yul\":7351:7770   */\n    tag_95:\n        /* \"#utility.yul\":7517:7521   */\n      0x00\n        /* \"#utility.yul\":7555:7557   */\n      0x20\n        /* \"#utility.yul\":7544:7553   */\n      dup3\n        /* \"#utility.yul\":7540:7558   */\n      add\n        /* \"#utility.yul\":7532:7558   */\n      swap1\n      pop\n        /* \"#utility.yul\":7604:7613   */\n      dup2\n        /* \"#utility.yul\":7598:7602   */\n      dup2\n        /* \"#utility.yul\":7594:7614   */\n      sub\n        /* \"#utility.yul\":7590:7591   */\n      0x00\n        /* \"#utility.yul\":7579:7588   */\n      dup4\n        /* \"#utility.yul\":7575:7592   */\n      add\n        /* \"#utility.yul\":7568:7615   */\n      mstore\n        /* \"#utility.yul\":7632:7763   */\n      tag_263\n        /* \"#utility.yul\":7758:7762   */\n      dup2\n        /* \"#utility.yul\":7632:7763   */\n      tag_175\n      jump\t// in\n    tag_263:\n        /* \"#utility.yul\":7624:7763   */\n      swap1\n      pop\n        /* \"#utility.yul\":7351:7770   */\n      swap2\n      swap1\n      pop\n      jump\t// out\n        /* \"#utility.yul\":7776:7956   */\n    tag_176:\n        /* \"#utility.yul\":7916:7948   */\n      0x4e6f7420616c6c6f77656420746f207370656e642074686973206d7563680000\n        /* \"#utility.yul\":7912:7913   */\n      0x00\n        /* \"#utility.yul\":7904:7910   */\n      dup3\n        /* \"#utility.yul\":7900:7914   */\n      add\n        /* \"#utility.yul\":7893:7949   */\n      mstore\n        /* \"#utility.yul\":7776:7956   */\n      pop\n      jump\t// out\n        /* \"#utility.yul\":7962:8328   */\n    tag_177:\n        /* \"#utility.yul\":8104:8107   */\n      0x00\n        /* \"#utility.yul\":8125:8192   */\n      tag_266\n        /* \"#utility.yul\":8189:8191   */\n      0x1e\n        /* \"#utility.yul\":8184:8187   */\n      dup4\n        /* \"#utility.yul\":8125:8192   */\n      tag_156\n      jump\t// in\n    tag_266:\n        /* \"#utility.yul\":8118:8192   */\n      swap2\n      pop\n        /* \"#utility.yul\":8201:8294   */\n      tag_267\n        /* \"#utility.yul\":8290:8293   */\n      dup3\n        /* \"#utility.yul\":8201:8294   */\n      tag_176\n      jump\t// in\n    tag_267:\n        /* \"#utility.yul\":8319:8321   */\n      0x20\n        /* \"#utility.yul\":8314:8317   */\n      dup3\n        /* \"#utility.yul\":8310:8322   */\n      add\n        /* \"#utility.yul\":8303:8322   */\n      swap1\n      pop\n        /* \"#utility.yul\":7962:8328   */\n      swap2\n      swap1\n      pop\n      jump\t// out\n        /* \"#utility.yul\":8334:8753   */\n    tag_98:\n        /* \"#utility.yul\":8500:8504   */\n      0x00\n        /* \"#utility.yul\":8538:8540   */\n      0x20\n        /* \"#utility.yul\":8527:8536   */\n      dup3\n        /* \"#utility.yul\":8523:8541   */\n      add\n        /* \"#utility.yul\":8515:8541   */\n      swap1\n      pop\n        /* \"#utility.yul\":8587:8596   */\n      dup2\n        /* \"#utility.yul\":8581:8585   */\n      dup2\n        /* \"#utility.yul\":8577:8597   */\n      sub\n        /* \"#utility.yul\":8573:8574   */\n      0x00\n        /* \"#utility.yul\":8562:8571   */\n      dup4\n        /* \"#utility.yul\":8558:8575   */\n      add\n        /* \"#utility.yul\":8551:8598   */\n      mstore\n        /* \"#utility.yul\":8615:8746   */\n      tag_269\n        /* \"#utility.yul\":8741:8745   */\n      dup2\n        /* \"#utility.yul\":8615:8746   */\n      tag_177\n      jump\t// in\n    tag_269:\n        /* \"#utility.yul\":8607:8746   */\n      swap1\n      pop\n        /* \"#utility.yul\":8334:8753   */\n      swap2\n      swap1\n      pop\n      jump\t// out\n        /* \"#utility.yul\":8759:8984   */\n    tag_178:\n        /* \"#utility.yul\":8899:8933   */\n      0x6d73672e73656e64657220646f65736e2774206861766520656e6f7567682062\n        /* \"#utility.yul\":8895:8896   */\n      0x00\n        /* \"#utility.yul\":8887:8893   */\n      dup3\n        /* \"#utility.yul\":8883:8897   */\n      add\n        /* \"#utility.yul\":8876:8934   */\n      mstore\n        /* \"#utility.yul\":8968:8976   */\n      0x616c616e63650000000000000000000000000000000000000000000000000000\n        /* \"#utility.yul\":8963:8965   */\n      0x20\n        /* \"#utility.yul\":8955:8961   */\n      dup3\n        /* \"#utility.yul\":8951:8966   */\n      add\n        /* \"#utility.yul\":8944:8977   */\n      mstore\n        /* \"#utility.yul\":8759:8984   */\n      pop\n      jump\t// out\n        /* \"#utility.yul\":8990:9356   */\n    tag_179:\n        /* \"#utility.yul\":9132:9135   */\n      0x00\n        /* \"#utility.yul\":9153:9220   */\n      tag_272\n        /* \"#utility.yul\":9217:9219   */\n      0x26\n        /* \"#utility.yul\":9212:9215   */\n      dup4\n        /* \"#utility.yul\":9153:9220   */\n      tag_156\n      jump\t// in\n    tag_272:\n        /* \"#utility.yul\":9146:9220   */\n      swap2\n      pop\n        /* \"#utility.yul\":9229:9322   */\n      tag_273\n        /* \"#utility.yul\":9318:9321   */\n      dup3\n        /* \"#utility.yul\":9229:9322   */\n      tag_178\n      jump\t// in\n    tag_273:\n        /* \"#utility.yul\":9347:9349   */\n      0x40\n        /* \"#utility.yul\":9342:9345   */\n      dup3\n        /* \"#utility.yul\":9338:9350   */\n      add\n        /* \"#utility.yul\":9331:9350   */\n      swap1\n      pop\n        /* \"#utility.yul\":8990:9356   */\n      swap2\n      swap1\n      pop\n      jump\t// out\n        /* \"#utility.yul\":9362:9781   */\n    tag_125:\n        /* \"#utility.yul\":9528:9532   */\n      0x00\n        /* \"#utility.yul\":9566:9568   */\n      0x20\n        /* \"#utility.yul\":9555:9564   */\n      dup3\n        /* \"#utility.yul\":9551:9569   */\n      add\n        /* \"#utility.yul\":9543:9569   */\n      swap1\n      pop\n        /* \"#utility.yul\":9615:9624   */\n      dup2\n        /* \"#utility.yul\":9609:9613   */\n      dup2\n        /* \"#utility.yul\":9605:9625   */\n      sub\n        /* \"#utility.yul\":9601:9602   */\n      0x00\n        /* \"#utility.yul\":9590:9599   */\n      dup4\n        /* \"#utility.yul\":9586:9603   */\n      add\n        /* \"#utility.yul\":9579:9626   */\n      mstore\n        /* \"#utility.yul\":9643:9774   */\n      tag_275\n        /* \"#utility.yul\":9769:9773   */\n      dup2\n        /* \"#utility.yul\":9643:9774   */\n      tag_179\n      jump\t// in\n    tag_275:\n        /* \"#utility.yul\":9635:9774   */\n      swap1\n      pop\n        /* \"#utility.yul\":9362:9781   */\n      swap2\n      swap1\n      pop\n      jump\t// out\n        /* \"#utility.yul\":9787:9967   */\n    tag_145:\n        /* \"#utility.yul\":9835:9912   */\n      0x4e487b7100000000000000000000000000000000000000000000000000000000\n        /* \"#utility.yul\":9832:9833   */\n      0x00\n        /* \"#utility.yul\":9825:9913   */\n      mstore\n        /* \"#utility.yul\":9932:9936   */\n      0x01\n        /* \"#utility.yul\":9929:9930   */\n      0x04\n        /* \"#utility.yul\":9922:9937   */\n      mstore\n        /* \"#utility.yul\":9956:9960   */\n      0x24\n        /* \"#utility.yul\":9953:9954   */\n      0x00\n        /* \"#utility.yul\":9946:9961   */\n      revert\n        /* \"#utility.yul\":9973:10153   */\n    tag_180:\n        /* \"#utility.yul\":10021:10098   */\n      0x4e487b7100000000000000000000000000000000000000000000000000000000\n        /* \"#utility.yul\":10018:10019   */\n      0x00\n        /* \"#utility.yul\":10011:10099   */\n      mstore\n        /* \"#utility.yul\":10118:10122   */\n      0x11\n        /* \"#utility.yul\":10115:10116   */\n      0x04\n        /* \"#utility.yul\":10108:10123   */\n      mstore\n        /* \"#utility.yul\":10142:10146   */\n      0x24\n        /* \"#utility.yul\":10139:10140   */\n      0x00\n        /* \"#utility.yul\":10132:10147   */\n      revert\n        /* \"#utility.yul\":10159:10353   */\n    tag_147:\n        /* \"#utility.yul\":10199:10203   */\n      0x00\n        /* \"#utility.yul\":10219:10239   */\n      tag_279\n        /* \"#utility.yul\":10237:10238   */\n      dup3\n        /* \"#utility.yul\":10219:10239   */\n      tag_167\n      jump\t// in\n    tag_279:\n        /* \"#utility.yul\":10214:10239   */\n      swap2\n      pop\n        /* \"#utility.yul\":10253:10273   */\n      tag_280\n        /* \"#utility.yul\":10271:10272   */\n      dup4\n        /* \"#utility.yul\":10253:10273   */\n      tag_167\n      jump\t// in\n    tag_280:\n        /* \"#utility.yul\":10248:10273   */\n      swap3\n      pop\n        /* \"#utility.yul\":10297:10298   */\n      dup3\n        /* \"#utility.yul\":10294:10295   */\n      dup3\n        /* \"#utility.yul\":10290:10299   */\n      sub\n        /* \"#utility.yul\":10282:10299   */\n      swap1\n      pop\n        /* \"#utility.yul\":10321:10322   */\n      dup2\n        /* \"#utility.yul\":10315:10319   */\n      dup2\n        /* \"#utility.yul\":10312:10323   */\n      gt\n        /* \"#utility.yul\":10309:10346   */\n      iszero\n      tag_281\n      jumpi\n        /* \"#utility.yul\":10326:10344   */\n      tag_282\n      tag_180\n      jump\t// in\n    tag_282:\n        /* \"#utility.yul\":10309:10346   */\n    tag_281:\n        /* \"#utility.yul\":10159:10353   */\n      swap3\n      swap2\n      pop\n      pop\n      jump\t// out\n        /* \"#utility.yul\":10359:10550   */\n    tag_150:\n        /* \"#utility.yul\":10399:10402   */\n      0x00\n        /* \"#utility.yul\":10418:10438   */\n      tag_284\n        /* \"#utility.yul\":10436:10437   */\n      dup3\n        /* \"#utility.yul\":10418:10438   */\n      tag_167\n      jump\t// in\n    tag_284:\n        /* \"#utility.yul\":10413:10438   */\n      swap2\n      pop\n        /* \"#utility.yul\":10452:10472   */\n      tag_285\n        /* \"#utility.yul\":10470:10471   */\n      dup4\n        /* \"#utility.yul\":10452:10472   */\n      tag_167\n      jump\t// in\n    tag_285:\n        /* \"#utility.yul\":10447:10472   */\n      swap3\n      pop\n        /* \"#utility.yul\":10495:10496   */\n      dup3\n        /* \"#utility.yul\":10492:10493   */\n      dup3\n        /* \"#utility.yul\":10488:10497   */\n      add\n        /* \"#utility.yul\":10481:10497   */\n      swap1\n      pop\n        /* \"#utility.yul\":10516:10519   */\n      dup1\n        /* \"#utility.yul\":10513:10514   */\n      dup3\n        /* \"#utility.yul\":10510:10520   */\n      gt\n        /* \"#utility.yul\":10507:10543   */\n      iszero\n      tag_286\n      jumpi\n        /* \"#utility.yul\":10523:10541   */\n      tag_287\n      tag_180\n      jump\t// in\n    tag_287:\n        /* \"#utility.yul\":10507:10543   */\n    tag_286:\n        /* \"#utility.yul\":10359:10550   */\n      swap3\n      swap2\n      pop\n      pop\n      jump\t// out\n\n    auxdata: 0xa264697066735822122055e5bd592447b3bd964801dfd4b4d6d044766ee2c9edf28ec5b03cfaea41f91764736f6c63430008120033\n}\n",
				"bytecode": {
					"linkReferences": {},
					"object": "608060405260008060006101000a81548160ff02191690831515021790555033600060016101000a81548173ffffffffffffffffffffffffffffffffffffffff021916908373ffffffffffffffffffffffffffffffffffffffff16021790555034801561006b57600080fd5b50611a718061007b6000396000f3fe608060405234801561001057600080fd5b50600436106101005760003560e01c80637d64bcb411610097578063a9059cbb11610066578063a9059cbb146102b5578063db05ea05146102e5578063dd62ed3e14610315578063f0cf209d1461034557610100565b80637d64bcb41461023d578063893d20e81461025b5780638da5cb5b1461027957806395d89b411461029757610100565b806323b872dd116100d357806323b872dd1461018f578063313ce567146101bf57806340c10f19146101dd57806370a082311461020d57610100565b806305d2035b1461010557806306fdde0314610123578063095ea7b31461014157806318160ddd14610171575b600080fd5b61010d610375565b60405161011a91906114b3565b60405180910390f35b61012b610386565b604051610138919061155e565b60405180910390f35b61015b60048036038101906101569190611619565b6103bf565b60405161016891906114b3565b60405180910390f35b6101796104b1565b6040516101869190611668565b60405180910390f35b6101a960048036038101906101a49190611683565b6104bb565b6040516101b691906114b3565b60405180910390f35b6101c76108df565b6040516101d491906116f2565b60405180910390f35b6101f760048036038101906101f29190611619565b6108e4565b60405161020491906114b3565b60405180910390f35b6102276004803603810190610222919061170d565b610ac5565b6040516102349190611668565b60405180910390f35b610245610b0e565b60405161025291906114b3565b60405180910390f35b610263610bce565b6040516102709190611749565b60405180910390f35b610281610bf7565b60405161028e9190611749565b60405180910390f35b61029f610c1d565b6040516102ac919061155e565b60405180910390f35b6102cf60048036038101906102ca9190611619565b610c56565b6040516102dc91906114b3565b60405180910390f35b6102ff60048036038101906102fa9190611764565b610eab565b60405161030c91906114b3565b60405180910390f35b61032f600480360381019061032a91906117cb565b6112d0565b60405161033c9190611668565b60405180910390f35b61035f600480360381019061035a9190611683565b611357565b60405161036c91906114b3565b60405180910390f35b60008054906101000a900460ff1681565b6040518060400160405280600981526020017f44696365546f6b656e000000000000000000000000000000000000000000000081525081565b600081600160003373ffffffffffffffffffffffffffffffffffffffff1673ffffffffffffffffffffffffffffffffffffffff16815260200190815260200160002060008573ffffffffffffffffffffffffffffffffffffffff1673ffffffffffffffffffffffffffffffffffffffff168152602001908152602001600020819055508273ffffffffffffffffffffffffffffffffffffffff163373ffffffffffffffffffffffffffffffffffffffff167f8c5be1e5ebec7d5bd14f71427d1e84f3dd0314c0f7b2291e5b200ac8c7c3b9258460405161049f9190611668565b60405180910390a36001905092915050565b6000600354905090565b60008073ffffffffffffffffffffffffffffffffffffffff168373ffffffffffffffffffffffffffffffffffffffff16036104f557600080fd5b600260008573ffffffffffffffffffffffffffffffffffffffff1673ffffffffffffffffffffffffffffffffffffffff16815260200190815260200160002054821115610577576040517f08c379a000000000000000000000000000000000000000000000000000000000815260040161056e90611857565b60405180910390fd5b600160008573ffffffffffffffffffffffffffffffffffffffff1673ffffffffffffffffffffffffffffffffffffffff16815260200190815260200160002060003273ffffffffffffffffffffffffffffffffffffffff1673ffffffffffffffffffffffffffffffffffffffff16815260200190815260200160002054821115610636576040517f08c379a000000000000000000000000000000000000000000000000000000000815260040161062d906118c3565b60405180910390fd5b61068882600260008773ffffffffffffffffffffffffffffffffffffffff1673ffffffffffffffffffffffffffffffffffffffff1681526020019081526020016000205461144a90919063ffffffff16565b600260008673ffffffffffffffffffffffffffffffffffffffff1673ffffffffffffffffffffffffffffffffffffffff1681526020019081526020016000208190555061071d82600260008673ffffffffffffffffffffffffffffffffffffffff1673ffffffffffffffffffffffffffffffffffffffff1681526020019081526020016000205461147190919063ffffffff16565b600260008573ffffffffffffffffffffffffffffffffffffffff1673ffffffffffffffffffffffffffffffffffffffff168152602001908152602001600020819055506107ef82600160008773ffffffffffffffffffffffffffffffffffffffff1673ffffffffffffffffffffffffffffffffffffffff16815260200190815260200160002060003273ffffffffffffffffffffffffffffffffffffffff1673ffffffffffffffffffffffffffffffffffffffff1681526020019081526020016000205461144a90919063ffffffff16565b600160008673ffffffffffffffffffffffffffffffffffffffff1673ffffffffffffffffffffffffffffffffffffffff16815260200190815260200160002060003273ffffffffffffffffffffffffffffffffffffffff1673ffffffffffffffffffffffffffffffffffffffff168152602001908152602001600020819055508273ffffffffffffffffffffffffffffffffffffffff168473ffffffffffffffffffffffffffffffffffffffff167fddf252ad1be2c89b69c2b068fc378daa952ba7f163c4a11628f55a4df523b3ef846040516108cc9190611668565b60405180910390a3600190509392505050565b601281565b60008060019054906101000a900473ffffffffffffffffffffffffffffffffffffffff1673ffffffffffffffffffffffffffffffffffffffff163373ffffffffffffffffffffffffffffffffffffffff161461093f57600080fd5b60008054906101000a900460ff161561095757600080fd5b61096c8260035461147190919063ffffffff16565b6003819055506109c482600260008673ffffffffffffffffffffffffffffffffffffffff1673ffffffffffffffffffffffffffffffffffffffff1681526020019081526020016000205461147190919063ffffffff16565b600260008573ffffffffffffffffffffffffffffffffffffffff1673ffffffffffffffffffffffffffffffffffffffff168152602001908152602001600020819055508273ffffffffffffffffffffffffffffffffffffffff167f0f6798a560793a54c3bcfe86a93cde1e73087d944c0ea20544137d412139688583604051610a4d9190611668565b60405180910390a28273ffffffffffffffffffffffffffffffffffffffff16600073ffffffffffffffffffffffffffffffffffffffff167fddf252ad1be2c89b69c2b068fc378daa952ba7f163c4a11628f55a4df523b3ef84604051610ab39190611668565b60405180910390a36001905092915050565b6000600260008373ffffffffffffffffffffffffffffffffffffffff1673ffffffffffffffffffffffffffffffffffffffff168152602001908152602001600020549050919050565b60008060019054906101000a900473ffffffffffffffffffffffffffffffffffffffff1673ffffffffffffffffffffffffffffffffffffffff163373ffffffffffffffffffffffffffffffffffffffff1614610b6957600080fd5b60008054906101000a900460ff1615610b8157600080fd5b60016000806101000a81548160ff0219169083151502179055507fae5184fba832cb2b1f702aca6117b8d265eaf03ad33eb133f19dde0f5920fa0860405160405180910390a16001905090565b60008060019054906101000a900473ffffffffffffffffffffffffffffffffffffffff16905090565b600060019054906101000a900473ffffffffffffffffffffffffffffffffffffffff1681565b6040518060400160405280600281526020017f445400000000000000000000000000000000000000000000000000000000000081525081565b60008073ffffffffffffffffffffffffffffffffffffffff168373ffffffffffffffffffffffffffffffffffffffff1603610c9057600080fd5b600260003273ffffffffffffffffffffffffffffffffffffffff1673ffffffffffffffffffffffffffffffffffffffff16815260200190815260200160002054821115610d12576040517f08c379a0000000000000000000000000000000000000000000000000000000008152600401610d0990611955565b60405180910390fd5b610d6482600260003273ffffffffffffffffffffffffffffffffffffffff1673ffffffffffffffffffffffffffffffffffffffff1681526020019081526020016000205461144a90919063ffffffff16565b600260003273ffffffffffffffffffffffffffffffffffffffff1673ffffffffffffffffffffffffffffffffffffffff16815260200190815260200160002081905550610df982600260008673ffffffffffffffffffffffffffffffffffffffff1673ffffffffffffffffffffffffffffffffffffffff1681526020019081526020016000205461147190919063ffffffff16565b600260008573ffffffffffffffffffffffffffffffffffffffff1673ffffffffffffffffffffffffffffffffffffffff168152602001908152602001600020819055508273ffffffffffffffffffffffffffffffffffffffff163273ffffffffffffffffffffffffffffffffffffffff167fddf252ad1be2c89b69c2b068fc378daa952ba7f163c4a11628f55a4df523b3ef84604051610e999190611668565b60405180910390a36001905092915050565b60008073ffffffffffffffffffffffffffffffffffffffff168373ffffffffffffffffffffffffffffffffffffffff1603610ee557600080fd5b600260008673ffffffffffffffffffffffffffffffffffffffff1673ffffffffffffffffffffffffffffffffffffffff16815260200190815260200160002054821115610f67576040517f08c379a0000000000000000000000000000000000000000000000000000000008152600401610f5e90611857565b60405180910390fd5b600160008673ffffffffffffffffffffffffffffffffffffffff1673ffffffffffffffffffffffffffffffffffffffff16815260200190815260200160002060008573ffffffffffffffffffffffffffffffffffffffff1673ffffffffffffffffffffffffffffffffffffffff16815260200190815260200160002054821115611026576040517f08c379a000000000000000000000000000000000000000000000000000000000815260040161101d906118c3565b60405180910390fd5b61107882600260008873ffffffffffffffffffffffffffffffffffffffff1673ffffffffffffffffffffffffffffffffffffffff1681526020019081526020016000205461144a90919063ffffffff16565b600260008773ffffffffffffffffffffffffffffffffffffffff1673ffffffffffffffffffffffffffffffffffffffff1681526020019081526020016000208190555061110d82600260008673ffffffffffffffffffffffffffffffffffffffff1673ffffffffffffffffffffffffffffffffffffffff1681526020019081526020016000205461147190919063ffffffff16565b600260008573ffffffffffffffffffffffffffffffffffffffff1673ffffffffffffffffffffffffffffffffffffffff168152602001908152602001600020819055506111df82600160008873ffffffffffffffffffffffffffffffffffffffff1673ffffffffffffffffffffffffffffffffffffffff16815260200190815260200160002060008773ffffffffffffffffffffffffffffffffffffffff1673ffffffffffffffffffffffffffffffffffffffff1681526020019081526020016000205461144a90919063ffffffff16565b600160008773ffffffffffffffffffffffffffffffffffffffff1673ffffffffffffffffffffffffffffffffffffffff16815260200190815260200160002060008673ffffffffffffffffffffffffffffffffffffffff1673ffffffffffffffffffffffffffffffffffffffff168152602001908152602001600020819055508273ffffffffffffffffffffffffffffffffffffffff168573ffffffffffffffffffffffffffffffffffffffff167fddf252ad1be2c89b69c2b068fc378daa952ba7f163c4a11628f55a4df523b3ef846040516112bc9190611668565b60405180910390a360019050949350505050565b6000600160008473ffffffffffffffffffffffffffffffffffffffff1673ffffffffffffffffffffffffffffffffffffffff16815260200190815260200160002060008373ffffffffffffffffffffffffffffffffffffffff1673ffffffffffffffffffffffffffffffffffffffff16815260200190815260200160002054905092915050565b600081600160008673ffffffffffffffffffffffffffffffffffffffff1673ffffffffffffffffffffffffffffffffffffffff16815260200190815260200160002060008573ffffffffffffffffffffffffffffffffffffffff1673ffffffffffffffffffffffffffffffffffffffff168152602001908152602001600020819055508273ffffffffffffffffffffffffffffffffffffffff168473ffffffffffffffffffffffffffffffffffffffff167f8c5be1e5ebec7d5bd14f71427d1e84f3dd0314c0f7b2291e5b200ac8c7c3b925846040516114379190611668565b60405180910390a3600190509392505050565b60008282111561145d5761145c611975565b5b818361146991906119d3565b905092915050565b6000818361147f9190611a07565b90508281101561149257611491611975565b5b92915050565b60008115159050919050565b6114ad81611498565b82525050565b60006020820190506114c860008301846114a4565b92915050565b600081519050919050565b600082825260208201905092915050565b60005b838110156115085780820151818401526020810190506114ed565b60008484015250505050565b6000601f19601f8301169050919050565b6000611530826114ce565b61153a81856114d9565b935061154a8185602086016114ea565b61155381611514565b840191505092915050565b600060208201905081810360008301526115788184611525565b905092915050565b600080fd5b600073ffffffffffffffffffffffffffffffffffffffff82169050919050565b60006115b082611585565b9050919050565b6115c0816115a5565b81146115cb57600080fd5b50565b6000813590506115dd816115b7565b92915050565b6000819050919050565b6115f6816115e3565b811461160157600080fd5b50565b600081359050611613816115ed565b92915050565b600080604083850312156116305761162f611580565b5b600061163e858286016115ce565b925050602061164f85828601611604565b9150509250929050565b611662816115e3565b82525050565b600060208201905061167d6000830184611659565b92915050565b60008060006060848603121561169c5761169b611580565b5b60006116aa868287016115ce565b93505060206116bb868287016115ce565b92505060406116cc86828701611604565b9150509250925092565b600060ff82169050919050565b6116ec816116d6565b82525050565b600060208201905061170760008301846116e3565b92915050565b60006020828403121561172357611722611580565b5b6000611731848285016115ce565b91505092915050565b611743816115a5565b82525050565b600060208201905061175e600083018461173a565b92915050565b6000806000806080858703121561177e5761177d611580565b5b600061178c878288016115ce565b945050602061179d878288016115ce565b93505060406117ae878288016115ce565b92505060606117bf87828801611604565b91505092959194509250565b600080604083850312156117e2576117e1611580565b5b60006117f0858286016115ce565b9250506020611801858286016115ce565b9150509250929050565b7f46726f6d20646f65736e2774206861766520656e6f7567682062616c616e6365600082015250565b60006118416020836114d9565b915061184c8261180b565b602082019050919050565b6000602082019050818103600083015261187081611834565b9050919050565b7f4e6f7420616c6c6f77656420746f207370656e642074686973206d7563680000600082015250565b60006118ad601e836114d9565b91506118b882611877565b602082019050919050565b600060208201905081810360008301526118dc816118a0565b9050919050565b7f6d73672e73656e64657220646f65736e2774206861766520656e6f756768206260008201527f616c616e63650000000000000000000000000000000000000000000000000000602082015250565b600061193f6026836114d9565b915061194a826118e3565b604082019050919050565b6000602082019050818103600083015261196e81611932565b9050919050565b7f4e487b7100000000000000000000000000000000000000000000000000000000600052600160045260246000fd5b7f4e487b7100000000000000000000000000000000000000000000000000000000600052601160045260246000fd5b60006119de826115e3565b91506119e9836115e3565b9250828203905081811115611a0157611a006119a4565b5b92915050565b6000611a12826115e3565b9150611a1d836115e3565b9250828201905080821115611a3557611a346119a4565b5b9291505056fea264697066735822122055e5bd592447b3bd964801dfd4b4d6d044766ee2c9edf28ec5b03cfaea41f91764736f6c63430008120033",
					"opcodes": "PUSH1 0x80 PUSH1 0x40 MSTORE PUSH1 0x0 DUP1 PUSH1 0x0 PUSH2 0x100 EXP DUP2 SLOAD DUP2 PUSH1 0xFF MUL NOT AND SWAP1 DUP4 ISZERO ISZERO MUL OR SWAP1 SSTORE POP CALLER PUSH1 0x0 PUSH1 0x1 PUSH2 0x100 EXP DUP2 SLOAD DUP2 PUSH20 0xFFFFFFFFFFFFFFFFFFFFFFFFFFFFFFFFFFFFFFFF MUL NOT AND SWAP1 DUP4 PUSH20 0xFFFFFFFFFFFFFFFFFFFFFFFFFFFFFFFFFFFFFFFF AND MUL OR SWAP1 SSTORE POP CALLVALUE DUP1 ISZERO PUSH2 0x6B JUMPI PUSH1 0x0 DUP1 REVERT JUMPDEST POP PUSH2 0x1A71 DUP1 PUSH2 0x7B PUSH1 0x0 CODECOPY PUSH1 0x0 RETURN INVALID PUSH1 0x80 PUSH1 0x40 MSTORE CALLVALUE DUP1 ISZERO PUSH2 0x10 JUMPI PUSH1 0x0 DUP1 REVERT JUMPDEST POP PUSH1 0x4 CALLDATASIZE LT PUSH2 0x100 JUMPI PUSH1 0x0 CALLDATALOAD PUSH1 0xE0 SHR DUP1 PUSH4 0x7D64BCB4 GT PUSH2 0x97 JUMPI DUP1 PUSH4 0xA9059CBB GT PUSH2 0x66 JUMPI DUP1 PUSH4 0xA9059CBB EQ PUSH2 0x2B5 JUMPI DUP1 PUSH4 0xDB05EA05 EQ PUSH2 0x2E5 JUMPI DUP1 PUSH4 0xDD62ED3E EQ PUSH2 0x315 JUMPI DUP1 PUSH4 0xF0CF209D EQ PUSH2 0x345 JUMPI PUSH2 0x100 JUMP JUMPDEST DUP1 PUSH4 0x7D64BCB4 EQ PUSH2 0x23D JUMPI DUP1 PUSH4 0x893D20E8 EQ PUSH2 0x25B JUMPI DUP1 PUSH4 0x8DA5CB5B EQ PUSH2 0x279 JUMPI DUP1 PUSH4 0x95D89B41 EQ PUSH2 0x297 JUMPI PUSH2 0x100 JUMP JUMPDEST DUP1 PUSH4 0x23B872DD GT PUSH2 0xD3 JUMPI DUP1 PUSH4 0x23B872DD EQ PUSH2 0x18F JUMPI DUP1 PUSH4 0x313CE567 EQ PUSH2 0x1BF JUMPI DUP1 PUSH4 0x40C10F19 EQ PUSH2 0x1DD JUMPI DUP1 PUSH4 0x70A08231 EQ PUSH2 0x20D JUMPI PUSH2 0x100 JUMP JUMPDEST DUP1 PUSH4 0x5D2035B EQ PUSH2 0x105 JUMPI DUP1 PUSH4 0x6FDDE03 EQ PUSH2 0x123 JUMPI DUP1 PUSH4 0x95EA7B3 EQ PUSH2 0x141 JUMPI DUP1 PUSH4 0x18160DDD EQ PUSH2 0x171 JUMPI JUMPDEST PUSH1 0x0 DUP1 REVERT JUMPDEST PUSH2 0x10D PUSH2 0x375 JUMP JUMPDEST PUSH1 0x40 MLOAD PUSH2 0x11A SWAP2 SWAP1 PUSH2 0x14B3 JUMP JUMPDEST PUSH1 0x40 MLOAD DUP1 SWAP2 SUB SWAP1 RETURN JUMPDEST PUSH2 0x12B PUSH2 0x386 JUMP JUMPDEST PUSH1 0x40 MLOAD PUSH2 0x138 SWAP2 SWAP1 PUSH2 0x155E JUMP JUMPDEST PUSH1 0x40 MLOAD DUP1 SWAP2 SUB SWAP1 RETURN JUMPDEST PUSH2 0x15B PUSH1 0x4 DUP1 CALLDATASIZE SUB DUP2 ADD SWAP1 PUSH2 0x156 SWAP2 SWAP1 PUSH2 0x1619 JUMP JUMPDEST PUSH2 0x3BF JUMP JUMPDEST PUSH1 0x40 MLOAD PUSH2 0x168 SWAP2 SWAP1 PUSH2 0x14B3 JUMP JUMPDEST PUSH1 0x40 MLOAD DUP1 SWAP2 SUB SWAP1 RETURN JUMPDEST PUSH2 0x179 PUSH2 0x4B1 JUMP JUMPDEST PUSH1 0x40 MLOAD PUSH2 0x186 SWAP2 SWAP1 PUSH2 0x1668 JUMP JUMPDEST PUSH1 0x40 MLOAD DUP1 SWAP2 SUB SWAP1 RETURN JUMPDEST PUSH2 0x1A9 PUSH1 0x4 DUP1 CALLDATASIZE SUB DUP2 ADD SWAP1 PUSH2 0x1A4 SWAP2 SWAP1 PUSH2 0x1683 JUMP JUMPDEST PUSH2 0x4BB JUMP JUMPDEST PUSH1 0x40 MLOAD PUSH2 0x1B6 SWAP2 SWAP1 PUSH2 0x14B3 JUMP JUMPDEST PUSH1 0x40 MLOAD DUP1 SWAP2 SUB SWAP1 RETURN JUMPDEST PUSH2 0x1C7 PUSH2 0x8DF JUMP JUMPDEST PUSH1 0x40 MLOAD PUSH2 0x1D4 SWAP2 SWAP1 PUSH2 0x16F2 JUMP JUMPDEST PUSH1 0x40 MLOAD DUP1 SWAP2 SUB SWAP1 RETURN JUMPDEST PUSH2 0x1F7 PUSH1 0x4 DUP1 CALLDATASIZE SUB DUP2 ADD SWAP1 PUSH2 0x1F2 SWAP2 SWAP1 PUSH2 0x1619 JUMP JUMPDEST PUSH2 0x8E4 JUMP JUMPDEST PUSH1 0x40 MLOAD PUSH2 0x204 SWAP2 SWAP1 PUSH2 0x14B3 JUMP JUMPDEST PUSH1 0x40 MLOAD DUP1 SWAP2 SUB SWAP1 RETURN JUMPDEST PUSH2 0x227 PUSH1 0x4 DUP1 CALLDATASIZE SUB DUP2 ADD SWAP1 PUSH2 0x222 SWAP2 SWAP1 PUSH2 0x170D JUMP JUMPDEST PUSH2 0xAC5 JUMP JUMPDEST PUSH1 0x40 MLOAD PUSH2 0x234 SWAP2 SWAP1 PUSH2 0x1668 JUMP JUMPDEST PUSH1 0x40 MLOAD DUP1 SWAP2 SUB SWAP1 RETURN JUMPDEST PUSH2 0x245 PUSH2 0xB0E JUMP JUMPDEST PUSH1 0x40 MLOAD PUSH2 0x252 SWAP2 SWAP1 PUSH2 0x14B3 JUMP JUMPDEST PUSH1 0x40 MLOAD DUP1 SWAP2 SUB SWAP1 RETURN JUMPDEST PUSH2 0x263 PUSH2 0xBCE JUMP JUMPDEST PUSH1 0x40 MLOAD PUSH2 0x270 SWAP2 SWAP1 PUSH2 0x1749 JUMP JUMPDEST PUSH1 0x40 MLOAD DUP1 SWAP2 SUB SWAP1 RETURN JUMPDEST PUSH2 0x281 PUSH2 0xBF7 JUMP JUMPDEST PUSH1 0x40 MLOAD PUSH2 0x28E SWAP2 SWAP1 PUSH2 0x1749 JUMP JUMPDEST PUSH1 0x40 MLOAD DUP1 SWAP2 SUB SWAP1 RETURN JUMPDEST PUSH2 0x29F PUSH2 0xC1D JUMP JUMPDEST PUSH1 0x40 MLOAD PUSH2 0x2AC SWAP2 SWAP1 PUSH2 0x155E JUMP JUMPDEST PUSH1 0x40 MLOAD DUP1 SWAP2 SUB SWAP1 RETURN JUMPDEST PUSH2 0x2CF PUSH1 0x4 DUP1 CALLDATASIZE SUB DUP2 ADD SWAP1 PUSH2 0x2CA SWAP2 SWAP1 PUSH2 0x1619 JUMP JUMPDEST PUSH2 0xC56 JUMP JUMPDEST PUSH1 0x40 MLOAD PUSH2 0x2DC SWAP2 SWAP1 PUSH2 0x14B3 JUMP JUMPDEST PUSH1 0x40 MLOAD DUP1 SWAP2 SUB SWAP1 RETURN JUMPDEST PUSH2 0x2FF PUSH1 0x4 DUP1 CALLDATASIZE SUB DUP2 ADD SWAP1 PUSH2 0x2FA SWAP2 SWAP1 PUSH2 0x1764 JUMP JUMPDEST PUSH2 0xEAB JUMP JUMPDEST PUSH1 0x40 MLOAD PUSH2 0x30C SWAP2 SWAP1 PUSH2 0x14B3 JUMP JUMPDEST PUSH1 0x40 MLOAD DUP1 SWAP2 SUB SWAP1 RETURN JUMPDEST PUSH2 0x32F PUSH1 0x4 DUP1 CALLDATASIZE SUB DUP2 ADD SWAP1 PUSH2 0x32A SWAP2 SWAP1 PUSH2 0x17CB JUMP JUMPDEST PUSH2 0x12D0 JUMP JUMPDEST PUSH1 0x40 MLOAD PUSH2 0x33C SWAP2 SWAP1 PUSH2 0x1668 JUMP JUMPDEST PUSH1 0x40 MLOAD DUP1 SWAP2 SUB SWAP1 RETURN JUMPDEST PUSH2 0x35F PUSH1 0x4 DUP1 CALLDATASIZE SUB DUP2 ADD SWAP1 PUSH2 0x35A SWAP2 SWAP1 PUSH2 0x1683 JUMP JUMPDEST PUSH2 0x1357 JUMP JUMPDEST PUSH1 0x40 MLOAD PUSH2 0x36C SWAP2 SWAP1 PUSH2 0x14B3 JUMP JUMPDEST PUSH1 0x40 MLOAD DUP1 SWAP2 SUB SWAP1 RETURN JUMPDEST PUSH1 0x0 DUP1 SLOAD SWAP1 PUSH2 0x100 EXP SWAP1 DIV PUSH1 0xFF AND DUP2 JUMP JUMPDEST PUSH1 0x40 MLOAD DUP1 PUSH1 0x40 ADD PUSH1 0x40 MSTORE DUP1 PUSH1 0x9 DUP2 MSTORE PUSH1 0x20 ADD PUSH32 0x44696365546F6B656E0000000000000000000000000000000000000000000000 DUP2 MSTORE POP DUP2 JUMP JUMPDEST PUSH1 0x0 DUP2 PUSH1 0x1 PUSH1 0x0 CALLER PUSH20 0xFFFFFFFFFFFFFFFFFFFFFFFFFFFFFFFFFFFFFFFF AND PUSH20 0xFFFFFFFFFFFFFFFFFFFFFFFFFFFFFFFFFFFFFFFF AND DUP2 MSTORE PUSH1 0x20 ADD SWAP1 DUP2 MSTORE PUSH1 0x20 ADD PUSH1 0x0 KECCAK256 PUSH1 0x0 DUP6 PUSH20 0xFFFFFFFFFFFFFFFFFFFFFFFFFFFFFFFFFFFFFFFF AND PUSH20 0xFFFFFFFFFFFFFFFFFFFFFFFFFFFFFFFFFFFFFFFF AND DUP2 MSTORE PUSH1 0x20 ADD SWAP1 DUP2 MSTORE PUSH1 0x20 ADD PUSH1 0x0 KECCAK256 DUP2 SWAP1 SSTORE POP DUP3 PUSH20 0xFFFFFFFFFFFFFFFFFFFFFFFFFFFFFFFFFFFFFFFF AND CALLER PUSH20 0xFFFFFFFFFFFFFFFFFFFFFFFFFFFFFFFFFFFFFFFF AND PUSH32 0x8C5BE1E5EBEC7D5BD14F71427D1E84F3DD0314C0F7B2291E5B200AC8C7C3B925 DUP5 PUSH1 0x40 MLOAD PUSH2 0x49F SWAP2 SWAP1 PUSH2 0x1668 JUMP JUMPDEST PUSH1 0x40 MLOAD DUP1 SWAP2 SUB SWAP1 LOG3 PUSH1 0x1 SWAP1 POP SWAP3 SWAP2 POP POP JUMP JUMPDEST PUSH1 0x0 PUSH1 0x3 SLOAD SWAP1 POP SWAP1 JUMP JUMPDEST PUSH1 0x0 DUP1 PUSH20 0xFFFFFFFFFFFFFFFFFFFFFFFFFFFFFFFFFFFFFFFF AND DUP4 PUSH20 0xFFFFFFFFFFFFFFFFFFFFFFFFFFFFFFFFFFFFFFFF AND SUB PUSH2 0x4F5 JUMPI PUSH1 0x0 DUP1 REVERT JUMPDEST PUSH1 0x2 PUSH1 0x0 DUP6 PUSH20 0xFFFFFFFFFFFFFFFFFFFFFFFFFFFFFFFFFFFFFFFF AND PUSH20 0xFFFFFFFFFFFFFFFFFFFFFFFFFFFFFFFFFFFFFFFF AND DUP2 MSTORE PUSH1 0x20 ADD SWAP1 DUP2 MSTORE PUSH1 0x20 ADD PUSH1 0x0 KECCAK256 SLOAD DUP3 GT ISZERO PUSH2 0x577 JUMPI PUSH1 0x40 MLOAD PUSH32 0x8C379A000000000000000000000000000000000000000000000000000000000 DUP2 MSTORE PUSH1 0x4 ADD PUSH2 0x56E SWAP1 PUSH2 0x1857 JUMP JUMPDEST PUSH1 0x40 MLOAD DUP1 SWAP2 SUB SWAP1 REVERT JUMPDEST PUSH1 0x1 PUSH1 0x0 DUP6 PUSH20 0xFFFFFFFFFFFFFFFFFFFFFFFFFFFFFFFFFFFFFFFF AND PUSH20 0xFFFFFFFFFFFFFFFFFFFFFFFFFFFFFFFFFFFFFFFF AND DUP2 MSTORE PUSH1 0x20 ADD SWAP1 DUP2 MSTORE PUSH1 0x20 ADD PUSH1 0x0 KECCAK256 PUSH1 0x0 ORIGIN PUSH20 0xFFFFFFFFFFFFFFFFFFFFFFFFFFFFFFFFFFFFFFFF AND PUSH20 0xFFFFFFFFFFFFFFFFFFFFFFFFFFFFFFFFFFFFFFFF AND DUP2 MSTORE PUSH1 0x20 ADD SWAP1 DUP2 MSTORE PUSH1 0x20 ADD PUSH1 0x0 KECCAK256 SLOAD DUP3 GT ISZERO PUSH2 0x636 JUMPI PUSH1 0x40 MLOAD PUSH32 0x8C379A000000000000000000000000000000000000000000000000000000000 DUP2 MSTORE PUSH1 0x4 ADD PUSH2 0x62D SWAP1 PUSH2 0x18C3 JUMP JUMPDEST PUSH1 0x40 MLOAD DUP1 SWAP2 SUB SWAP1 REVERT JUMPDEST PUSH2 0x688 DUP3 PUSH1 0x2 PUSH1 0x0 DUP8 PUSH20 0xFFFFFFFFFFFFFFFFFFFFFFFFFFFFFFFFFFFFFFFF AND PUSH20 0xFFFFFFFFFFFFFFFFFFFFFFFFFFFFFFFFFFFFFFFF AND DUP2 MSTORE PUSH1 0x20 ADD SWAP1 DUP2 MSTORE PUSH1 0x20 ADD PUSH1 0x0 KECCAK256 SLOAD PUSH2 0x144A SWAP1 SWAP2 SWAP1 PUSH4 0xFFFFFFFF AND JUMP JUMPDEST PUSH1 0x2 PUSH1 0x0 DUP7 PUSH20 0xFFFFFFFFFFFFFFFFFFFFFFFFFFFFFFFFFFFFFFFF AND PUSH20 0xFFFFFFFFFFFFFFFFFFFFFFFFFFFFFFFFFFFFFFFF AND DUP2 MSTORE PUSH1 0x20 ADD SWAP1 DUP2 MSTORE PUSH1 0x20 ADD PUSH1 0x0 KECCAK256 DUP2 SWAP1 SSTORE POP PUSH2 0x71D DUP3 PUSH1 0x2 PUSH1 0x0 DUP7 PUSH20 0xFFFFFFFFFFFFFFFFFFFFFFFFFFFFFFFFFFFFFFFF AND PUSH20 0xFFFFFFFFFFFFFFFFFFFFFFFFFFFFFFFFFFFFFFFF AND DUP2 MSTORE PUSH1 0x20 ADD SWAP1 DUP2 MSTORE PUSH1 0x20 ADD PUSH1 0x0 KECCAK256 SLOAD PUSH2 0x1471 SWAP1 SWAP2 SWAP1 PUSH4 0xFFFFFFFF AND JUMP JUMPDEST PUSH1 0x2 PUSH1 0x0 DUP6 PUSH20 0xFFFFFFFFFFFFFFFFFFFFFFFFFFFFFFFFFFFFFFFF AND PUSH20 0xFFFFFFFFFFFFFFFFFFFFFFFFFFFFFFFFFFFFFFFF AND DUP2 MSTORE PUSH1 0x20 ADD SWAP1 DUP2 MSTORE PUSH1 0x20 ADD PUSH1 0x0 KECCAK256 DUP2 SWAP1 SSTORE POP PUSH2 0x7EF DUP3 PUSH1 0x1 PUSH1 0x0 DUP8 PUSH20 0xFFFFFFFFFFFFFFFFFFFFFFFFFFFFFFFFFFFFFFFF AND PUSH20 0xFFFFFFFFFFFFFFFFFFFFFFFFFFFFFFFFFFFFFFFF AND DUP2 MSTORE PUSH1 0x20 ADD SWAP1 DUP2 MSTORE PUSH1 0x20 ADD PUSH1 0x0 KECCAK256 PUSH1 0x0 ORIGIN PUSH20 0xFFFFFFFFFFFFFFFFFFFFFFFFFFFFFFFFFFFFFFFF AND PUSH20 0xFFFFFFFFFFFFFFFFFFFFFFFFFFFFFFFFFFFFFFFF AND DUP2 MSTORE PUSH1 0x20 ADD SWAP1 DUP2 MSTORE PUSH1 0x20 ADD PUSH1 0x0 KECCAK256 SLOAD PUSH2 0x144A SWAP1 SWAP2 SWAP1 PUSH4 0xFFFFFFFF AND JUMP JUMPDEST PUSH1 0x1 PUSH1 0x0 DUP7 PUSH20 0xFFFFFFFFFFFFFFFFFFFFFFFFFFFFFFFFFFFFFFFF AND PUSH20 0xFFFFFFFFFFFFFFFFFFFFFFFFFFFFFFFFFFFFFFFF AND DUP2 MSTORE PUSH1 0x20 ADD SWAP1 DUP2 MSTORE PUSH1 0x20 ADD PUSH1 0x0 KECCAK256 PUSH1 0x0 ORIGIN PUSH20 0xFFFFFFFFFFFFFFFFFFFFFFFFFFFFFFFFFFFFFFFF AND PUSH20 0xFFFFFFFFFFFFFFFFFFFFFFFFFFFFFFFFFFFFFFFF AND DUP2 MSTORE PUSH1 0x20 ADD SWAP1 DUP2 MSTORE PUSH1 0x20 ADD PUSH1 0x0 KECCAK256 DUP2 SWAP1 SSTORE POP DUP3 PUSH20 0xFFFFFFFFFFFFFFFFFFFFFFFFFFFFFFFFFFFFFFFF AND DUP5 PUSH20 0xFFFFFFFFFFFFFFFFFFFFFFFFFFFFFFFFFFFFFFFF AND PUSH32 0xDDF252AD1BE2C89B69C2B068FC378DAA952BA7F163C4A11628F55A4DF523B3EF DUP5 PUSH1 0x40 MLOAD PUSH2 0x8CC SWAP2 SWAP1 PUSH2 0x1668 JUMP JUMPDEST PUSH1 0x40 MLOAD DUP1 SWAP2 SUB SWAP1 LOG3 PUSH1 0x1 SWAP1 POP SWAP4 SWAP3 POP POP POP JUMP JUMPDEST PUSH1 0x12 DUP2 JUMP JUMPDEST PUSH1 0x0 DUP1 PUSH1 0x1 SWAP1 SLOAD SWAP1 PUSH2 0x100 EXP SWAP1 DIV PUSH20 0xFFFFFFFFFFFFFFFFFFFFFFFFFFFFFFFFFFFFFFFF AND PUSH20 0xFFFFFFFFFFFFFFFFFFFFFFFFFFFFFFFFFFFFFFFF AND CALLER PUSH20 0xFFFFFFFFFFFFFFFFFFFFFFFFFFFFFFFFFFFFFFFF AND EQ PUSH2 0x93F JUMPI PUSH1 0x0 DUP1 REVERT JUMPDEST PUSH1 0x0 DUP1 SLOAD SWAP1 PUSH2 0x100 EXP SWAP1 DIV PUSH1 0xFF AND ISZERO PUSH2 0x957 JUMPI PUSH1 0x0 DUP1 REVERT JUMPDEST PUSH2 0x96C DUP3 PUSH1 0x3 SLOAD PUSH2 0x1471 SWAP1 SWAP2 SWAP1 PUSH4 0xFFFFFFFF AND JUMP JUMPDEST PUSH1 0x3 DUP2 SWAP1 SSTORE POP PUSH2 0x9C4 DUP3 PUSH1 0x2 PUSH1 0x0 DUP7 PUSH20 0xFFFFFFFFFFFFFFFFFFFFFFFFFFFFFFFFFFFFFFFF AND PUSH20 0xFFFFFFFFFFFFFFFFFFFFFFFFFFFFFFFFFFFFFFFF AND DUP2 MSTORE PUSH1 0x20 ADD SWAP1 DUP2 MSTORE PUSH1 0x20 ADD PUSH1 0x0 KECCAK256 SLOAD PUSH2 0x1471 SWAP1 SWAP2 SWAP1 PUSH4 0xFFFFFFFF AND JUMP JUMPDEST PUSH1 0x2 PUSH1 0x0 DUP6 PUSH20 0xFFFFFFFFFFFFFFFFFFFFFFFFFFFFFFFFFFFFFFFF AND PUSH20 0xFFFFFFFFFFFFFFFFFFFFFFFFFFFFFFFFFFFFFFFF AND DUP2 MSTORE PUSH1 0x20 ADD SWAP1 DUP2 MSTORE PUSH1 0x20 ADD PUSH1 0x0 KECCAK256 DUP2 SWAP1 SSTORE POP DUP3 PUSH20 0xFFFFFFFFFFFFFFFFFFFFFFFFFFFFFFFFFFFFFFFF AND PUSH32 0xF6798A560793A54C3BCFE86A93CDE1E73087D944C0EA20544137D4121396885 DUP4 PUSH1 0x40 MLOAD PUSH2 0xA4D SWAP2 SWAP1 PUSH2 0x1668 JUMP JUMPDEST PUSH1 0x40 MLOAD DUP1 SWAP2 SUB SWAP1 LOG2 DUP3 PUSH20 0xFFFFFFFFFFFFFFFFFFFFFFFFFFFFFFFFFFFFFFFF AND PUSH1 0x0 PUSH20 0xFFFFFFFFFFFFFFFFFFFFFFFFFFFFFFFFFFFFFFFF AND PUSH32 0xDDF252AD1BE2C89B69C2B068FC378DAA952BA7F163C4A11628F55A4DF523B3EF DUP5 PUSH1 0x40 MLOAD PUSH2 0xAB3 SWAP2 SWAP1 PUSH2 0x1668 JUMP JUMPDEST PUSH1 0x40 MLOAD DUP1 SWAP2 SUB SWAP1 LOG3 PUSH1 0x1 SWAP1 POP SWAP3 SWAP2 POP POP JUMP JUMPDEST PUSH1 0x0 PUSH1 0x2 PUSH1 0x0 DUP4 PUSH20 0xFFFFFFFFFFFFFFFFFFFFFFFFFFFFFFFFFFFFFFFF AND PUSH20 0xFFFFFFFFFFFFFFFFFFFFFFFFFFFFFFFFFFFFFFFF AND DUP2 MSTORE PUSH1 0x20 ADD SWAP1 DUP2 MSTORE PUSH1 0x20 ADD PUSH1 0x0 KECCAK256 SLOAD SWAP1 POP SWAP2 SWAP1 POP JUMP JUMPDEST PUSH1 0x0 DUP1 PUSH1 0x1 SWAP1 SLOAD SWAP1 PUSH2 0x100 EXP SWAP1 DIV PUSH20 0xFFFFFFFFFFFFFFFFFFFFFFFFFFFFFFFFFFFFFFFF AND PUSH20 0xFFFFFFFFFFFFFFFFFFFFFFFFFFFFFFFFFFFFFFFF AND CALLER PUSH20 0xFFFFFFFFFFFFFFFFFFFFFFFFFFFFFFFFFFFFFFFF AND EQ PUSH2 0xB69 JUMPI PUSH1 0x0 DUP1 REVERT JUMPDEST PUSH1 0x0 DUP1 SLOAD SWAP1 PUSH2 0x100 EXP SWAP1 DIV PUSH1 0xFF AND ISZERO PUSH2 0xB81 JUMPI PUSH1 0x0 DUP1 REVERT JUMPDEST PUSH1 0x1 PUSH1 0x0 DUP1 PUSH2 0x100 EXP DUP2 SLOAD DUP2 PUSH1 0xFF MUL NOT AND SWAP1 DUP4 ISZERO ISZERO MUL OR SWAP1 SSTORE POP PUSH32 0xAE5184FBA832CB2B1F702ACA6117B8D265EAF03AD33EB133F19DDE0F5920FA08 PUSH1 0x40 MLOAD PUSH1 0x40 MLOAD DUP1 SWAP2 SUB SWAP1 LOG1 PUSH1 0x1 SWAP1 POP SWAP1 JUMP JUMPDEST PUSH1 0x0 DUP1 PUSH1 0x1 SWAP1 SLOAD SWAP1 PUSH2 0x100 EXP SWAP1 DIV PUSH20 0xFFFFFFFFFFFFFFFFFFFFFFFFFFFFFFFFFFFFFFFF AND SWAP1 POP SWAP1 JUMP JUMPDEST PUSH1 0x0 PUSH1 0x1 SWAP1 SLOAD SWAP1 PUSH2 0x100 EXP SWAP1 DIV PUSH20 0xFFFFFFFFFFFFFFFFFFFFFFFFFFFFFFFFFFFFFFFF AND DUP2 JUMP JUMPDEST PUSH1 0x40 MLOAD DUP1 PUSH1 0x40 ADD PUSH1 0x40 MSTORE DUP1 PUSH1 0x2 DUP2 MSTORE PUSH1 0x20 ADD PUSH32 0x4454000000000000000000000000000000000000000000000000000000000000 DUP2 MSTORE POP DUP2 JUMP JUMPDEST PUSH1 0x0 DUP1 PUSH20 0xFFFFFFFFFFFFFFFFFFFFFFFFFFFFFFFFFFFFFFFF AND DUP4 PUSH20 0xFFFFFFFFFFFFFFFFFFFFFFFFFFFFFFFFFFFFFFFF AND SUB PUSH2 0xC90 JUMPI PUSH1 0x0 DUP1 REVERT JUMPDEST PUSH1 0x2 PUSH1 0x0 ORIGIN PUSH20 0xFFFFFFFFFFFFFFFFFFFFFFFFFFFFFFFFFFFFFFFF AND PUSH20 0xFFFFFFFFFFFFFFFFFFFFFFFFFFFFFFFFFFFFFFFF AND DUP2 MSTORE PUSH1 0x20 ADD SWAP1 DUP2 MSTORE PUSH1 0x20 ADD PUSH1 0x0 KECCAK256 SLOAD DUP3 GT ISZERO PUSH2 0xD12 JUMPI PUSH1 0x40 MLOAD PUSH32 0x8C379A000000000000000000000000000000000000000000000000000000000 DUP2 MSTORE PUSH1 0x4 ADD PUSH2 0xD09 SWAP1 PUSH2 0x1955 JUMP JUMPDEST PUSH1 0x40 MLOAD DUP1 SWAP2 SUB SWAP1 REVERT JUMPDEST PUSH2 0xD64 DUP3 PUSH1 0x2 PUSH1 0x0 ORIGIN PUSH20 0xFFFFFFFFFFFFFFFFFFFFFFFFFFFFFFFFFFFFFFFF AND PUSH20 0xFFFFFFFFFFFFFFFFFFFFFFFFFFFFFFFFFFFFFFFF AND DUP2 MSTORE PUSH1 0x20 ADD SWAP1 DUP2 MSTORE PUSH1 0x20 ADD PUSH1 0x0 KECCAK256 SLOAD PUSH2 0x144A SWAP1 SWAP2 SWAP1 PUSH4 0xFFFFFFFF AND JUMP JUMPDEST PUSH1 0x2 PUSH1 0x0 ORIGIN PUSH20 0xFFFFFFFFFFFFFFFFFFFFFFFFFFFFFFFFFFFFFFFF AND PUSH20 0xFFFFFFFFFFFFFFFFFFFFFFFFFFFFFFFFFFFFFFFF AND DUP2 MSTORE PUSH1 0x20 ADD SWAP1 DUP2 MSTORE PUSH1 0x20 ADD PUSH1 0x0 KECCAK256 DUP2 SWAP1 SSTORE POP PUSH2 0xDF9 DUP3 PUSH1 0x2 PUSH1 0x0 DUP7 PUSH20 0xFFFFFFFFFFFFFFFFFFFFFFFFFFFFFFFFFFFFFFFF AND PUSH20 0xFFFFFFFFFFFFFFFFFFFFFFFFFFFFFFFFFFFFFFFF AND DUP2 MSTORE PUSH1 0x20 ADD SWAP1 DUP2 MSTORE PUSH1 0x20 ADD PUSH1 0x0 KECCAK256 SLOAD PUSH2 0x1471 SWAP1 SWAP2 SWAP1 PUSH4 0xFFFFFFFF AND JUMP JUMPDEST PUSH1 0x2 PUSH1 0x0 DUP6 PUSH20 0xFFFFFFFFFFFFFFFFFFFFFFFFFFFFFFFFFFFFFFFF AND PUSH20 0xFFFFFFFFFFFFFFFFFFFFFFFFFFFFFFFFFFFFFFFF AND DUP2 MSTORE PUSH1 0x20 ADD SWAP1 DUP2 MSTORE PUSH1 0x20 ADD PUSH1 0x0 KECCAK256 DUP2 SWAP1 SSTORE POP DUP3 PUSH20 0xFFFFFFFFFFFFFFFFFFFFFFFFFFFFFFFFFFFFFFFF AND ORIGIN PUSH20 0xFFFFFFFFFFFFFFFFFFFFFFFFFFFFFFFFFFFFFFFF AND PUSH32 0xDDF252AD1BE2C89B69C2B068FC378DAA952BA7F163C4A11628F55A4DF523B3EF DUP5 PUSH1 0x40 MLOAD PUSH2 0xE99 SWAP2 SWAP1 PUSH2 0x1668 JUMP JUMPDEST PUSH1 0x40 MLOAD DUP1 SWAP2 SUB SWAP1 LOG3 PUSH1 0x1 SWAP1 POP SWAP3 SWAP2 POP POP JUMP JUMPDEST PUSH1 0x0 DUP1 PUSH20 0xFFFFFFFFFFFFFFFFFFFFFFFFFFFFFFFFFFFFFFFF AND DUP4 PUSH20 0xFFFFFFFFFFFFFFFFFFFFFFFFFFFFFFFFFFFFFFFF AND SUB PUSH2 0xEE5 JUMPI PUSH1 0x0 DUP1 REVERT JUMPDEST PUSH1 0x2 PUSH1 0x0 DUP7 PUSH20 0xFFFFFFFFFFFFFFFFFFFFFFFFFFFFFFFFFFFFFFFF AND PUSH20 0xFFFFFFFFFFFFFFFFFFFFFFFFFFFFFFFFFFFFFFFF AND DUP2 MSTORE PUSH1 0x20 ADD SWAP1 DUP2 MSTORE PUSH1 0x20 ADD PUSH1 0x0 KECCAK256 SLOAD DUP3 GT ISZERO PUSH2 0xF67 JUMPI PUSH1 0x40 MLOAD PUSH32 0x8C379A000000000000000000000000000000000000000000000000000000000 DUP2 MSTORE PUSH1 0x4 ADD PUSH2 0xF5E SWAP1 PUSH2 0x1857 JUMP JUMPDEST PUSH1 0x40 MLOAD DUP1 SWAP2 SUB SWAP1 REVERT JUMPDEST PUSH1 0x1 PUSH1 0x0 DUP7 PUSH20 0xFFFFFFFFFFFFFFFFFFFFFFFFFFFFFFFFFFFFFFFF AND PUSH20 0xFFFFFFFFFFFFFFFFFFFFFFFFFFFFFFFFFFFFFFFF AND DUP2 MSTORE PUSH1 0x20 ADD SWAP1 DUP2 MSTORE PUSH1 0x20 ADD PUSH1 0x0 KECCAK256 PUSH1 0x0 DUP6 PUSH20 0xFFFFFFFFFFFFFFFFFFFFFFFFFFFFFFFFFFFFFFFF AND PUSH20 0xFFFFFFFFFFFFFFFFFFFFFFFFFFFFFFFFFFFFFFFF AND DUP2 MSTORE PUSH1 0x20 ADD SWAP1 DUP2 MSTORE PUSH1 0x20 ADD PUSH1 0x0 KECCAK256 SLOAD DUP3 GT ISZERO PUSH2 0x1026 JUMPI PUSH1 0x40 MLOAD PUSH32 0x8C379A000000000000000000000000000000000000000000000000000000000 DUP2 MSTORE PUSH1 0x4 ADD PUSH2 0x101D SWAP1 PUSH2 0x18C3 JUMP JUMPDEST PUSH1 0x40 MLOAD DUP1 SWAP2 SUB SWAP1 REVERT JUMPDEST PUSH2 0x1078 DUP3 PUSH1 0x2 PUSH1 0x0 DUP9 PUSH20 0xFFFFFFFFFFFFFFFFFFFFFFFFFFFFFFFFFFFFFFFF AND PUSH20 0xFFFFFFFFFFFFFFFFFFFFFFFFFFFFFFFFFFFFFFFF AND DUP2 MSTORE PUSH1 0x20 ADD SWAP1 DUP2 MSTORE PUSH1 0x20 ADD PUSH1 0x0 KECCAK256 SLOAD PUSH2 0x144A SWAP1 SWAP2 SWAP1 PUSH4 0xFFFFFFFF AND JUMP JUMPDEST PUSH1 0x2 PUSH1 0x0 DUP8 PUSH20 0xFFFFFFFFFFFFFFFFFFFFFFFFFFFFFFFFFFFFFFFF AND PUSH20 0xFFFFFFFFFFFFFFFFFFFFFFFFFFFFFFFFFFFFFFFF AND DUP2 MSTORE PUSH1 0x20 ADD SWAP1 DUP2 MSTORE PUSH1 0x20 ADD PUSH1 0x0 KECCAK256 DUP2 SWAP1 SSTORE POP PUSH2 0x110D DUP3 PUSH1 0x2 PUSH1 0x0 DUP7 PUSH20 0xFFFFFFFFFFFFFFFFFFFFFFFFFFFFFFFFFFFFFFFF AND PUSH20 0xFFFFFFFFFFFFFFFFFFFFFFFFFFFFFFFFFFFFFFFF AND DUP2 MSTORE PUSH1 0x20 ADD SWAP1 DUP2 MSTORE PUSH1 0x20 ADD PUSH1 0x0 KECCAK256 SLOAD PUSH2 0x1471 SWAP1 SWAP2 SWAP1 PUSH4 0xFFFFFFFF AND JUMP JUMPDEST PUSH1 0x2 PUSH1 0x0 DUP6 PUSH20 0xFFFFFFFFFFFFFFFFFFFFFFFFFFFFFFFFFFFFFFFF AND PUSH20 0xFFFFFFFFFFFFFFFFFFFFFFFFFFFFFFFFFFFFFFFF AND DUP2 MSTORE PUSH1 0x20 ADD SWAP1 DUP2 MSTORE PUSH1 0x20 ADD PUSH1 0x0 KECCAK256 DUP2 SWAP1 SSTORE POP PUSH2 0x11DF DUP3 PUSH1 0x1 PUSH1 0x0 DUP9 PUSH20 0xFFFFFFFFFFFFFFFFFFFFFFFFFFFFFFFFFFFFFFFF AND PUSH20 0xFFFFFFFFFFFFFFFFFFFFFFFFFFFFFFFFFFFFFFFF AND DUP2 MSTORE PUSH1 0x20 ADD SWAP1 DUP2 MSTORE PUSH1 0x20 ADD PUSH1 0x0 KECCAK256 PUSH1 0x0 DUP8 PUSH20 0xFFFFFFFFFFFFFFFFFFFFFFFFFFFFFFFFFFFFFFFF AND PUSH20 0xFFFFFFFFFFFFFFFFFFFFFFFFFFFFFFFFFFFFFFFF AND DUP2 MSTORE PUSH1 0x20 ADD SWAP1 DUP2 MSTORE PUSH1 0x20 ADD PUSH1 0x0 KECCAK256 SLOAD PUSH2 0x144A SWAP1 SWAP2 SWAP1 PUSH4 0xFFFFFFFF AND JUMP JUMPDEST PUSH1 0x1 PUSH1 0x0 DUP8 PUSH20 0xFFFFFFFFFFFFFFFFFFFFFFFFFFFFFFFFFFFFFFFF AND PUSH20 0xFFFFFFFFFFFFFFFFFFFFFFFFFFFFFFFFFFFFFFFF AND DUP2 MSTORE PUSH1 0x20 ADD SWAP1 DUP2 MSTORE PUSH1 0x20 ADD PUSH1 0x0 KECCAK256 PUSH1 0x0 DUP7 PUSH20 0xFFFFFFFFFFFFFFFFFFFFFFFFFFFFFFFFFFFFFFFF AND PUSH20 0xFFFFFFFFFFFFFFFFFFFFFFFFFFFFFFFFFFFFFFFF AND DUP2 MSTORE PUSH1 0x20 ADD SWAP1 DUP2 MSTORE PUSH1 0x20 ADD PUSH1 0x0 KECCAK256 DUP2 SWAP1 SSTORE POP DUP3 PUSH20 0xFFFFFFFFFFFFFFFFFFFFFFFFFFFFFFFFFFFFFFFF AND DUP6 PUSH20 0xFFFFFFFFFFFFFFFFFFFFFFFFFFFFFFFFFFFFFFFF AND PUSH32 0xDDF252AD1BE2C89B69C2B068FC378DAA952BA7F163C4A11628F55A4DF523B3EF DUP5 PUSH1 0x40 MLOAD PUSH2 0x12BC SWAP2 SWAP1 PUSH2 0x1668 JUMP JUMPDEST PUSH1 0x40 MLOAD DUP1 SWAP2 SUB SWAP1 LOG3 PUSH1 0x1 SWAP1 POP SWAP5 SWAP4 POP POP POP POP JUMP JUMPDEST PUSH1 0x0 PUSH1 0x1 PUSH1 0x0 DUP5 PUSH20 0xFFFFFFFFFFFFFFFFFFFFFFFFFFFFFFFFFFFFFFFF AND PUSH20 0xFFFFFFFFFFFFFFFFFFFFFFFFFFFFFFFFFFFFFFFF AND DUP2 MSTORE PUSH1 0x20 ADD SWAP1 DUP2 MSTORE PUSH1 0x20 ADD PUSH1 0x0 KECCAK256 PUSH1 0x0 DUP4 PUSH20 0xFFFFFFFFFFFFFFFFFFFFFFFFFFFFFFFFFFFFFFFF AND PUSH20 0xFFFFFFFFFFFFFFFFFFFFFFFFFFFFFFFFFFFFFFFF AND DUP2 MSTORE PUSH1 0x20 ADD SWAP1 DUP2 MSTORE PUSH1 0x20 ADD PUSH1 0x0 KECCAK256 SLOAD SWAP1 POP SWAP3 SWAP2 POP POP JUMP JUMPDEST PUSH1 0x0 DUP2 PUSH1 0x1 PUSH1 0x0 DUP7 PUSH20 0xFFFFFFFFFFFFFFFFFFFFFFFFFFFFFFFFFFFFFFFF AND PUSH20 0xFFFFFFFFFFFFFFFFFFFFFFFFFFFFFFFFFFFFFFFF AND DUP2 MSTORE PUSH1 0x20 ADD SWAP1 DUP2 MSTORE PUSH1 0x20 ADD PUSH1 0x0 KECCAK256 PUSH1 0x0 DUP6 PUSH20 0xFFFFFFFFFFFFFFFFFFFFFFFFFFFFFFFFFFFFFFFF AND PUSH20 0xFFFFFFFFFFFFFFFFFFFFFFFFFFFFFFFFFFFFFFFF AND DUP2 MSTORE PUSH1 0x20 ADD SWAP1 DUP2 MSTORE PUSH1 0x20 ADD PUSH1 0x0 KECCAK256 DUP2 SWAP1 SSTORE POP DUP3 PUSH20 0xFFFFFFFFFFFFFFFFFFFFFFFFFFFFFFFFFFFFFFFF AND DUP5 PUSH20 0xFFFFFFFFFFFFFFFFFFFFFFFFFFFFFFFFFFFFFFFF AND PUSH32 0x8C5BE1E5EBEC7D5BD14F71427D1E84F3DD0314C0F7B2291E5B200AC8C7C3B925 DUP5 PUSH1 0x40 MLOAD PUSH2 0x1437 SWAP2 SWAP1 PUSH2 0x1668 JUMP JUMPDEST PUSH1 0x40 MLOAD DUP1 SWAP2 SUB SWAP1 LOG3 PUSH1 0x1 SWAP1 POP SWAP4 SWAP3 POP POP POP JUMP JUMPDEST PUSH1 0x0 DUP3 DUP3 GT ISZERO PUSH2 0x145D JUMPI PUSH2 0x145C PUSH2 0x1975 JUMP JUMPDEST JUMPDEST DUP2 DUP4 PUSH2 0x1469 SWAP2 SWAP1 PUSH2 0x19D3 JUMP JUMPDEST SWAP1 POP SWAP3 SWAP2 POP POP JUMP JUMPDEST PUSH1 0x0 DUP2 DUP4 PUSH2 0x147F SWAP2 SWAP1 PUSH2 0x1A07 JUMP JUMPDEST SWAP1 POP DUP3 DUP2 LT ISZERO PUSH2 0x1492 JUMPI PUSH2 0x1491 PUSH2 0x1975 JUMP JUMPDEST JUMPDEST SWAP3 SWAP2 POP POP JUMP JUMPDEST PUSH1 0x0 DUP2 ISZERO ISZERO SWAP1 POP SWAP2 SWAP1 POP JUMP JUMPDEST PUSH2 0x14AD DUP2 PUSH2 0x1498 JUMP JUMPDEST DUP3 MSTORE POP POP JUMP JUMPDEST PUSH1 0x0 PUSH1 0x20 DUP3 ADD SWAP1 POP PUSH2 0x14C8 PUSH1 0x0 DUP4 ADD DUP5 PUSH2 0x14A4 JUMP JUMPDEST SWAP3 SWAP2 POP POP JUMP JUMPDEST PUSH1 0x0 DUP2 MLOAD SWAP1 POP SWAP2 SWAP1 POP JUMP JUMPDEST PUSH1 0x0 DUP3 DUP3 MSTORE PUSH1 0x20 DUP3 ADD SWAP1 POP SWAP3 SWAP2 POP POP JUMP JUMPDEST PUSH1 0x0 JUMPDEST DUP4 DUP2 LT ISZERO PUSH2 0x1508 JUMPI DUP1 DUP3 ADD MLOAD DUP2 DUP5 ADD MSTORE PUSH1 0x20 DUP2 ADD SWAP1 POP PUSH2 0x14ED JUMP JUMPDEST PUSH1 0x0 DUP5 DUP5 ADD MSTORE POP POP POP POP JUMP JUMPDEST PUSH1 0x0 PUSH1 0x1F NOT PUSH1 0x1F DUP4 ADD AND SWAP1 POP SWAP2 SWAP1 POP JUMP JUMPDEST PUSH1 0x0 PUSH2 0x1530 DUP3 PUSH2 0x14CE JUMP JUMPDEST PUSH2 0x153A DUP2 DUP6 PUSH2 0x14D9 JUMP JUMPDEST SWAP4 POP PUSH2 0x154A DUP2 DUP6 PUSH1 0x20 DUP7 ADD PUSH2 0x14EA JUMP JUMPDEST PUSH2 0x1553 DUP2 PUSH2 0x1514 JUMP JUMPDEST DUP5 ADD SWAP2 POP POP SWAP3 SWAP2 POP POP JUMP JUMPDEST PUSH1 0x0 PUSH1 0x20 DUP3 ADD SWAP1 POP DUP2 DUP2 SUB PUSH1 0x0 DUP4 ADD MSTORE PUSH2 0x1578 DUP2 DUP5 PUSH2 0x1525 JUMP JUMPDEST SWAP1 POP SWAP3 SWAP2 POP POP JUMP JUMPDEST PUSH1 0x0 DUP1 REVERT JUMPDEST PUSH1 0x0 PUSH20 0xFFFFFFFFFFFFFFFFFFFFFFFFFFFFFFFFFFFFFFFF DUP3 AND SWAP1 POP SWAP2 SWAP1 POP JUMP JUMPDEST PUSH1 0x0 PUSH2 0x15B0 DUP3 PUSH2 0x1585 JUMP JUMPDEST SWAP1 POP SWAP2 SWAP1 POP JUMP JUMPDEST PUSH2 0x15C0 DUP2 PUSH2 0x15A5 JUMP JUMPDEST DUP2 EQ PUSH2 0x15CB JUMPI PUSH1 0x0 DUP1 REVERT JUMPDEST POP JUMP JUMPDEST PUSH1 0x0 DUP2 CALLDATALOAD SWAP1 POP PUSH2 0x15DD DUP2 PUSH2 0x15B7 JUMP JUMPDEST SWAP3 SWAP2 POP POP JUMP JUMPDEST PUSH1 0x0 DUP2 SWAP1 POP SWAP2 SWAP1 POP JUMP JUMPDEST PUSH2 0x15F6 DUP2 PUSH2 0x15E3 JUMP JUMPDEST DUP2 EQ PUSH2 0x1601 JUMPI PUSH1 0x0 DUP1 REVERT JUMPDEST POP JUMP JUMPDEST PUSH1 0x0 DUP2 CALLDATALOAD SWAP1 POP PUSH2 0x1613 DUP2 PUSH2 0x15ED JUMP JUMPDEST SWAP3 SWAP2 POP POP JUMP JUMPDEST PUSH1 0x0 DUP1 PUSH1 0x40 DUP4 DUP6 SUB SLT ISZERO PUSH2 0x1630 JUMPI PUSH2 0x162F PUSH2 0x1580 JUMP JUMPDEST JUMPDEST PUSH1 0x0 PUSH2 0x163E DUP6 DUP3 DUP7 ADD PUSH2 0x15CE JUMP JUMPDEST SWAP3 POP POP PUSH1 0x20 PUSH2 0x164F DUP6 DUP3 DUP7 ADD PUSH2 0x1604 JUMP JUMPDEST SWAP2 POP POP SWAP3 POP SWAP3 SWAP1 POP JUMP JUMPDEST PUSH2 0x1662 DUP2 PUSH2 0x15E3 JUMP JUMPDEST DUP3 MSTORE POP POP JUMP JUMPDEST PUSH1 0x0 PUSH1 0x20 DUP3 ADD SWAP1 POP PUSH2 0x167D PUSH1 0x0 DUP4 ADD DUP5 PUSH2 0x1659 JUMP JUMPDEST SWAP3 SWAP2 POP POP JUMP JUMPDEST PUSH1 0x0 DUP1 PUSH1 0x0 PUSH1 0x60 DUP5 DUP7 SUB SLT ISZERO PUSH2 0x169C JUMPI PUSH2 0x169B PUSH2 0x1580 JUMP JUMPDEST JUMPDEST PUSH1 0x0 PUSH2 0x16AA DUP7 DUP3 DUP8 ADD PUSH2 0x15CE JUMP JUMPDEST SWAP4 POP POP PUSH1 0x20 PUSH2 0x16BB DUP7 DUP3 DUP8 ADD PUSH2 0x15CE JUMP JUMPDEST SWAP3 POP POP PUSH1 0x40 PUSH2 0x16CC DUP7 DUP3 DUP8 ADD PUSH2 0x1604 JUMP JUMPDEST SWAP2 POP POP SWAP3 POP SWAP3 POP SWAP3 JUMP JUMPDEST PUSH1 0x0 PUSH1 0xFF DUP3 AND SWAP1 POP SWAP2 SWAP1 POP JUMP JUMPDEST PUSH2 0x16EC DUP2 PUSH2 0x16D6 JUMP JUMPDEST DUP3 MSTORE POP POP JUMP JUMPDEST PUSH1 0x0 PUSH1 0x20 DUP3 ADD SWAP1 POP PUSH2 0x1707 PUSH1 0x0 DUP4 ADD DUP5 PUSH2 0x16E3 JUMP JUMPDEST SWAP3 SWAP2 POP POP JUMP JUMPDEST PUSH1 0x0 PUSH1 0x20 DUP3 DUP5 SUB SLT ISZERO PUSH2 0x1723 JUMPI PUSH2 0x1722 PUSH2 0x1580 JUMP JUMPDEST JUMPDEST PUSH1 0x0 PUSH2 0x1731 DUP5 DUP3 DUP6 ADD PUSH2 0x15CE JUMP JUMPDEST SWAP2 POP POP SWAP3 SWAP2 POP POP JUMP JUMPDEST PUSH2 0x1743 DUP2 PUSH2 0x15A5 JUMP JUMPDEST DUP3 MSTORE POP POP JUMP JUMPDEST PUSH1 0x0 PUSH1 0x20 DUP3 ADD SWAP1 POP PUSH2 0x175E PUSH1 0x0 DUP4 ADD DUP5 PUSH2 0x173A JUMP JUMPDEST SWAP3 SWAP2 POP POP JUMP JUMPDEST PUSH1 0x0 DUP1 PUSH1 0x0 DUP1 PUSH1 0x80 DUP6 DUP8 SUB SLT ISZERO PUSH2 0x177E JUMPI PUSH2 0x177D PUSH2 0x1580 JUMP JUMPDEST JUMPDEST PUSH1 0x0 PUSH2 0x178C DUP8 DUP3 DUP9 ADD PUSH2 0x15CE JUMP JUMPDEST SWAP5 POP POP PUSH1 0x20 PUSH2 0x179D DUP8 DUP3 DUP9 ADD PUSH2 0x15CE JUMP JUMPDEST SWAP4 POP POP PUSH1 0x40 PUSH2 0x17AE DUP8 DUP3 DUP9 ADD PUSH2 0x15CE JUMP JUMPDEST SWAP3 POP POP PUSH1 0x60 PUSH2 0x17BF DUP8 DUP3 DUP9 ADD PUSH2 0x1604 JUMP JUMPDEST SWAP2 POP POP SWAP3 SWAP6 SWAP2 SWAP5 POP SWAP3 POP JUMP JUMPDEST PUSH1 0x0 DUP1 PUSH1 0x40 DUP4 DUP6 SUB SLT ISZERO PUSH2 0x17E2 JUMPI PUSH2 0x17E1 PUSH2 0x1580 JUMP JUMPDEST JUMPDEST PUSH1 0x0 PUSH2 0x17F0 DUP6 DUP3 DUP7 ADD PUSH2 0x15CE JUMP JUMPDEST SWAP3 POP POP PUSH1 0x20 PUSH2 0x1801 DUP6 DUP3 DUP7 ADD PUSH2 0x15CE JUMP JUMPDEST SWAP2 POP POP SWAP3 POP SWAP3 SWAP1 POP JUMP JUMPDEST PUSH32 0x46726F6D20646F65736E2774206861766520656E6F7567682062616C616E6365 PUSH1 0x0 DUP3 ADD MSTORE POP JUMP JUMPDEST PUSH1 0x0 PUSH2 0x1841 PUSH1 0x20 DUP4 PUSH2 0x14D9 JUMP JUMPDEST SWAP2 POP PUSH2 0x184C DUP3 PUSH2 0x180B JUMP JUMPDEST PUSH1 0x20 DUP3 ADD SWAP1 POP SWAP2 SWAP1 POP JUMP JUMPDEST PUSH1 0x0 PUSH1 0x20 DUP3 ADD SWAP1 POP DUP2 DUP2 SUB PUSH1 0x0 DUP4 ADD MSTORE PUSH2 0x1870 DUP2 PUSH2 0x1834 JUMP JUMPDEST SWAP1 POP SWAP2 SWAP1 POP JUMP JUMPDEST PUSH32 0x4E6F7420616C6C6F77656420746F207370656E642074686973206D7563680000 PUSH1 0x0 DUP3 ADD MSTORE POP JUMP JUMPDEST PUSH1 0x0 PUSH2 0x18AD PUSH1 0x1E DUP4 PUSH2 0x14D9 JUMP JUMPDEST SWAP2 POP PUSH2 0x18B8 DUP3 PUSH2 0x1877 JUMP JUMPDEST PUSH1 0x20 DUP3 ADD SWAP1 POP SWAP2 SWAP1 POP JUMP JUMPDEST PUSH1 0x0 PUSH1 0x20 DUP3 ADD SWAP1 POP DUP2 DUP2 SUB PUSH1 0x0 DUP4 ADD MSTORE PUSH2 0x18DC DUP2 PUSH2 0x18A0 JUMP JUMPDEST SWAP1 POP SWAP2 SWAP1 POP JUMP JUMPDEST PUSH32 0x6D73672E73656E64657220646F65736E2774206861766520656E6F7567682062 PUSH1 0x0 DUP3 ADD MSTORE PUSH32 0x616C616E63650000000000000000000000000000000000000000000000000000 PUSH1 0x20 DUP3 ADD MSTORE POP JUMP JUMPDEST PUSH1 0x0 PUSH2 0x193F PUSH1 0x26 DUP4 PUSH2 0x14D9 JUMP JUMPDEST SWAP2 POP PUSH2 0x194A DUP3 PUSH2 0x18E3 JUMP JUMPDEST PUSH1 0x40 DUP3 ADD SWAP1 POP SWAP2 SWAP1 POP JUMP JUMPDEST PUSH1 0x0 PUSH1 0x20 DUP3 ADD SWAP1 POP DUP2 DUP2 SUB PUSH1 0x0 DUP4 ADD MSTORE PUSH2 0x196E DUP2 PUSH2 0x1932 JUMP JUMPDEST SWAP1 POP SWAP2 SWAP1 POP JUMP JUMPDEST PUSH32 0x4E487B7100000000000000000000000000000000000000000000000000000000 PUSH1 0x0 MSTORE PUSH1 0x1 PUSH1 0x4 MSTORE PUSH1 0x24 PUSH1 0x0 REVERT JUMPDEST PUSH32 0x4E487B7100000000000000000000000000000000000000000000000000000000 PUSH1 0x0 MSTORE PUSH1 0x11 PUSH1 0x4 MSTORE PUSH1 0x24 PUSH1 0x0 REVERT JUMPDEST PUSH1 0x0 PUSH2 0x19DE DUP3 PUSH2 0x15E3 JUMP JUMPDEST SWAP2 POP PUSH2 0x19E9 DUP4 PUSH2 0x15E3 JUMP JUMPDEST SWAP3 POP DUP3 DUP3 SUB SWAP1 POP DUP2 DUP2 GT ISZERO PUSH2 0x1A01 JUMPI PUSH2 0x1A00 PUSH2 0x19A4 JUMP JUMPDEST JUMPDEST SWAP3 SWAP2 POP POP JUMP JUMPDEST PUSH1 0x0 PUSH2 0x1A12 DUP3 PUSH2 0x15E3 JUMP JUMPDEST SWAP2 POP PUSH2 0x1A1D DUP4 PUSH2 0x15E3 JUMP JUMPDEST SWAP3 POP DUP3 DUP3 ADD SWAP1 POP DUP1 DUP3 GT ISZERO PUSH2 0x1A35 JUMPI PUSH2 0x1A34 PUSH2 0x19A4 JUMP JUMPDEST JUMPDEST SWAP3 SWAP2 POP POP JUMP INVALID LOG2 PUSH5 0x6970667358 0x22 SLT KECCAK256 SSTORE 0xE5 0xBD MSIZE 0x24 SELFBALANCE 0xB3 0xBD SWAP7 BASEFEE ADD 0xDF 0xD4 0xB4 0xD6 0xD0 PREVRANDAO PUSH23 0x6EE2C9EDF28EC5B03CFAEA41F91764736F6C6343000812 STOP CALLER "
				},
				"gasEstimates": {
					"creation": {
						"codeDepositCost": "1353800",
						"executionCost": "49993",
						"totalCost": "1403793"
					},
					"external": {
						"DTapprove(address,address,uint256)": "infinite",
						"DTtransferFrom(address,address,address,uint256)": "infinite",
						"allowance(address,address)": "infinite",
						"approve(address,uint256)": "infinite",
						"balanceOf(address)": "2930",
						"decimals()": "380",
						"finishMinting()": "29783",
						"getOwner()": "2617",
						"mint(address,uint256)": "infinite",
						"mintingFinished()": "2492",
						"name()": "infinite",
						"owner()": "2631",
						"symbol()": "infinite",
						"totalSupply()": "2527",
						"transfer(address,uint256)": "infinite",
						"transferFrom(address,address,uint256)": "infinite"
					}
				},
				"methodIdentifiers": {
					"DTapprove(address,address,uint256)": "f0cf209d",
					"DTtransferFrom(address,address,address,uint256)": "db05ea05",
					"allowance(address,address)": "dd62ed3e",
					"approve(address,uint256)": "095ea7b3",
					"balanceOf(address)": "70a08231",
					"decimals()": "313ce567",
					"finishMinting()": "7d64bcb4",
					"getOwner()": "893d20e8",
					"mint(address,uint256)": "40c10f19",
					"mintingFinished()": "05d2035b",
					"name()": "06fdde03",
					"owner()": "8da5cb5b",
					"symbol()": "95d89b41",
					"totalSupply()": "18160ddd",
					"transfer(address,uint256)": "a9059cbb",
					"transferFrom(address,address,uint256)": "23b872dd"
				}
			},
			"storageLayout": {
				"storage": [
					{
						"astId": 104,
						"contract": "src/ERC20.sol:ERC20",
						"label": "mintingFinished",
						"offset": 0,
						"slot": "0",
						"type": "t_bool"
					},
					{
						"astId": 108,
						"contract": "src/ERC20.sol:ERC20",
						"label": "owner",
						"offset": 1,
						"slot": "0",
						"type": "t_address"
					},
					{
						"astId": 114,
						"contract": "src/ERC20.sol:ERC20",
						"label": "allowed",
						"offset": 0,
						"slot": "1",
						"type": "t_mapping(t_address,t_mapping(t_address,t_uint256))"
					},
					{
						"astId": 118,
						"contract": "src/ERC20.sol:ERC20",
						"label": "balances",
						"offset": 0,
						"slot": "2",
						"type": "t_mapping(t_address,t_uint256)"
					},
					{
						"astId": 129,
						"contract": "src/ERC20.sol:ERC20",
						"label": "totalSupply_",
						"offset": 0,
						"slot": "3",
						"type": "t_uint256"
					}
				],
				"types": {
					"t_address": {
						"encoding": "inplace",
						"label": "address",
						"numberOfBytes": "20"
					},
					"t_bool": {
						"encoding": "inplace",
						"label": "bool",
						"numberOfBytes": "1"
					},
					"t_mapping(t_address,t_mapping(t_address,t_uint256))": {
						"encoding": "mapping",
						"key": "t_address",
						"label": "mapping(address => mapping(address => uint256))",
						"numberOfBytes": "32",
						"value": "t_mapping(t_address,t_uint256)"
					},
					"t_mapping(t_address,t_uint256)": {
						"encoding": "mapping",
						"key": "t_address",
						"label": "mapping(address => uint256)",
						"numberOfBytes": "32",
						"value": "t_uint256"
					},
					"t_uint256": {
						"encoding": "inplace",
						"label": "uint256",
						"numberOfBytes": "32"
					}
				}
			},
			"userdoc": {
				"kind": "user",
				"methods": {},
				"version": 1
			}
		}
	}
}